{
  "contractName": "InterfaceContract",
  "abi": [
    {
      "anonymous": false,
      "inputs": [
        {
          "indexed": false,
          "internalType": "address",
          "name": "sender",
          "type": "address"
        },
        {
          "indexed": false,
          "internalType": "address",
          "name": "admin",
          "type": "address"
        }
      ],
      "name": "OnlyAdminError",
      "type": "event"
    },
    {
      "anonymous": false,
      "inputs": [
        {
          "indexed": false,
          "internalType": "string",
          "name": "msg",
          "type": "string"
        }
      ],
      "name": "interfaceAddFriendEvent",
      "type": "event"
    },
    {
      "anonymous": false,
      "inputs": [
        {
          "indexed": false,
          "internalType": "string",
          "name": "msg",
          "type": "string"
        }
      ],
      "name": "interfaceGetAccountByAddressEvent",
      "type": "event"
    },
    {
      "anonymous": false,
      "inputs": [
        {
          "indexed": false,
          "internalType": "string",
          "name": "msg",
          "type": "string"
        }
      ],
      "name": "interfaceGetMyAccountEvent",
      "type": "event"
    },
    {
      "anonymous": false,
      "inputs": [
        {
          "indexed": false,
          "internalType": "string",
          "name": "msg",
          "type": "string"
        }
      ],
      "name": "interfaceGetProfileByAccountEvent",
      "type": "event"
    },
    {
      "anonymous": false,
      "inputs": [
        {
          "indexed": false,
          "internalType": "string",
          "name": "msg",
          "type": "string"
        }
      ],
      "name": "interfaceGetProfileByAddressEvent",
      "type": "event"
    },
    {
      "anonymous": false,
      "inputs": [
        {
          "indexed": false,
          "internalType": "string",
          "name": "msg",
          "type": "string"
        }
      ],
      "name": "interfaceJoinEvent",
      "type": "event"
    },
    {
      "anonymous": false,
      "inputs": [
        {
          "indexed": false,
          "internalType": "string",
          "name": "msg",
          "type": "string"
        }
      ],
      "name": "interfaceRegisterUserEvent",
      "type": "event"
    },
    {
      "anonymous": false,
      "inputs": [
        {
          "indexed": false,
          "internalType": "string",
          "name": "msg",
          "type": "string"
        }
      ],
      "name": "interfaceSendArticlesByAccountEvent",
      "type": "event"
    },
    {
      "anonymous": false,
      "inputs": [
        {
          "indexed": false,
          "internalType": "string",
          "name": "msg",
          "type": "string"
        }
      ],
      "name": "interfaceSendMessageByAccountEvent",
      "type": "event"
    },
    {
      "inputs": [],
      "name": "interfaceJoin",
      "outputs": [],
      "stateMutability": "nonpayable",
      "type": "function"
    },
    {
      "inputs": [
        {
          "internalType": "address",
          "name": "_userAddress",
          "type": "address"
        }
      ],
      "name": "interfaceGetAccountByAddress",
      "outputs": [
        {
          "internalType": "address",
          "name": "",
          "type": "address"
        }
      ],
      "stateMutability": "nonpayable",
      "type": "function"
    },
    {
      "inputs": [],
      "name": "interfaceGetMyAccount",
      "outputs": [
        {
          "internalType": "address",
          "name": "",
          "type": "address"
        }
      ],
      "stateMutability": "nonpayable",
      "type": "function"
    },
    {
      "inputs": [
        {
          "internalType": "address",
          "name": "_account",
          "type": "address"
        }
      ],
      "name": "interfaceGetProfileByAccount",
      "outputs": [
        {
          "components": [
            {
              "internalType": "string",
              "name": "name",
              "type": "string"
            },
            {
              "internalType": "string",
              "name": "email",
              "type": "string"
            },
            {
              "internalType": "uint256",
              "name": "age",
              "type": "uint256"
            },
            {
              "internalType": "address",
              "name": "wallet",
              "type": "address"
            },
            {
              "internalType": "bool",
              "name": "isVerified",
              "type": "bool"
            },
            {
              "internalType": "bool",
              "name": "isDisabled",
              "type": "bool"
            }
          ],
          "internalType": "struct DataContract.User",
          "name": "",
          "type": "tuple"
        }
      ],
      "stateMutability": "nonpayable",
      "type": "function"
    },
    {
      "inputs": [
        {
          "internalType": "address",
          "name": "_address",
          "type": "address"
        }
      ],
      "name": "interfaceGetProfileByAddress",
      "outputs": [
        {
          "components": [
            {
              "internalType": "string",
              "name": "name",
              "type": "string"
            },
            {
              "internalType": "string",
              "name": "email",
              "type": "string"
            },
            {
              "internalType": "uint256",
              "name": "age",
              "type": "uint256"
            },
            {
              "internalType": "address",
              "name": "wallet",
              "type": "address"
            },
            {
              "internalType": "bool",
              "name": "isVerified",
              "type": "bool"
            },
            {
              "internalType": "bool",
              "name": "isDisabled",
              "type": "bool"
            }
          ],
          "internalType": "struct DataContract.User",
          "name": "",
          "type": "tuple"
        }
      ],
      "stateMutability": "nonpayable",
      "type": "function"
    },
    {
      "inputs": [
        {
          "internalType": "string",
          "name": "name",
          "type": "string"
        },
        {
          "internalType": "string",
          "name": "email",
          "type": "string"
        },
        {
          "internalType": "uint256",
          "name": "age",
          "type": "uint256"
        }
      ],
      "name": "interfaceRegisterUser",
      "outputs": [],
      "stateMutability": "nonpayable",
      "type": "function"
    },
    {
      "inputs": [
        {
          "internalType": "address",
          "name": "_myAccount",
          "type": "address"
        },
        {
          "internalType": "address",
          "name": "_friendAccount",
          "type": "address"
        },
        {
          "internalType": "string",
          "name": "message",
          "type": "string"
        }
      ],
      "name": "interfaceAddFriend",
      "outputs": [],
      "stateMutability": "nonpayable",
      "type": "function"
    },
    {
      "inputs": [
        {
          "internalType": "address",
          "name": "_account",
          "type": "address"
        }
      ],
      "name": "interfaceGetFriendsByAccount",
      "outputs": [
        {
          "internalType": "address[]",
          "name": "result",
          "type": "address[]"
        }
      ],
      "stateMutability": "view",
      "type": "function",
      "constant": true
    },
    {
      "inputs": [
        {
          "internalType": "address",
          "name": "_account",
          "type": "address"
        }
      ],
      "name": "interfaceGetFriendRequestsByAccount",
      "outputs": [
        {
          "internalType": "address[]",
          "name": "result",
          "type": "address[]"
        }
      ],
      "stateMutability": "view",
      "type": "function",
      "constant": true
    },
    {
      "inputs": [
        {
          "internalType": "address",
          "name": "_senderAccount",
          "type": "address"
        },
        {
          "internalType": "address",
          "name": "_recipientAccount",
          "type": "address"
        },
        {
          "internalType": "string",
          "name": "_content",
          "type": "string"
        }
      ],
      "name": "interfaceSendMessageByAccount",
      "outputs": [],
      "stateMutability": "nonpayable",
      "type": "function"
    },
    {
      "inputs": [
        {
          "internalType": "address",
          "name": "_myAccount",
          "type": "address"
        }
      ],
      "name": "interfaceGetMsgAccountByAccount",
      "outputs": [
        {
          "internalType": "address[]",
          "name": "result",
          "type": "address[]"
        }
      ],
      "stateMutability": "view",
      "type": "function",
      "constant": true
    },
    {
      "inputs": [
        {
          "internalType": "address",
          "name": "_myAccount",
          "type": "address"
        },
        {
          "internalType": "address",
          "name": "_senderAccount",
          "type": "address"
        }
      ],
      "name": "interfaceGetMessagesByAccount",
      "outputs": [
        {
          "components": [
            {
              "internalType": "address",
              "name": "sender",
              "type": "address"
            },
            {
              "internalType": "string",
              "name": "content",
              "type": "string"
            },
            {
              "internalType": "uint256",
              "name": "timestamp",
              "type": "uint256"
            }
          ],
          "internalType": "struct DataContract.Message[]",
          "name": "result",
          "type": "tuple[]"
        }
      ],
      "stateMutability": "view",
      "type": "function",
      "constant": true
    },
    {
      "inputs": [
        {
          "internalType": "address",
          "name": "_senderAccount",
          "type": "address"
        },
        {
          "internalType": "string",
          "name": "_title",
          "type": "string"
        },
        {
          "internalType": "string",
          "name": "_content",
          "type": "string"
        }
      ],
      "name": "interfaceSendArticlesByAccount",
      "outputs": [],
      "stateMutability": "nonpayable",
      "type": "function"
    },
    {
      "inputs": [
        {
          "internalType": "address",
          "name": "_account",
          "type": "address"
        }
      ],
      "name": "interfaceGetArticlesByAccount",
      "outputs": [
        {
          "components": [
            {
              "internalType": "string",
              "name": "title",
              "type": "string"
            },
            {
              "internalType": "string",
              "name": "article",
              "type": "string"
            },
            {
              "internalType": "uint256",
              "name": "timestamp",
              "type": "uint256"
            },
            {
              "internalType": "bool",
              "name": "isDisplay",
              "type": "bool"
            }
          ],
          "internalType": "struct DataContract.Article[]",
          "name": "result",
          "type": "tuple[]"
        }
      ],
      "stateMutability": "view",
      "type": "function",
      "constant": true
    }
  ],
  "bytecode": "0x608060405234801561001057600080fd5b5033600a60006101000a81548173ffffffffffffffffffffffffffffffffffffffff021916908373ffffffffffffffffffffffffffffffffffffffff1602179055506139ad806100616000396000f3fe608060405234801561001057600080fd5b50600436106100ea5760003560e01c80637a51837f1161008c5780639ce5b59f116100665780639ce5b59f1461027f578063d7e0791614610289578063f38586b7146102b9578063fd04ffef146102e9576100ea565b80637a51837f146101ef57806384e002651461021f57806388caf28d1461024f576100ea565b806333bc1b91116100c857806333bc1b91146101575780635065ebe3146101875780636791fd6b146101a35780636df0afa9146101bf576100ea565b8063063d0f81146100ef57806313447fbd1461010b5780631847a4a414610127575b600080fd5b6101096004803603810190610104919061225c565b610307565b005b61012560048036038101906101209190612345565b61034d565b005b610141600480360381019061013c91906123b4565b610392565b60405161014e91906125a3565b60405180910390f35b610171600480360381019061016c91906125c5565b6103a6565b60405161017e91906126a1565b60405180910390f35b6101a1600480360381019061019c9190612345565b6103b8565b005b6101bd60048036038101906101b891906126c3565b6103fd565b005b6101d960048036038101906101d491906125c5565b610442565b6040516101e691906127f9565b60405180910390f35b610209600480360381019061020491906125c5565b610495565b60405161021691906126a1565b60405180910390f35b610239600480360381019061023491906125c5565b6104a7565b60405161024691906127f9565b60405180910390f35b610269600480360381019061026491906125c5565b6104fa565b60405161027691906126a1565b60405180910390f35b61028761050c565b005b6102a3600480360381019061029e91906125c5565b61054d565b6040516102b09190612947565b60405180910390f35b6102d360048036038101906102ce91906125c5565b61055f565b6040516102e09190612978565b60405180910390f35b6102f16105ab565b6040516102fe9190612978565b60405180910390f35b610313338484846105f5565b7f152b777a0558316496d3cf44d3b429642341d714279a563874bf32a0cfd2c1d160405161034090612a16565b60405180910390a1505050565b61035883838361065a565b7ff51cdf4aeec662ff29950ccbda3387fd0040bf6c6a8e9d378e4f15c9afc381d360405161038590612aa8565b60405180910390a1505050565b606061039e8383610770565b905092915050565b60606103b182610784565b9050919050565b6103c3838383610796565b7f34219118484756c593289e0014eec1e43e32f138cee0b9df592418c3239832476040516103f090612b3a565b60405180910390a1505050565b6104088383836107ef565b7fe6bf02b841d3e0738923d75fe8456f6dcfa21cf402094fca5ce12d85f208899460405161043590612bcc565b60405180910390a1505050565b61044a61207c565b6000610455836107ff565b90507f9edc4c061d3a37fa170bea063bed2cd1e1198da759216bfcdf59d74c5ce8dc1460405161048490612c5e565b60405180910390a180915050919050565b60606104a0826108b5565b9050919050565b6104af61207c565b60006104ba836108c7565b90507f81fcf8fee9f0c6d964f962ebc504306a43e721e48647a6fed58ab7258cab91d36040516104e990612cf0565b60405180910390a180915050919050565b606061050582610927565b9050919050565b61051533610939565b507ffd23d12f0075880244a707584c07c74c3ee39e37b4c9fb038b97a39e278b73bc60405161054390612d82565b60405180910390a1565b6060610558826109c8565b9050919050565b60008061056b836109da565b90507fde833ac95bd532fc1024dae78cf2b0b9f0267b902826e4e4db4259d4084a169460405161059a90612e14565b60405180910390a180915050919050565b6000806105b7336109da565b90507f58f6cac518b0f408b2ee263a6a7036e8e213858b88c83ba49d4acf5d563b8cd06040516105e690612ea6565b60405180910390a18091505090565b6105fe84610a34565b61063d576040517f08c379a000000000000000000000000000000000000000000000000000000000815260040161063490612f5e565b60405180910390fd5b61064984848484610ada565b610654846001610c98565b50505050565b600083905061066883610d5a565b6106a7576040517f08c379a000000000000000000000000000000000000000000000000000000000815260040161069e90612ff0565b60405180910390fd5b8073ffffffffffffffffffffffffffffffffffffffff168373ffffffffffffffffffffffffffffffffffffffff1603610715576040517f08c379a000000000000000000000000000000000000000000000000000000000815260040161070c90613082565b60405180910390fd5b61071f8184610e64565b1561075f576040517f08c379a000000000000000000000000000000000000000000000000000000000815260040161075690613114565b60405180910390fd5b61076a818484610faf565b50505050565b606061077c8383611200565b905092915050565b606061078f826113ce565b9050919050565b6107a08383610e64565b6107df576040517f08c379a00000000000000000000000000000000000000000000000000000000081526004016107d6906131cc565b60405180910390fd5b6107ea83838361149b565b505050565b6107fa83838361179c565b505050565b61080761207c565b61081082610a34565b61084f576040517f08c379a000000000000000000000000000000000000000000000000000000000815260040161084690613284565b60405180910390fd5b6108588261188b565b610897576040517f08c379a000000000000000000000000000000000000000000000000000000000815260040161088e9061333c565b60405180910390fd5b60006108a2836119fa565b90506108ad81611a67565b915050919050565b60606108c082611c7a565b9050919050565b6108cf61207c565b6108d882610d5a565b610917576040517f08c379a000000000000000000000000000000000000000000000000000000000815260040161090e906133f4565b60405180910390fd5b61092082611a67565b9050919050565b606061093282611d47565b9050919050565b600061094482610a34565b15610984576040517f08c379a000000000000000000000000000000000000000000000000000000000815260040161097b90613486565b60405180910390fd5b6000334260405160200161099992919061350f565b6040516020818303038152906040528051906020012060001c90506109be8382611e14565b6001915050919050565b60606109d382611e95565b9050919050565b60006109e582610a34565b610a24576040517f08c379a0000000000000000000000000000000000000000000000000000000008152600401610a1b906135d3565b60405180910390fd5b610a2d826119fa565b9050919050565b60008073ffffffffffffffffffffffffffffffffffffffff166000808473ffffffffffffffffffffffffffffffffffffffff1673ffffffffffffffffffffffffffffffffffffffff16815260200190815260200160002060009054906101000a900473ffffffffffffffffffffffffffffffffffffffff1673ffffffffffffffffffffffffffffffffffffffff1614610ad05760019050610ad5565b600090505b919050565b60008060008673ffffffffffffffffffffffffffffffffffffffff1673ffffffffffffffffffffffffffffffffffffffff16815260200190815260200160002060009054906101000a900473ffffffffffffffffffffffffffffffffffffffff169050600085905060006040518060c001604052808781526020018681526020018581526020018373ffffffffffffffffffffffffffffffffffffffff16815260200160011515815260200160001515815250905080600160008573ffffffffffffffffffffffffffffffffffffffff1673ffffffffffffffffffffffffffffffffffffffff1681526020019081526020016000206000820151816000019081610be491906137ff565b506020820151816001019081610bfa91906137ff565b506040820151816002015560608201518160030160006101000a81548173ffffffffffffffffffffffffffffffffffffffff021916908373ffffffffffffffffffffffffffffffffffffffff16021790555060808201518160030160146101000a81548160ff02191690831515021790555060a08201518160030160156101000a81548160ff02191690831515021790555090505050505050505050565b60008060008473ffffffffffffffffffffffffffffffffffffffff1673ffffffffffffffffffffffffffffffffffffffff16815260200190815260200160002060009054906101000a900473ffffffffffffffffffffffffffffffffffffffff16905081600160008373ffffffffffffffffffffffffffffffffffffffff1673ffffffffffffffffffffffffffffffffffffffff16815260200190815260200160002060030160146101000a81548160ff021916908315150217905550505050565b60008073ffffffffffffffffffffffffffffffffffffffff16600160008473ffffffffffffffffffffffffffffffffffffffff1673ffffffffffffffffffffffffffffffffffffffff16815260200190815260200160002060030160009054906101000a900473ffffffffffffffffffffffffffffffffffffffff1673ffffffffffffffffffffffffffffffffffffffff16141580610e4c575060011515600160008473ffffffffffffffffffffffffffffffffffffffff1673ffffffffffffffffffffffffffffffffffffffff16815260200190815260200160002060030160149054906101000a900460ff161515145b15610e5a5760019050610e5f565b600090505b919050565b600060011515600260008573ffffffffffffffffffffffffffffffffffffffff1673ffffffffffffffffffffffffffffffffffffffff16815260200190815260200160002060008473ffffffffffffffffffffffffffffffffffffffff1673ffffffffffffffffffffffffffffffffffffffff16815260200190815260200160002060000160009054906101000a900460ff161515148015610f96575060011515600260008473ffffffffffffffffffffffffffffffffffffffff1673ffffffffffffffffffffffffffffffffffffffff16815260200190815260200160002060008573ffffffffffffffffffffffffffffffffffffffff1673ffffffffffffffffffffffffffffffffffffffff16815260200190815260200160002060000160009054906101000a900460ff161515145b15610fa45760019050610fa9565b600090505b92915050565b6000839050604051806080016040528060011515815260200142815260200183815260200160001515815250600260008373ffffffffffffffffffffffffffffffffffffffff1673ffffffffffffffffffffffffffffffffffffffff16815260200190815260200160002060008573ffffffffffffffffffffffffffffffffffffffff1673ffffffffffffffffffffffffffffffffffffffff16815260200190815260200160002060008201518160000160006101000a81548160ff02191690831515021790555060208201518160010155604082015181600201908161109691906137ff565b5060608201518160030160006101000a81548160ff021916908315150217905550905050600360008273ffffffffffffffffffffffffffffffffffffffff1673ffffffffffffffffffffffffffffffffffffffff168152602001908152602001600020839080600181540180825580915050600190039060005260206000200160009091909190916101000a81548173ffffffffffffffffffffffffffffffffffffffff021916908373ffffffffffffffffffffffffffffffffffffffff160217905550600460008473ffffffffffffffffffffffffffffffffffffffff1673ffffffffffffffffffffffffffffffffffffffff168152602001908152602001600020819080600181540180825580915050600190039060005260206000200160009091909190916101000a81548173ffffffffffffffffffffffffffffffffffffffff021916908373ffffffffffffffffffffffffffffffffffffffff16021790555050505050565b6060600660008373ffffffffffffffffffffffffffffffffffffffff1673ffffffffffffffffffffffffffffffffffffffff16815260200190815260200160002060008473ffffffffffffffffffffffffffffffffffffffff1673ffffffffffffffffffffffffffffffffffffffff168152602001908152602001600020805480602002602001604051908101604052809291908181526020016000905b828210156113c257838290600052602060002090600302016040518060600160405290816000820160009054906101000a900473ffffffffffffffffffffffffffffffffffffffff1673ffffffffffffffffffffffffffffffffffffffff1673ffffffffffffffffffffffffffffffffffffffff16815260200160018201805461132790613622565b80601f016020809104026020016040519081016040528092919081815260200182805461135390613622565b80156113a05780601f10611375576101008083540402835291602001916113a0565b820191906000526020600020905b81548152906001019060200180831161138357829003601f168201915b505050505081526020016002820154815250508152602001906001019061129e565b50505050905092915050565b6060600360008373ffffffffffffffffffffffffffffffffffffffff1673ffffffffffffffffffffffffffffffffffffffff16815260200190815260200160002080548060200260200160405190810160405280929190818152602001828054801561148f57602002820191906000526020600020905b8160009054906101000a900473ffffffffffffffffffffffffffffffffffffffff1673ffffffffffffffffffffffffffffffffffffffff1681526020019060010190808311611445575b50505050509050919050565b600060405180606001604052808573ffffffffffffffffffffffffffffffffffffffff168152602001838152602001428152509050600660008573ffffffffffffffffffffffffffffffffffffffff1673ffffffffffffffffffffffffffffffffffffffff16815260200190815260200160002060008473ffffffffffffffffffffffffffffffffffffffff1673ffffffffffffffffffffffffffffffffffffffff16815260200190815260200160002081908060018154018082558091505060019003906000526020600020906003020160009091909190915060008201518160000160006101000a81548173ffffffffffffffffffffffffffffffffffffffff021916908373ffffffffffffffffffffffffffffffffffffffff16021790555060208201518160010190816115d291906137ff565b5060408201518160020155505060005b600760008573ffffffffffffffffffffffffffffffffffffffff1673ffffffffffffffffffffffffffffffffffffffff168152602001908152602001600020805490508110156116f4578473ffffffffffffffffffffffffffffffffffffffff16600760008673ffffffffffffffffffffffffffffffffffffffff1673ffffffffffffffffffffffffffffffffffffffff1681526020019081526020016000208281548110611694576116936138d1565b5b9060005260206000200160009054906101000a900473ffffffffffffffffffffffffffffffffffffffff1673ffffffffffffffffffffffffffffffffffffffff16036116e1575050611797565b80806116ec9061392f565b9150506115e2565b50600760008473ffffffffffffffffffffffffffffffffffffffff1673ffffffffffffffffffffffffffffffffffffffff168152602001908152602001600020849080600181540180825580915050600190039060005260206000200160009091909190916101000a81548173ffffffffffffffffffffffffffffffffffffffff021916908373ffffffffffffffffffffffffffffffffffffffff160217905550505b505050565b60006040518060800160405280848152602001838152602001428152602001600115158152509050600560008573ffffffffffffffffffffffffffffffffffffffff1673ffffffffffffffffffffffffffffffffffffffff168152602001908152602001600020819080600181540180825580915050600190039060005260206000209060040201600090919091909150600082015181600001908161184291906137ff565b50602082015181600101908161185891906137ff565b506040820151816002015560608201518160030160006101000a81548160ff021916908315150217905550505050505050565b6000806000808473ffffffffffffffffffffffffffffffffffffffff1673ffffffffffffffffffffffffffffffffffffffff16815260200190815260200160002060009054906101000a900473ffffffffffffffffffffffffffffffffffffffff169050600073ffffffffffffffffffffffffffffffffffffffff16600160008373ffffffffffffffffffffffffffffffffffffffff1673ffffffffffffffffffffffffffffffffffffffff16815260200190815260200160002060030160009054906101000a900473ffffffffffffffffffffffffffffffffffffffff1673ffffffffffffffffffffffffffffffffffffffff161415806119e0575060011515600160008373ffffffffffffffffffffffffffffffffffffffff1673ffffffffffffffffffffffffffffffffffffffff16815260200190815260200160002060030160149054906101000a900460ff161515145b156119ef5760019150506119f5565b60009150505b919050565b6000806000808473ffffffffffffffffffffffffffffffffffffffff1673ffffffffffffffffffffffffffffffffffffffff16815260200190815260200160002060009054906101000a900473ffffffffffffffffffffffffffffffffffffffff16905080915050919050565b611a6f61207c565b600160008373ffffffffffffffffffffffffffffffffffffffff1673ffffffffffffffffffffffffffffffffffffffff1681526020019081526020016000206040518060c0016040529081600082018054611ac990613622565b80601f0160208091040260200160405190810160405280929190818152602001828054611af590613622565b8015611b425780601f10611b1757610100808354040283529160200191611b42565b820191906000526020600020905b815481529060010190602001808311611b2557829003601f168201915b50505050508152602001600182018054611b5b90613622565b80601f0160208091040260200160405190810160405280929190818152602001828054611b8790613622565b8015611bd45780601f10611ba957610100808354040283529160200191611bd4565b820191906000526020600020905b815481529060010190602001808311611bb757829003601f168201915b50505050508152602001600282015481526020016003820160009054906101000a900473ffffffffffffffffffffffffffffffffffffffff1673ffffffffffffffffffffffffffffffffffffffff1673ffffffffffffffffffffffffffffffffffffffff1681526020016003820160149054906101000a900460ff161515151581526020016003820160159054906101000a900460ff1615151515815250509050919050565b6060600760008373ffffffffffffffffffffffffffffffffffffffff1673ffffffffffffffffffffffffffffffffffffffff168152602001908152602001600020805480602002602001604051908101604052809291908181526020018280548015611d3b57602002820191906000526020600020905b8160009054906101000a900473ffffffffffffffffffffffffffffffffffffffff1673ffffffffffffffffffffffffffffffffffffffff1681526020019060010190808311611cf1575b50505050509050919050565b6060600460008373ffffffffffffffffffffffffffffffffffffffff1673ffffffffffffffffffffffffffffffffffffffff168152602001908152602001600020805480602002602001604051908101604052809291908181526020018280548015611e0857602002820191906000526020600020905b8160009054906101000a900473ffffffffffffffffffffffffffffffffffffffff1673ffffffffffffffffffffffffffffffffffffffff1681526020019060010190808311611dbe575b50505050509050919050565b806000808473ffffffffffffffffffffffffffffffffffffffff1673ffffffffffffffffffffffffffffffffffffffff16815260200190815260200160002060006101000a81548173ffffffffffffffffffffffffffffffffffffffff021916908373ffffffffffffffffffffffffffffffffffffffff1602179055505050565b6060600560008373ffffffffffffffffffffffffffffffffffffffff1673ffffffffffffffffffffffffffffffffffffffff168152602001908152602001600020805480602002602001604051908101604052809291908181526020016000905b828210156120715783829060005260206000209060040201604051806080016040529081600082018054611f2990613622565b80601f0160208091040260200160405190810160405280929190818152602001828054611f5590613622565b8015611fa25780601f10611f7757610100808354040283529160200191611fa2565b820191906000526020600020905b815481529060010190602001808311611f8557829003601f168201915b50505050508152602001600182018054611fbb90613622565b80601f0160208091040260200160405190810160405280929190818152602001828054611fe790613622565b80156120345780601f1061200957610100808354040283529160200191612034565b820191906000526020600020905b81548152906001019060200180831161201757829003601f168201915b50505050508152602001600282015481526020016003820160009054906101000a900460ff16151515158152505081526020019060010190611ef6565b505050509050919050565b6040518060c00160405280606081526020016060815260200160008152602001600073ffffffffffffffffffffffffffffffffffffffff1681526020016000151581526020016000151581525090565b6000604051905090565b600080fd5b600080fd5b600080fd5b600080fd5b6000601f19601f8301169050919050565b7f4e487b7100000000000000000000000000000000000000000000000000000000600052604160045260246000fd5b612133826120ea565b810181811067ffffffffffffffff82111715612152576121516120fb565b5b80604052505050565b60006121656120cc565b9050612171828261212a565b919050565b600067ffffffffffffffff821115612191576121906120fb565b5b61219a826120ea565b9050602081019050919050565b82818337600083830152505050565b60006121c96121c484612176565b61215b565b9050828152602081018484840111156121e5576121e46120e5565b5b6121f08482856121a7565b509392505050565b600082601f83011261220d5761220c6120e0565b5b813561221d8482602086016121b6565b91505092915050565b6000819050919050565b61223981612226565b811461224457600080fd5b50565b60008135905061225681612230565b92915050565b600080600060608486031215612275576122746120d6565b5b600084013567ffffffffffffffff811115612293576122926120db565b5b61229f868287016121f8565b935050602084013567ffffffffffffffff8111156122c0576122bf6120db565b5b6122cc868287016121f8565b92505060406122dd86828701612247565b9150509250925092565b600073ffffffffffffffffffffffffffffffffffffffff82169050919050565b6000612312826122e7565b9050919050565b61232281612307565b811461232d57600080fd5b50565b60008135905061233f81612319565b92915050565b60008060006060848603121561235e5761235d6120d6565b5b600061236c86828701612330565b935050602061237d86828701612330565b925050604084013567ffffffffffffffff81111561239e5761239d6120db565b5b6123aa868287016121f8565b9150509250925092565b600080604083850312156123cb576123ca6120d6565b5b60006123d985828601612330565b92505060206123ea85828601612330565b9150509250929050565b600081519050919050565b600082825260208201905092915050565b6000819050602082019050919050565b61242981612307565b82525050565b600081519050919050565b600082825260208201905092915050565b60005b8381101561246957808201518184015260208101905061244e565b60008484015250505050565b60006124808261242f565b61248a818561243a565b935061249a81856020860161244b565b6124a3816120ea565b840191505092915050565b6124b781612226565b82525050565b60006060830160008301516124d56000860182612420565b50602083015184820360208601526124ed8282612475565b915050604083015161250260408601826124ae565b508091505092915050565b600061251983836124bd565b905092915050565b6000602082019050919050565b6000612539826123f4565b61254381856123ff565b93508360208202850161255585612410565b8060005b858110156125915784840389528151612572858261250d565b945061257d83612521565b925060208a01995050600181019050612559565b50829750879550505050505092915050565b600060208201905081810360008301526125bd818461252e565b905092915050565b6000602082840312156125db576125da6120d6565b5b60006125e984828501612330565b91505092915050565b600081519050919050565b600082825260208201905092915050565b6000819050602082019050919050565b600061262a8383612420565b60208301905092915050565b6000602082019050919050565b600061264e826125f2565b61265881856125fd565b93506126638361260e565b8060005b8381101561269457815161267b888261261e565b975061268683612636565b925050600181019050612667565b5085935050505092915050565b600060208201905081810360008301526126bb8184612643565b905092915050565b6000806000606084860312156126dc576126db6120d6565b5b60006126ea86828701612330565b935050602084013567ffffffffffffffff81111561270b5761270a6120db565b5b612717868287016121f8565b925050604084013567ffffffffffffffff811115612738576127376120db565b5b612744868287016121f8565b9150509250925092565b60008115159050919050565b6127638161274e565b82525050565b600060c08301600083015184820360008601526127868282612475565b915050602083015184820360208601526127a08282612475565b91505060408301516127b560408601826124ae565b5060608301516127c86060860182612420565b5060808301516127db608086018261275a565b5060a08301516127ee60a086018261275a565b508091505092915050565b600060208201905081810360008301526128138184612769565b905092915050565b600081519050919050565b600082825260208201905092915050565b6000819050602082019050919050565b600060808301600083015184820360008601526128648282612475565b9150506020830151848203602086015261287e8282612475565b915050604083015161289360408601826124ae565b5060608301516128a6606086018261275a565b508091505092915050565b60006128bd8383612847565b905092915050565b6000602082019050919050565b60006128dd8261281b565b6128e78185612826565b9350836020820285016128f985612837565b8060005b85811015612935578484038952815161291685826128b1565b9450612921836128c5565b925060208a019950506001810190506128fd565b50829750879550505050505092915050565b6000602082019050818103600083015261296181846128d2565b905092915050565b61297281612307565b82525050565b600060208201905061298d6000830184612969565b92915050565b600082825260208201905092915050565b7f46756e6374696f6e20696e74657266616365526567697374657255736572206860008201527f6173206265656e2063616c6c6564000000000000000000000000000000000000602082015250565b6000612a00602e83612993565b9150612a0b826129a4565b604082019050919050565b60006020820190508181036000830152612a2f816129f3565b9050919050565b7f46756e6374696f6e20696e74657266616365416464467269656e64206861732060008201527f6265656e2063616c6c6564000000000000000000000000000000000000000000602082015250565b6000612a92602b83612993565b9150612a9d82612a36565b604082019050919050565b60006020820190508181036000830152612ac181612a85565b9050919050565b7f46756e6374696f6e20696e7465726661636553656e644d65737361676542794160008201527f63636f756e7420686173206265656e2063616c6c656400000000000000000000602082015250565b6000612b24603683612993565b9150612b2f82612ac8565b604082019050919050565b60006020820190508181036000830152612b5381612b17565b9050919050565b7f46756e6374696f6e20696e7465726661636553656e6441727469636c6573427960008201527f4163636f756e7420686173206265656e2063616c6c6564000000000000000000602082015250565b6000612bb6603783612993565b9150612bc182612b5a565b604082019050919050565b60006020820190508181036000830152612be581612ba9565b9050919050565b7f46756e6374696f6e20696e7465726661636547657450726f66696c654279416460008201527f647265737320686173206265656e2063616c6c65640000000000000000000000602082015250565b6000612c48603583612993565b9150612c5382612bec565b604082019050919050565b60006020820190508181036000830152612c7781612c3b565b9050919050565b7f46756e6374696f6e20696e7465726661636547657450726f66696c654279416360008201527f636f756e7420686173206265656e2063616c6c65640000000000000000000000602082015250565b6000612cda603583612993565b9150612ce582612c7e565b604082019050919050565b60006020820190508181036000830152612d0981612ccd565b9050919050565b7f46756e6374696f6e20696e746572666163654a6f696e20686173206265656e2060008201527f63616c6c65640000000000000000000000000000000000000000000000000000602082015250565b6000612d6c602683612993565b9150612d7782612d10565b604082019050919050565b60006020820190508181036000830152612d9b81612d5f565b9050919050565b7f46756e6374696f6e20696e746572666163654765744163636f756e744279416460008201527f647265737320686173206265656e2063616c6c65640000000000000000000000602082015250565b6000612dfe603583612993565b9150612e0982612da2565b604082019050919050565b60006020820190508181036000830152612e2d81612df1565b9050919050565b7f46756e6374696f6e20696e746572666163654765744d794163636f756e74206860008201527f6173206265656e2063616c6c6564000000000000000000000000000000000000602082015250565b6000612e90602e83612993565b9150612e9b82612e34565b604082019050919050565b60006020820190508181036000830152612ebf81612e83565b9050919050565b7f53657276697665436f6e74726163742d7265676973746572557365723a20546860008201527f652061646465727373206861736e2774206a6f696e65642c526567697374657260208201527f206661696c656400000000000000000000000000000000000000000000000000604082015250565b6000612f48604783612993565b9150612f5382612ec6565b606082019050919050565b60006020820190508181036000830152612f7781612f3b565b9050919050565b7f53657276697665436f6e74726163742d616464467269656e643a20467269656e60008201527f64206163636f756e74206e6f7420726567697374657265640000000000000000602082015250565b6000612fda603883612993565b9150612fe582612f7e565b604082019050919050565b6000602082019050818103600083015261300981612fcd565b9050919050565b7f53657276697665436f6e74726163742d616464467269656e643a2043616e6e6f60008201527f742061646420796f757273656c66206173206120667269656e64000000000000602082015250565b600061306c603a83612993565b915061307782613010565b604082019050919050565b6000602082019050818103600083015261309b8161305f565b9050919050565b7f53657276697665436f6e74726163742d616464467269656e643a2048652f536860008201527f6520697320616c726561647920667269656e6400000000000000000000000000602082015250565b60006130fe603383612993565b9150613109826130a2565b604082019050919050565b6000602082019050818103600083015261312d816130f1565b9050919050565b7f53657276697665436f6e74726163742d73656e644d6573736167653a20596f7560008201527f7220667269656e64207265717565737420686173206e6f74206265656e20617060208201527f70726f7665640000000000000000000000000000000000000000000000000000604082015250565b60006131b6604683612993565b91506131c182613134565b606082019050919050565b600060208201905081810360008301526131e5816131a9565b9050919050565b7f53657276697665436f6e74726163742d67657450726f66696c6542794164647260008201527f6573733a20546865206164646572737320796f752077616e7420746f2067657460208201527f2070726f66696c6520206861736e2774206a6f696e6564000000000000000000604082015250565b600061326e605783612993565b9150613279826131ec565b606082019050919050565b6000602082019050818103600083015261329d81613261565b9050919050565b7f53657276697665436f6e74726163742d67657450726f66696c6542794164647260008201527f6573733a20546865206164647265737320796f752077616e7420746f2067657460208201527f2070726f66696c6520206861736e277420726567697374656400000000000000604082015250565b6000613326605983612993565b9150613331826132a4565b606082019050919050565b6000602082019050818103600083015261335581613319565b9050919050565b7f53657276697665436f6e74726163742d67657450726f66696c6542794163636f60008201527f756e743a20546865206163636f756e7420796f752077616e7420746f2067657460208201527f2070726f66696c65206861736e27742072656769737465726564000000000000604082015250565b60006133de605a83612993565b91506133e98261335c565b606082019050919050565b6000602082019050818103600083015261340d816133d1565b9050919050565b7f53657276697665436f6e74726163742d6a6f696e3a207468697320616464726560008201527f737320686173206a6f696e656400000000000000000000000000000000000000602082015250565b6000613470602d83612993565b915061347b82613414565b604082019050919050565b6000602082019050818103600083015261349f81613463565b9050919050565b60008160601b9050919050565b60006134be826134a6565b9050919050565b60006134d0826134b3565b9050919050565b6134e86134e382612307565b6134c5565b82525050565b6000819050919050565b61350961350482612226565b6134ee565b82525050565b600061351b82856134d7565b60148201915061352b82846134f8565b6020820191508190509392505050565b7f53657276697665436f6e74726163742d6765744163636f756e7442794164647260008201527f6573733a20546865206164646572737320796f752077616e7420746f2067657460208201527f206163636f756e7420206861736e2774206a6f696e6564000000000000000000604082015250565b60006135bd605783612993565b91506135c88261353b565b606082019050919050565b600060208201905081810360008301526135ec816135b0565b9050919050565b7f4e487b7100000000000000000000000000000000000000000000000000000000600052602260045260246000fd5b6000600282049050600182168061363a57607f821691505b60208210810361364d5761364c6135f3565b5b50919050565b60008190508160005260206000209050919050565b60006020601f8301049050919050565b600082821b905092915050565b6000600883026136b57fffffffffffffffffffffffffffffffffffffffffffffffffffffffffffffffff82613678565b6136bf8683613678565b95508019841693508086168417925050509392505050565b6000819050919050565b60006136fc6136f76136f284612226565b6136d7565b612226565b9050919050565b6000819050919050565b613716836136e1565b61372a61372282613703565b848454613685565b825550505050565b600090565b61373f613732565b61374a81848461370d565b505050565b5b8181101561376e57613763600082613737565b600181019050613750565b5050565b601f8211156137b35761378481613653565b61378d84613668565b8101602085101561379c578190505b6137b06137a885613668565b83018261374f565b50505b505050565b600082821c905092915050565b60006137d6600019846008026137b8565b1980831691505092915050565b60006137ef83836137c5565b9150826002028217905092915050565b6138088261242f565b67ffffffffffffffff811115613821576138206120fb565b5b61382b8254613622565b613836828285613772565b600060209050601f8311600181146138695760008415613857578287015190505b61386185826137e3565b8655506138c9565b601f19841661387786613653565b60005b8281101561389f5784890151825560018201915060208501945060208101905061387a565b868310156138bc57848901516138b8601f8916826137c5565b8355505b6001600288020188555050505b505050505050565b7f4e487b7100000000000000000000000000000000000000000000000000000000600052603260045260246000fd5b7f4e487b7100000000000000000000000000000000000000000000000000000000600052601160045260246000fd5b600061393a82612226565b91507fffffffffffffffffffffffffffffffffffffffffffffffffffffffffffffffff820361396c5761396b613900565b5b60018201905091905056fea264697066735822122055d181c6cacd8b6366a3b0ba2cc67e1004f8d517971090378c38a2576db6fb1e64736f6c63430008130033",
  "immutableReferences": {},
  "source": "// SPDX-License-Identifier: GPL-3.0\r\npragma solidity >=0.7.0 <0.9.0;\r\n\r\n// \r\n// \r\n// return\r\n\r\n// +Event  (string msg)\r\n//revert\r\n// msg EventMsg: Function  has just been called\r\n\r\n//Return\r\n\r\n//  Solidity  Solidity \r\n//  Solidity \r\n// \r\n\r\n//msg.sender\r\n\r\n//reactaccountByAccountByAddress\r\n\r\n//.then catchevent\r\n\r\nimport \"../service/ServiceContract.sol\";\r\n\r\ncontract InterfaceContract is ServiceContract {\r\n\r\n    //\r\n\r\n    // event interfaceJoinEvent(\r\n    //     address indexed sender,\r\n    //     int256 status,\r\n    //     string message\r\n    // ); //0- 1- ,msssage - \r\n\r\n    // function interfaceJoin() public {\r\n    //     if (join(msg.sender)) {\r\n    //         emit interfaceJoinEvent(msg.sender, 1, \"eventMsg: join succeed\");\r\n    //     } else {\r\n    //         emit interfaceJoinEvent(msg.sender, 0, \"eventMsg: join failed\");\r\n    //     }\r\n    // }\r\n\r\n    // event interfaceGetAccountByAddressEvent(\r\n    //     address sender,\r\n    //     address userAdderss,\r\n    //     int256 status,\r\n    //     string message\r\n    // );\r\n\r\n    // function interfaceGetAccountByAddress(address _userAddress)\r\n    //     public\r\n    //     returns (address)\r\n    // {\r\n    //     //revert success\r\n    //     //\r\n    //     (address result, bool success) = getAccountByAddress(_userAddress);\r\n    //     if (success == false) {\r\n    //         emit interfaceGetAccountByAddressEvent(\r\n    //             msg.sender,\r\n    //             _userAddress,\r\n    //             0,\r\n    //             \"eventMsg: interfaceGetAccountByAddress failed\"\r\n    //         );\r\n\r\n    //     }\r\n    //     emit interfaceGetAccountByAddressEvent(\r\n    //         msg.sender,\r\n    //         _userAddress,\r\n    //         1,\r\n    //         \"eventMsg: interfaceGetAccountByAddress succeeded\"\r\n    //     );\r\n    //     return result;\r\n    // }\r\n\r\n    // function interfaceGetMyAccount() public returns (address) {\r\n    //     (address result, bool success) = getAccountByAddress(msg.sender);\r\n    //     // revert success\r\n    //     // \r\n    //     if (success == false) {\r\n    //         emit interfaceGetAccountByAddressEvent(\r\n    //             msg.sender,\r\n    //             msg.sender,\r\n    //             0,\r\n    //             \"eventMsg: interfaceGetAccountByAddress failed\"\r\n    //         );\r\n\r\n    //     }\r\n    //     emit interfaceGetAccountByAddressEvent(\r\n    //         msg.sender,\r\n    //         msg.sender,\r\n    //         1,\r\n    //         \"eventMsg: interfaceGetAccountByAddress succeeded\"\r\n    //     );\r\n    //     return result;\r\n    // }\r\n\r\n    // event interfaceRegisterUserEvent(address _sender,string name);\r\n    // function interfaceRegisterUser(\r\n    //     string memory name,\r\n    //     string memory email,\r\n    //     uint256 age,\r\n    //     address wallet\r\n    //     // bool isVerified\r\n    // ) public {\r\n    //     if(registerUser(msg.sender, name, email, age, wallet)){\r\n    //         emit interfaceRegisterUserEvent(msg.sender,name);\r\n    //     }\r\n    // }\r\n\r\n\r\n\r\n\r\n    event interfaceJoinEvent(\r\n        string msg\r\n    );\r\n\r\n    function interfaceJoin() public {\r\n        //metaMask/\r\n        join(msg.sender);\r\n        emit interfaceJoinEvent(\"Function interfaceJoin has been called\");\r\n    }\r\n\r\n\r\n    event interfaceGetAccountByAddressEvent(\r\n        string msg\r\n    );\r\n\r\n    function interfaceGetAccountByAddress(address _userAddress)\r\n    public\r\n    returns (address)\r\n    {\r\n        address result = getAccountByAddress(_userAddress);\r\n        emit interfaceGetAccountByAddressEvent(\"Function interfaceGetAccountByAddress has been called\");\r\n        return result;\r\n    }\r\n\r\n\r\n    event interfaceGetMyAccountEvent(\r\n        string msg\r\n    );\r\n\r\n    //msg.senderremix\r\n    function interfaceGetMyAccount() public returns (address) {  \r\n        address result = getAccountByAddress(msg.sender);\r\n\r\n        emit interfaceGetMyAccountEvent(\"Function interfaceGetMyAccount has been called\");\r\n        return result;\r\n    }\r\n\r\n\r\n\r\n    event interfaceGetProfileByAccountEvent(\r\n        string msg\r\n    );\r\n\r\n    function interfaceGetProfileByAccount(address _account) public returns (User memory) {\r\n\r\n        User memory result =  getProfileByAccount(_account);\r\n        emit interfaceGetProfileByAccountEvent(\"Function interfaceGetProfileByAccount has been called\");\r\n        return result;\r\n\r\n    }\r\n\r\n\r\n   \r\n\r\n    function interfaceGetProfileByAddress(address _address) public returns (User memory) {\r\n\r\n        User memory result =  getProfileByAddress(_address);\r\n        emit interfaceGetProfileByAddressEvent(\"Function interfaceGetProfileByAddress has been called\");\r\n        return result;\r\n\r\n    }\r\n\r\n     event interfaceGetProfileByAddressEvent(\r\n        string msg\r\n    );\r\n\r\n    \r\n\r\n    event interfaceRegisterUserEvent(\r\n        string msg\r\n    );\r\n    //name email agemsg.sender\r\n    function interfaceRegisterUser(\r\n        string memory name,\r\n        string memory email,\r\n        uint256 age\r\n    ) public {\r\n        //msg.sender\r\n        registerUser(msg.sender, name, email,age);\r\n\r\n        emit interfaceRegisterUserEvent(\"Function interfaceRegisterUser has been called\");\r\n    }\r\n\r\n\r\n    event interfaceAddFriendEvent(\r\n        string msg\r\n    );\r\n\r\n    function interfaceAddFriend(address _myAccount,address _friendAccount,string memory message) public {\r\n        addFriend(_myAccount,_friendAccount,message);\r\n        emit interfaceAddFriendEvent(\"Function interfaceAddFriend has been called\");\r\n\r\n    }\r\n\r\n    //\r\n    function interfaceGetFriendsByAccount(address _account) public  view returns(address[] memory result)\r\n    {\r\n        result = getFriendsByAccount(_account);\r\n    }\r\n\r\n    //\r\n    function interfaceGetFriendRequestsByAccount(address _account) public  view returns(address[] memory result)\r\n    {\r\n        result = getFriendRequestsByAccount(_account);\r\n    }\r\n\r\n\r\n\r\n\r\n    event interfaceSendMessageByAccountEvent(\r\n        string msg\r\n    );\r\n\r\n    function interfaceSendMessageByAccount(address _senderAccount,address _recipientAccount,string memory _content) public{\r\n        sendMessageByAccount(_senderAccount, _recipientAccount, _content);\r\n        emit interfaceSendMessageByAccountEvent(\"Function interfaceSendMessageByAccount has been called\");\r\n\r\n    }\r\n\r\n    //\r\n    function interfaceGetMsgAccountByAccount(address _myAccount) public  view returns(address[] memory result){\r\n        result =  getMsgAccountByAccount(_myAccount);\r\n    }\r\n\r\n    //\r\n    function interfaceGetMessagesByAccount(address _myAccount,address _senderAccount) public  view returns(Message[] memory result){\r\n\r\n\r\n        result = getMessagesByAccount(_myAccount, _senderAccount);\r\n    }\r\n\r\n\r\n     \r\n    \r\n    event interfaceSendArticlesByAccountEvent(\r\n        string msg\r\n    );\r\n\r\n    function interfaceSendArticlesByAccount(address _senderAccount,string memory _title,string memory _content) public{\r\n        sendArticlesByAccount(_senderAccount, _title, _content);\r\n        emit interfaceSendArticlesByAccountEvent(\"Function interfaceSendArticlesByAccount has been called\");\r\n\r\n    }\r\n\r\n    //\r\n    function interfaceGetArticlesByAccount(address _account) public  view returns(Article[] memory result){\r\n        result =  getArticlesByAccount(_account);\r\n    }\r\n\r\n\r\n\r\n\r\n\r\n\r\n\r\n\r\n\r\n\r\n\r\n\r\n\r\n\r\n\r\n\r\n\r\n\r\n\r\n\r\n\r\n\r\n\r\n\r\n\r\n\r\n\r\n\r\n}\r\n",
  "sourcePath": "C:\\Users\\Erwin\\IdeaProjects\\idea-react\\contracts\\interface\\InterfaceContract.sol",
  "compiler": {
    "name": "solc",
    "version": "0.8.19+commit.7dd6d404.Emscripten.clang"
  },
  "schemaVersion": "3.4.13",
  "updatedAt": "2023-05-30T01:48:18.681Z",
  "networkType": "ethereum",
  "devdoc": {
    "kind": "dev",
    "methods": {},
    "version": 1
  },
  "userdoc": {
    "kind": "user",
    "methods": {},
    "version": 1
  }
}