{
  "contractName": "InterfactContract",
  "abi": [
    {
      "anonymous": false,
      "inputs": [
        {
          "indexed": false,
          "internalType": "address",
          "name": "sender",
          "type": "address"
        },
        {
          "indexed": false,
          "internalType": "address",
          "name": "admin",
          "type": "address"
        }
      ],
      "name": "OnlyAdminError",
      "type": "event"
    },
    {
      "inputs": [],
      "name": "admin",
      "outputs": [
        {
          "internalType": "address",
          "name": "",
          "type": "address"
        }
      ],
      "stateMutability": "view",
      "type": "function"
    },
    {
      "inputs": [
        {
          "internalType": "address",
          "name": "",
          "type": "address"
        },
        {
          "internalType": "address",
          "name": "",
          "type": "address"
        }
      ],
      "name": "friends",
      "outputs": [
        {
          "internalType": "bool",
          "name": "exists",
          "type": "bool"
        },
        {
          "internalType": "uint256",
          "name": "addedAt",
          "type": "uint256"
        },
        {
          "internalType": "string",
          "name": "message",
          "type": "string"
        },
        {
          "internalType": "bool",
          "name": "deleted",
          "type": "bool"
        }
      ],
      "stateMutability": "view",
      "type": "function"
    },
    {
      "inputs": [
        {
          "internalType": "address",
          "name": "",
          "type": "address"
        },
        {
          "internalType": "uint256",
          "name": "",
          "type": "uint256"
        }
      ],
      "name": "myFriends",
      "outputs": [
        {
          "internalType": "address",
          "name": "",
          "type": "address"
        }
      ],
      "stateMutability": "view",
      "type": "function"
    },
    {
      "inputs": [
        {
          "internalType": "address",
          "name": "",
          "type": "address"
        }
      ],
      "name": "users",
      "outputs": [
        {
          "internalType": "string",
          "name": "name",
          "type": "string"
        },
        {
          "internalType": "string",
          "name": "email",
          "type": "string"
        },
        {
          "internalType": "uint256",
          "name": "age",
          "type": "uint256"
        },
        {
          "internalType": "address",
          "name": "wallet",
          "type": "address"
        },
        {
          "internalType": "bool",
          "name": "isVerified",
          "type": "bool"
        }
      ],
      "stateMutability": "view",
      "type": "function"
    },
    {
      "inputs": [],
      "name": "interfaceJoin",
      "outputs": [],
      "stateMutability": "nonpayable",
      "type": "function"
    },
    {
      "inputs": [
        {
          "internalType": "address",
          "name": "_userAdderss",
          "type": "address"
        }
      ],
      "name": "interfaceGetAccountByAddress",
      "outputs": [
        {
          "internalType": "address",
          "name": "",
          "type": "address"
        }
      ],
      "stateMutability": "view",
      "type": "function"
    }
  ],
  "bytecode": "0x608060405234801561001057600080fd5b5033600560006101000a81548173ffffffffffffffffffffffffffffffffffffffff021916908373ffffffffffffffffffffffffffffffffffffffff160217905550610afe806100616000396000f3fe608060405234801561001057600080fd5b50600436106100625760003560e01c80638a5c527a146100675780639ce5b59f14610097578063a87430ba146100a1578063d1166653146100d5578063f38586b714610108578063f851a44014610138575b600080fd5b610081600480360381019061007c91906106dd565b610156565b60405161008e919061072c565b60405180910390f35b61009f6101a4565b005b6100bb60048036038101906100b69190610747565b6101af565b6040516100cc95949392919061082e565b60405180910390f35b6100ef60048036038101906100ea919061088f565b610322565b6040516100ff94939291906108cf565b60405180910390f35b610122600480360381019061011d9190610747565b610401565b60405161012f919061072c565b60405180910390f35b610140610413565b60405161014d919061072c565b60405180910390f35b6003602052816000526040600020818154811061017257600080fd5b906000526020600020016000915091509054906101000a900473ffffffffffffffffffffffffffffffffffffffff1681565b6101ad33610439565b565b60016020528060005260406000206000915090508060000180546101d29061094a565b80601f01602080910402602001604051908101604052809291908181526020018280546101fe9061094a565b801561024b5780601f106102205761010080835404028352916020019161024b565b820191906000526020600020905b81548152906001019060200180831161022e57829003601f168201915b5050505050908060010180546102609061094a565b80601f016020809104026020016040519081016040528092919081815260200182805461028c9061094a565b80156102d95780601f106102ae576101008083540402835291602001916102d9565b820191906000526020600020905b8154815290600101906020018083116102bc57829003601f168201915b5050505050908060020154908060030160009054906101000a900473ffffffffffffffffffffffffffffffffffffffff16908060030160149054906101000a900460ff16905085565b6002602052816000526040600020602052806000526040600020600091509150508060000160009054906101000a900460ff169080600101549080600201805461036b9061094a565b80601f01602080910402602001604051908101604052809291908181526020018280546103979061094a565b80156103e45780601f106103b9576101008083540402835291602001916103e4565b820191906000526020600020905b8154815290600101906020018083116103c757829003601f168201915b5050505050908060030160009054906101000a900460ff16905084565b600061040c82610477565b9050919050565b600560009054906101000a900473ffffffffffffffffffffffffffffffffffffffff1681565b6000334260405160200161044e9291906109e4565b6040516020818303038152906040528051906020012060001c90506104738282610489565b5050565b60006104828261050a565b9050919050565b806000808473ffffffffffffffffffffffffffffffffffffffff1673ffffffffffffffffffffffffffffffffffffffff16815260200190815260200160002060006101000a81548173ffffffffffffffffffffffffffffffffffffffff021916908373ffffffffffffffffffffffffffffffffffffffff1602179055505050565b60008073ffffffffffffffffffffffffffffffffffffffff166000803373ffffffffffffffffffffffffffffffffffffffff1673ffffffffffffffffffffffffffffffffffffffff16815260200190815260200160002060009054906101000a900473ffffffffffffffffffffffffffffffffffffffff1673ffffffffffffffffffffffffffffffffffffffff16036105d8576040517f08c379a00000000000000000000000000000000000000000000000000000000081526004016105cf90610aa8565b60405180910390fd5b60008060008473ffffffffffffffffffffffffffffffffffffffff1673ffffffffffffffffffffffffffffffffffffffff16815260200190815260200160002060009054906101000a900473ffffffffffffffffffffffffffffffffffffffff16905080915050919050565b600080fd5b600073ffffffffffffffffffffffffffffffffffffffff82169050919050565b600061067482610649565b9050919050565b61068481610669565b811461068f57600080fd5b50565b6000813590506106a18161067b565b92915050565b6000819050919050565b6106ba816106a7565b81146106c557600080fd5b50565b6000813590506106d7816106b1565b92915050565b600080604083850312156106f4576106f3610644565b5b600061070285828601610692565b9250506020610713858286016106c8565b9150509250929050565b61072681610669565b82525050565b6000602082019050610741600083018461071d565b92915050565b60006020828403121561075d5761075c610644565b5b600061076b84828501610692565b91505092915050565b600081519050919050565b600082825260208201905092915050565b60005b838110156107ae578082015181840152602081019050610793565b60008484015250505050565b6000601f19601f8301169050919050565b60006107d682610774565b6107e0818561077f565b93506107f0818560208601610790565b6107f9816107ba565b840191505092915050565b61080d816106a7565b82525050565b60008115159050919050565b61082881610813565b82525050565b600060a082019050818103600083015261084881886107cb565b9050818103602083015261085c81876107cb565b905061086b6040830186610804565b610878606083018561071d565b610885608083018461081f565b9695505050505050565b600080604083850312156108a6576108a5610644565b5b60006108b485828601610692565b92505060206108c585828601610692565b9150509250929050565b60006080820190506108e4600083018761081f565b6108f16020830186610804565b818103604083015261090381856107cb565b9050610912606083018461081f565b95945050505050565b7f4e487b7100000000000000000000000000000000000000000000000000000000600052602260045260246000fd5b6000600282049050600182168061096257607f821691505b6020821081036109755761097461091b565b5b50919050565b60008160601b9050919050565b60006109938261097b565b9050919050565b60006109a582610988565b9050919050565b6109bd6109b882610669565b61099a565b82525050565b6000819050919050565b6109de6109d9826106a7565b6109c3565b82525050565b60006109f082856109ac565b601482019150610a0082846109cd565b6020820191508190509392505050565b7f4d53472066726f6d2044617461436f6e74726163742d6765744163636f756e7460008201527f73203a2041646472657373206e6f7420666f756e6420696e206163636f756e7460208201527f7300000000000000000000000000000000000000000000000000000000000000604082015250565b6000610a9260418361077f565b9150610a9d82610a10565b606082019050919050565b60006020820190508181036000830152610ac181610a85565b905091905056fea26469706673582212202cefd2214cfb3bf218d52e95e842a83d848d9fb35a7aa19edf2af4117c2baa8264736f6c63430008130033",
  "immutableReferences": {},
  "source": "// SPDX-License-Identifier: GPL-3.0\r\n\r\nimport \"../service/ServiceContract.sol\";\r\npragma solidity >=0.7.0 <0.9.0;\r\n\r\n// \r\n\r\n\r\n\r\ncontract InterfactContract is ServiceContract{\r\n\r\n    function interfaceJoin() public {\r\n        join(msg.sender);\r\n    }\r\n\r\n    function interfaceGetAccountByAddress(address _userAdderss) public view returns(address) {\r\n\r\n        return getAccountByAddress(_userAdderss);\r\n    }\r\n\r\n}\r\n",
  "sourcePath": "C:\\Users\\Erwin\\IdeaProjects\\idea-react\\contracts\\interface\\InterfaceContract.sol",
  "compiler": {
    "name": "solc",
    "version": "0.8.19+commit.7dd6d404.Emscripten.clang"
  },
  "schemaVersion": "3.4.13",
  "updatedAt": "2023-05-21T05:50:17.953Z",
  "devdoc": {
    "kind": "dev",
    "methods": {},
    "version": 1
  },
  "userdoc": {
    "kind": "user",
    "methods": {},
    "version": 1
  }
}