{
  "contractName": "SocialNetwork",
  "abi": [
    {
      "inputs": [
        {
          "internalType": "address",
          "name": "",
          "type": "address"
        }
      ],
      "name": "accounts",
      "outputs": [
        {
          "internalType": "address",
          "name": "",
          "type": "address"
        }
      ],
      "stateMutability": "view",
      "type": "function"
    },
    {
      "inputs": [
        {
          "internalType": "address",
          "name": "",
          "type": "address"
        },
        {
          "internalType": "address",
          "name": "",
          "type": "address"
        }
      ],
      "name": "friends",
      "outputs": [
        {
          "internalType": "bool",
          "name": "exists",
          "type": "bool"
        },
        {
          "internalType": "uint256",
          "name": "addedAt",
          "type": "uint256"
        },
        {
          "internalType": "string",
          "name": "message",
          "type": "string"
        },
        {
          "internalType": "bool",
          "name": "deleted",
          "type": "bool"
        }
      ],
      "stateMutability": "view",
      "type": "function"
    },
    {
      "inputs": [
        {
          "internalType": "address",
          "name": "",
          "type": "address"
        },
        {
          "internalType": "uint256",
          "name": "",
          "type": "uint256"
        }
      ],
      "name": "myFriends",
      "outputs": [
        {
          "internalType": "address",
          "name": "",
          "type": "address"
        }
      ],
      "stateMutability": "view",
      "type": "function"
    },
    {
      "inputs": [
        {
          "internalType": "address",
          "name": "",
          "type": "address"
        }
      ],
      "name": "users",
      "outputs": [
        {
          "internalType": "string",
          "name": "name",
          "type": "string"
        },
        {
          "internalType": "string",
          "name": "email",
          "type": "string"
        },
        {
          "internalType": "uint256",
          "name": "age",
          "type": "uint256"
        },
        {
          "internalType": "address",
          "name": "wallet",
          "type": "address"
        },
        {
          "internalType": "bool",
          "name": "isVerified",
          "type": "bool"
        }
      ],
      "stateMutability": "view",
      "type": "function"
    },
    {
      "inputs": [
        {
          "internalType": "address",
          "name": "adr",
          "type": "address"
        }
      ],
      "name": "checkAddressSigned",
      "outputs": [
        {
          "internalType": "bool",
          "name": "",
          "type": "bool"
        }
      ],
      "stateMutability": "view",
      "type": "function"
    },
    {
      "inputs": [],
      "name": "join",
      "outputs": [],
      "stateMutability": "nonpayable",
      "type": "function"
    },
    {
      "inputs": [
        {
          "internalType": "address",
          "name": "adr",
          "type": "address"
        }
      ],
      "name": "getAccountByAddress",
      "outputs": [
        {
          "internalType": "address",
          "name": "",
          "type": "address"
        }
      ],
      "stateMutability": "view",
      "type": "function"
    },
    {
      "inputs": [
        {
          "internalType": "string",
          "name": "name",
          "type": "string"
        },
        {
          "internalType": "string",
          "name": "email",
          "type": "string"
        },
        {
          "internalType": "uint256",
          "name": "age",
          "type": "uint256"
        },
        {
          "internalType": "address",
          "name": "wallet",
          "type": "address"
        },
        {
          "internalType": "bool",
          "name": "isVerified",
          "type": "bool"
        }
      ],
      "name": "registerUser",
      "outputs": [],
      "stateMutability": "nonpayable",
      "type": "function"
    },
    {
      "inputs": [
        {
          "internalType": "address",
          "name": "account",
          "type": "address"
        }
      ],
      "name": "getUserByAccount",
      "outputs": [
        {
          "components": [
            {
              "internalType": "string",
              "name": "name",
              "type": "string"
            },
            {
              "internalType": "string",
              "name": "email",
              "type": "string"
            },
            {
              "internalType": "uint256",
              "name": "age",
              "type": "uint256"
            },
            {
              "internalType": "address",
              "name": "wallet",
              "type": "address"
            },
            {
              "internalType": "bool",
              "name": "isVerified",
              "type": "bool"
            }
          ],
          "internalType": "struct SocialNetwork.User",
          "name": "",
          "type": "tuple"
        }
      ],
      "stateMutability": "view",
      "type": "function"
    },
    {
      "inputs": [
        {
          "internalType": "address",
          "name": "account",
          "type": "address"
        },
        {
          "internalType": "string",
          "name": "name",
          "type": "string"
        },
        {
          "internalType": "string",
          "name": "email",
          "type": "string"
        },
        {
          "internalType": "uint256",
          "name": "age",
          "type": "uint256"
        },
        {
          "internalType": "address",
          "name": "wallet",
          "type": "address"
        },
        {
          "internalType": "bool",
          "name": "isVerified",
          "type": "bool"
        }
      ],
      "name": "updateUser",
      "outputs": [],
      "stateMutability": "nonpayable",
      "type": "function"
    },
    {
      "inputs": [
        {
          "internalType": "address",
          "name": "friendAddress",
          "type": "address"
        },
        {
          "internalType": "string",
          "name": "message",
          "type": "string"
        }
      ],
      "name": "addFriend",
      "outputs": [],
      "stateMutability": "nonpayable",
      "type": "function"
    },
    {
      "inputs": [],
      "name": "getMyFriends",
      "outputs": [
        {
          "internalType": "address[]",
          "name": "",
          "type": "address[]"
        }
      ],
      "stateMutability": "view",
      "type": "function"
    },
    {
      "inputs": [],
      "name": "getMyFriendsCount",
      "outputs": [
        {
          "internalType": "uint256",
          "name": "",
          "type": "uint256"
        }
      ],
      "stateMutability": "view",
      "type": "function"
    },
    {
      "inputs": [
        {
          "internalType": "address",
          "name": "friendAddress",
          "type": "address"
        }
      ],
      "name": "isFriend",
      "outputs": [
        {
          "internalType": "bool",
          "name": "",
          "type": "bool"
        }
      ],
      "stateMutability": "view",
      "type": "function"
    },
    {
      "inputs": [
        {
          "internalType": "address",
          "name": "friendAddress",
          "type": "address"
        }
      ],
      "name": "removeFriend",
      "outputs": [],
      "stateMutability": "nonpayable",
      "type": "function"
    },
    {
      "inputs": [
        {
          "internalType": "address",
          "name": "friendAddress",
          "type": "address"
        }
      ],
      "name": "getFriendIndex",
      "outputs": [
        {
          "internalType": "uint256",
          "name": "",
          "type": "uint256"
        }
      ],
      "stateMutability": "view",
      "type": "function"
    }
  ],
  "bytecode": "0x608060405234801561001057600080fd5b506123f9806100206000396000f3fe608060405234801561001057600080fd5b50600436106101005760003560e01c8063a87430ba11610097578063c4e711c611610066578063c4e711c6146102d5578063d1166653146102f1578063e0fe806614610324578063f6f1d0b01461035457610100565b8063a87430ba14610249578063b688a3631461027d578063b8e85fec14610287578063be34ebbf146102b757610100565b806368125a1b116100d357806368125a1b146101b157806380cee8a5146101e157806386ee366f146101fd5780638a5c527a1461021957610100565b806310eab98f1461010557806313567862146101355780633b9f708d146101655780635e5c06e214610181575b600080fd5b61011f600480360381019061011a919061167a565b610372565b60405161012c91906117f7565b60405180910390f35b61014f600480360381019061014a919061167a565b61056a565b60405161015c9190611828565b60405180910390f35b61017f600480360381019061017a9190611978565b610610565b005b61019b6004803603810190610196919061167a565b610938565b6040516101a891906119e3565b60405180910390f35b6101cb60048036038101906101c6919061167a565b61096b565b6040516101d89190611828565b60405180910390f35b6101fb60048036038101906101f6919061167a565b610a64565b005b61021760048036038101906102129190611a56565b610c28565b005b610233600480360381019061022e9190611b09565b610db1565b60405161024091906119e3565b60405180910390f35b610263600480360381019061025e919061167a565b610dff565b604051610274959493929190611ba2565b60405180910390f35b610285610f72565b005b6102a1600480360381019061029c919061167a565b611030565b6040516102ae91906119e3565b60405180910390f35b6102bf611098565b6040516102cc9190611cb2565b60405180910390f35b6102ef60048036038101906102ea9190611cd4565b6111c7565b005b61030b60048036038101906103069190611d99565b61129f565b60405161031b9493929190611dd9565b60405180910390f35b61033e6004803603810190610339919061167a565b61137e565b60405161034b9190611e25565b60405180910390f35b61035c611514565b6040516103699190611e25565b60405180910390f35b61037a6115c1565b600160008373ffffffffffffffffffffffffffffffffffffffff1673ffffffffffffffffffffffffffffffffffffffff1681526020019081526020016000206040518060a00160405290816000820180546103d490611e6f565b80601f016020809104026020016040519081016040528092919081815260200182805461040090611e6f565b801561044d5780601f106104225761010080835404028352916020019161044d565b820191906000526020600020905b81548152906001019060200180831161043057829003601f168201915b5050505050815260200160018201805461046690611e6f565b80601f016020809104026020016040519081016040528092919081815260200182805461049290611e6f565b80156104df5780601f106104b4576101008083540402835291602001916104df565b820191906000526020600020905b8154815290600101906020018083116104c257829003601f168201915b50505050508152602001600282015481526020016003820160009054906101000a900473ffffffffffffffffffffffffffffffffffffffff1673ffffffffffffffffffffffffffffffffffffffff1673ffffffffffffffffffffffffffffffffffffffff1681526020016003820160149054906101000a900460ff1615151515815250509050919050565b60008073ffffffffffffffffffffffffffffffffffffffff166000808473ffffffffffffffffffffffffffffffffffffffff1673ffffffffffffffffffffffffffffffffffffffff16815260200190815260200160002060009054906101000a900473ffffffffffffffffffffffffffffffffffffffff1673ffffffffffffffffffffffffffffffffffffffff1614610606576001905061060b565b600090505b919050565b60008060003373ffffffffffffffffffffffffffffffffffffffff1673ffffffffffffffffffffffffffffffffffffffff16815260200190815260200160002060009054906101000a900473ffffffffffffffffffffffffffffffffffffffff169050600073ffffffffffffffffffffffffffffffffffffffff16600160008573ffffffffffffffffffffffffffffffffffffffff1673ffffffffffffffffffffffffffffffffffffffff16815260200190815260200160002060030160009054906101000a900473ffffffffffffffffffffffffffffffffffffffff1673ffffffffffffffffffffffffffffffffffffffff1603610744576040517f08c379a000000000000000000000000000000000000000000000000000000000815260040161073b90611f12565b60405180910390fd5b61074d8361096b565b1561078d576040517f08c379a000000000000000000000000000000000000000000000000000000000815260040161078490611f7e565b60405180910390fd5b604051806080016040528060011515815260200142815260200183815260200160001515815250600260008373ffffffffffffffffffffffffffffffffffffffff1673ffffffffffffffffffffffffffffffffffffffff16815260200190815260200160002060008573ffffffffffffffffffffffffffffffffffffffff1673ffffffffffffffffffffffffffffffffffffffff16815260200190815260200160002060008201518160000160006101000a81548160ff02191690831515021790555060208201518160010155604082015181600201908161086f919061214a565b5060608201518160030160006101000a81548160ff021916908315150217905550905050600360008273ffffffffffffffffffffffffffffffffffffffff1673ffffffffffffffffffffffffffffffffffffffff168152602001908152602001600020839080600181540180825580915050600190039060005260206000200160009091909190916101000a81548173ffffffffffffffffffffffffffffffffffffffff021916908373ffffffffffffffffffffffffffffffffffffffff160217905550505050565b60006020528060005260406000206000915054906101000a900473ffffffffffffffffffffffffffffffffffffffff1681565b6000806000803373ffffffffffffffffffffffffffffffffffffffff1673ffffffffffffffffffffffffffffffffffffffff16815260200190815260200160002060009054906101000a900473ffffffffffffffffffffffffffffffffffffffff169050600260008273ffffffffffffffffffffffffffffffffffffffff1673ffffffffffffffffffffffffffffffffffffffff16815260200190815260200160002060008473ffffffffffffffffffffffffffffffffffffffff1673ffffffffffffffffffffffffffffffffffffffff16815260200190815260200160002060000160009054906101000a900460ff16915050919050565b60008060003373ffffffffffffffffffffffffffffffffffffffff1673ffffffffffffffffffffffffffffffffffffffff16815260200190815260200160002060009054906101000a900473ffffffffffffffffffffffffffffffffffffffff169050610ad08261096b565b610b0f576040517f08c379a0000000000000000000000000000000000000000000000000000000008152600401610b0690612268565b60405180910390fd5b604051806080016040528060011515815260200142815260200160405180602001604052806000815250815260200160011515815250600260008373ffffffffffffffffffffffffffffffffffffffff1673ffffffffffffffffffffffffffffffffffffffff16815260200190815260200160002060008473ffffffffffffffffffffffffffffffffffffffff1673ffffffffffffffffffffffffffffffffffffffff16815260200190815260200160002060008201518160000160006101000a81548160ff021916908315150217905550602082015181600101556040820151816002019081610c00919061214a565b5060608201518160030160006101000a81548160ff0219169083151502179055509050505050565b60006040518060a001604052808781526020018681526020018581526020018473ffffffffffffffffffffffffffffffffffffffff168152602001831515815250905080600160008060003373ffffffffffffffffffffffffffffffffffffffff1673ffffffffffffffffffffffffffffffffffffffff16815260200190815260200160002060009054906101000a900473ffffffffffffffffffffffffffffffffffffffff1673ffffffffffffffffffffffffffffffffffffffff1673ffffffffffffffffffffffffffffffffffffffff1681526020019081526020016000206000820151816000019081610d1e919061214a565b506020820151816001019081610d34919061214a565b506040820151816002015560608201518160030160006101000a81548173ffffffffffffffffffffffffffffffffffffffff021916908373ffffffffffffffffffffffffffffffffffffffff16021790555060808201518160030160146101000a81548160ff021916908315150217905550905050505050505050565b60036020528160005260406000208181548110610dcd57600080fd5b906000526020600020016000915091509054906101000a900473ffffffffffffffffffffffffffffffffffffffff1681565b6001602052806000526040600020600091509050806000018054610e2290611e6f565b80601f0160208091040260200160405190810160405280929190818152602001828054610e4e90611e6f565b8015610e9b5780601f10610e7057610100808354040283529160200191610e9b565b820191906000526020600020905b815481529060010190602001808311610e7e57829003601f168201915b505050505090806001018054610eb090611e6f565b80601f0160208091040260200160405190810160405280929190818152602001828054610edc90611e6f565b8015610f295780601f10610efe57610100808354040283529160200191610f29565b820191906000526020600020905b815481529060010190602001808311610f0c57829003601f168201915b5050505050908060020154908060030160009054906101000a900473ffffffffffffffffffffffffffffffffffffffff16908060030160149054906101000a900460ff16905085565b610f7b3361056a565b61102e5760003342604051602001610f949291906122f1565b6040516020818303038152906040528051906020012060001c9050806000803373ffffffffffffffffffffffffffffffffffffffff1673ffffffffffffffffffffffffffffffffffffffff16815260200190815260200160002060006101000a81548173ffffffffffffffffffffffffffffffffffffffff021916908373ffffffffffffffffffffffffffffffffffffffff160217905550505b565b60008060008373ffffffffffffffffffffffffffffffffffffffff1673ffffffffffffffffffffffffffffffffffffffff16815260200190815260200160002060009054906101000a900473ffffffffffffffffffffffffffffffffffffffff169050919050565b606060008060003373ffffffffffffffffffffffffffffffffffffffff1673ffffffffffffffffffffffffffffffffffffffff16815260200190815260200160002060009054906101000a900473ffffffffffffffffffffffffffffffffffffffff169050600360008273ffffffffffffffffffffffffffffffffffffffff1673ffffffffffffffffffffffffffffffffffffffff1681526020019081526020016000208054806020026020016040519081016040528092919081815260200182805480156111bc57602002820191906000526020600020905b8160009054906101000a900473ffffffffffffffffffffffffffffffffffffffff1673ffffffffffffffffffffffffffffffffffffffff1681526020019060010190808311611172575b505050505091505090565b6000600160008873ffffffffffffffffffffffffffffffffffffffff1673ffffffffffffffffffffffffffffffffffffffff16815260200190815260200160002090508581600001908161121b919061214a565b508481600101908161122d919061214a565b50838160020181905550828160030160006101000a81548173ffffffffffffffffffffffffffffffffffffffff021916908373ffffffffffffffffffffffffffffffffffffffff160217905550818160030160146101000a81548160ff02191690831515021790555050505050505050565b6002602052816000526040600020602052806000526040600020600091509150508060000160009054906101000a900460ff16908060010154908060020180546112e890611e6f565b80601f016020809104026020016040519081016040528092919081815260200182805461131490611e6f565b80156113615780601f1061133657610100808354040283529160200191611361565b820191906000526020600020905b81548152906001019060200180831161134457829003601f168201915b5050505050908060030160009054906101000a900460ff16905084565b6000806000803373ffffffffffffffffffffffffffffffffffffffff1673ffffffffffffffffffffffffffffffffffffffff16815260200190815260200160002060009054906101000a900473ffffffffffffffffffffffffffffffffffffffff1690506113eb8361096b565b61142a576040517f08c379a000000000000000000000000000000000000000000000000000000000815260040161142190612268565b60405180910390fd5b6000600360008373ffffffffffffffffffffffffffffffffffffffff1673ffffffffffffffffffffffffffffffffffffffff16815260200190815260200160002090506000805b8280549050811015611508578573ffffffffffffffffffffffffffffffffffffffff168382815481106114a7576114a661231d565b5b9060005260206000200160009054906101000a900473ffffffffffffffffffffffffffffffffffffffff1673ffffffffffffffffffffffffffffffffffffffff16036114f557809150611508565b80806115009061237b565b915050611471565b50809350505050919050565b6000806000803373ffffffffffffffffffffffffffffffffffffffff1673ffffffffffffffffffffffffffffffffffffffff16815260200190815260200160002060009054906101000a900473ffffffffffffffffffffffffffffffffffffffff169050600360008273ffffffffffffffffffffffffffffffffffffffff1673ffffffffffffffffffffffffffffffffffffffff1681526020019081526020016000208054905091505090565b6040518060a00160405280606081526020016060815260200160008152602001600073ffffffffffffffffffffffffffffffffffffffff1681526020016000151581525090565b6000604051905090565b600080fd5b600080fd5b600073ffffffffffffffffffffffffffffffffffffffff82169050919050565b60006116478261161c565b9050919050565b6116578161163c565b811461166257600080fd5b50565b6000813590506116748161164e565b92915050565b6000602082840312156116905761168f611612565b5b600061169e84828501611665565b91505092915050565b600081519050919050565b600082825260208201905092915050565b60005b838110156116e15780820151818401526020810190506116c6565b60008484015250505050565b6000601f19601f8301169050919050565b6000611709826116a7565b61171381856116b2565b93506117238185602086016116c3565b61172c816116ed565b840191505092915050565b6000819050919050565b61174a81611737565b82525050565b6117598161163c565b82525050565b60008115159050919050565b6117748161175f565b82525050565b600060a083016000830151848203600086015261179782826116fe565b915050602083015184820360208601526117b182826116fe565b91505060408301516117c66040860182611741565b5060608301516117d96060860182611750565b5060808301516117ec608086018261176b565b508091505092915050565b60006020820190508181036000830152611811818461177a565b905092915050565b6118228161175f565b82525050565b600060208201905061183d6000830184611819565b92915050565b600080fd5b600080fd5b7f4e487b7100000000000000000000000000000000000000000000000000000000600052604160045260246000fd5b611885826116ed565b810181811067ffffffffffffffff821117156118a4576118a361184d565b5b80604052505050565b60006118b7611608565b90506118c3828261187c565b919050565b600067ffffffffffffffff8211156118e3576118e261184d565b5b6118ec826116ed565b9050602081019050919050565b82818337600083830152505050565b600061191b611916846118c8565b6118ad565b90508281526020810184848401111561193757611936611848565b5b6119428482856118f9565b509392505050565b600082601f83011261195f5761195e611843565b5b813561196f848260208601611908565b91505092915050565b6000806040838503121561198f5761198e611612565b5b600061199d85828601611665565b925050602083013567ffffffffffffffff8111156119be576119bd611617565b5b6119ca8582860161194a565b9150509250929050565b6119dd8161163c565b82525050565b60006020820190506119f860008301846119d4565b92915050565b611a0781611737565b8114611a1257600080fd5b50565b600081359050611a24816119fe565b92915050565b611a338161175f565b8114611a3e57600080fd5b50565b600081359050611a5081611a2a565b92915050565b600080600080600060a08688031215611a7257611a71611612565b5b600086013567ffffffffffffffff811115611a9057611a8f611617565b5b611a9c8882890161194a565b955050602086013567ffffffffffffffff811115611abd57611abc611617565b5b611ac98882890161194a565b9450506040611ada88828901611a15565b9350506060611aeb88828901611665565b9250506080611afc88828901611a41565b9150509295509295909350565b60008060408385031215611b2057611b1f611612565b5b6000611b2e85828601611665565b9250506020611b3f85828601611a15565b9150509250929050565b600082825260208201905092915050565b6000611b65826116a7565b611b6f8185611b49565b9350611b7f8185602086016116c3565b611b88816116ed565b840191505092915050565b611b9c81611737565b82525050565b600060a0820190508181036000830152611bbc8188611b5a565b90508181036020830152611bd08187611b5a565b9050611bdf6040830186611b93565b611bec60608301856119d4565b611bf96080830184611819565b9695505050505050565b600081519050919050565b600082825260208201905092915050565b6000819050602082019050919050565b6000611c3b8383611750565b60208301905092915050565b6000602082019050919050565b6000611c5f82611c03565b611c698185611c0e565b9350611c7483611c1f565b8060005b83811015611ca5578151611c8c8882611c2f565b9750611c9783611c47565b925050600181019050611c78565b5085935050505092915050565b60006020820190508181036000830152611ccc8184611c54565b905092915050565b60008060008060008060c08789031215611cf157611cf0611612565b5b6000611cff89828a01611665565b965050602087013567ffffffffffffffff811115611d2057611d1f611617565b5b611d2c89828a0161194a565b955050604087013567ffffffffffffffff811115611d4d57611d4c611617565b5b611d5989828a0161194a565b9450506060611d6a89828a01611a15565b9350506080611d7b89828a01611665565b92505060a0611d8c89828a01611a41565b9150509295509295509295565b60008060408385031215611db057611daf611612565b5b6000611dbe85828601611665565b9250506020611dcf85828601611665565b9150509250929050565b6000608082019050611dee6000830187611819565b611dfb6020830186611b93565b8181036040830152611e0d8185611b5a565b9050611e1c6060830184611819565b95945050505050565b6000602082019050611e3a6000830184611b93565b92915050565b7f4e487b7100000000000000000000000000000000000000000000000000000000600052602260045260246000fd5b60006002820490506001821680611e8757607f821691505b602082108103611e9a57611e99611e40565b5b50919050565b7f596f757220667269656e642773204164647265737320646f65736e277420657860008201527f6973740000000000000000000000000000000000000000000000000000000000602082015250565b6000611efc602383611b49565b9150611f0782611ea0565b604082019050919050565b60006020820190508181036000830152611f2b81611eef565b9050919050565b7f48652f53686520697320616c726561647920796f757220667269656e64000000600082015250565b6000611f68601d83611b49565b9150611f7382611f32565b602082019050919050565b60006020820190508181036000830152611f9781611f5b565b9050919050565b60008190508160005260206000209050919050565b60006020601f8301049050919050565b600082821b905092915050565b6000600883026120007fffffffffffffffffffffffffffffffffffffffffffffffffffffffffffffffff82611fc3565b61200a8683611fc3565b95508019841693508086168417925050509392505050565b6000819050919050565b600061204761204261203d84611737565b612022565b611737565b9050919050565b6000819050919050565b6120618361202c565b61207561206d8261204e565b848454611fd0565b825550505050565b600090565b61208a61207d565b612095818484612058565b505050565b5b818110156120b9576120ae600082612082565b60018101905061209b565b5050565b601f8211156120fe576120cf81611f9e565b6120d884611fb3565b810160208510156120e7578190505b6120fb6120f385611fb3565b83018261209a565b50505b505050565b600082821c905092915050565b600061212160001984600802612103565b1980831691505092915050565b600061213a8383612110565b9150826002028217905092915050565b612153826116a7565b67ffffffffffffffff81111561216c5761216b61184d565b5b6121768254611e6f565b6121818282856120bd565b600060209050601f8311600181146121b457600084156121a2578287015190505b6121ac858261212e565b865550612214565b601f1984166121c286611f9e565b60005b828110156121ea578489015182556001820191506020850194506020810190506121c5565b868310156122075784890151612203601f891682612110565b8355505b6001600288020188555050505b505050505050565b7f4e6f74206120667269656e640000000000000000000000000000000000000000600082015250565b6000612252600c83611b49565b915061225d8261221c565b602082019050919050565b6000602082019050818103600083015261228181612245565b9050919050565b60008160601b9050919050565b60006122a082612288565b9050919050565b60006122b282612295565b9050919050565b6122ca6122c58261163c565b6122a7565b82525050565b6000819050919050565b6122eb6122e682611737565b6122d0565b82525050565b60006122fd82856122b9565b60148201915061230d82846122da565b6020820191508190509392505050565b7f4e487b7100000000000000000000000000000000000000000000000000000000600052603260045260246000fd5b7f4e487b7100000000000000000000000000000000000000000000000000000000600052601160045260246000fd5b600061238682611737565b91507fffffffffffffffffffffffffffffffffffffffffffffffffffffffffffffffff82036123b8576123b761234c565b5b60018201905091905056fea264697066735822122077b83c918cb15e9fbbc272d0dbfaf5ae32839b34316cb09157f06dcc8ee01e1c64736f6c63430008130033",
  "immutableReferences": {},
  "source": "// SPDX-License-Identifier: GPL-3.0\r\n\r\npragma solidity >=0.7.0 <0.9.0;\r\n\r\n// import \"./User.sol\";\r\n\r\n\r\ncontract SocialNetwork {\r\n    //User contractUser;\r\n    mapping(address => address) public accounts; //\r\n    struct User {\r\n        string name; // \r\n        string email; // \r\n        uint256 age; // \r\n        address wallet; // \r\n        bool isVerified; // \r\n    }\r\n    mapping(address => User) public users; //account,account => User\r\n\r\n    struct Friend {\r\n        //\r\n        bool exists; //\r\n        uint256 addedAt; //\r\n        string message; //\r\n        bool deleted; //\r\n    }\r\n    mapping(address => mapping(address => Friend)) public friends; //,\r\n    mapping(address => address[]) public myFriends; //\r\n\r\n    struct Article{\r\n        string title;\r\n        string article;\r\n        uint256 addedAt;\r\n    }\r\n\r\n    mapping(address => Article[]) articles; //\r\n    // mapping(address => mapping(string[] => address)) articles\r\n    //  Solidity mapping(address => mapping(string[] => address)) articles  string[] \r\n    //  Bytes32\r\n    // Address\r\n    // Enum\r\n    // String,  32 \r\n    // Bytes 32 \r\n\r\n\r\n    function checkAddressSigned(address adr) public view returns (bool) {\r\n        if (accounts[adr] != address(0)) {\r\n            return true; //true\r\n        } else {\r\n            return false; //false\r\n        }\r\n    }\r\n\r\n    function join() public {\r\n        if (checkAddressSigned(msg.sender)) return; //\r\n\r\n        address newAddress = address(\r\n            uint160(\r\n                uint256(\r\n                    keccak256(abi.encodePacked(msg.sender, block.timestamp))\r\n                )\r\n            )\r\n        ); // \r\n        accounts[msg.sender] = newAddress; // \r\n    }\r\n\r\n    function getAccountByAddress(address adr) public view returns (address) {\r\n        return accounts[adr];\r\n    }\r\n\r\n    function registerUser(\r\n        string memory name,\r\n        string memory email,\r\n        uint256 age,\r\n        address wallet,\r\n        bool isVerified\r\n    ) public {\r\n        User memory user = User(name, email, age, wallet, isVerified);\r\n        users[accounts[msg.sender]] = user; //address\r\n    }\r\n\r\n    function getUserByAccount(address account)\r\n        public\r\n        view\r\n        returns (User memory)\r\n    {\r\n        return users[account];\r\n    }\r\n\r\n    function updateUser(\r\n        address account,\r\n        string memory name,\r\n        string memory email,\r\n        uint256 age,\r\n        address wallet,\r\n        bool isVerified\r\n    ) public {\r\n        User storage user = users[account];\r\n        user.name = name;\r\n        user.email = email;\r\n        user.age = age;\r\n        user.wallet = wallet;\r\n        user.isVerified = isVerified;\r\n    }\r\n\r\n    function addFriend(address friendAddress, string memory message) public {\r\n        address myAccount = accounts[msg.sender]; // account \r\n\r\n        require(\r\n            users[friendAddress].wallet != address(0),\r\n            \"Your friend's Address doesn't exist\"\r\n        );\r\n        // Solidity  User \r\n        //User  wallet  address(0)\r\n        // require(users[friendAddress].wallet != address(0), \"Your friend's Address doesn't exist\");\r\n        // users  wallet  address(0) users[friendAddress].wallet != address(0) require \r\n        require(!isFriend(friendAddress), \"He/She is already your friend\");\r\n\r\n        friends[myAccount][friendAddress] = Friend({\r\n            exists: true,\r\n            addedAt: block.timestamp,\r\n            message: message,\r\n            deleted: false\r\n        });\r\n        myFriends[myAccount].push(friendAddress);\r\n        //\r\n    }\r\n\r\n    function getMyFriends() public view returns (address[] memory) {\r\n        address myAccount = accounts[msg.sender];\r\n        return myFriends[myAccount];\r\n    }\r\n\r\n    // Get number of friends for the sender\r\n    function getMyFriendsCount() public view returns (uint256) {\r\n        address myAccount = accounts[msg.sender];\r\n        return myFriends[myAccount].length;\r\n    }\r\n\r\n    // Check if an address is a friend of the sender\r\n    function isFriend(address friendAddress) public view returns (bool) {\r\n        address myAccount = accounts[msg.sender];\r\n        return friends[myAccount][friendAddress].exists;\r\n        // friendAddress  isFriend \r\n        // Solidity  mapping \r\n        // bool  false 0 string  address 0  0 \r\n    }\r\n\r\n    function removeFriend(address friendAddress) public {\r\n        address myAccount = accounts[msg.sender]; // account \r\n        require(isFriend(friendAddress), \"Not a friend\");\r\n        friends[myAccount][friendAddress] = Friend({\r\n            exists: true,\r\n            addedAt: block.timestamp,\r\n            message: \"\",\r\n            deleted: true\r\n        });\r\n    }\r\n\r\n    function getFriendIndex(address friendAddress)\r\n        public\r\n        view\r\n        returns (uint256)\r\n    {\r\n        address myAccount = accounts[msg.sender]; // account \r\n        require(isFriend(friendAddress), \"Not a friend\");\r\n        address[] storage friendsPointer = myFriends[myAccount];\r\n        uint256 friendIndex = uint256(0);\r\n        for (uint256 i = 0; i < friendsPointer.length; i++) {\r\n            if (friendsPointer[i] == friendAddress) {\r\n                friendIndex = i;\r\n                break;\r\n            }\r\n        }\r\n        return friendIndex;\r\n        // Solidity  gas\r\n        // gas \r\n    }\r\n\r\n    // function addFriend(address friendAddress, string memory message) public {\r\n    //     require(friendAddress != msg.sender, \"Cannot add yourself as a friend\");\r\n    //     require(!isFriend(friendAddress), \"Already a friend\");\r\n\r\n    //     // Add friend to sender's friend list\r\n    //     friends[msg.sender][friendAddress] = Friend({exists: true, addedAt: block.timestamp, message: message});\r\n    //     myFriends[msg.sender].push(friendAddress);\r\n\r\n    //     // Add sender to friend's friend list\r\n    //     friends[friendAddress][msg.sender] = Friend({exists: true, addedAt: block.timestamp, message: message});\r\n    //     myFriends[friendAddress].push(msg.sender);\r\n    // }\r\n\r\n    // function getMyFriendsCount() public view returns(uint) {\r\n    //     return myFriends[msg.sender].length;\r\n    // }\r\n\r\n    // Get a specific friend address for the sender by index\r\n    // function getMyFriendAtIndex(uint index) public view returns(address) {\r\n    //     require(index < myFriends[msg.sender].length, \"Invalid index for friend\");\r\n    //     return myFriends[msg.sender][index];\r\n    // }\r\n\r\n    // Get friend message for the sender and a specific friend\r\n    // function getFriendMessage(address friendAddress) public view returns(string memory) {\r\n    //     require(isFriend(friendAddress), \"Not a friend\");\r\n    //     return friends[msg.sender][friendAddress].message;\r\n    // }\r\n}\r\n",
  "sourcePath": "C:\\Users\\Erwin\\IdeaProjects\\idea-react\\contracts\\SocialNetwork.sol",
  "compiler": {
    "name": "solc",
    "version": "0.8.19+commit.7dd6d404.Emscripten.clang"
  },
  "schemaVersion": "3.4.13",
  "updatedAt": "2023-05-30T01:48:14.390Z",
  "devdoc": {
    "kind": "dev",
    "methods": {},
    "version": 1
  },
  "userdoc": {
    "kind": "user",
    "methods": {},
    "version": 1
  }
}