{
	"interface/InterfaceContract.sol": {
		"InterfaceContract": {
			"abi": [
				{
					"anonymous": false,
					"inputs": [
						{
							"indexed": false,
							"internalType": "address",
							"name": "sender",
							"type": "address"
						},
						{
							"indexed": false,
							"internalType": "address",
							"name": "admin",
							"type": "address"
						}
					],
					"name": "OnlyAdminError",
					"type": "event"
				},
				{
					"anonymous": false,
					"inputs": [
						{
							"indexed": false,
							"internalType": "string",
							"name": "msg",
							"type": "string"
						}
					],
					"name": "interfaceAddFriendEvent",
					"type": "event"
				},
				{
					"anonymous": false,
					"inputs": [
						{
							"indexed": false,
							"internalType": "string",
							"name": "msg",
							"type": "string"
						}
					],
					"name": "interfaceGetAccountByAddressEvent",
					"type": "event"
				},
				{
					"anonymous": false,
					"inputs": [
						{
							"indexed": false,
							"internalType": "string",
							"name": "msg",
							"type": "string"
						}
					],
					"name": "interfaceGetMyAccountEvent",
					"type": "event"
				},
				{
					"anonymous": false,
					"inputs": [
						{
							"indexed": false,
							"internalType": "string",
							"name": "msg",
							"type": "string"
						}
					],
					"name": "interfaceGetProfileByAccountEvent",
					"type": "event"
				},
				{
					"anonymous": false,
					"inputs": [
						{
							"indexed": false,
							"internalType": "string",
							"name": "msg",
							"type": "string"
						}
					],
					"name": "interfaceGetProfileByAddressEvent",
					"type": "event"
				},
				{
					"anonymous": false,
					"inputs": [
						{
							"indexed": false,
							"internalType": "string",
							"name": "msg",
							"type": "string"
						}
					],
					"name": "interfaceJoinEvent",
					"type": "event"
				},
				{
					"anonymous": false,
					"inputs": [
						{
							"indexed": false,
							"internalType": "string",
							"name": "msg",
							"type": "string"
						}
					],
					"name": "interfaceRegisterUserEvent",
					"type": "event"
				},
				{
					"anonymous": false,
					"inputs": [
						{
							"indexed": false,
							"internalType": "string",
							"name": "msg",
							"type": "string"
						}
					],
					"name": "interfaceSendArticlesByAccountEvent",
					"type": "event"
				},
				{
					"anonymous": false,
					"inputs": [
						{
							"indexed": false,
							"internalType": "string",
							"name": "msg",
							"type": "string"
						}
					],
					"name": "interfaceSendMessageByAccountEvent",
					"type": "event"
				},
				{
					"inputs": [
						{
							"internalType": "address",
							"name": "_myAccount",
							"type": "address"
						},
						{
							"internalType": "address",
							"name": "_friendAccount",
							"type": "address"
						},
						{
							"internalType": "string",
							"name": "message",
							"type": "string"
						}
					],
					"name": "interfaceAddFriend",
					"outputs": [],
					"stateMutability": "nonpayable",
					"type": "function"
				},
				{
					"inputs": [
						{
							"internalType": "address",
							"name": "_userAddress",
							"type": "address"
						}
					],
					"name": "interfaceGetAccountByAddress",
					"outputs": [
						{
							"internalType": "address",
							"name": "",
							"type": "address"
						}
					],
					"stateMutability": "nonpayable",
					"type": "function"
				},
				{
					"inputs": [
						{
							"internalType": "address",
							"name": "_account",
							"type": "address"
						}
					],
					"name": "interfaceGetArticlesByAccount",
					"outputs": [
						{
							"components": [
								{
									"internalType": "string",
									"name": "title",
									"type": "string"
								},
								{
									"internalType": "string",
									"name": "article",
									"type": "string"
								},
								{
									"internalType": "uint256",
									"name": "timestamp",
									"type": "uint256"
								},
								{
									"internalType": "bool",
									"name": "isDisplay",
									"type": "bool"
								}
							],
							"internalType": "struct DataContract.Article[]",
							"name": "result",
							"type": "tuple[]"
						}
					],
					"stateMutability": "view",
					"type": "function"
				},
				{
					"inputs": [
						{
							"internalType": "address",
							"name": "_account",
							"type": "address"
						}
					],
					"name": "interfaceGetFriendRequestsByAccount",
					"outputs": [
						{
							"internalType": "address[]",
							"name": "result",
							"type": "address[]"
						}
					],
					"stateMutability": "view",
					"type": "function"
				},
				{
					"inputs": [
						{
							"internalType": "address",
							"name": "_account",
							"type": "address"
						}
					],
					"name": "interfaceGetFriendsByAccount",
					"outputs": [
						{
							"internalType": "address[]",
							"name": "result",
							"type": "address[]"
						}
					],
					"stateMutability": "view",
					"type": "function"
				},
				{
					"inputs": [
						{
							"internalType": "address",
							"name": "_myAccount",
							"type": "address"
						},
						{
							"internalType": "address",
							"name": "_senderAccount",
							"type": "address"
						}
					],
					"name": "interfaceGetMessagesByAccount",
					"outputs": [
						{
							"components": [
								{
									"internalType": "address",
									"name": "sender",
									"type": "address"
								},
								{
									"internalType": "string",
									"name": "content",
									"type": "string"
								},
								{
									"internalType": "uint256",
									"name": "timestamp",
									"type": "uint256"
								}
							],
							"internalType": "struct DataContract.Message[]",
							"name": "result",
							"type": "tuple[]"
						}
					],
					"stateMutability": "view",
					"type": "function"
				},
				{
					"inputs": [
						{
							"internalType": "address",
							"name": "_myAccount",
							"type": "address"
						}
					],
					"name": "interfaceGetMsgAccountByAccount",
					"outputs": [
						{
							"internalType": "address[]",
							"name": "result",
							"type": "address[]"
						}
					],
					"stateMutability": "view",
					"type": "function"
				},
				{
					"inputs": [],
					"name": "interfaceGetMyAccount",
					"outputs": [
						{
							"internalType": "address",
							"name": "",
							"type": "address"
						}
					],
					"stateMutability": "nonpayable",
					"type": "function"
				},
				{
					"inputs": [
						{
							"internalType": "address",
							"name": "_account",
							"type": "address"
						}
					],
					"name": "interfaceGetProfileByAccount",
					"outputs": [
						{
							"components": [
								{
									"internalType": "string",
									"name": "name",
									"type": "string"
								},
								{
									"internalType": "string",
									"name": "email",
									"type": "string"
								},
								{
									"internalType": "uint256",
									"name": "age",
									"type": "uint256"
								},
								{
									"internalType": "address",
									"name": "wallet",
									"type": "address"
								},
								{
									"internalType": "bool",
									"name": "isVerified",
									"type": "bool"
								},
								{
									"internalType": "bool",
									"name": "isDisabled",
									"type": "bool"
								}
							],
							"internalType": "struct DataContract.User",
							"name": "",
							"type": "tuple"
						}
					],
					"stateMutability": "nonpayable",
					"type": "function"
				},
				{
					"inputs": [
						{
							"internalType": "address",
							"name": "_address",
							"type": "address"
						}
					],
					"name": "interfaceGetProfileByAddress",
					"outputs": [
						{
							"components": [
								{
									"internalType": "string",
									"name": "name",
									"type": "string"
								},
								{
									"internalType": "string",
									"name": "email",
									"type": "string"
								},
								{
									"internalType": "uint256",
									"name": "age",
									"type": "uint256"
								},
								{
									"internalType": "address",
									"name": "wallet",
									"type": "address"
								},
								{
									"internalType": "bool",
									"name": "isVerified",
									"type": "bool"
								},
								{
									"internalType": "bool",
									"name": "isDisabled",
									"type": "bool"
								}
							],
							"internalType": "struct DataContract.User",
							"name": "",
							"type": "tuple"
						}
					],
					"stateMutability": "nonpayable",
					"type": "function"
				},
				{
					"inputs": [],
					"name": "interfaceJoin",
					"outputs": [],
					"stateMutability": "nonpayable",
					"type": "function"
				},
				{
					"inputs": [
						{
							"internalType": "string",
							"name": "name",
							"type": "string"
						},
						{
							"internalType": "string",
							"name": "email",
							"type": "string"
						},
						{
							"internalType": "uint256",
							"name": "age",
							"type": "uint256"
						}
					],
					"name": "interfaceRegisterUser",
					"outputs": [],
					"stateMutability": "nonpayable",
					"type": "function"
				},
				{
					"inputs": [
						{
							"internalType": "address",
							"name": "_senderAccount",
							"type": "address"
						},
						{
							"internalType": "string",
							"name": "_title",
							"type": "string"
						},
						{
							"internalType": "string",
							"name": "_content",
							"type": "string"
						}
					],
					"name": "interfaceSendArticlesByAccount",
					"outputs": [],
					"stateMutability": "nonpayable",
					"type": "function"
				},
				{
					"inputs": [
						{
							"internalType": "address",
							"name": "_senderAccount",
							"type": "address"
						},
						{
							"internalType": "address",
							"name": "_recipientAccount",
							"type": "address"
						},
						{
							"internalType": "string",
							"name": "_content",
							"type": "string"
						}
					],
					"name": "interfaceSendMessageByAccount",
					"outputs": [],
					"stateMutability": "nonpayable",
					"type": "function"
				}
			],
			"devdoc": {
				"kind": "dev",
				"methods": {},
				"version": 1
			},
			"evm": {
				"assembly": "    /* \"interface/InterfaceContract.sol\":1744:9730  contract InterfaceContract is ServiceContract {... */\n  mstore(0x40, 0x80)\n  callvalue\n  dup1\n  iszero\n  tag_1\n  jumpi\n  0x00\n  dup1\n  revert\ntag_1:\n  pop\n    /* \"data/DataContract.sol\":4190:4200  msg.sender */\n  caller\n    /* \"data/DataContract.sol\":4182:4187  admin */\n  0x0a\n  0x00\n    /* \"data/DataContract.sol\":4182:4200  admin = msg.sender */\n  0x0100\n  exp\n  dup2\n  sload\n  dup2\n  0xffffffffffffffffffffffffffffffffffffffff\n  mul\n  not\n  and\n  swap1\n  dup4\n  0xffffffffffffffffffffffffffffffffffffffff\n  and\n  mul\n  or\n  swap1\n  sstore\n  pop\n    /* \"interface/InterfaceContract.sol\":1744:9730  contract InterfaceContract is ServiceContract {... */\n  dataSize(sub_0)\n  dup1\n  dataOffset(sub_0)\n  0x00\n  codecopy\n  0x00\n  return\nstop\n\nsub_0: assembly {\n        /* \"interface/InterfaceContract.sol\":1744:9730  contract InterfaceContract is ServiceContract {... */\n      mstore(0x40, 0x80)\n      callvalue\n      dup1\n      iszero\n      tag_1\n      jumpi\n      0x00\n      dup1\n      revert\n    tag_1:\n      pop\n      jumpi(tag_2, lt(calldatasize, 0x04))\n      shr(0xe0, calldataload(0x00))\n      dup1\n      0x7a51837f\n      gt\n      tag_17\n      jumpi\n      dup1\n      0x9ce5b59f\n      gt\n      tag_18\n      jumpi\n      dup1\n      0x9ce5b59f\n      eq\n      tag_13\n      jumpi\n      dup1\n      0xd7e07916\n      eq\n      tag_14\n      jumpi\n      dup1\n      0xf38586b7\n      eq\n      tag_15\n      jumpi\n      dup1\n      0xfd04ffef\n      eq\n      tag_16\n      jumpi\n      jump(tag_2)\n    tag_18:\n      dup1\n      0x7a51837f\n      eq\n      tag_10\n      jumpi\n      dup1\n      0x84e00265\n      eq\n      tag_11\n      jumpi\n      dup1\n      0x88caf28d\n      eq\n      tag_12\n      jumpi\n      jump(tag_2)\n    tag_17:\n      dup1\n      0x33bc1b91\n      gt\n      tag_19\n      jumpi\n      dup1\n      0x33bc1b91\n      eq\n      tag_6\n      jumpi\n      dup1\n      0x5065ebe3\n      eq\n      tag_7\n      jumpi\n      dup1\n      0x6791fd6b\n      eq\n      tag_8\n      jumpi\n      dup1\n      0x6df0afa9\n      eq\n      tag_9\n      jumpi\n      jump(tag_2)\n    tag_19:\n      dup1\n      0x063d0f81\n      eq\n      tag_3\n      jumpi\n      dup1\n      0x13447fbd\n      eq\n      tag_4\n      jumpi\n      dup1\n      0x1847a4a4\n      eq\n      tag_5\n      jumpi\n    tag_2:\n      0x00\n      dup1\n      revert\n        /* \"interface/InterfaceContract.sol\":7042:7428  function interfaceRegisterUser(... */\n    tag_3:\n      tag_20\n      0x04\n      dup1\n      calldatasize\n      sub\n      dup2\n      add\n      swap1\n      tag_21\n      swap2\n      swap1\n      tag_22\n      jump\t// in\n    tag_21:\n      tag_23\n      jump\t// in\n    tag_20:\n      stop\n        /* \"interface/InterfaceContract.sol\":7504:7755  function interfaceAddFriend(address _myAccount,address _friendAccount,string memory message) public {... */\n    tag_4:\n      tag_24\n      0x04\n      dup1\n      calldatasize\n      sub\n      dup2\n      add\n      swap1\n      tag_25\n      swap2\n      swap1\n      tag_26\n      jump\t// in\n    tag_25:\n      tag_27\n      jump\t// in\n    tag_24:\n      stop\n        /* \"interface/InterfaceContract.sol\":8856:9063  function interfaceGetMessagesByAccount(address _myAccount,address _senderAccount) public  view returns(Message[] memory result){... */\n    tag_5:\n      tag_28\n      0x04\n      dup1\n      calldatasize\n      sub\n      dup2\n      add\n      swap1\n      tag_29\n      swap2\n      swap1\n      tag_30\n      jump\t// in\n    tag_29:\n      tag_31\n      jump\t// in\n    tag_28:\n      mload(0x40)\n      tag_32\n      swap2\n      swap1\n      tag_33\n      jump\t// in\n    tag_32:\n      mload(0x40)\n      dup1\n      swap2\n      sub\n      swap1\n      return\n        /* \"interface/InterfaceContract.sol\":7795:7959  function interfaceGetFriendsByAccount(address _account) public  view returns(address[] memory result)... */\n    tag_6:\n      tag_34\n      0x04\n      dup1\n      calldatasize\n      sub\n      dup2\n      add\n      swap1\n      tag_35\n      swap2\n      swap1\n      tag_36\n      jump\t// in\n    tag_35:\n      tag_37\n      jump\t// in\n    tag_34:\n      mload(0x40)\n      tag_38\n      swap2\n      swap1\n      tag_39\n      jump\t// in\n    tag_38:\n      mload(0x40)\n      dup1\n      swap2\n      sub\n      swap1\n      return\n        /* \"interface/InterfaceContract.sol\":8274:8586  function interfaceSendMessageByAccount(address _senderAccount,address _recipientAccount,string memory _content) public{... */\n    tag_7:\n      tag_40\n      0x04\n      dup1\n      calldatasize\n      sub\n      dup2\n      add\n      swap1\n      tag_41\n      swap2\n      swap1\n      tag_26\n      jump\t// in\n    tag_41:\n      tag_42\n      jump\t// in\n    tag_40:\n      stop\n        /* \"interface/InterfaceContract.sol\":9164:9464  function interfaceSendArticlesByAccount(address _senderAccount,string memory _title,string memory _content) public{... */\n    tag_8:\n      tag_43\n      0x04\n      dup1\n      calldatasize\n      sub\n      dup2\n      add\n      swap1\n      tag_44\n      swap2\n      swap1\n      tag_45\n      jump\t// in\n    tag_44:\n      tag_46\n      jump\t// in\n    tag_43:\n      stop\n        /* \"interface/InterfaceContract.sol\":6525:6814  function interfaceGetProfileByAddress(address _address) public returns (User memory) {... */\n    tag_9:\n      tag_47\n      0x04\n      dup1\n      calldatasize\n      sub\n      dup2\n      add\n      swap1\n      tag_48\n      swap2\n      swap1\n      tag_36\n      jump\t// in\n    tag_48:\n      tag_49\n      jump\t// in\n    tag_47:\n      mload(0x40)\n      tag_50\n      swap2\n      swap1\n      tag_51\n      jump\t// in\n    tag_50:\n      mload(0x40)\n      dup1\n      swap2\n      sub\n      swap1\n      return\n        /* \"interface/InterfaceContract.sol\":8653:8822  function interfaceGetMsgAccountByAccount(address _myAccount) public  view returns(address[] memory result){... */\n    tag_10:\n      tag_52\n      0x04\n      dup1\n      calldatasize\n      sub\n      dup2\n      add\n      swap1\n      tag_53\n      swap2\n      swap1\n      tag_36\n      jump\t// in\n    tag_53:\n      tag_54\n      jump\t// in\n    tag_52:\n      mload(0x40)\n      tag_55\n      swap2\n      swap1\n      tag_39\n      jump\t// in\n    tag_55:\n      mload(0x40)\n      dup1\n      swap2\n      sub\n      swap1\n      return\n        /* \"interface/InterfaceContract.sol\":6219:6508  function interfaceGetProfileByAccount(address _account) public returns (User memory) {... */\n    tag_11:\n      tag_56\n      0x04\n      dup1\n      calldatasize\n      sub\n      dup2\n      add\n      swap1\n      tag_57\n      swap2\n      swap1\n      tag_36\n      jump\t// in\n    tag_57:\n      tag_58\n      jump\t// in\n    tag_56:\n      mload(0x40)\n      tag_59\n      swap2\n      swap1\n      tag_51\n      jump\t// in\n    tag_59:\n      mload(0x40)\n      dup1\n      swap2\n      sub\n      swap1\n      return\n        /* \"interface/InterfaceContract.sol\":8005:8183  function interfaceGetFriendRequestsByAccount(address _account) public  view returns(address[] memory result)... */\n    tag_12:\n      tag_60\n      0x04\n      dup1\n      calldatasize\n      sub\n      dup2\n      add\n      swap1\n      tag_61\n      swap2\n      swap1\n      tag_36\n      jump\t// in\n    tag_61:\n      tag_62\n      jump\t// in\n    tag_60:\n      mload(0x40)\n      tag_63\n      swap2\n      swap1\n      tag_39\n      jump\t// in\n    tag_63:\n      mload(0x40)\n      dup1\n      swap2\n      sub\n      swap1\n      return\n        /* \"interface/InterfaceContract.sol\":5055:5273  function interfaceJoin() public {... */\n    tag_13:\n      tag_64\n      tag_65\n      jump\t// in\n    tag_64:\n      stop\n        /* \"interface/InterfaceContract.sol\":9510:9671  function interfaceGetArticlesByAccount(address _account) public  view returns(Article[] memory result){... */\n    tag_14:\n      tag_66\n      0x04\n      dup1\n      calldatasize\n      sub\n      dup2\n      add\n      swap1\n      tag_67\n      swap2\n      swap1\n      tag_36\n      jump\t// in\n    tag_67:\n      tag_68\n      jump\t// in\n    tag_66:\n      mload(0x40)\n      tag_69\n      swap2\n      swap1\n      tag_70\n      jump\t// in\n    tag_69:\n      mload(0x40)\n      dup1\n      swap2\n      sub\n      swap1\n      return\n        /* \"interface/InterfaceContract.sol\":5359:5658  function interfaceGetAccountByAddress(address _userAddress)... */\n    tag_15:\n      tag_71\n      0x04\n      dup1\n      calldatasize\n      sub\n      dup2\n      add\n      swap1\n      tag_72\n      swap2\n      swap1\n      tag_36\n      jump\t// in\n    tag_72:\n      tag_73\n      jump\t// in\n    tag_71:\n      mload(0x40)\n      tag_74\n      swap2\n      swap1\n      tag_75\n      jump\t// in\n    tag_74:\n      mload(0x40)\n      dup1\n      swap2\n      sub\n      swap1\n      return\n        /* \"interface/InterfaceContract.sol\":5886:6131  function interfaceGetMyAccount() public returns (address) {  ... */\n    tag_16:\n      tag_76\n      tag_77\n      jump\t// in\n    tag_76:\n      mload(0x40)\n      tag_78\n      swap2\n      swap1\n      tag_75\n      jump\t// in\n    tag_78:\n      mload(0x40)\n      dup1\n      swap2\n      sub\n      swap1\n      return\n        /* \"interface/InterfaceContract.sol\":7042:7428  function interfaceRegisterUser(... */\n    tag_23:\n        /* \"interface/InterfaceContract.sol\":7285:7326  registerUser(msg.sender, name, email,age) */\n      tag_80\n        /* \"interface/InterfaceContract.sol\":7298:7308  msg.sender */\n      caller\n        /* \"interface/InterfaceContract.sol\":7310:7314  name */\n      dup5\n        /* \"interface/InterfaceContract.sol\":7316:7321  email */\n      dup5\n        /* \"interface/InterfaceContract.sol\":7322:7325  age */\n      dup5\n        /* \"interface/InterfaceContract.sol\":7285:7297  registerUser */\n      tag_81\n        /* \"interface/InterfaceContract.sol\":7285:7326  registerUser(msg.sender, name, email,age) */\n      jump\t// in\n    tag_80:\n        /* \"interface/InterfaceContract.sol\":7344:7420  interfaceRegisterUserEvent(\"Function interfaceRegisterUser has been called\") */\n      0x152b777a0558316496d3cf44d3b429642341d714279a563874bf32a0cfd2c1d1\n      mload(0x40)\n      tag_82\n      swap1\n      tag_83\n      jump\t// in\n    tag_82:\n      mload(0x40)\n      dup1\n      swap2\n      sub\n      swap1\n      log1\n        /* \"interface/InterfaceContract.sol\":7042:7428  function interfaceRegisterUser(... */\n      pop\n      pop\n      pop\n      jump\t// out\n        /* \"interface/InterfaceContract.sol\":7504:7755  function interfaceAddFriend(address _myAccount,address _friendAccount,string memory message) public {... */\n    tag_27:\n        /* \"interface/InterfaceContract.sol\":7615:7659  addFriend(_myAccount,_friendAccount,message) */\n      tag_85\n        /* \"interface/InterfaceContract.sol\":7625:7635  _myAccount */\n      dup4\n        /* \"interface/InterfaceContract.sol\":7636:7650  _friendAccount */\n      dup4\n        /* \"interface/InterfaceContract.sol\":7651:7658  message */\n      dup4\n        /* \"interface/InterfaceContract.sol\":7615:7624  addFriend */\n      tag_86\n        /* \"interface/InterfaceContract.sol\":7615:7659  addFriend(_myAccount,_friendAccount,message) */\n      jump\t// in\n    tag_85:\n        /* \"interface/InterfaceContract.sol\":7675:7745  interfaceAddFriendEvent(\"Function interfaceAddFriend has been called\") */\n      0xf51cdf4aeec662ff29950ccbda3387fd0040bf6c6a8e9d378e4f15c9afc381d3\n      mload(0x40)\n      tag_87\n      swap1\n      tag_88\n      jump\t// in\n    tag_87:\n      mload(0x40)\n      dup1\n      swap2\n      sub\n      swap1\n      log1\n        /* \"interface/InterfaceContract.sol\":7504:7755  function interfaceAddFriend(address _myAccount,address _friendAccount,string memory message) public {... */\n      pop\n      pop\n      pop\n      jump\t// out\n        /* \"interface/InterfaceContract.sol\":8856:9063  function interfaceGetMessagesByAccount(address _myAccount,address _senderAccount) public  view returns(Message[] memory result){... */\n    tag_31:\n        /* \"interface/InterfaceContract.sol\":8959:8982  Message[] memory result */\n      0x60\n        /* \"interface/InterfaceContract.sol\":9007:9055  getMessagesByAccount(_myAccount, _senderAccount) */\n      tag_90\n        /* \"interface/InterfaceContract.sol\":9028:9038  _myAccount */\n      dup4\n        /* \"interface/InterfaceContract.sol\":9040:9054  _senderAccount */\n      dup4\n        /* \"interface/InterfaceContract.sol\":9007:9027  getMessagesByAccount */\n      tag_91\n        /* \"interface/InterfaceContract.sol\":9007:9055  getMessagesByAccount(_myAccount, _senderAccount) */\n      jump\t// in\n    tag_90:\n        /* \"interface/InterfaceContract.sol\":8998:9055  result = getMessagesByAccount(_myAccount, _senderAccount) */\n      swap1\n      pop\n        /* \"interface/InterfaceContract.sol\":8856:9063  function interfaceGetMessagesByAccount(address _myAccount,address _senderAccount) public  view returns(Message[] memory result){... */\n      swap3\n      swap2\n      pop\n      pop\n      jump\t// out\n        /* \"interface/InterfaceContract.sol\":7795:7959  function interfaceGetFriendsByAccount(address _account) public  view returns(address[] memory result)... */\n    tag_37:\n        /* \"interface/InterfaceContract.sol\":7872:7895  address[] memory result */\n      0x60\n        /* \"interface/InterfaceContract.sol\":7922:7951  getFriendsByAccount(_account) */\n      tag_93\n        /* \"interface/InterfaceContract.sol\":7942:7950  _account */\n      dup3\n        /* \"interface/InterfaceContract.sol\":7922:7941  getFriendsByAccount */\n      tag_94\n        /* \"interface/InterfaceContract.sol\":7922:7951  getFriendsByAccount(_account) */\n      jump\t// in\n    tag_93:\n        /* \"interface/InterfaceContract.sol\":7913:7951  result = getFriendsByAccount(_account) */\n      swap1\n      pop\n        /* \"interface/InterfaceContract.sol\":7795:7959  function interfaceGetFriendsByAccount(address _account) public  view returns(address[] memory result)... */\n      swap2\n      swap1\n      pop\n      jump\t// out\n        /* \"interface/InterfaceContract.sol\":8274:8586  function interfaceSendMessageByAccount(address _senderAccount,address _recipientAccount,string memory _content) public{... */\n    tag_42:\n        /* \"interface/InterfaceContract.sol\":8403:8468  sendMessageByAccount(_senderAccount, _recipientAccount, _content) */\n      tag_96\n        /* \"interface/InterfaceContract.sol\":8424:8438  _senderAccount */\n      dup4\n        /* \"interface/InterfaceContract.sol\":8440:8457  _recipientAccount */\n      dup4\n        /* \"interface/InterfaceContract.sol\":8459:8467  _content */\n      dup4\n        /* \"interface/InterfaceContract.sol\":8403:8423  sendMessageByAccount */\n      tag_97\n        /* \"interface/InterfaceContract.sol\":8403:8468  sendMessageByAccount(_senderAccount, _recipientAccount, _content) */\n      jump\t// in\n    tag_96:\n        /* \"interface/InterfaceContract.sol\":8484:8576  interfaceSendMessageByAccountEvent(\"Function interfaceSendMessageByAccount has been called\") */\n      0x34219118484756c593289e0014eec1e43e32f138cee0b9df592418c323983247\n      mload(0x40)\n      tag_98\n      swap1\n      tag_99\n      jump\t// in\n    tag_98:\n      mload(0x40)\n      dup1\n      swap2\n      sub\n      swap1\n      log1\n        /* \"interface/InterfaceContract.sol\":8274:8586  function interfaceSendMessageByAccount(address _senderAccount,address _recipientAccount,string memory _content) public{... */\n      pop\n      pop\n      pop\n      jump\t// out\n        /* \"interface/InterfaceContract.sol\":9164:9464  function interfaceSendArticlesByAccount(address _senderAccount,string memory _title,string memory _content) public{... */\n    tag_46:\n        /* \"interface/InterfaceContract.sol\":9289:9344  sendArticlesByAccount(_senderAccount, _title, _content) */\n      tag_101\n        /* \"interface/InterfaceContract.sol\":9311:9325  _senderAccount */\n      dup4\n        /* \"interface/InterfaceContract.sol\":9327:9333  _title */\n      dup4\n        /* \"interface/InterfaceContract.sol\":9335:9343  _content */\n      dup4\n        /* \"interface/InterfaceContract.sol\":9289:9310  sendArticlesByAccount */\n      tag_102\n        /* \"interface/InterfaceContract.sol\":9289:9344  sendArticlesByAccount(_senderAccount, _title, _content) */\n      jump\t// in\n    tag_101:\n        /* \"interface/InterfaceContract.sol\":9360:9454  interfaceSendArticlesByAccountEvent(\"Function interfaceSendArticlesByAccount has been called\") */\n      0xe6bf02b841d3e0738923d75fe8456f6dcfa21cf402094fca5ce12d85f2088994\n      mload(0x40)\n      tag_103\n      swap1\n      tag_104\n      jump\t// in\n    tag_103:\n      mload(0x40)\n      dup1\n      swap2\n      sub\n      swap1\n      log1\n        /* \"interface/InterfaceContract.sol\":9164:9464  function interfaceSendArticlesByAccount(address _senderAccount,string memory _title,string memory _content) public{... */\n      pop\n      pop\n      pop\n      jump\t// out\n        /* \"interface/InterfaceContract.sol\":6525:6814  function interfaceGetProfileByAddress(address _address) public returns (User memory) {... */\n    tag_49:\n        /* \"interface/InterfaceContract.sol\":6597:6608  User memory */\n      tag_105\n      tag_106\n      jump\t// in\n    tag_105:\n        /* \"interface/InterfaceContract.sol\":6623:6641  User memory result */\n      0x00\n        /* \"interface/InterfaceContract.sol\":6645:6674  getProfileByAddress(_address) */\n      tag_108\n        /* \"interface/InterfaceContract.sol\":6665:6673  _address */\n      dup4\n        /* \"interface/InterfaceContract.sol\":6645:6664  getProfileByAddress */\n      tag_109\n        /* \"interface/InterfaceContract.sol\":6645:6674  getProfileByAddress(_address) */\n      jump\t// in\n    tag_108:\n        /* \"interface/InterfaceContract.sol\":6623:6674  User memory result =  getProfileByAddress(_address) */\n      swap1\n      pop\n        /* \"interface/InterfaceContract.sol\":6690:6780  interfaceGetProfileByAddressEvent(\"Function interfaceGetProfileByAddress has been called\") */\n      0x9edc4c061d3a37fa170bea063bed2cd1e1198da759216bfcdf59d74c5ce8dc14\n      mload(0x40)\n      tag_110\n      swap1\n      tag_111\n      jump\t// in\n    tag_110:\n      mload(0x40)\n      dup1\n      swap2\n      sub\n      swap1\n      log1\n        /* \"interface/InterfaceContract.sol\":6798:6804  result */\n      dup1\n        /* \"interface/InterfaceContract.sol\":6791:6804  return result */\n      swap2\n      pop\n      pop\n        /* \"interface/InterfaceContract.sol\":6525:6814  function interfaceGetProfileByAddress(address _address) public returns (User memory) {... */\n      swap2\n      swap1\n      pop\n      jump\t// out\n        /* \"interface/InterfaceContract.sol\":8653:8822  function interfaceGetMsgAccountByAccount(address _myAccount) public  view returns(address[] memory result){... */\n    tag_54:\n        /* \"interface/InterfaceContract.sol\":8735:8758  address[] memory result */\n      0x60\n        /* \"interface/InterfaceContract.sol\":8780:8814  getMsgAccountByAccount(_myAccount) */\n      tag_113\n        /* \"interface/InterfaceContract.sol\":8803:8813  _myAccount */\n      dup3\n        /* \"interface/InterfaceContract.sol\":8780:8802  getMsgAccountByAccount */\n      tag_114\n        /* \"interface/InterfaceContract.sol\":8780:8814  getMsgAccountByAccount(_myAccount) */\n      jump\t// in\n    tag_113:\n        /* \"interface/InterfaceContract.sol\":8770:8814  result =  getMsgAccountByAccount(_myAccount) */\n      swap1\n      pop\n        /* \"interface/InterfaceContract.sol\":8653:8822  function interfaceGetMsgAccountByAccount(address _myAccount) public  view returns(address[] memory result){... */\n      swap2\n      swap1\n      pop\n      jump\t// out\n        /* \"interface/InterfaceContract.sol\":6219:6508  function interfaceGetProfileByAccount(address _account) public returns (User memory) {... */\n    tag_58:\n        /* \"interface/InterfaceContract.sol\":6291:6302  User memory */\n      tag_115\n      tag_106\n      jump\t// in\n    tag_115:\n        /* \"interface/InterfaceContract.sol\":6317:6335  User memory result */\n      0x00\n        /* \"interface/InterfaceContract.sol\":6339:6368  getProfileByAccount(_account) */\n      tag_117\n        /* \"interface/InterfaceContract.sol\":6359:6367  _account */\n      dup4\n        /* \"interface/InterfaceContract.sol\":6339:6358  getProfileByAccount */\n      tag_118\n        /* \"interface/InterfaceContract.sol\":6339:6368  getProfileByAccount(_account) */\n      jump\t// in\n    tag_117:\n        /* \"interface/InterfaceContract.sol\":6317:6368  User memory result =  getProfileByAccount(_account) */\n      swap1\n      pop\n        /* \"interface/InterfaceContract.sol\":6384:6474  interfaceGetProfileByAccountEvent(\"Function interfaceGetProfileByAccount has been called\") */\n      0x81fcf8fee9f0c6d964f962ebc504306a43e721e48647a6fed58ab7258cab91d3\n      mload(0x40)\n      tag_119\n      swap1\n      tag_120\n      jump\t// in\n    tag_119:\n      mload(0x40)\n      dup1\n      swap2\n      sub\n      swap1\n      log1\n        /* \"interface/InterfaceContract.sol\":6492:6498  result */\n      dup1\n        /* \"interface/InterfaceContract.sol\":6485:6498  return result */\n      swap2\n      pop\n      pop\n        /* \"interface/InterfaceContract.sol\":6219:6508  function interfaceGetProfileByAccount(address _account) public returns (User memory) {... */\n      swap2\n      swap1\n      pop\n      jump\t// out\n        /* \"interface/InterfaceContract.sol\":8005:8183  function interfaceGetFriendRequestsByAccount(address _account) public  view returns(address[] memory result)... */\n    tag_62:\n        /* \"interface/InterfaceContract.sol\":8089:8112  address[] memory result */\n      0x60\n        /* \"interface/InterfaceContract.sol\":8139:8175  getFriendRequestsByAccount(_account) */\n      tag_122\n        /* \"interface/InterfaceContract.sol\":8166:8174  _account */\n      dup3\n        /* \"interface/InterfaceContract.sol\":8139:8165  getFriendRequestsByAccount */\n      tag_123\n        /* \"interface/InterfaceContract.sol\":8139:8175  getFriendRequestsByAccount(_account) */\n      jump\t// in\n    tag_122:\n        /* \"interface/InterfaceContract.sol\":8130:8175  result = getFriendRequestsByAccount(_account) */\n      swap1\n      pop\n        /* \"interface/InterfaceContract.sol\":8005:8183  function interfaceGetFriendRequestsByAccount(address _account) public  view returns(address[] memory result)... */\n      swap2\n      swap1\n      pop\n      jump\t// out\n        /* \"interface/InterfaceContract.sol\":5055:5273  function interfaceJoin() public {... */\n    tag_65:\n        /* \"interface/InterfaceContract.sol\":5173:5189  join(msg.sender) */\n      tag_125\n        /* \"interface/InterfaceContract.sol\":5178:5188  msg.sender */\n      caller\n        /* \"interface/InterfaceContract.sol\":5173:5177  join */\n      tag_126\n        /* \"interface/InterfaceContract.sol\":5173:5189  join(msg.sender) */\n      jump\t// in\n    tag_125:\n      pop\n        /* \"interface/InterfaceContract.sol\":5205:5265  interfaceJoinEvent(\"Function interfaceJoin has been called\") */\n      0xfd23d12f0075880244a707584c07c74c3ee39e37b4c9fb038b97a39e278b73bc\n      mload(0x40)\n      tag_127\n      swap1\n      tag_128\n      jump\t// in\n    tag_127:\n      mload(0x40)\n      dup1\n      swap2\n      sub\n      swap1\n      log1\n        /* \"interface/InterfaceContract.sol\":5055:5273  function interfaceJoin() public {... */\n      jump\t// out\n        /* \"interface/InterfaceContract.sol\":9510:9671  function interfaceGetArticlesByAccount(address _account) public  view returns(Article[] memory result){... */\n    tag_68:\n        /* \"interface/InterfaceContract.sol\":9588:9611  Article[] memory result */\n      0x60\n        /* \"interface/InterfaceContract.sol\":9633:9663  getArticlesByAccount(_account) */\n      tag_130\n        /* \"interface/InterfaceContract.sol\":9654:9662  _account */\n      dup3\n        /* \"interface/InterfaceContract.sol\":9633:9653  getArticlesByAccount */\n      tag_131\n        /* \"interface/InterfaceContract.sol\":9633:9663  getArticlesByAccount(_account) */\n      jump\t// in\n    tag_130:\n        /* \"interface/InterfaceContract.sol\":9623:9663  result =  getArticlesByAccount(_account) */\n      swap1\n      pop\n        /* \"interface/InterfaceContract.sol\":9510:9671  function interfaceGetArticlesByAccount(address _account) public  view returns(Article[] memory result){... */\n      swap2\n      swap1\n      pop\n      jump\t// out\n        /* \"interface/InterfaceContract.sol\":5359:5658  function interfaceGetAccountByAddress(address _userAddress)... */\n    tag_73:\n        /* \"interface/InterfaceContract.sol\":5445:5452  address */\n      0x00\n        /* \"interface/InterfaceContract.sol\":5470:5484  address result */\n      dup1\n        /* \"interface/InterfaceContract.sol\":5487:5520  getAccountByAddress(_userAddress) */\n      tag_133\n        /* \"interface/InterfaceContract.sol\":5507:5519  _userAddress */\n      dup4\n        /* \"interface/InterfaceContract.sol\":5487:5506  getAccountByAddress */\n      tag_134\n        /* \"interface/InterfaceContract.sol\":5487:5520  getAccountByAddress(_userAddress) */\n      jump\t// in\n    tag_133:\n        /* \"interface/InterfaceContract.sol\":5470:5520  address result = getAccountByAddress(_userAddress) */\n      swap1\n      pop\n        /* \"interface/InterfaceContract.sol\":5536:5626  interfaceGetAccountByAddressEvent(\"Function interfaceGetAccountByAddress has been called\") */\n      0xde833ac95bd532fc1024dae78cf2b0b9f0267b902826e4e4db4259d4084a1694\n      mload(0x40)\n      tag_135\n      swap1\n      tag_136\n      jump\t// in\n    tag_135:\n      mload(0x40)\n      dup1\n      swap2\n      sub\n      swap1\n      log1\n        /* \"interface/InterfaceContract.sol\":5644:5650  result */\n      dup1\n        /* \"interface/InterfaceContract.sol\":5637:5650  return result */\n      swap2\n      pop\n      pop\n        /* \"interface/InterfaceContract.sol\":5359:5658  function interfaceGetAccountByAddress(address _userAddress)... */\n      swap2\n      swap1\n      pop\n      jump\t// out\n        /* \"interface/InterfaceContract.sol\":5886:6131  function interfaceGetMyAccount() public returns (address) {  ... */\n    tag_77:\n        /* \"interface/InterfaceContract.sol\":5935:5942  address */\n      0x00\n        /* \"interface/InterfaceContract.sol\":5957:5971  address result */\n      dup1\n        /* \"interface/InterfaceContract.sol\":5974:6005  getAccountByAddress(msg.sender) */\n      tag_138\n        /* \"interface/InterfaceContract.sol\":5994:6004  msg.sender */\n      caller\n        /* \"interface/InterfaceContract.sol\":5974:5993  getAccountByAddress */\n      tag_134\n        /* \"interface/InterfaceContract.sol\":5974:6005  getAccountByAddress(msg.sender) */\n      jump\t// in\n    tag_138:\n        /* \"interface/InterfaceContract.sol\":5957:6005  address result = getAccountByAddress(msg.sender) */\n      swap1\n      pop\n        /* \"interface/InterfaceContract.sol\":6023:6099  interfaceGetMyAccountEvent(\"Function interfaceGetMyAccount has been called\") */\n      0x58f6cac518b0f408b2ee263a6a7036e8e213858b88c83ba49d4acf5d563b8cd0\n      mload(0x40)\n      tag_139\n      swap1\n      tag_140\n      jump\t// in\n    tag_139:\n      mload(0x40)\n      dup1\n      swap2\n      sub\n      swap1\n      log1\n        /* \"interface/InterfaceContract.sol\":6117:6123  result */\n      dup1\n        /* \"interface/InterfaceContract.sol\":6110:6123  return result */\n      swap2\n      pop\n      pop\n        /* \"interface/InterfaceContract.sol\":5886:6131  function interfaceGetMyAccount() public returns (address) {  ... */\n      swap1\n      jump\t// out\n        /* \"service/ServiceContract.sol\":1757:2193  function registerUser(... */\n    tag_81:\n        /* \"service/ServiceContract.sol\":1920:1947  checkAddressJoined(_sender) */\n      tag_142\n        /* \"service/ServiceContract.sol\":1939:1946  _sender */\n      dup5\n        /* \"service/ServiceContract.sol\":1920:1938  checkAddressJoined */\n      tag_143\n        /* \"service/ServiceContract.sol\":1920:1947  checkAddressJoined(_sender) */\n      jump\t// in\n    tag_142:\n        /* \"service/ServiceContract.sol\":1915:2085  if (!checkAddressJoined(_sender)) {... */\n      tag_144\n      jumpi\n        /* \"service/ServiceContract.sol\":1964:2073  revert(... */\n      mload(0x40)\n      0x08c379a000000000000000000000000000000000000000000000000000000000\n      dup2\n      mstore\n      0x04\n      add\n      tag_145\n      swap1\n      tag_146\n      jump\t// in\n    tag_145:\n      mload(0x40)\n      dup1\n      swap2\n      sub\n      swap1\n      revert\n        /* \"service/ServiceContract.sol\":1915:2085  if (!checkAddressJoined(_sender)) {... */\n    tag_144:\n        /* \"service/ServiceContract.sol\":2097:2140  setUserByAddress(_sender, name, email, age) */\n      tag_147\n        /* \"service/ServiceContract.sol\":2114:2121  _sender */\n      dup5\n        /* \"service/ServiceContract.sol\":2123:2127  name */\n      dup5\n        /* \"service/ServiceContract.sol\":2129:2134  email */\n      dup5\n        /* \"service/ServiceContract.sol\":2136:2139  age */\n      dup5\n        /* \"service/ServiceContract.sol\":2097:2113  setUserByAddress */\n      tag_148\n        /* \"service/ServiceContract.sol\":2097:2140  setUserByAddress(_sender, name, email, age) */\n      jump\t// in\n    tag_147:\n        /* \"service/ServiceContract.sol\":2151:2183  setAddressVerified(_sender,true) */\n      tag_149\n        /* \"service/ServiceContract.sol\":2170:2177  _sender */\n      dup5\n        /* \"service/ServiceContract.sol\":2178:2182  true */\n      0x01\n        /* \"service/ServiceContract.sol\":2151:2169  setAddressVerified */\n      tag_150\n        /* \"service/ServiceContract.sol\":2151:2183  setAddressVerified(_sender,true) */\n      jump\t// in\n    tag_149:\n        /* \"service/ServiceContract.sol\":1757:2193  function registerUser(... */\n      pop\n      pop\n      pop\n      pop\n      jump\t// out\n        /* \"service/ServiceContract.sol\":4412:5177  function addFriend(... */\n    tag_86:\n        /* \"service/ServiceContract.sol\":4554:4570  address _account */\n      0x00\n        /* \"service/ServiceContract.sol\":4573:4583  _myAccount */\n      dup4\n        /* \"service/ServiceContract.sol\":4554:4583  address _account = _myAccount */\n      swap1\n      pop\n        /* \"service/ServiceContract.sol\":4658:4694  checkAccountRegisted(_friendAccount) */\n      tag_152\n        /* \"service/ServiceContract.sol\":4679:4693  _friendAccount */\n      dup4\n        /* \"service/ServiceContract.sol\":4658:4678  checkAccountRegisted */\n      tag_153\n        /* \"service/ServiceContract.sol\":4658:4694  checkAccountRegisted(_friendAccount) */\n      jump\t// in\n    tag_152:\n        /* \"service/ServiceContract.sol\":4653:4789  if (!checkAccountRegisted(_friendAccount)) {... */\n      tag_154\n      jumpi\n        /* \"service/ServiceContract.sol\":4711:4777  revert(\"ServiveContract-addFriend: Friend account not registered\") */\n      mload(0x40)\n      0x08c379a000000000000000000000000000000000000000000000000000000000\n      dup2\n      mstore\n      0x04\n      add\n      tag_155\n      swap1\n      tag_156\n      jump\t// in\n    tag_155:\n      mload(0x40)\n      dup1\n      swap2\n      sub\n      swap1\n      revert\n        /* \"service/ServiceContract.sol\":4653:4789  if (!checkAccountRegisted(_friendAccount)) {... */\n    tag_154:\n        /* \"service/ServiceContract.sol\":4821:4829  _account */\n      dup1\n        /* \"service/ServiceContract.sol\":4803:4829  _friendAccount == _account */\n      0xffffffffffffffffffffffffffffffffffffffff\n      and\n        /* \"service/ServiceContract.sol\":4803:4817  _friendAccount */\n      dup4\n        /* \"service/ServiceContract.sol\":4803:4829  _friendAccount == _account */\n      0xffffffffffffffffffffffffffffffffffffffff\n      and\n      sub\n        /* \"service/ServiceContract.sol\":4799:4954  if (_friendAccount == _account) {... */\n      tag_157\n      jumpi\n        /* \"service/ServiceContract.sol\":4846:4942  revert(... */\n      mload(0x40)\n      0x08c379a000000000000000000000000000000000000000000000000000000000\n      dup2\n      mstore\n      0x04\n      add\n      tag_158\n      swap1\n      tag_159\n      jump\t// in\n    tag_158:\n      mload(0x40)\n      dup1\n      swap2\n      sub\n      swap1\n      revert\n        /* \"service/ServiceContract.sol\":4799:4954  if (_friendAccount == _account) {... */\n    tag_157:\n        /* \"service/ServiceContract.sol\":4968:5024  checkAccountAndAccountIsFriend(_account, _friendAccount) */\n      tag_160\n        /* \"service/ServiceContract.sol\":4999:5007  _account */\n      dup2\n        /* \"service/ServiceContract.sol\":5009:5023  _friendAccount */\n      dup5\n        /* \"service/ServiceContract.sol\":4968:4998  checkAccountAndAccountIsFriend */\n      tag_161\n        /* \"service/ServiceContract.sol\":4968:5024  checkAccountAndAccountIsFriend(_account, _friendAccount) */\n      jump\t// in\n    tag_160:\n        /* \"service/ServiceContract.sol\":4964:5114  if (checkAccountAndAccountIsFriend(_account, _friendAccount)) {... */\n      iszero\n      tag_162\n      jumpi\n        /* \"service/ServiceContract.sol\":5041:5102  revert(\"ServiveContract-addFriend: He/She is already friend\") */\n      mload(0x40)\n      0x08c379a000000000000000000000000000000000000000000000000000000000\n      dup2\n      mstore\n      0x04\n      add\n      tag_163\n      swap1\n      tag_164\n      jump\t// in\n    tag_163:\n      mload(0x40)\n      dup1\n      swap2\n      sub\n      swap1\n      revert\n        /* \"service/ServiceContract.sol\":4964:5114  if (checkAccountAndAccountIsFriend(_account, _friendAccount)) {... */\n    tag_162:\n        /* \"service/ServiceContract.sol\":5124:5169  setFriend(_account, _friendAccount, _message) */\n      tag_165\n        /* \"service/ServiceContract.sol\":5134:5142  _account */\n      dup2\n        /* \"service/ServiceContract.sol\":5144:5158  _friendAccount */\n      dup5\n        /* \"service/ServiceContract.sol\":5160:5168  _message */\n      dup5\n        /* \"service/ServiceContract.sol\":5124:5133  setFriend */\n      tag_166\n        /* \"service/ServiceContract.sol\":5124:5169  setFriend(_account, _friendAccount, _message) */\n      jump\t// in\n    tag_165:\n        /* \"service/ServiceContract.sol\":4543:5177  {... */\n      pop\n        /* \"service/ServiceContract.sol\":4412:5177  function addFriend(... */\n      pop\n      pop\n      pop\n      jump\t// out\n        /* \"service/ServiceContract.sol\":6462:6652  function getMessagesByAccount(address _myAccount,address _senderAccount) internal view returns(Message[] memory ) {... */\n    tag_91:\n        /* \"service/ServiceContract.sol\":6557:6573  Message[] memory */\n      0x60\n        /* \"service/ServiceContract.sol\":6603:6642  getMessages(_myAccount, _senderAccount) */\n      tag_168\n        /* \"service/ServiceContract.sol\":6615:6625  _myAccount */\n      dup4\n        /* \"service/ServiceContract.sol\":6627:6641  _senderAccount */\n      dup4\n        /* \"service/ServiceContract.sol\":6603:6614  getMessages */\n      tag_169\n        /* \"service/ServiceContract.sol\":6603:6642  getMessages(_myAccount, _senderAccount) */\n      jump\t// in\n    tag_168:\n        /* \"service/ServiceContract.sol\":6596:6642  return getMessages(_myAccount, _senderAccount) */\n      swap1\n      pop\n        /* \"service/ServiceContract.sol\":6462:6652  function getMessagesByAccount(address _myAccount,address _senderAccount) internal view returns(Message[] memory ) {... */\n      swap3\n      swap2\n      pop\n      pop\n      jump\t// out\n        /* \"service/ServiceContract.sol\":5257:5404  function getFriendsByAccount(address _account) internal view returns(address[] memory result)... */\n    tag_94:\n        /* \"service/ServiceContract.sol\":5326:5349  address[] memory result */\n      0x60\n        /* \"service/ServiceContract.sol\":5376:5396  getFriends(_account) */\n      tag_171\n        /* \"service/ServiceContract.sol\":5387:5395  _account */\n      dup3\n        /* \"service/ServiceContract.sol\":5376:5386  getFriends */\n      tag_172\n        /* \"service/ServiceContract.sol\":5376:5396  getFriends(_account) */\n      jump\t// in\n    tag_171:\n        /* \"service/ServiceContract.sol\":5367:5396  result = getFriends(_account) */\n      swap1\n      pop\n        /* \"service/ServiceContract.sol\":5257:5404  function getFriendsByAccount(address _account) internal view returns(address[] memory result)... */\n      swap2\n      swap1\n      pop\n      jump\t// out\n        /* \"service/ServiceContract.sol\":5721:6137  function sendMessageByAccount(address _senderAccount,address _recipientAccount,string memory _content) internal {... */\n    tag_97:\n        /* \"service/ServiceContract.sol\":5885:5950  checkAccountAndAccountIsFriend( _senderAccount,_recipientAccount) */\n      tag_174\n        /* \"service/ServiceContract.sol\":5917:5931  _senderAccount */\n      dup4\n        /* \"service/ServiceContract.sol\":5932:5949  _recipientAccount */\n      dup4\n        /* \"service/ServiceContract.sol\":5885:5915  checkAccountAndAccountIsFriend */\n      tag_161\n        /* \"service/ServiceContract.sol\":5885:5950  checkAccountAndAccountIsFriend( _senderAccount,_recipientAccount) */\n      jump\t// in\n    tag_174:\n        /* \"service/ServiceContract.sol\":5880:6059  if (!checkAccountAndAccountIsFriend( _senderAccount,_recipientAccount)) {... */\n      tag_175\n      jumpi\n        /* \"service/ServiceContract.sol\":5967:6047  revert(\"ServiveContract-sendMessage: Your friend request has not been approved\") */\n      mload(0x40)\n      0x08c379a000000000000000000000000000000000000000000000000000000000\n      dup2\n      mstore\n      0x04\n      add\n      tag_176\n      swap1\n      tag_177\n      jump\t// in\n    tag_176:\n      mload(0x40)\n      dup1\n      swap2\n      sub\n      swap1\n      revert\n        /* \"service/ServiceContract.sol\":5880:6059  if (!checkAccountAndAccountIsFriend( _senderAccount,_recipientAccount)) {... */\n    tag_175:\n        /* \"service/ServiceContract.sol\":6069:6125  setMessages(_senderAccount, _recipientAccount, _content) */\n      tag_178\n        /* \"service/ServiceContract.sol\":6081:6095  _senderAccount */\n      dup4\n        /* \"service/ServiceContract.sol\":6097:6114  _recipientAccount */\n      dup4\n        /* \"service/ServiceContract.sol\":6116:6124  _content */\n      dup4\n        /* \"service/ServiceContract.sol\":6069:6080  setMessages */\n      tag_179\n        /* \"service/ServiceContract.sol\":6069:6125  setMessages(_senderAccount, _recipientAccount, _content) */\n      jump\t// in\n    tag_178:\n        /* \"service/ServiceContract.sol\":5721:6137  function sendMessageByAccount(address _senderAccount,address _recipientAccount,string memory _content) internal {... */\n      pop\n      pop\n      pop\n      jump\t// out\n        /* \"service/ServiceContract.sol\":6703:6877  function sendArticlesByAccount(address _myAccount,string memory _title,string memory _content) internal {... */\n    tag_102:\n        /* \"service/ServiceContract.sol\":6827:6867  setArticles(_myAccount, _title,_content) */\n      tag_181\n        /* \"service/ServiceContract.sol\":6839:6849  _myAccount */\n      dup4\n        /* \"service/ServiceContract.sol\":6851:6857  _title */\n      dup4\n        /* \"service/ServiceContract.sol\":6858:6866  _content */\n      dup4\n        /* \"service/ServiceContract.sol\":6827:6838  setArticles */\n      tag_182\n        /* \"service/ServiceContract.sol\":6827:6867  setArticles(_myAccount, _title,_content) */\n      jump\t// in\n    tag_181:\n        /* \"service/ServiceContract.sol\":6703:6877  function sendArticlesByAccount(address _myAccount,string memory _title,string memory _content) internal {... */\n      pop\n      pop\n      pop\n      jump\t// out\n        /* \"service/ServiceContract.sol\":2201:2927  function getProfileByAddress(address _sender)view  internal returns (User memory result){... */\n    tag_109:\n        /* \"service/ServiceContract.sol\":2270:2288  User memory result */\n      tag_183\n      tag_106\n      jump\t// in\n    tag_183:\n        /* \"service/ServiceContract.sol\":2380:2407  checkAddressJoined(_sender) */\n      tag_185\n        /* \"service/ServiceContract.sol\":2399:2406  _sender */\n      dup3\n        /* \"service/ServiceContract.sol\":2380:2398  checkAddressJoined */\n      tag_143\n        /* \"service/ServiceContract.sol\":2380:2407  checkAddressJoined(_sender) */\n      jump\t// in\n    tag_185:\n        /* \"service/ServiceContract.sol\":2375:2561  if (!checkAddressJoined(_sender)) {... */\n      tag_186\n      jumpi\n        /* \"service/ServiceContract.sol\":2424:2549  revert(... */\n      mload(0x40)\n      0x08c379a000000000000000000000000000000000000000000000000000000000\n      dup2\n      mstore\n      0x04\n      add\n      tag_187\n      swap1\n      tag_188\n      jump\t// in\n    tag_187:\n      mload(0x40)\n      dup1\n      swap2\n      sub\n      swap1\n      revert\n        /* \"service/ServiceContract.sol\":2375:2561  if (!checkAddressJoined(_sender)) {... */\n    tag_186:\n        /* \"service/ServiceContract.sol\":2577:2606  checkAddressRegisted(_sender) */\n      tag_189\n        /* \"service/ServiceContract.sol\":2598:2605  _sender */\n      dup3\n        /* \"service/ServiceContract.sol\":2577:2597  checkAddressRegisted */\n      tag_190\n        /* \"service/ServiceContract.sol\":2577:2606  checkAddressRegisted(_sender) */\n      jump\t// in\n    tag_189:\n        /* \"service/ServiceContract.sol\":2573:2761  if(!checkAddressRegisted(_sender)){... */\n      tag_191\n      jumpi\n        /* \"service/ServiceContract.sol\":2622:2749  revert(... */\n      mload(0x40)\n      0x08c379a000000000000000000000000000000000000000000000000000000000\n      dup2\n      mstore\n      0x04\n      add\n      tag_192\n      swap1\n      tag_193\n      jump\t// in\n    tag_192:\n      mload(0x40)\n      dup1\n      swap2\n      sub\n      swap1\n      revert\n        /* \"service/ServiceContract.sol\":2573:2761  if(!checkAddressRegisted(_sender)){... */\n    tag_191:\n        /* \"service/ServiceContract.sol\":2773:2789  address _account */\n      0x00\n        /* \"service/ServiceContract.sol\":2792:2812  getAccounts(_sender) */\n      tag_194\n        /* \"service/ServiceContract.sol\":2804:2811  _sender */\n      dup4\n        /* \"service/ServiceContract.sol\":2792:2803  getAccounts */\n      tag_195\n        /* \"service/ServiceContract.sol\":2792:2812  getAccounts(_sender) */\n      jump\t// in\n    tag_194:\n        /* \"service/ServiceContract.sol\":2773:2812  address _account = getAccounts(_sender) */\n      swap1\n      pop\n        /* \"service/ServiceContract.sol\":2900:2917  getUser(_account) */\n      tag_196\n        /* \"service/ServiceContract.sol\":2908:2916  _account */\n      dup2\n        /* \"service/ServiceContract.sol\":2900:2907  getUser */\n      tag_197\n        /* \"service/ServiceContract.sol\":2900:2917  getUser(_account) */\n      jump\t// in\n    tag_196:\n        /* \"service/ServiceContract.sol\":2891:2917  result = getUser(_account) */\n      swap2\n      pop\n        /* \"service/ServiceContract.sol\":2289:2927  {... */\n      pop\n        /* \"service/ServiceContract.sol\":2201:2927  function getProfileByAddress(address _sender)view  internal returns (User memory result){... */\n      swap2\n      swap1\n      pop\n      jump\t// out\n        /* \"service/ServiceContract.sol\":6213:6365  function getMsgAccountByAccount(address _myAccount) internal view returns(address[] memory result){... */\n    tag_114:\n        /* \"service/ServiceContract.sol\":6287:6310  address[] memory result */\n      0x60\n        /* \"service/ServiceContract.sol\":6332:6357  getMsgAccount(_myAccount) */\n      tag_199\n        /* \"service/ServiceContract.sol\":6346:6356  _myAccount */\n      dup3\n        /* \"service/ServiceContract.sol\":6332:6345  getMsgAccount */\n      tag_200\n        /* \"service/ServiceContract.sol\":6332:6357  getMsgAccount(_myAccount) */\n      jump\t// in\n    tag_199:\n        /* \"service/ServiceContract.sol\":6322:6357  result =  getMsgAccount(_myAccount) */\n      swap1\n      pop\n        /* \"service/ServiceContract.sol\":6213:6365  function getMsgAccountByAccount(address _myAccount) internal view returns(address[] memory result){... */\n      swap2\n      swap1\n      pop\n      jump\t// out\n        /* \"service/ServiceContract.sol\":2935:3325  function getProfileByAccount(address _account)view  internal  returns (User memory result){... */\n    tag_118:\n        /* \"service/ServiceContract.sol\":3006:3024  User memory result */\n      tag_201\n      tag_106\n      jump\t// in\n    tag_201:\n        /* \"service/ServiceContract.sol\":3091:3121  checkAccountRegisted(_account) */\n      tag_203\n        /* \"service/ServiceContract.sol\":3112:3120  _account */\n      dup3\n        /* \"service/ServiceContract.sol\":3091:3111  checkAccountRegisted */\n      tag_153\n        /* \"service/ServiceContract.sol\":3091:3121  checkAccountRegisted(_account) */\n      jump\t// in\n    tag_203:\n        /* \"service/ServiceContract.sol\":3087:3277  if(!checkAccountRegisted(_account)){... */\n      tag_204\n      jumpi\n        /* \"service/ServiceContract.sol\":3137:3265  revert(... */\n      mload(0x40)\n      0x08c379a000000000000000000000000000000000000000000000000000000000\n      dup2\n      mstore\n      0x04\n      add\n      tag_205\n      swap1\n      tag_206\n      jump\t// in\n    tag_205:\n      mload(0x40)\n      dup1\n      swap2\n      sub\n      swap1\n      revert\n        /* \"service/ServiceContract.sol\":3087:3277  if(!checkAccountRegisted(_account)){... */\n    tag_204:\n        /* \"service/ServiceContract.sol\":3298:3315  getUser(_account) */\n      tag_207\n        /* \"service/ServiceContract.sol\":3306:3314  _account */\n      dup3\n        /* \"service/ServiceContract.sol\":3298:3305  getUser */\n      tag_197\n        /* \"service/ServiceContract.sol\":3298:3315  getUser(_account) */\n      jump\t// in\n    tag_207:\n        /* \"service/ServiceContract.sol\":3289:3315  result = getUser(_account) */\n      swap1\n      pop\n        /* \"service/ServiceContract.sol\":2935:3325  function getProfileByAccount(address _account)view  internal  returns (User memory result){... */\n      swap2\n      swap1\n      pop\n      jump\t// out\n        /* \"service/ServiceContract.sol\":5487:5648  function getFriendRequestsByAccount(address _account) internal view returns(address[] memory result)... */\n    tag_123:\n        /* \"service/ServiceContract.sol\":5563:5586  address[] memory result */\n      0x60\n        /* \"service/ServiceContract.sol\":5613:5640  getFriendRequests(_account) */\n      tag_209\n        /* \"service/ServiceContract.sol\":5631:5639  _account */\n      dup3\n        /* \"service/ServiceContract.sol\":5613:5630  getFriendRequests */\n      tag_210\n        /* \"service/ServiceContract.sol\":5613:5640  getFriendRequests(_account) */\n      jump\t// in\n    tag_209:\n        /* \"service/ServiceContract.sol\":5604:5640  result = getFriendRequests(_account) */\n      swap1\n      pop\n        /* \"service/ServiceContract.sol\":5487:5648  function getFriendRequestsByAccount(address _account) internal view returns(address[] memory result)... */\n      swap2\n      swap1\n      pop\n      jump\t// out\n        /* \"service/ServiceContract.sol\":757:1373  function join(address _sender) internal  returns (bool success) {... */\n    tag_126:\n        /* \"service/ServiceContract.sol\":807:819  bool success */\n      0x00\n        /* \"service/ServiceContract.sol\":862:889  checkAddressJoined(_sender) */\n      tag_212\n        /* \"service/ServiceContract.sol\":881:888  _sender */\n      dup3\n        /* \"service/ServiceContract.sol\":862:880  checkAddressJoined */\n      tag_143\n        /* \"service/ServiceContract.sol\":862:889  checkAddressJoined(_sender) */\n      jump\t// in\n    tag_212:\n        /* \"service/ServiceContract.sol\":858:973  if (checkAddressJoined(_sender)) {... */\n      iszero\n      tag_213\n      jumpi\n        /* \"service/ServiceContract.sol\":906:961  revert(\"ServiveContract-join: this address has joined\") */\n      mload(0x40)\n      0x08c379a000000000000000000000000000000000000000000000000000000000\n      dup2\n      mstore\n      0x04\n      add\n      tag_214\n      swap1\n      tag_215\n      jump\t// in\n    tag_214:\n      mload(0x40)\n      dup1\n      swap2\n      sub\n      swap1\n      revert\n        /* \"service/ServiceContract.sol\":858:973  if (checkAddressJoined(_sender)) {... */\n    tag_213:\n        /* \"service/ServiceContract.sol\":983:1001  address newAddress */\n      0x00\n        /* \"service/ServiceContract.sol\":1109:1119  msg.sender */\n      caller\n        /* \"service/ServiceContract.sol\":1121:1136  block.timestamp */\n      timestamp\n        /* \"service/ServiceContract.sol\":1092:1137  abi.encodePacked(msg.sender, block.timestamp) */\n      add(0x20, mload(0x40))\n      tag_216\n      swap3\n      swap2\n      swap1\n      tag_217\n      jump\t// in\n    tag_216:\n      mload(0x40)\n      0x20\n      dup2\n      dup4\n      sub\n      sub\n      dup2\n      mstore\n      swap1\n      0x40\n      mstore\n        /* \"service/ServiceContract.sol\":1082:1138  keccak256(abi.encodePacked(msg.sender, block.timestamp)) */\n      dup1\n      mload\n      swap1\n      0x20\n      add\n      keccak256\n        /* \"service/ServiceContract.sol\":1052:1157  uint256(... */\n      0x00\n      shr\n        /* \"service/ServiceContract.sol\":983:1183  address newAddress = address(... */\n      swap1\n      pop\n        /* \"service/ServiceContract.sol\":1213:1245  setAccounts(_sender, newAddress) */\n      tag_218\n        /* \"service/ServiceContract.sol\":1225:1232  _sender */\n      dup4\n        /* \"service/ServiceContract.sol\":1234:1244  newAddress */\n      dup3\n        /* \"service/ServiceContract.sol\":1213:1224  setAccounts */\n      tag_219\n        /* \"service/ServiceContract.sol\":1213:1245  setAccounts(_sender, newAddress) */\n      jump\t// in\n    tag_218:\n        /* \"service/ServiceContract.sol\":1266:1270  true */\n      0x01\n        /* \"service/ServiceContract.sol\":1256:1270  success = true */\n      swap2\n      pop\n        /* \"service/ServiceContract.sol\":821:1373  {... */\n      pop\n        /* \"service/ServiceContract.sol\":757:1373  function join(address _sender) internal  returns (bool success) {... */\n      swap2\n      swap1\n      pop\n      jump\t// out\n        /* \"service/ServiceContract.sol\":6955:7106  function getArticlesByAccount(address _myAccount) internal view returns(Article[] memory ) {... */\n    tag_131:\n        /* \"service/ServiceContract.sol\":7027:7043  Article[] memory */\n      0x60\n        /* \"service/ServiceContract.sol\":7073:7096  getArticles(_myAccount) */\n      tag_221\n        /* \"service/ServiceContract.sol\":7085:7095  _myAccount */\n      dup3\n        /* \"service/ServiceContract.sol\":7073:7084  getArticles */\n      tag_222\n        /* \"service/ServiceContract.sol\":7073:7096  getArticles(_myAccount) */\n      jump\t// in\n    tag_221:\n        /* \"service/ServiceContract.sol\":7066:7096  return getArticles(_myAccount) */\n      swap1\n      pop\n        /* \"service/ServiceContract.sol\":6955:7106  function getArticlesByAccount(address _myAccount) internal view returns(Article[] memory ) {... */\n      swap2\n      swap1\n      pop\n      jump\t// out\n        /* \"service/ServiceContract.sol\":1381:1749  function getAccountByAddress(address _userAddress)... */\n    tag_134:\n        /* \"service/ServiceContract.sol\":1470:1484  address result */\n      0x00\n        /* \"service/ServiceContract.sol\":1509:1541  checkAddressJoined(_userAddress) */\n      tag_224\n        /* \"service/ServiceContract.sol\":1528:1540  _userAddress */\n      dup3\n        /* \"service/ServiceContract.sol\":1509:1527  checkAddressJoined */\n      tag_143\n        /* \"service/ServiceContract.sol\":1509:1541  checkAddressJoined(_userAddress) */\n      jump\t// in\n    tag_224:\n        /* \"service/ServiceContract.sol\":1504:1695  if (!checkAddressJoined(_userAddress)) {... */\n      tag_225\n      jumpi\n        /* \"service/ServiceContract.sol\":1558:1683  revert(... */\n      mload(0x40)\n      0x08c379a000000000000000000000000000000000000000000000000000000000\n      dup2\n      mstore\n      0x04\n      add\n      tag_226\n      swap1\n      tag_227\n      jump\t// in\n    tag_226:\n      mload(0x40)\n      dup1\n      swap2\n      sub\n      swap1\n      revert\n        /* \"service/ServiceContract.sol\":1504:1695  if (!checkAddressJoined(_userAddress)) {... */\n    tag_225:\n        /* \"service/ServiceContract.sol\":1714:1739  getAccounts(_userAddress) */\n      tag_228\n        /* \"service/ServiceContract.sol\":1726:1738  _userAddress */\n      dup3\n        /* \"service/ServiceContract.sol\":1714:1725  getAccounts */\n      tag_195\n        /* \"service/ServiceContract.sol\":1714:1739  getAccounts(_userAddress) */\n      jump\t// in\n    tag_228:\n        /* \"service/ServiceContract.sol\":1705:1739  result = getAccounts(_userAddress) */\n      swap1\n      pop\n        /* \"service/ServiceContract.sol\":1381:1749  function getAccountByAddress(address _userAddress)... */\n      swap2\n      swap1\n      pop\n      jump\t// out\n        /* \"data/DataContract.sol\":5086:5354  function checkAddressJoined(address _address) internal view returns (bool) {... */\n    tag_143:\n        /* \"data/DataContract.sol\":5155:5159  bool */\n      0x00\n        /* \"data/DataContract.sol\":5205:5206  0 */\n      dup1\n        /* \"data/DataContract.sol\":5175:5207  accounts[_address] != address(0) */\n      0xffffffffffffffffffffffffffffffffffffffff\n      and\n        /* \"data/DataContract.sol\":5175:5183  accounts */\n      0x00\n        /* \"data/DataContract.sol\":5175:5193  accounts[_address] */\n      dup1\n        /* \"data/DataContract.sol\":5184:5192  _address */\n      dup5\n        /* \"data/DataContract.sol\":5175:5193  accounts[_address] */\n      0xffffffffffffffffffffffffffffffffffffffff\n      and\n      0xffffffffffffffffffffffffffffffffffffffff\n      and\n      dup2\n      mstore\n      0x20\n      add\n      swap1\n      dup2\n      mstore\n      0x20\n      add\n      0x00\n      keccak256\n      0x00\n      swap1\n      sload\n      swap1\n      0x0100\n      exp\n      swap1\n      div\n      0xffffffffffffffffffffffffffffffffffffffff\n      and\n        /* \"data/DataContract.sol\":5175:5207  accounts[_address] != address(0) */\n      0xffffffffffffffffffffffffffffffffffffffff\n      and\n      eq\n        /* \"data/DataContract.sol\":5171:5348  if (accounts[_address] != address(0)) {... */\n      tag_230\n      jumpi\n        /* \"data/DataContract.sol\":5230:5234  true */\n      0x01\n        /* \"data/DataContract.sol\":5223:5234  return true */\n      swap1\n      pop\n      jump(tag_229)\n        /* \"data/DataContract.sol\":5171:5348  if (accounts[_address] != address(0)) {... */\n    tag_230:\n        /* \"data/DataContract.sol\":5297:5302  false */\n      0x00\n        /* \"data/DataContract.sol\":5290:5302  return false */\n      swap1\n      pop\n        /* \"data/DataContract.sol\":5086:5354  function checkAddressJoined(address _address) internal view returns (bool) {... */\n    tag_229:\n      swap2\n      swap1\n      pop\n      jump\t// out\n        /* \"data/DataContract.sol\":7312:7704  function setUserByAddress(... */\n    tag_148:\n        /* \"data/DataContract.sol\":7467:7483  address _account */\n      0x00\n        /* \"data/DataContract.sol\":7486:7494  accounts */\n      dup1\n        /* \"data/DataContract.sol\":7486:7504  accounts[_address] */\n      0x00\n        /* \"data/DataContract.sol\":7495:7503  _address */\n      dup7\n        /* \"data/DataContract.sol\":7486:7504  accounts[_address] */\n      0xffffffffffffffffffffffffffffffffffffffff\n      and\n      0xffffffffffffffffffffffffffffffffffffffff\n      and\n      dup2\n      mstore\n      0x20\n      add\n      swap1\n      dup2\n      mstore\n      0x20\n      add\n      0x00\n      keccak256\n      0x00\n      swap1\n      sload\n      swap1\n      0x0100\n      exp\n      swap1\n      div\n      0xffffffffffffffffffffffffffffffffffffffff\n      and\n        /* \"data/DataContract.sol\":7467:7504  address _account = accounts[_address] */\n      swap1\n      pop\n        /* \"data/DataContract.sol\":7566:7581  address _wallet */\n      0x00\n        /* \"data/DataContract.sol\":7584:7592  _address */\n      dup6\n        /* \"data/DataContract.sol\":7566:7592  address _wallet = _address */\n      swap1\n      pop\n        /* \"data/DataContract.sol\":7602:7618  User memory user */\n      0x00\n        /* \"data/DataContract.sol\":7621:7665  User(name, email, age, _wallet, true, false) */\n      mload(0x40)\n      dup1\n      0xc0\n      add\n      0x40\n      mstore\n      dup1\n        /* \"data/DataContract.sol\":7626:7630  name */\n      dup8\n        /* \"data/DataContract.sol\":7621:7665  User(name, email, age, _wallet, true, false) */\n      dup2\n      mstore\n      0x20\n      add\n        /* \"data/DataContract.sol\":7632:7637  email */\n      dup7\n        /* \"data/DataContract.sol\":7621:7665  User(name, email, age, _wallet, true, false) */\n      dup2\n      mstore\n      0x20\n      add\n        /* \"data/DataContract.sol\":7639:7642  age */\n      dup6\n        /* \"data/DataContract.sol\":7621:7665  User(name, email, age, _wallet, true, false) */\n      dup2\n      mstore\n      0x20\n      add\n        /* \"data/DataContract.sol\":7644:7651  _wallet */\n      dup4\n        /* \"data/DataContract.sol\":7621:7665  User(name, email, age, _wallet, true, false) */\n      0xffffffffffffffffffffffffffffffffffffffff\n      and\n      dup2\n      mstore\n      0x20\n      add\n        /* \"data/DataContract.sol\":7653:7657  true */\n      0x01\n        /* \"data/DataContract.sol\":7621:7665  User(name, email, age, _wallet, true, false) */\n      iszero\n      iszero\n      dup2\n      mstore\n      0x20\n      add\n        /* \"data/DataContract.sol\":7659:7664  false */\n      0x00\n        /* \"data/DataContract.sol\":7621:7665  User(name, email, age, _wallet, true, false) */\n      iszero\n      iszero\n      dup2\n      mstore\n      pop\n        /* \"data/DataContract.sol\":7602:7665  User memory user = User(name, email, age, _wallet, true, false) */\n      swap1\n      pop\n        /* \"data/DataContract.sol\":7693:7697  user */\n      dup1\n        /* \"data/DataContract.sol\":7675:7680  users */\n      0x01\n        /* \"data/DataContract.sol\":7675:7690  users[_account] */\n      0x00\n        /* \"data/DataContract.sol\":7681:7689  _account */\n      dup6\n        /* \"data/DataContract.sol\":7675:7690  users[_account] */\n      0xffffffffffffffffffffffffffffffffffffffff\n      and\n      0xffffffffffffffffffffffffffffffffffffffff\n      and\n      dup2\n      mstore\n      0x20\n      add\n      swap1\n      dup2\n      mstore\n      0x20\n      add\n      0x00\n      keccak256\n        /* \"data/DataContract.sol\":7675:7697  users[_account] = user */\n      0x00\n      dup3\n      add\n      mload\n      dup2\n      0x00\n      add\n      swap1\n      dup2\n      tag_233\n      swap2\n      swap1\n      tag_234\n      jump\t// in\n    tag_233:\n      pop\n      0x20\n      dup3\n      add\n      mload\n      dup2\n      0x01\n      add\n      swap1\n      dup2\n      tag_235\n      swap2\n      swap1\n      tag_234\n      jump\t// in\n    tag_235:\n      pop\n      0x40\n      dup3\n      add\n      mload\n      dup2\n      0x02\n      add\n      sstore\n      0x60\n      dup3\n      add\n      mload\n      dup2\n      0x03\n      add\n      exp(0x0100, 0x00)\n      dup2\n      sload\n      dup2\n      0xffffffffffffffffffffffffffffffffffffffff\n      mul\n      not\n      and\n      swap1\n      dup4\n      0xffffffffffffffffffffffffffffffffffffffff\n      and\n      mul\n      or\n      swap1\n      sstore\n      pop\n      0x80\n      dup3\n      add\n      mload\n      dup2\n      0x03\n      add\n      exp(0x0100, 0x14)\n      dup2\n      sload\n      dup2\n      0xff\n      mul\n      not\n      and\n      swap1\n      dup4\n      iszero\n      iszero\n      mul\n      or\n      swap1\n      sstore\n      pop\n      0xa0\n      dup3\n      add\n      mload\n      dup2\n      0x03\n      add\n      exp(0x0100, 0x15)\n      dup2\n      sload\n      dup2\n      0xff\n      mul\n      not\n      and\n      swap1\n      dup4\n      iszero\n      iszero\n      mul\n      or\n      swap1\n      sstore\n      pop\n      swap1\n      pop\n      pop\n        /* \"data/DataContract.sol\":7457:7704  {... */\n      pop\n      pop\n      pop\n        /* \"data/DataContract.sol\":7312:7704  function setUserByAddress(... */\n      pop\n      pop\n      pop\n      pop\n      jump\t// out\n        /* \"data/DataContract.sol\":7923:8094  function setAddressVerified(address _address, bool verified) internal {... */\n    tag_150:\n        /* \"data/DataContract.sol\":8003:8019  address _account */\n      0x00\n        /* \"data/DataContract.sol\":8022:8030  accounts */\n      dup1\n        /* \"data/DataContract.sol\":8022:8040  accounts[_address] */\n      0x00\n        /* \"data/DataContract.sol\":8031:8039  _address */\n      dup5\n        /* \"data/DataContract.sol\":8022:8040  accounts[_address] */\n      0xffffffffffffffffffffffffffffffffffffffff\n      and\n      0xffffffffffffffffffffffffffffffffffffffff\n      and\n      dup2\n      mstore\n      0x20\n      add\n      swap1\n      dup2\n      mstore\n      0x20\n      add\n      0x00\n      keccak256\n      0x00\n      swap1\n      sload\n      swap1\n      0x0100\n      exp\n      swap1\n      div\n      0xffffffffffffffffffffffffffffffffffffffff\n      and\n        /* \"data/DataContract.sol\":8003:8040  address _account = accounts[_address] */\n      swap1\n      pop\n        /* \"data/DataContract.sol\":8079:8087  verified */\n      dup2\n        /* \"data/DataContract.sol\":8050:8055  users */\n      0x01\n        /* \"data/DataContract.sol\":8050:8065  users[_account] */\n      0x00\n        /* \"data/DataContract.sol\":8056:8064  _account */\n      dup4\n        /* \"data/DataContract.sol\":8050:8065  users[_account] */\n      0xffffffffffffffffffffffffffffffffffffffff\n      and\n      0xffffffffffffffffffffffffffffffffffffffff\n      and\n      dup2\n      mstore\n      0x20\n      add\n      swap1\n      dup2\n      mstore\n      0x20\n      add\n      0x00\n      keccak256\n        /* \"data/DataContract.sol\":8050:8076  users[_account].isVerified */\n      0x03\n      add\n      0x14\n        /* \"data/DataContract.sol\":8050:8087  users[_account].isVerified = verified */\n      0x0100\n      exp\n      dup2\n      sload\n      dup2\n      0xff\n      mul\n      not\n      and\n      swap1\n      dup4\n      iszero\n      iszero\n      mul\n      or\n      swap1\n      sstore\n      pop\n        /* \"data/DataContract.sol\":7993:8094  {... */\n      pop\n        /* \"data/DataContract.sol\":7923:8094  function setAddressVerified(address _address, bool verified) internal {... */\n      pop\n      pop\n      jump\t// out\n        /* \"data/DataContract.sol\":5933:6310  function checkAccountRegisted(address _account)... */\n    tag_153:\n        /* \"data/DataContract.sol\":6028:6032  bool */\n      0x00\n        /* \"data/DataContract.sol\":6099:6100  0 */\n      dup1\n        /* \"data/DataContract.sol\":6065:6101  users[_account].wallet != address(0) */\n      0xffffffffffffffffffffffffffffffffffffffff\n      and\n        /* \"data/DataContract.sol\":6065:6070  users */\n      0x01\n        /* \"data/DataContract.sol\":6065:6080  users[_account] */\n      0x00\n        /* \"data/DataContract.sol\":6071:6079  _account */\n      dup5\n        /* \"data/DataContract.sol\":6065:6080  users[_account] */\n      0xffffffffffffffffffffffffffffffffffffffff\n      and\n      0xffffffffffffffffffffffffffffffffffffffff\n      and\n      dup2\n      mstore\n      0x20\n      add\n      swap1\n      dup2\n      mstore\n      0x20\n      add\n      0x00\n      keccak256\n        /* \"data/DataContract.sol\":6065:6087  users[_account].wallet */\n      0x03\n      add\n      0x00\n      swap1\n      sload\n      swap1\n      0x0100\n      exp\n      swap1\n      div\n      0xffffffffffffffffffffffffffffffffffffffff\n      and\n        /* \"data/DataContract.sol\":6065:6101  users[_account].wallet != address(0) */\n      0xffffffffffffffffffffffffffffffffffffffff\n      and\n      eq\n      iszero\n        /* \"data/DataContract.sol\":6065:6151  users[_account].wallet != address(0) ||... */\n      dup1\n      tag_238\n      jumpi\n      pop\n        /* \"data/DataContract.sol\":6147:6151  true */\n      0x01\n        /* \"data/DataContract.sol\":6117:6151  users[_account].isVerified == true */\n      iszero\n      iszero\n        /* \"data/DataContract.sol\":6117:6122  users */\n      0x01\n        /* \"data/DataContract.sol\":6117:6132  users[_account] */\n      0x00\n        /* \"data/DataContract.sol\":6123:6131  _account */\n      dup5\n        /* \"data/DataContract.sol\":6117:6132  users[_account] */\n      0xffffffffffffffffffffffffffffffffffffffff\n      and\n      0xffffffffffffffffffffffffffffffffffffffff\n      and\n      dup2\n      mstore\n      0x20\n      add\n      swap1\n      dup2\n      mstore\n      0x20\n      add\n      0x00\n      keccak256\n        /* \"data/DataContract.sol\":6117:6143  users[_account].isVerified */\n      0x03\n      add\n      0x14\n      swap1\n      sload\n      swap1\n      0x0100\n      exp\n      swap1\n      div\n      0xff\n      and\n        /* \"data/DataContract.sol\":6117:6151  users[_account].isVerified == true */\n      iszero\n      iszero\n      eq\n        /* \"data/DataContract.sol\":6065:6151  users[_account].wallet != address(0) ||... */\n    tag_238:\n        /* \"data/DataContract.sol\":6048:6304  if (... */\n      iszero\n      tag_239\n      jumpi\n        /* \"data/DataContract.sol\":6183:6187  true */\n      0x01\n        /* \"data/DataContract.sol\":6176:6187  return true */\n      swap1\n      pop\n      jump(tag_237)\n        /* \"data/DataContract.sol\":6048:6304  if (... */\n    tag_239:\n        /* \"data/DataContract.sol\":6256:6261  false */\n      0x00\n        /* \"data/DataContract.sol\":6249:6261  return false */\n      swap1\n      pop\n        /* \"data/DataContract.sol\":5933:6310  function checkAccountRegisted(address _account)... */\n    tag_237:\n      swap2\n      swap1\n      pop\n      jump\t// out\n        /* \"data/DataContract.sol\":6829:7247  function checkAccountAndAccountIsFriend(... */\n    tag_161:\n        /* \"data/DataContract.sol\":6956:6960  bool */\n      0x00\n        /* \"data/DataContract.sol\":7020:7024  true */\n      0x01\n        /* \"data/DataContract.sol\":6976:7024  friends[_account][_friendAccount].exists == true */\n      iszero\n      iszero\n        /* \"data/DataContract.sol\":6976:6983  friends */\n      0x02\n        /* \"data/DataContract.sol\":6976:6993  friends[_account] */\n      0x00\n        /* \"data/DataContract.sol\":6984:6992  _account */\n      dup6\n        /* \"data/DataContract.sol\":6976:6993  friends[_account] */\n      0xffffffffffffffffffffffffffffffffffffffff\n      and\n      0xffffffffffffffffffffffffffffffffffffffff\n      and\n      dup2\n      mstore\n      0x20\n      add\n      swap1\n      dup2\n      mstore\n      0x20\n      add\n      0x00\n      keccak256\n        /* \"data/DataContract.sol\":6976:7009  friends[_account][_friendAccount] */\n      0x00\n        /* \"data/DataContract.sol\":6994:7008  _friendAccount */\n      dup5\n        /* \"data/DataContract.sol\":6976:7009  friends[_account][_friendAccount] */\n      0xffffffffffffffffffffffffffffffffffffffff\n      and\n      0xffffffffffffffffffffffffffffffffffffffff\n      and\n      dup2\n      mstore\n      0x20\n      add\n      swap1\n      dup2\n      mstore\n      0x20\n      add\n      0x00\n      keccak256\n        /* \"data/DataContract.sol\":6976:7016  friends[_account][_friendAccount].exists */\n      0x00\n      add\n      0x00\n      swap1\n      sload\n      swap1\n      0x0100\n      exp\n      swap1\n      div\n      0xff\n      and\n        /* \"data/DataContract.sol\":6976:7024  friends[_account][_friendAccount].exists == true */\n      iszero\n      iszero\n      eq\n        /* \"data/DataContract.sol\":6976:7076  friends[_account][_friendAccount].exists == true && friends[_friendAccount][_account].exists == true */\n      dup1\n      iszero\n      tag_242\n      jumpi\n      pop\n        /* \"data/DataContract.sol\":7072:7076  true */\n      0x01\n        /* \"data/DataContract.sol\":7028:7076  friends[_friendAccount][_account].exists == true */\n      iszero\n      iszero\n        /* \"data/DataContract.sol\":7028:7035  friends */\n      0x02\n        /* \"data/DataContract.sol\":7028:7051  friends[_friendAccount] */\n      0x00\n        /* \"data/DataContract.sol\":7036:7050  _friendAccount */\n      dup5\n        /* \"data/DataContract.sol\":7028:7051  friends[_friendAccount] */\n      0xffffffffffffffffffffffffffffffffffffffff\n      and\n      0xffffffffffffffffffffffffffffffffffffffff\n      and\n      dup2\n      mstore\n      0x20\n      add\n      swap1\n      dup2\n      mstore\n      0x20\n      add\n      0x00\n      keccak256\n        /* \"data/DataContract.sol\":7028:7061  friends[_friendAccount][_account] */\n      0x00\n        /* \"data/DataContract.sol\":7052:7060  _account */\n      dup6\n        /* \"data/DataContract.sol\":7028:7061  friends[_friendAccount][_account] */\n      0xffffffffffffffffffffffffffffffffffffffff\n      and\n      0xffffffffffffffffffffffffffffffffffffffff\n      and\n      dup2\n      mstore\n      0x20\n      add\n      swap1\n      dup2\n      mstore\n      0x20\n      add\n      0x00\n      keccak256\n        /* \"data/DataContract.sol\":7028:7068  friends[_friendAccount][_account].exists */\n      0x00\n      add\n      0x00\n      swap1\n      sload\n      swap1\n      0x0100\n      exp\n      swap1\n      div\n      0xff\n      and\n        /* \"data/DataContract.sol\":7028:7076  friends[_friendAccount][_account].exists == true */\n      iszero\n      iszero\n      eq\n        /* \"data/DataContract.sol\":6976:7076  friends[_account][_friendAccount].exists == true && friends[_friendAccount][_account].exists == true */\n    tag_242:\n        /* \"data/DataContract.sol\":6972:7241  if (friends[_account][_friendAccount].exists == true && friends[_friendAccount][_account].exists == true) {... */\n      iszero\n      tag_243\n      jumpi\n        /* \"data/DataContract.sol\":7099:7103  true */\n      0x01\n        /* \"data/DataContract.sol\":7092:7103  return true */\n      swap1\n      pop\n      jump(tag_241)\n        /* \"data/DataContract.sol\":6972:7241  if (friends[_account][_friendAccount].exists == true && friends[_friendAccount][_account].exists == true) {... */\n    tag_243:\n        /* \"data/DataContract.sol\":7184:7189  false */\n      0x00\n        /* \"data/DataContract.sol\":7177:7189  return false */\n      swap1\n      pop\n        /* \"data/DataContract.sol\":6829:7247  function checkAccountAndAccountIsFriend(... */\n    tag_241:\n      swap3\n      swap2\n      pop\n      pop\n      jump\t// out\n        /* \"data/DataContract.sol\":9184:9808  function setFriend(... */\n    tag_166:\n        /* \"data/DataContract.sol\":9319:9335  address _account */\n      0x00\n        /* \"data/DataContract.sol\":9337:9347  _myAccount */\n      dup4\n        /* \"data/DataContract.sol\":9319:9347  address _account =_myAccount */\n      swap1\n      pop\n        /* \"data/DataContract.sol\":9394:9534  Friend({... */\n      mload(0x40)\n      dup1\n      0x80\n      add\n      0x40\n      mstore\n      dup1\n        /* \"data/DataContract.sol\":9423:9427  true */\n      0x01\n        /* \"data/DataContract.sol\":9394:9534  Friend({... */\n      iszero\n      iszero\n      dup2\n      mstore\n      0x20\n      add\n        /* \"data/DataContract.sol\":9450:9465  block.timestamp */\n      timestamp\n        /* \"data/DataContract.sol\":9394:9534  Friend({... */\n      dup2\n      mstore\n      0x20\n      add\n        /* \"data/DataContract.sol\":9488:9495  message */\n      dup4\n        /* \"data/DataContract.sol\":9394:9534  Friend({... */\n      dup2\n      mstore\n      0x20\n      add\n        /* \"data/DataContract.sol\":9518:9523  false */\n      0x00\n        /* \"data/DataContract.sol\":9394:9534  Friend({... */\n      iszero\n      iszero\n      dup2\n      mstore\n      pop\n        /* \"data/DataContract.sol\":9358:9365  friends */\n      0x02\n        /* \"data/DataContract.sol\":9358:9375  friends[_account] */\n      0x00\n        /* \"data/DataContract.sol\":9366:9374  _account */\n      dup4\n        /* \"data/DataContract.sol\":9358:9375  friends[_account] */\n      0xffffffffffffffffffffffffffffffffffffffff\n      and\n      0xffffffffffffffffffffffffffffffffffffffff\n      and\n      dup2\n      mstore\n      0x20\n      add\n      swap1\n      dup2\n      mstore\n      0x20\n      add\n      0x00\n      keccak256\n        /* \"data/DataContract.sol\":9358:9391  friends[_account][_friendAccount] */\n      0x00\n        /* \"data/DataContract.sol\":9376:9390  _friendAccount */\n      dup6\n        /* \"data/DataContract.sol\":9358:9391  friends[_account][_friendAccount] */\n      0xffffffffffffffffffffffffffffffffffffffff\n      and\n      0xffffffffffffffffffffffffffffffffffffffff\n      and\n      dup2\n      mstore\n      0x20\n      add\n      swap1\n      dup2\n      mstore\n      0x20\n      add\n      0x00\n      keccak256\n        /* \"data/DataContract.sol\":9358:9534  friends[_account][_friendAccount] = Friend({... */\n      0x00\n      dup3\n      add\n      mload\n      dup2\n      0x00\n      add\n      exp(0x0100, 0x00)\n      dup2\n      sload\n      dup2\n      0xff\n      mul\n      not\n      and\n      swap1\n      dup4\n      iszero\n      iszero\n      mul\n      or\n      swap1\n      sstore\n      pop\n      0x20\n      dup3\n      add\n      mload\n      dup2\n      0x01\n      add\n      sstore\n      0x40\n      dup3\n      add\n      mload\n      dup2\n      0x02\n      add\n      swap1\n      dup2\n      tag_246\n      swap2\n      swap1\n      tag_234\n      jump\t// in\n    tag_246:\n      pop\n      0x60\n      dup3\n      add\n      mload\n      dup2\n      0x03\n      add\n      exp(0x0100, 0x00)\n      dup2\n      sload\n      dup2\n      0xff\n      mul\n      not\n      and\n      swap1\n      dup4\n      iszero\n      iszero\n      mul\n      or\n      swap1\n      sstore\n      pop\n      swap1\n      pop\n      pop\n        /* \"data/DataContract.sol\":9544:9553  myFriends */\n      0x03\n        /* \"data/DataContract.sol\":9544:9563  myFriends[_account] */\n      0x00\n        /* \"data/DataContract.sol\":9554:9562  _account */\n      dup3\n        /* \"data/DataContract.sol\":9544:9563  myFriends[_account] */\n      0xffffffffffffffffffffffffffffffffffffffff\n      and\n      0xffffffffffffffffffffffffffffffffffffffff\n      and\n      dup2\n      mstore\n      0x20\n      add\n      swap1\n      dup2\n      mstore\n      0x20\n      add\n      0x00\n      keccak256\n        /* \"data/DataContract.sol\":9569:9583  _friendAccount */\n      dup4\n        /* \"data/DataContract.sol\":9544:9584  myFriends[_account].push(_friendAccount) */\n      swap1\n      dup1\n      0x01\n      dup2\n      sload\n      add\n      dup1\n      dup3\n      sstore\n      dup1\n      swap2\n      pop\n      pop\n      0x01\n      swap1\n      sub\n      swap1\n      0x00\n      mstore\n      keccak256(0x00, 0x20)\n      add\n      0x00\n      swap1\n      swap2\n      swap1\n      swap2\n      swap1\n      swap2\n      0x0100\n      exp\n      dup2\n      sload\n      dup2\n      0xffffffffffffffffffffffffffffffffffffffff\n      mul\n      not\n      and\n      swap1\n      dup4\n      0xffffffffffffffffffffffffffffffffffffffff\n      and\n      mul\n      or\n      swap1\n      sstore\n      pop\n        /* \"data/DataContract.sol\":9686:9702  myFriendRequests */\n      0x04\n        /* \"data/DataContract.sol\":9686:9718  myFriendRequests[_friendAccount] */\n      0x00\n        /* \"data/DataContract.sol\":9703:9717  _friendAccount */\n      dup5\n        /* \"data/DataContract.sol\":9686:9718  myFriendRequests[_friendAccount] */\n      0xffffffffffffffffffffffffffffffffffffffff\n      and\n      0xffffffffffffffffffffffffffffffffffffffff\n      and\n      dup2\n      mstore\n      0x20\n      add\n      swap1\n      dup2\n      mstore\n      0x20\n      add\n      0x00\n      keccak256\n        /* \"data/DataContract.sol\":9724:9732  _account */\n      dup2\n        /* \"data/DataContract.sol\":9686:9733  myFriendRequests[_friendAccount].push(_account) */\n      swap1\n      dup1\n      0x01\n      dup2\n      sload\n      add\n      dup1\n      dup3\n      sstore\n      dup1\n      swap2\n      pop\n      pop\n      0x01\n      swap1\n      sub\n      swap1\n      0x00\n      mstore\n      keccak256(0x00, 0x20)\n      add\n      0x00\n      swap1\n      swap2\n      swap1\n      swap2\n      swap1\n      swap2\n      0x0100\n      exp\n      dup2\n      sload\n      dup2\n      0xffffffffffffffffffffffffffffffffffffffff\n      mul\n      not\n      and\n      swap1\n      dup4\n      0xffffffffffffffffffffffffffffffffffffffff\n      and\n      mul\n      or\n      swap1\n      sstore\n      pop\n        /* \"data/DataContract.sol\":9309:9808  {... */\n      pop\n        /* \"data/DataContract.sol\":9184:9808  function setFriend(... */\n      pop\n      pop\n      pop\n      jump\t// out\n        /* \"data/DataContract.sol\":10953:11128  function getMessages(address _myAccount,address _senderAccount) internal view returns(Message[] memory ) {... */\n    tag_169:\n        /* \"data/DataContract.sol\":11039:11055  Message[] memory */\n      0x60\n        /* \"data/DataContract.sol\":11084:11092  messages */\n      0x06\n        /* \"data/DataContract.sol\":11084:11108  messages[_senderAccount] */\n      0x00\n        /* \"data/DataContract.sol\":11093:11107  _senderAccount */\n      dup4\n        /* \"data/DataContract.sol\":11084:11108  messages[_senderAccount] */\n      0xffffffffffffffffffffffffffffffffffffffff\n      and\n      0xffffffffffffffffffffffffffffffffffffffff\n      and\n      dup2\n      mstore\n      0x20\n      add\n      swap1\n      dup2\n      mstore\n      0x20\n      add\n      0x00\n      keccak256\n        /* \"data/DataContract.sol\":11084:11120  messages[_senderAccount][_myAccount] */\n      0x00\n        /* \"data/DataContract.sol\":11109:11119  _myAccount */\n      dup5\n        /* \"data/DataContract.sol\":11084:11120  messages[_senderAccount][_myAccount] */\n      0xffffffffffffffffffffffffffffffffffffffff\n      and\n      0xffffffffffffffffffffffffffffffffffffffff\n      and\n      dup2\n      mstore\n      0x20\n      add\n      swap1\n      dup2\n      mstore\n      0x20\n      add\n      0x00\n      keccak256\n        /* \"data/DataContract.sol\":11077:11120  return messages[_senderAccount][_myAccount] */\n      dup1\n      sload\n      dup1\n      0x20\n      mul\n      0x20\n      add\n      mload(0x40)\n      swap1\n      dup2\n      add\n      0x40\n      mstore\n      dup1\n      swap3\n      swap2\n      swap1\n      dup2\n      dup2\n      mstore\n      0x20\n      add\n      0x00\n      swap1\n    tag_250:\n      dup3\n      dup3\n      lt\n      iszero\n      tag_251\n      jumpi\n      dup4\n      dup3\n      swap1\n      0x00\n      mstore\n      keccak256(0x00, 0x20)\n      swap1\n      0x03\n      mul\n      add\n      mload(0x40)\n      dup1\n      0x60\n      add\n      0x40\n      mstore\n      swap1\n      dup2\n      0x00\n      dup3\n      add\n      0x00\n      swap1\n      sload\n      swap1\n      0x0100\n      exp\n      swap1\n      div\n      0xffffffffffffffffffffffffffffffffffffffff\n      and\n      0xffffffffffffffffffffffffffffffffffffffff\n      and\n      0xffffffffffffffffffffffffffffffffffffffff\n      and\n      dup2\n      mstore\n      0x20\n      add\n      0x01\n      dup3\n      add\n      dup1\n      sload\n      tag_253\n      swap1\n      tag_254\n      jump\t// in\n    tag_253:\n      dup1\n      0x1f\n      add\n      0x20\n      dup1\n      swap2\n      div\n      mul\n      0x20\n      add\n      mload(0x40)\n      swap1\n      dup2\n      add\n      0x40\n      mstore\n      dup1\n      swap3\n      swap2\n      swap1\n      dup2\n      dup2\n      mstore\n      0x20\n      add\n      dup3\n      dup1\n      sload\n      tag_255\n      swap1\n      tag_254\n      jump\t// in\n    tag_255:\n      dup1\n      iszero\n      tag_256\n      jumpi\n      dup1\n      0x1f\n      lt\n      tag_257\n      jumpi\n      0x0100\n      dup1\n      dup4\n      sload\n      div\n      mul\n      dup4\n      mstore\n      swap2\n      0x20\n      add\n      swap2\n      jump(tag_256)\n    tag_257:\n      dup3\n      add\n      swap2\n      swap1\n      0x00\n      mstore\n      keccak256(0x00, 0x20)\n      swap1\n    tag_258:\n      dup2\n      sload\n      dup2\n      mstore\n      swap1\n      0x01\n      add\n      swap1\n      0x20\n      add\n      dup1\n      dup4\n      gt\n      tag_258\n      jumpi\n      dup3\n      swap1\n      sub\n      0x1f\n      and\n      dup3\n      add\n      swap2\n    tag_256:\n      pop\n      pop\n      pop\n      pop\n      pop\n      dup2\n      mstore\n      0x20\n      add\n      0x02\n      dup3\n      add\n      sload\n      dup2\n      mstore\n      pop\n      pop\n      dup2\n      mstore\n      0x20\n      add\n      swap1\n      0x01\n      add\n      swap1\n      jump(tag_250)\n    tag_251:\n      pop\n      pop\n      pop\n      pop\n      swap1\n      pop\n        /* \"data/DataContract.sol\":10953:11128  function getMessages(address _myAccount,address _senderAccount) internal view returns(Message[] memory ) {... */\n      swap3\n      swap2\n      pop\n      pop\n      jump\t// out\n        /* \"data/DataContract.sol\":10021:10144  function getFriends(address _account) internal view  returns (address[] memory ){... */\n    tag_172:\n        /* \"data/DataContract.sol\":10083:10099  address[] memory */\n      0x60\n        /* \"data/DataContract.sol\":10118:10127  myFriends */\n      0x03\n        /* \"data/DataContract.sol\":10118:10137  myFriends[_account] */\n      0x00\n        /* \"data/DataContract.sol\":10128:10136  _account */\n      dup4\n        /* \"data/DataContract.sol\":10118:10137  myFriends[_account] */\n      0xffffffffffffffffffffffffffffffffffffffff\n      and\n      0xffffffffffffffffffffffffffffffffffffffff\n      and\n      dup2\n      mstore\n      0x20\n      add\n      swap1\n      dup2\n      mstore\n      0x20\n      add\n      0x00\n      keccak256\n        /* \"data/DataContract.sol\":10111:10137  return myFriends[_account] */\n      dup1\n      sload\n      dup1\n      0x20\n      mul\n      0x20\n      add\n      mload(0x40)\n      swap1\n      dup2\n      add\n      0x40\n      mstore\n      dup1\n      swap3\n      swap2\n      swap1\n      dup2\n      dup2\n      mstore\n      0x20\n      add\n      dup3\n      dup1\n      sload\n      dup1\n      iszero\n      tag_260\n      jumpi\n      0x20\n      mul\n      dup3\n      add\n      swap2\n      swap1\n      0x00\n      mstore\n      keccak256(0x00, 0x20)\n      swap1\n    tag_261:\n      dup2\n      0x00\n      swap1\n      sload\n      swap1\n      0x0100\n      exp\n      swap1\n      div\n      0xffffffffffffffffffffffffffffffffffffffff\n      and\n      0xffffffffffffffffffffffffffffffffffffffff\n      and\n      dup2\n      mstore\n      0x20\n      add\n      swap1\n      0x01\n      add\n      swap1\n      dup1\n      dup4\n      gt\n      tag_261\n      jumpi\n    tag_260:\n      pop\n      pop\n      pop\n      pop\n      pop\n      swap1\n      pop\n        /* \"data/DataContract.sol\":10021:10144  function getFriends(address _account) internal view  returns (address[] memory ){... */\n      swap2\n      swap1\n      pop\n      jump\t// out\n        /* \"data/DataContract.sol\":10156:10858  function setMessages(address _senderAccount,address _recipientAccount , string memory _content) internal {... */\n    tag_179:\n        /* \"data/DataContract.sol\":10271:10293  Message memory message */\n      0x00\n        /* \"data/DataContract.sol\":10296:10421  Message({... */\n      mload(0x40)\n      dup1\n      0x60\n      add\n      0x40\n      mstore\n      dup1\n        /* \"data/DataContract.sol\":10325:10339  _senderAccount */\n      dup6\n        /* \"data/DataContract.sol\":10296:10421  Message({... */\n      0xffffffffffffffffffffffffffffffffffffffff\n      and\n      dup2\n      mstore\n      0x20\n      add\n        /* \"data/DataContract.sol\":10362:10370  _content */\n      dup4\n        /* \"data/DataContract.sol\":10296:10421  Message({... */\n      dup2\n      mstore\n      0x20\n      add\n        /* \"data/DataContract.sol\":10395:10410  block.timestamp */\n      timestamp\n        /* \"data/DataContract.sol\":10296:10421  Message({... */\n      dup2\n      mstore\n      pop\n        /* \"data/DataContract.sol\":10271:10421  Message memory message = Message({... */\n      swap1\n      pop\n        /* \"data/DataContract.sol\":10431:10439  messages */\n      0x06\n        /* \"data/DataContract.sol\":10431:10455  messages[_senderAccount] */\n      0x00\n        /* \"data/DataContract.sol\":10440:10454  _senderAccount */\n      dup6\n        /* \"data/DataContract.sol\":10431:10455  messages[_senderAccount] */\n      0xffffffffffffffffffffffffffffffffffffffff\n      and\n      0xffffffffffffffffffffffffffffffffffffffff\n      and\n      dup2\n      mstore\n      0x20\n      add\n      swap1\n      dup2\n      mstore\n      0x20\n      add\n      0x00\n      keccak256\n        /* \"data/DataContract.sol\":10431:10474  messages[_senderAccount][_recipientAccount] */\n      0x00\n        /* \"data/DataContract.sol\":10456:10473  _recipientAccount */\n      dup5\n        /* \"data/DataContract.sol\":10431:10474  messages[_senderAccount][_recipientAccount] */\n      0xffffffffffffffffffffffffffffffffffffffff\n      and\n      0xffffffffffffffffffffffffffffffffffffffff\n      and\n      dup2\n      mstore\n      0x20\n      add\n      swap1\n      dup2\n      mstore\n      0x20\n      add\n      0x00\n      keccak256\n        /* \"data/DataContract.sol\":10480:10487  message */\n      dup2\n        /* \"data/DataContract.sol\":10431:10488  messages[_senderAccount][_recipientAccount].push(message) */\n      swap1\n      dup1\n      0x01\n      dup2\n      sload\n      add\n      dup1\n      dup3\n      sstore\n      dup1\n      swap2\n      pop\n      pop\n      0x01\n      swap1\n      sub\n      swap1\n      0x00\n      mstore\n      keccak256(0x00, 0x20)\n      swap1\n      0x03\n      mul\n      add\n      0x00\n      swap1\n      swap2\n      swap1\n      swap2\n      swap1\n      swap2\n      pop\n      0x00\n      dup3\n      add\n      mload\n      dup2\n      0x00\n      add\n      exp(0x0100, 0x00)\n      dup2\n      sload\n      dup2\n      0xffffffffffffffffffffffffffffffffffffffff\n      mul\n      not\n      and\n      swap1\n      dup4\n      0xffffffffffffffffffffffffffffffffffffffff\n      and\n      mul\n      or\n      swap1\n      sstore\n      pop\n      0x20\n      dup3\n      add\n      mload\n      dup2\n      0x01\n      add\n      swap1\n      dup2\n      tag_264\n      swap2\n      swap1\n      tag_234\n      jump\t// in\n    tag_264:\n      pop\n      0x40\n      dup3\n      add\n      mload\n      dup2\n      0x02\n      add\n      sstore\n      pop\n      pop\n        /* \"data/DataContract.sol\":10615:10621  uint i */\n      0x00\n        /* \"data/DataContract.sol\":10611:10789  for(uint i =0;i < msgaccounts[_recipientAccount].length; i++){... */\n    tag_265:\n        /* \"data/DataContract.sol\":10629:10640  msgaccounts */\n      0x07\n        /* \"data/DataContract.sol\":10629:10659  msgaccounts[_recipientAccount] */\n      0x00\n        /* \"data/DataContract.sol\":10641:10658  _recipientAccount */\n      dup6\n        /* \"data/DataContract.sol\":10629:10659  msgaccounts[_recipientAccount] */\n      0xffffffffffffffffffffffffffffffffffffffff\n      and\n      0xffffffffffffffffffffffffffffffffffffffff\n      and\n      dup2\n      mstore\n      0x20\n      add\n      swap1\n      dup2\n      mstore\n      0x20\n      add\n      0x00\n      keccak256\n        /* \"data/DataContract.sol\":10629:10666  msgaccounts[_recipientAccount].length */\n      dup1\n      sload\n      swap1\n      pop\n        /* \"data/DataContract.sol\":10625:10626  i */\n      dup2\n        /* \"data/DataContract.sol\":10625:10666  i < msgaccounts[_recipientAccount].length */\n      lt\n        /* \"data/DataContract.sol\":10611:10789  for(uint i =0;i < msgaccounts[_recipientAccount].length; i++){... */\n      iszero\n      tag_266\n      jumpi\n        /* \"data/DataContract.sol\":10727:10741  _senderAccount */\n      dup5\n        /* \"data/DataContract.sol\":10690:10741  msgaccounts[_recipientAccount][i] == _senderAccount */\n      0xffffffffffffffffffffffffffffffffffffffff\n      and\n        /* \"data/DataContract.sol\":10690:10701  msgaccounts */\n      0x07\n        /* \"data/DataContract.sol\":10690:10720  msgaccounts[_recipientAccount] */\n      0x00\n        /* \"data/DataContract.sol\":10702:10719  _recipientAccount */\n      dup7\n        /* \"data/DataContract.sol\":10690:10720  msgaccounts[_recipientAccount] */\n      0xffffffffffffffffffffffffffffffffffffffff\n      and\n      0xffffffffffffffffffffffffffffffffffffffff\n      and\n      dup2\n      mstore\n      0x20\n      add\n      swap1\n      dup2\n      mstore\n      0x20\n      add\n      0x00\n      keccak256\n        /* \"data/DataContract.sol\":10721:10722  i */\n      dup3\n        /* \"data/DataContract.sol\":10690:10723  msgaccounts[_recipientAccount][i] */\n      dup2\n      sload\n      dup2\n      lt\n      tag_268\n      jumpi\n      tag_269\n      tag_270\n      jump\t// in\n    tag_269:\n    tag_268:\n      swap1\n      0x00\n      mstore\n      keccak256(0x00, 0x20)\n      add\n      0x00\n      swap1\n      sload\n      swap1\n      0x0100\n      exp\n      swap1\n      div\n      0xffffffffffffffffffffffffffffffffffffffff\n      and\n        /* \"data/DataContract.sol\":10690:10741  msgaccounts[_recipientAccount][i] == _senderAccount */\n      0xffffffffffffffffffffffffffffffffffffffff\n      and\n      sub\n        /* \"data/DataContract.sol\":10686:10779  if (msgaccounts[_recipientAccount][i] == _senderAccount) {... */\n      tag_272\n      jumpi\n        /* \"data/DataContract.sol\":10757:10765  return ; */\n      pop\n      pop\n      jump(tag_262)\n        /* \"data/DataContract.sol\":10686:10779  if (msgaccounts[_recipientAccount][i] == _senderAccount) {... */\n    tag_272:\n        /* \"data/DataContract.sol\":10668:10671  i++ */\n      dup1\n      dup1\n      tag_273\n      swap1\n      tag_274\n      jump\t// in\n    tag_273:\n      swap2\n      pop\n      pop\n        /* \"data/DataContract.sol\":10611:10789  for(uint i =0;i < msgaccounts[_recipientAccount].length; i++){... */\n      jump(tag_265)\n    tag_266:\n      pop\n        /* \"data/DataContract.sol\":10799:10810  msgaccounts */\n      0x07\n        /* \"data/DataContract.sol\":10799:10829  msgaccounts[_recipientAccount] */\n      0x00\n        /* \"data/DataContract.sol\":10811:10828  _recipientAccount */\n      dup5\n        /* \"data/DataContract.sol\":10799:10829  msgaccounts[_recipientAccount] */\n      0xffffffffffffffffffffffffffffffffffffffff\n      and\n      0xffffffffffffffffffffffffffffffffffffffff\n      and\n      dup2\n      mstore\n      0x20\n      add\n      swap1\n      dup2\n      mstore\n      0x20\n      add\n      0x00\n      keccak256\n        /* \"data/DataContract.sol\":10835:10849  _senderAccount */\n      dup5\n        /* \"data/DataContract.sol\":10799:10850  msgaccounts[_recipientAccount].push(_senderAccount) */\n      swap1\n      dup1\n      0x01\n      dup2\n      sload\n      add\n      dup1\n      dup3\n      sstore\n      dup1\n      swap2\n      pop\n      pop\n      0x01\n      swap1\n      sub\n      swap1\n      0x00\n      mstore\n      keccak256(0x00, 0x20)\n      add\n      0x00\n      swap1\n      swap2\n      swap1\n      swap2\n      swap1\n      swap2\n      0x0100\n      exp\n      dup2\n      sload\n      dup2\n      0xffffffffffffffffffffffffffffffffffffffff\n      mul\n      not\n      and\n      swap1\n      dup4\n      0xffffffffffffffffffffffffffffffffffffffff\n      and\n      mul\n      or\n      swap1\n      sstore\n      pop\n        /* \"data/DataContract.sol\":10261:10858  {... */\n      pop\n        /* \"data/DataContract.sol\":10156:10858  function setMessages(address _senderAccount,address _recipientAccount , string memory _content) internal {... */\n    tag_262:\n      pop\n      pop\n      pop\n      jump\t// out\n        /* \"data/DataContract.sol\":11350:11700  function setArticles(address _senderAccount,string memory _title, string memory _content) internal {... */\n    tag_182:\n        /* \"data/DataContract.sol\":11459:11481  Article memory article */\n      0x00\n        /* \"data/DataContract.sol\":11484:11640  Article({... */\n      mload(0x40)\n      dup1\n      0x80\n      add\n      0x40\n      mstore\n      dup1\n        /* \"data/DataContract.sol\":11512:11518  _title */\n      dup5\n        /* \"data/DataContract.sol\":11484:11640  Article({... */\n      dup2\n      mstore\n      0x20\n      add\n        /* \"data/DataContract.sol\":11541:11549  _content */\n      dup4\n        /* \"data/DataContract.sol\":11484:11640  Article({... */\n      dup2\n      mstore\n      0x20\n      add\n        /* \"data/DataContract.sol\":11574:11589  block.timestamp */\n      timestamp\n        /* \"data/DataContract.sol\":11484:11640  Article({... */\n      dup2\n      mstore\n      0x20\n      add\n        /* \"data/DataContract.sol\":11625:11629  true */\n      0x01\n        /* \"data/DataContract.sol\":11484:11640  Article({... */\n      iszero\n      iszero\n      dup2\n      mstore\n      pop\n        /* \"data/DataContract.sol\":11459:11640  Article memory article = Article({... */\n      swap1\n      pop\n        /* \"data/DataContract.sol\":11650:11658  articles */\n      0x05\n        /* \"data/DataContract.sol\":11650:11674  articles[_senderAccount] */\n      0x00\n        /* \"data/DataContract.sol\":11659:11673  _senderAccount */\n      dup6\n        /* \"data/DataContract.sol\":11650:11674  articles[_senderAccount] */\n      0xffffffffffffffffffffffffffffffffffffffff\n      and\n      0xffffffffffffffffffffffffffffffffffffffff\n      and\n      dup2\n      mstore\n      0x20\n      add\n      swap1\n      dup2\n      mstore\n      0x20\n      add\n      0x00\n      keccak256\n        /* \"data/DataContract.sol\":11680:11687  article */\n      dup2\n        /* \"data/DataContract.sol\":11650:11688  articles[_senderAccount].push(article) */\n      swap1\n      dup1\n      0x01\n      dup2\n      sload\n      add\n      dup1\n      dup3\n      sstore\n      dup1\n      swap2\n      pop\n      pop\n      0x01\n      swap1\n      sub\n      swap1\n      0x00\n      mstore\n      keccak256(0x00, 0x20)\n      swap1\n      0x04\n      mul\n      add\n      0x00\n      swap1\n      swap2\n      swap1\n      swap2\n      swap1\n      swap2\n      pop\n      0x00\n      dup3\n      add\n      mload\n      dup2\n      0x00\n      add\n      swap1\n      dup2\n      tag_278\n      swap2\n      swap1\n      tag_234\n      jump\t// in\n    tag_278:\n      pop\n      0x20\n      dup3\n      add\n      mload\n      dup2\n      0x01\n      add\n      swap1\n      dup2\n      tag_279\n      swap2\n      swap1\n      tag_234\n      jump\t// in\n    tag_279:\n      pop\n      0x40\n      dup3\n      add\n      mload\n      dup2\n      0x02\n      add\n      sstore\n      0x60\n      dup3\n      add\n      mload\n      dup2\n      0x03\n      add\n      exp(0x0100, 0x00)\n      dup2\n      sload\n      dup2\n      0xff\n      mul\n      not\n      and\n      swap1\n      dup4\n      iszero\n      iszero\n      mul\n      or\n      swap1\n      sstore\n      pop\n      pop\n      pop\n        /* \"data/DataContract.sol\":11449:11700  {... */\n      pop\n        /* \"data/DataContract.sol\":11350:11700  function setArticles(address _senderAccount,string memory _title, string memory _content) internal {... */\n      pop\n      pop\n      pop\n      jump\t// out\n        /* \"data/DataContract.sol\":5427:5851  function checkAddressRegisted(address _address)... */\n    tag_190:\n        /* \"data/DataContract.sol\":5522:5526  bool */\n      0x00\n        /* \"data/DataContract.sol\":5542:5558  address _account */\n      dup1\n        /* \"data/DataContract.sol\":5561:5569  accounts */\n      0x00\n        /* \"data/DataContract.sol\":5561:5579  accounts[_address] */\n      dup1\n        /* \"data/DataContract.sol\":5570:5578  _address */\n      dup5\n        /* \"data/DataContract.sol\":5561:5579  accounts[_address] */\n      0xffffffffffffffffffffffffffffffffffffffff\n      and\n      0xffffffffffffffffffffffffffffffffffffffff\n      and\n      dup2\n      mstore\n      0x20\n      add\n      swap1\n      dup2\n      mstore\n      0x20\n      add\n      0x00\n      keccak256\n      0x00\n      swap1\n      sload\n      swap1\n      0x0100\n      exp\n      swap1\n      div\n      0xffffffffffffffffffffffffffffffffffffffff\n      and\n        /* \"data/DataContract.sol\":5542:5579  address _account = accounts[_address] */\n      swap1\n      pop\n        /* \"data/DataContract.sol\":5640:5641  0 */\n      0x00\n        /* \"data/DataContract.sol\":5606:5642  users[_account].wallet != address(0) */\n      0xffffffffffffffffffffffffffffffffffffffff\n      and\n        /* \"data/DataContract.sol\":5606:5611  users */\n      0x01\n        /* \"data/DataContract.sol\":5606:5621  users[_account] */\n      0x00\n        /* \"data/DataContract.sol\":5612:5620  _account */\n      dup4\n        /* \"data/DataContract.sol\":5606:5621  users[_account] */\n      0xffffffffffffffffffffffffffffffffffffffff\n      and\n      0xffffffffffffffffffffffffffffffffffffffff\n      and\n      dup2\n      mstore\n      0x20\n      add\n      swap1\n      dup2\n      mstore\n      0x20\n      add\n      0x00\n      keccak256\n        /* \"data/DataContract.sol\":5606:5628  users[_account].wallet */\n      0x03\n      add\n      0x00\n      swap1\n      sload\n      swap1\n      0x0100\n      exp\n      swap1\n      div\n      0xffffffffffffffffffffffffffffffffffffffff\n      and\n        /* \"data/DataContract.sol\":5606:5642  users[_account].wallet != address(0) */\n      0xffffffffffffffffffffffffffffffffffffffff\n      and\n      eq\n      iszero\n        /* \"data/DataContract.sol\":5606:5692  users[_account].wallet != address(0) ||... */\n      dup1\n      tag_281\n      jumpi\n      pop\n        /* \"data/DataContract.sol\":5688:5692  true */\n      0x01\n        /* \"data/DataContract.sol\":5658:5692  users[_account].isVerified == true */\n      iszero\n      iszero\n        /* \"data/DataContract.sol\":5658:5663  users */\n      0x01\n        /* \"data/DataContract.sol\":5658:5673  users[_account] */\n      0x00\n        /* \"data/DataContract.sol\":5664:5672  _account */\n      dup4\n        /* \"data/DataContract.sol\":5658:5673  users[_account] */\n      0xffffffffffffffffffffffffffffffffffffffff\n      and\n      0xffffffffffffffffffffffffffffffffffffffff\n      and\n      dup2\n      mstore\n      0x20\n      add\n      swap1\n      dup2\n      mstore\n      0x20\n      add\n      0x00\n      keccak256\n        /* \"data/DataContract.sol\":5658:5684  users[_account].isVerified */\n      0x03\n      add\n      0x14\n      swap1\n      sload\n      swap1\n      0x0100\n      exp\n      swap1\n      div\n      0xff\n      and\n        /* \"data/DataContract.sol\":5658:5692  users[_account].isVerified == true */\n      iszero\n      iszero\n      eq\n        /* \"data/DataContract.sol\":5606:5692  users[_account].wallet != address(0) ||... */\n    tag_281:\n        /* \"data/DataContract.sol\":5589:5845  if (... */\n      iszero\n      tag_282\n      jumpi\n        /* \"data/DataContract.sol\":5724:5728  true */\n      0x01\n        /* \"data/DataContract.sol\":5717:5728  return true */\n      swap2\n      pop\n      pop\n      jump(tag_280)\n        /* \"data/DataContract.sol\":5589:5845  if (... */\n    tag_282:\n        /* \"data/DataContract.sol\":5797:5802  false */\n      0x00\n        /* \"data/DataContract.sol\":5790:5802  return false */\n      swap2\n      pop\n      pop\n        /* \"data/DataContract.sol\":5427:5851  function checkAddressRegisted(address _address)... */\n    tag_280:\n      swap2\n      swap1\n      pop\n      jump\t// out\n        /* \"data/DataContract.sol\":4617:5002  function getAccounts(address _userAddress) internal view returns (address) {... */\n    tag_195:\n        /* \"data/DataContract.sol\":4683:4690  address */\n      0x00\n        /* \"data/DataContract.sol\":4933:4947  address result */\n      dup1\n        /* \"data/DataContract.sol\":4950:4958  accounts */\n      0x00\n        /* \"data/DataContract.sol\":4950:4972  accounts[_userAddress] */\n      dup1\n        /* \"data/DataContract.sol\":4959:4971  _userAddress */\n      dup5\n        /* \"data/DataContract.sol\":4950:4972  accounts[_userAddress] */\n      0xffffffffffffffffffffffffffffffffffffffff\n      and\n      0xffffffffffffffffffffffffffffffffffffffff\n      and\n      dup2\n      mstore\n      0x20\n      add\n      swap1\n      dup2\n      mstore\n      0x20\n      add\n      0x00\n      keccak256\n      0x00\n      swap1\n      sload\n      swap1\n      0x0100\n      exp\n      swap1\n      div\n      0xffffffffffffffffffffffffffffffffffffffff\n      and\n        /* \"data/DataContract.sol\":4933:4972  address result = accounts[_userAddress] */\n      swap1\n      pop\n        /* \"data/DataContract.sol\":4989:4995  result */\n      dup1\n        /* \"data/DataContract.sol\":4982:4995  return result */\n      swap2\n      pop\n      pop\n        /* \"data/DataContract.sol\":4617:5002  function getAccounts(address _userAddress) internal view returns (address) {... */\n      swap2\n      swap1\n      pop\n      jump\t// out\n        /* \"data/DataContract.sol\":8165:8312  function getUser(address _account)... */\n    tag_197:\n        /* \"data/DataContract.sol\":8247:8265  User memory result */\n      tag_285\n      tag_106\n      jump\t// in\n    tag_285:\n        /* \"data/DataContract.sol\":8290:8295  users */\n      0x01\n        /* \"data/DataContract.sol\":8290:8305  users[_account] */\n      0x00\n        /* \"data/DataContract.sol\":8296:8304  _account */\n      dup4\n        /* \"data/DataContract.sol\":8290:8305  users[_account] */\n      0xffffffffffffffffffffffffffffffffffffffff\n      and\n      0xffffffffffffffffffffffffffffffffffffffff\n      and\n      dup2\n      mstore\n      0x20\n      add\n      swap1\n      dup2\n      mstore\n      0x20\n      add\n      0x00\n      keccak256\n        /* \"data/DataContract.sol\":8281:8305  result = users[_account] */\n      mload(0x40)\n      dup1\n      0xc0\n      add\n      0x40\n      mstore\n      swap1\n      dup2\n      0x00\n      dup3\n      add\n      dup1\n      sload\n      tag_287\n      swap1\n      tag_254\n      jump\t// in\n    tag_287:\n      dup1\n      0x1f\n      add\n      0x20\n      dup1\n      swap2\n      div\n      mul\n      0x20\n      add\n      mload(0x40)\n      swap1\n      dup2\n      add\n      0x40\n      mstore\n      dup1\n      swap3\n      swap2\n      swap1\n      dup2\n      dup2\n      mstore\n      0x20\n      add\n      dup3\n      dup1\n      sload\n      tag_288\n      swap1\n      tag_254\n      jump\t// in\n    tag_288:\n      dup1\n      iszero\n      tag_289\n      jumpi\n      dup1\n      0x1f\n      lt\n      tag_290\n      jumpi\n      0x0100\n      dup1\n      dup4\n      sload\n      div\n      mul\n      dup4\n      mstore\n      swap2\n      0x20\n      add\n      swap2\n      jump(tag_289)\n    tag_290:\n      dup3\n      add\n      swap2\n      swap1\n      0x00\n      mstore\n      keccak256(0x00, 0x20)\n      swap1\n    tag_291:\n      dup2\n      sload\n      dup2\n      mstore\n      swap1\n      0x01\n      add\n      swap1\n      0x20\n      add\n      dup1\n      dup4\n      gt\n      tag_291\n      jumpi\n      dup3\n      swap1\n      sub\n      0x1f\n      and\n      dup3\n      add\n      swap2\n    tag_289:\n      pop\n      pop\n      pop\n      pop\n      pop\n      dup2\n      mstore\n      0x20\n      add\n      0x01\n      dup3\n      add\n      dup1\n      sload\n      tag_292\n      swap1\n      tag_254\n      jump\t// in\n    tag_292:\n      dup1\n      0x1f\n      add\n      0x20\n      dup1\n      swap2\n      div\n      mul\n      0x20\n      add\n      mload(0x40)\n      swap1\n      dup2\n      add\n      0x40\n      mstore\n      dup1\n      swap3\n      swap2\n      swap1\n      dup2\n      dup2\n      mstore\n      0x20\n      add\n      dup3\n      dup1\n      sload\n      tag_293\n      swap1\n      tag_254\n      jump\t// in\n    tag_293:\n      dup1\n      iszero\n      tag_294\n      jumpi\n      dup1\n      0x1f\n      lt\n      tag_295\n      jumpi\n      0x0100\n      dup1\n      dup4\n      sload\n      div\n      mul\n      dup4\n      mstore\n      swap2\n      0x20\n      add\n      swap2\n      jump(tag_294)\n    tag_295:\n      dup3\n      add\n      swap2\n      swap1\n      0x00\n      mstore\n      keccak256(0x00, 0x20)\n      swap1\n    tag_296:\n      dup2\n      sload\n      dup2\n      mstore\n      swap1\n      0x01\n      add\n      swap1\n      0x20\n      add\n      dup1\n      dup4\n      gt\n      tag_296\n      jumpi\n      dup3\n      swap1\n      sub\n      0x1f\n      and\n      dup3\n      add\n      swap2\n    tag_294:\n      pop\n      pop\n      pop\n      pop\n      pop\n      dup2\n      mstore\n      0x20\n      add\n      0x02\n      dup3\n      add\n      sload\n      dup2\n      mstore\n      0x20\n      add\n      0x03\n      dup3\n      add\n      0x00\n      swap1\n      sload\n      swap1\n      0x0100\n      exp\n      swap1\n      div\n      0xffffffffffffffffffffffffffffffffffffffff\n      and\n      0xffffffffffffffffffffffffffffffffffffffff\n      and\n      0xffffffffffffffffffffffffffffffffffffffff\n      and\n      dup2\n      mstore\n      0x20\n      add\n      0x03\n      dup3\n      add\n      0x14\n      swap1\n      sload\n      swap1\n      0x0100\n      exp\n      swap1\n      div\n      0xff\n      and\n      iszero\n      iszero\n      iszero\n      iszero\n      dup2\n      mstore\n      0x20\n      add\n      0x03\n      dup3\n      add\n      0x15\n      swap1\n      sload\n      swap1\n      0x0100\n      exp\n      swap1\n      div\n      0xff\n      and\n      iszero\n      iszero\n      iszero\n      iszero\n      dup2\n      mstore\n      pop\n      pop\n      swap1\n      pop\n        /* \"data/DataContract.sol\":8165:8312  function getUser(address _account)... */\n      swap2\n      swap1\n      pop\n      jump\t// out\n        /* \"data/DataContract.sol\":11205:11344  function getMsgAccount(address _myAccount) internal view returns (address[] memory){... */\n    tag_200:\n        /* \"data/DataContract.sol\":11271:11287  address[] memory */\n      0x60\n        /* \"data/DataContract.sol\":11314:11325  msgaccounts */\n      0x07\n        /* \"data/DataContract.sol\":11314:11337  msgaccounts[_myAccount] */\n      0x00\n        /* \"data/DataContract.sol\":11326:11336  _myAccount */\n      dup4\n        /* \"data/DataContract.sol\":11314:11337  msgaccounts[_myAccount] */\n      0xffffffffffffffffffffffffffffffffffffffff\n      and\n      0xffffffffffffffffffffffffffffffffffffffff\n      and\n      dup2\n      mstore\n      0x20\n      add\n      swap1\n      dup2\n      mstore\n      0x20\n      add\n      0x00\n      keccak256\n        /* \"data/DataContract.sol\":11307:11337  return msgaccounts[_myAccount] */\n      dup1\n      sload\n      dup1\n      0x20\n      mul\n      0x20\n      add\n      mload(0x40)\n      swap1\n      dup2\n      add\n      0x40\n      mstore\n      dup1\n      swap3\n      swap2\n      swap1\n      dup2\n      dup2\n      mstore\n      0x20\n      add\n      dup3\n      dup1\n      sload\n      dup1\n      iszero\n      tag_298\n      jumpi\n      0x20\n      mul\n      dup3\n      add\n      swap2\n      swap1\n      0x00\n      mstore\n      keccak256(0x00, 0x20)\n      swap1\n    tag_299:\n      dup2\n      0x00\n      swap1\n      sload\n      swap1\n      0x0100\n      exp\n      swap1\n      div\n      0xffffffffffffffffffffffffffffffffffffffff\n      and\n      0xffffffffffffffffffffffffffffffffffffffff\n      and\n      dup2\n      mstore\n      0x20\n      add\n      swap1\n      0x01\n      add\n      swap1\n      dup1\n      dup4\n      gt\n      tag_299\n      jumpi\n    tag_298:\n      pop\n      pop\n      pop\n      pop\n      pop\n      swap1\n      pop\n        /* \"data/DataContract.sol\":11205:11344  function getMsgAccount(address _myAccount) internal view returns (address[] memory){... */\n      swap2\n      swap1\n      pop\n      jump\t// out\n        /* \"data/DataContract.sol\":9878:10015  function getFriendRequests(address _account) internal view  returns (address[] memory ){... */\n    tag_210:\n        /* \"data/DataContract.sol\":9947:9963  address[] memory */\n      0x60\n        /* \"data/DataContract.sol\":9982:9998  myFriendRequests */\n      0x04\n        /* \"data/DataContract.sol\":9982:10008  myFriendRequests[_account] */\n      0x00\n        /* \"data/DataContract.sol\":9999:10007  _account */\n      dup4\n        /* \"data/DataContract.sol\":9982:10008  myFriendRequests[_account] */\n      0xffffffffffffffffffffffffffffffffffffffff\n      and\n      0xffffffffffffffffffffffffffffffffffffffff\n      and\n      dup2\n      mstore\n      0x20\n      add\n      swap1\n      dup2\n      mstore\n      0x20\n      add\n      0x00\n      keccak256\n        /* \"data/DataContract.sol\":9975:10008  return myFriendRequests[_account] */\n      dup1\n      sload\n      dup1\n      0x20\n      mul\n      0x20\n      add\n      mload(0x40)\n      swap1\n      dup2\n      add\n      0x40\n      mstore\n      dup1\n      swap3\n      swap2\n      swap1\n      dup2\n      dup2\n      mstore\n      0x20\n      add\n      dup3\n      dup1\n      sload\n      dup1\n      iszero\n      tag_301\n      jumpi\n      0x20\n      mul\n      dup3\n      add\n      swap2\n      swap1\n      0x00\n      mstore\n      keccak256(0x00, 0x20)\n      swap1\n    tag_302:\n      dup2\n      0x00\n      swap1\n      sload\n      swap1\n      0x0100\n      exp\n      swap1\n      div\n      0xffffffffffffffffffffffffffffffffffffffff\n      and\n      0xffffffffffffffffffffffffffffffffffffffff\n      and\n      dup2\n      mstore\n      0x20\n      add\n      swap1\n      0x01\n      add\n      swap1\n      dup1\n      dup4\n      gt\n      tag_302\n      jumpi\n    tag_301:\n      pop\n      pop\n      pop\n      pop\n      pop\n      swap1\n      pop\n        /* \"data/DataContract.sol\":9878:10015  function getFriendRequests(address _account) internal view  returns (address[] memory ){... */\n      swap2\n      swap1\n      pop\n      jump\t// out\n        /* \"data/DataContract.sol\":4483:4611  function setAccounts(address _userAddress, address _userAccount) internal {... */\n    tag_219:\n        /* \"data/DataContract.sol\":4592:4604  _userAccount */\n      dup1\n        /* \"data/DataContract.sol\":4567:4575  accounts */\n      0x00\n        /* \"data/DataContract.sol\":4567:4589  accounts[_userAddress] */\n      dup1\n        /* \"data/DataContract.sol\":4576:4588  _userAddress */\n      dup5\n        /* \"data/DataContract.sol\":4567:4589  accounts[_userAddress] */\n      0xffffffffffffffffffffffffffffffffffffffff\n      and\n      0xffffffffffffffffffffffffffffffffffffffff\n      and\n      dup2\n      mstore\n      0x20\n      add\n      swap1\n      dup2\n      mstore\n      0x20\n      add\n      0x00\n      keccak256\n      0x00\n        /* \"data/DataContract.sol\":4567:4604  accounts[_userAddress] = _userAccount */\n      0x0100\n      exp\n      dup2\n      sload\n      dup2\n      0xffffffffffffffffffffffffffffffffffffffff\n      mul\n      not\n      and\n      swap1\n      dup4\n      0xffffffffffffffffffffffffffffffffffffffff\n      and\n      mul\n      or\n      swap1\n      sstore\n      pop\n        /* \"data/DataContract.sol\":4483:4611  function setAccounts(address _userAddress, address _userAccount) internal {... */\n      pop\n      pop\n      jump\t// out\n        /* \"data/DataContract.sol\":11707:11828  function getArticles(address _account) internal view returns(Article[] memory){... */\n    tag_222:\n        /* \"data/DataContract.sol\":11768:11784  Article[] memory */\n      0x60\n        /* \"data/DataContract.sol\":11802:11810  articles */\n      0x05\n        /* \"data/DataContract.sol\":11802:11820  articles[_account] */\n      0x00\n        /* \"data/DataContract.sol\":11811:11819  _account */\n      dup4\n        /* \"data/DataContract.sol\":11802:11820  articles[_account] */\n      0xffffffffffffffffffffffffffffffffffffffff\n      and\n      0xffffffffffffffffffffffffffffffffffffffff\n      and\n      dup2\n      mstore\n      0x20\n      add\n      swap1\n      dup2\n      mstore\n      0x20\n      add\n      0x00\n      keccak256\n        /* \"data/DataContract.sol\":11795:11820  return articles[_account] */\n      dup1\n      sload\n      dup1\n      0x20\n      mul\n      0x20\n      add\n      mload(0x40)\n      swap1\n      dup2\n      add\n      0x40\n      mstore\n      dup1\n      swap3\n      swap2\n      swap1\n      dup2\n      dup2\n      mstore\n      0x20\n      add\n      0x00\n      swap1\n    tag_305:\n      dup3\n      dup3\n      lt\n      iszero\n      tag_306\n      jumpi\n      dup4\n      dup3\n      swap1\n      0x00\n      mstore\n      keccak256(0x00, 0x20)\n      swap1\n      0x04\n      mul\n      add\n      mload(0x40)\n      dup1\n      0x80\n      add\n      0x40\n      mstore\n      swap1\n      dup2\n      0x00\n      dup3\n      add\n      dup1\n      sload\n      tag_308\n      swap1\n      tag_254\n      jump\t// in\n    tag_308:\n      dup1\n      0x1f\n      add\n      0x20\n      dup1\n      swap2\n      div\n      mul\n      0x20\n      add\n      mload(0x40)\n      swap1\n      dup2\n      add\n      0x40\n      mstore\n      dup1\n      swap3\n      swap2\n      swap1\n      dup2\n      dup2\n      mstore\n      0x20\n      add\n      dup3\n      dup1\n      sload\n      tag_309\n      swap1\n      tag_254\n      jump\t// in\n    tag_309:\n      dup1\n      iszero\n      tag_310\n      jumpi\n      dup1\n      0x1f\n      lt\n      tag_311\n      jumpi\n      0x0100\n      dup1\n      dup4\n      sload\n      div\n      mul\n      dup4\n      mstore\n      swap2\n      0x20\n      add\n      swap2\n      jump(tag_310)\n    tag_311:\n      dup3\n      add\n      swap2\n      swap1\n      0x00\n      mstore\n      keccak256(0x00, 0x20)\n      swap1\n    tag_312:\n      dup2\n      sload\n      dup2\n      mstore\n      swap1\n      0x01\n      add\n      swap1\n      0x20\n      add\n      dup1\n      dup4\n      gt\n      tag_312\n      jumpi\n      dup3\n      swap1\n      sub\n      0x1f\n      and\n      dup3\n      add\n      swap2\n    tag_310:\n      pop\n      pop\n      pop\n      pop\n      pop\n      dup2\n      mstore\n      0x20\n      add\n      0x01\n      dup3\n      add\n      dup1\n      sload\n      tag_313\n      swap1\n      tag_254\n      jump\t// in\n    tag_313:\n      dup1\n      0x1f\n      add\n      0x20\n      dup1\n      swap2\n      div\n      mul\n      0x20\n      add\n      mload(0x40)\n      swap1\n      dup2\n      add\n      0x40\n      mstore\n      dup1\n      swap3\n      swap2\n      swap1\n      dup2\n      dup2\n      mstore\n      0x20\n      add\n      dup3\n      dup1\n      sload\n      tag_314\n      swap1\n      tag_254\n      jump\t// in\n    tag_314:\n      dup1\n      iszero\n      tag_315\n      jumpi\n      dup1\n      0x1f\n      lt\n      tag_316\n      jumpi\n      0x0100\n      dup1\n      dup4\n      sload\n      div\n      mul\n      dup4\n      mstore\n      swap2\n      0x20\n      add\n      swap2\n      jump(tag_315)\n    tag_316:\n      dup3\n      add\n      swap2\n      swap1\n      0x00\n      mstore\n      keccak256(0x00, 0x20)\n      swap1\n    tag_317:\n      dup2\n      sload\n      dup2\n      mstore\n      swap1\n      0x01\n      add\n      swap1\n      0x20\n      add\n      dup1\n      dup4\n      gt\n      tag_317\n      jumpi\n      dup3\n      swap1\n      sub\n      0x1f\n      and\n      dup3\n      add\n      swap2\n    tag_315:\n      pop\n      pop\n      pop\n      pop\n      pop\n      dup2\n      mstore\n      0x20\n      add\n      0x02\n      dup3\n      add\n      sload\n      dup2\n      mstore\n      0x20\n      add\n      0x03\n      dup3\n      add\n      0x00\n      swap1\n      sload\n      swap1\n      0x0100\n      exp\n      swap1\n      div\n      0xff\n      and\n      iszero\n      iszero\n      iszero\n      iszero\n      dup2\n      mstore\n      pop\n      pop\n      dup2\n      mstore\n      0x20\n      add\n      swap1\n      0x01\n      add\n      swap1\n      jump(tag_305)\n    tag_306:\n      pop\n      pop\n      pop\n      pop\n      swap1\n      pop\n        /* \"data/DataContract.sol\":11707:11828  function getArticles(address _account) internal view returns(Article[] memory){... */\n      swap2\n      swap1\n      pop\n      jump\t// out\n    tag_106:\n      mload(0x40)\n      dup1\n      0xc0\n      add\n      0x40\n      mstore\n      dup1\n      0x60\n      dup2\n      mstore\n      0x20\n      add\n      0x60\n      dup2\n      mstore\n      0x20\n      add\n      0x00\n      dup2\n      mstore\n      0x20\n      add\n      and(0xffffffffffffffffffffffffffffffffffffffff, 0x00)\n      dup2\n      mstore\n      0x20\n      add\n      iszero(iszero(0x00))\n      dup2\n      mstore\n      0x20\n      add\n      iszero(iszero(0x00))\n      dup2\n      mstore\n      pop\n      swap1\n      jump\t// out\n        /* \"#utility.yul\":7:82   */\n    tag_318:\n        /* \"#utility.yul\":40:46   */\n      0x00\n        /* \"#utility.yul\":73:75   */\n      0x40\n        /* \"#utility.yul\":67:76   */\n      mload\n        /* \"#utility.yul\":57:76   */\n      swap1\n      pop\n        /* \"#utility.yul\":7:82   */\n      swap1\n      jump\t// out\n        /* \"#utility.yul\":88:205   */\n    tag_319:\n        /* \"#utility.yul\":197:198   */\n      0x00\n        /* \"#utility.yul\":194:195   */\n      dup1\n        /* \"#utility.yul\":187:199   */\n      revert\n        /* \"#utility.yul\":211:328   */\n    tag_320:\n        /* \"#utility.yul\":320:321   */\n      0x00\n        /* \"#utility.yul\":317:318   */\n      dup1\n        /* \"#utility.yul\":310:322   */\n      revert\n        /* \"#utility.yul\":334:451   */\n    tag_321:\n        /* \"#utility.yul\":443:444   */\n      0x00\n        /* \"#utility.yul\":440:441   */\n      dup1\n        /* \"#utility.yul\":433:445   */\n      revert\n        /* \"#utility.yul\":457:574   */\n    tag_322:\n        /* \"#utility.yul\":566:567   */\n      0x00\n        /* \"#utility.yul\":563:564   */\n      dup1\n        /* \"#utility.yul\":556:568   */\n      revert\n        /* \"#utility.yul\":580:682   */\n    tag_323:\n        /* \"#utility.yul\":621:627   */\n      0x00\n        /* \"#utility.yul\":672:674   */\n      0x1f\n        /* \"#utility.yul\":668:675   */\n      not\n        /* \"#utility.yul\":663:665   */\n      0x1f\n        /* \"#utility.yul\":656:661   */\n      dup4\n        /* \"#utility.yul\":652:666   */\n      add\n        /* \"#utility.yul\":648:676   */\n      and\n        /* \"#utility.yul\":638:676   */\n      swap1\n      pop\n        /* \"#utility.yul\":580:682   */\n      swap2\n      swap1\n      pop\n      jump\t// out\n        /* \"#utility.yul\":688:868   */\n    tag_324:\n        /* \"#utility.yul\":736:813   */\n      0x4e487b7100000000000000000000000000000000000000000000000000000000\n        /* \"#utility.yul\":733:734   */\n      0x00\n        /* \"#utility.yul\":726:814   */\n      mstore\n        /* \"#utility.yul\":833:837   */\n      0x41\n        /* \"#utility.yul\":830:831   */\n      0x04\n        /* \"#utility.yul\":823:838   */\n      mstore\n        /* \"#utility.yul\":857:861   */\n      0x24\n        /* \"#utility.yul\":854:855   */\n      0x00\n        /* \"#utility.yul\":847:862   */\n      revert\n        /* \"#utility.yul\":874:1155   */\n    tag_325:\n        /* \"#utility.yul\":957:984   */\n      tag_439\n        /* \"#utility.yul\":979:983   */\n      dup3\n        /* \"#utility.yul\":957:984   */\n      tag_323\n      jump\t// in\n    tag_439:\n        /* \"#utility.yul\":949:955   */\n      dup2\n        /* \"#utility.yul\":945:985   */\n      add\n        /* \"#utility.yul\":1087:1093   */\n      dup2\n        /* \"#utility.yul\":1075:1085   */\n      dup2\n        /* \"#utility.yul\":1072:1094   */\n      lt\n        /* \"#utility.yul\":1051:1069   */\n      0xffffffffffffffff\n        /* \"#utility.yul\":1039:1049   */\n      dup3\n        /* \"#utility.yul\":1036:1070   */\n      gt\n        /* \"#utility.yul\":1033:1095   */\n      or\n        /* \"#utility.yul\":1030:1118   */\n      iszero\n      tag_440\n      jumpi\n        /* \"#utility.yul\":1098:1116   */\n      tag_441\n      tag_324\n      jump\t// in\n    tag_441:\n        /* \"#utility.yul\":1030:1118   */\n    tag_440:\n        /* \"#utility.yul\":1138:1148   */\n      dup1\n        /* \"#utility.yul\":1134:1136   */\n      0x40\n        /* \"#utility.yul\":1127:1149   */\n      mstore\n        /* \"#utility.yul\":917:1155   */\n      pop\n        /* \"#utility.yul\":874:1155   */\n      pop\n      pop\n      jump\t// out\n        /* \"#utility.yul\":1161:1290   */\n    tag_326:\n        /* \"#utility.yul\":1195:1201   */\n      0x00\n        /* \"#utility.yul\":1222:1242   */\n      tag_443\n      tag_318\n      jump\t// in\n    tag_443:\n        /* \"#utility.yul\":1212:1242   */\n      swap1\n      pop\n        /* \"#utility.yul\":1251:1284   */\n      tag_444\n        /* \"#utility.yul\":1279:1283   */\n      dup3\n        /* \"#utility.yul\":1271:1277   */\n      dup3\n        /* \"#utility.yul\":1251:1284   */\n      tag_325\n      jump\t// in\n    tag_444:\n        /* \"#utility.yul\":1161:1290   */\n      swap2\n      swap1\n      pop\n      jump\t// out\n        /* \"#utility.yul\":1296:1604   */\n    tag_327:\n        /* \"#utility.yul\":1358:1362   */\n      0x00\n        /* \"#utility.yul\":1448:1466   */\n      0xffffffffffffffff\n        /* \"#utility.yul\":1440:1446   */\n      dup3\n        /* \"#utility.yul\":1437:1467   */\n      gt\n        /* \"#utility.yul\":1434:1490   */\n      iszero\n      tag_446\n      jumpi\n        /* \"#utility.yul\":1470:1488   */\n      tag_447\n      tag_324\n      jump\t// in\n    tag_447:\n        /* \"#utility.yul\":1434:1490   */\n    tag_446:\n        /* \"#utility.yul\":1508:1537   */\n      tag_448\n        /* \"#utility.yul\":1530:1536   */\n      dup3\n        /* \"#utility.yul\":1508:1537   */\n      tag_323\n      jump\t// in\n    tag_448:\n        /* \"#utility.yul\":1500:1537   */\n      swap1\n      pop\n        /* \"#utility.yul\":1592:1596   */\n      0x20\n        /* \"#utility.yul\":1586:1590   */\n      dup2\n        /* \"#utility.yul\":1582:1597   */\n      add\n        /* \"#utility.yul\":1574:1597   */\n      swap1\n      pop\n        /* \"#utility.yul\":1296:1604   */\n      swap2\n      swap1\n      pop\n      jump\t// out\n        /* \"#utility.yul\":1610:1756   */\n    tag_328:\n        /* \"#utility.yul\":1707:1713   */\n      dup3\n        /* \"#utility.yul\":1702:1705   */\n      dup2\n        /* \"#utility.yul\":1697:1700   */\n      dup4\n        /* \"#utility.yul\":1684:1714   */\n      calldatacopy\n        /* \"#utility.yul\":1748:1749   */\n      0x00\n        /* \"#utility.yul\":1739:1745   */\n      dup4\n        /* \"#utility.yul\":1734:1737   */\n      dup4\n        /* \"#utility.yul\":1730:1746   */\n      add\n        /* \"#utility.yul\":1723:1750   */\n      mstore\n        /* \"#utility.yul\":1610:1756   */\n      pop\n      pop\n      pop\n      jump\t// out\n        /* \"#utility.yul\":1762:2187   */\n    tag_329:\n        /* \"#utility.yul\":1840:1845   */\n      0x00\n        /* \"#utility.yul\":1865:1931   */\n      tag_451\n        /* \"#utility.yul\":1881:1930   */\n      tag_452\n        /* \"#utility.yul\":1923:1929   */\n      dup5\n        /* \"#utility.yul\":1881:1930   */\n      tag_327\n      jump\t// in\n    tag_452:\n        /* \"#utility.yul\":1865:1931   */\n      tag_326\n      jump\t// in\n    tag_451:\n        /* \"#utility.yul\":1856:1931   */\n      swap1\n      pop\n        /* \"#utility.yul\":1954:1960   */\n      dup3\n        /* \"#utility.yul\":1947:1952   */\n      dup2\n        /* \"#utility.yul\":1940:1961   */\n      mstore\n        /* \"#utility.yul\":1992:1996   */\n      0x20\n        /* \"#utility.yul\":1985:1990   */\n      dup2\n        /* \"#utility.yul\":1981:1997   */\n      add\n        /* \"#utility.yul\":2030:2033   */\n      dup5\n        /* \"#utility.yul\":2021:2027   */\n      dup5\n        /* \"#utility.yul\":2016:2019   */\n      dup5\n        /* \"#utility.yul\":2012:2028   */\n      add\n        /* \"#utility.yul\":2009:2034   */\n      gt\n        /* \"#utility.yul\":2006:2118   */\n      iszero\n      tag_453\n      jumpi\n        /* \"#utility.yul\":2037:2116   */\n      tag_454\n      tag_322\n      jump\t// in\n    tag_454:\n        /* \"#utility.yul\":2006:2118   */\n    tag_453:\n        /* \"#utility.yul\":2127:2181   */\n      tag_455\n        /* \"#utility.yul\":2174:2180   */\n      dup5\n        /* \"#utility.yul\":2169:2172   */\n      dup3\n        /* \"#utility.yul\":2164:2167   */\n      dup6\n        /* \"#utility.yul\":2127:2181   */\n      tag_328\n      jump\t// in\n    tag_455:\n        /* \"#utility.yul\":1846:2187   */\n      pop\n        /* \"#utility.yul\":1762:2187   */\n      swap4\n      swap3\n      pop\n      pop\n      pop\n      jump\t// out\n        /* \"#utility.yul\":2207:2547   */\n    tag_330:\n        /* \"#utility.yul\":2263:2268   */\n      0x00\n        /* \"#utility.yul\":2312:2315   */\n      dup3\n        /* \"#utility.yul\":2305:2309   */\n      0x1f\n        /* \"#utility.yul\":2297:2303   */\n      dup4\n        /* \"#utility.yul\":2293:2310   */\n      add\n        /* \"#utility.yul\":2289:2316   */\n      slt\n        /* \"#utility.yul\":2279:2401   */\n      tag_457\n      jumpi\n        /* \"#utility.yul\":2320:2399   */\n      tag_458\n      tag_321\n      jump\t// in\n    tag_458:\n        /* \"#utility.yul\":2279:2401   */\n    tag_457:\n        /* \"#utility.yul\":2437:2443   */\n      dup2\n        /* \"#utility.yul\":2424:2444   */\n      calldataload\n        /* \"#utility.yul\":2462:2541   */\n      tag_459\n        /* \"#utility.yul\":2537:2540   */\n      dup5\n        /* \"#utility.yul\":2529:2535   */\n      dup3\n        /* \"#utility.yul\":2522:2526   */\n      0x20\n        /* \"#utility.yul\":2514:2520   */\n      dup7\n        /* \"#utility.yul\":2510:2527   */\n      add\n        /* \"#utility.yul\":2462:2541   */\n      tag_329\n      jump\t// in\n    tag_459:\n        /* \"#utility.yul\":2453:2541   */\n      swap2\n      pop\n        /* \"#utility.yul\":2269:2547   */\n      pop\n        /* \"#utility.yul\":2207:2547   */\n      swap3\n      swap2\n      pop\n      pop\n      jump\t// out\n        /* \"#utility.yul\":2553:2630   */\n    tag_331:\n        /* \"#utility.yul\":2590:2597   */\n      0x00\n        /* \"#utility.yul\":2619:2624   */\n      dup2\n        /* \"#utility.yul\":2608:2624   */\n      swap1\n      pop\n        /* \"#utility.yul\":2553:2630   */\n      swap2\n      swap1\n      pop\n      jump\t// out\n        /* \"#utility.yul\":2636:2758   */\n    tag_332:\n        /* \"#utility.yul\":2709:2733   */\n      tag_462\n        /* \"#utility.yul\":2727:2732   */\n      dup2\n        /* \"#utility.yul\":2709:2733   */\n      tag_331\n      jump\t// in\n    tag_462:\n        /* \"#utility.yul\":2702:2707   */\n      dup2\n        /* \"#utility.yul\":2699:2734   */\n      eq\n        /* \"#utility.yul\":2689:2752   */\n      tag_463\n      jumpi\n        /* \"#utility.yul\":2748:2749   */\n      0x00\n        /* \"#utility.yul\":2745:2746   */\n      dup1\n        /* \"#utility.yul\":2738:2750   */\n      revert\n        /* \"#utility.yul\":2689:2752   */\n    tag_463:\n        /* \"#utility.yul\":2636:2758   */\n      pop\n      jump\t// out\n        /* \"#utility.yul\":2764:2903   */\n    tag_333:\n        /* \"#utility.yul\":2810:2815   */\n      0x00\n        /* \"#utility.yul\":2848:2854   */\n      dup2\n        /* \"#utility.yul\":2835:2855   */\n      calldataload\n        /* \"#utility.yul\":2826:2855   */\n      swap1\n      pop\n        /* \"#utility.yul\":2864:2897   */\n      tag_465\n        /* \"#utility.yul\":2891:2896   */\n      dup2\n        /* \"#utility.yul\":2864:2897   */\n      tag_332\n      jump\t// in\n    tag_465:\n        /* \"#utility.yul\":2764:2903   */\n      swap3\n      swap2\n      pop\n      pop\n      jump\t// out\n        /* \"#utility.yul\":2909:3888   */\n    tag_22:\n        /* \"#utility.yul\":3006:3012   */\n      0x00\n        /* \"#utility.yul\":3014:3020   */\n      dup1\n        /* \"#utility.yul\":3022:3028   */\n      0x00\n        /* \"#utility.yul\":3071:3073   */\n      0x60\n        /* \"#utility.yul\":3059:3068   */\n      dup5\n        /* \"#utility.yul\":3050:3057   */\n      dup7\n        /* \"#utility.yul\":3046:3069   */\n      sub\n        /* \"#utility.yul\":3042:3074   */\n      slt\n        /* \"#utility.yul\":3039:3158   */\n      iszero\n      tag_467\n      jumpi\n        /* \"#utility.yul\":3077:3156   */\n      tag_468\n      tag_319\n      jump\t// in\n    tag_468:\n        /* \"#utility.yul\":3039:3158   */\n    tag_467:\n        /* \"#utility.yul\":3225:3226   */\n      0x00\n        /* \"#utility.yul\":3214:3223   */\n      dup5\n        /* \"#utility.yul\":3210:3227   */\n      add\n        /* \"#utility.yul\":3197:3228   */\n      calldataload\n        /* \"#utility.yul\":3255:3273   */\n      0xffffffffffffffff\n        /* \"#utility.yul\":3247:3253   */\n      dup2\n        /* \"#utility.yul\":3244:3274   */\n      gt\n        /* \"#utility.yul\":3241:3358   */\n      iszero\n      tag_469\n      jumpi\n        /* \"#utility.yul\":3277:3356   */\n      tag_470\n      tag_320\n      jump\t// in\n    tag_470:\n        /* \"#utility.yul\":3241:3358   */\n    tag_469:\n        /* \"#utility.yul\":3382:3445   */\n      tag_471\n        /* \"#utility.yul\":3437:3444   */\n      dup7\n        /* \"#utility.yul\":3428:3434   */\n      dup3\n        /* \"#utility.yul\":3417:3426   */\n      dup8\n        /* \"#utility.yul\":3413:3435   */\n      add\n        /* \"#utility.yul\":3382:3445   */\n      tag_330\n      jump\t// in\n    tag_471:\n        /* \"#utility.yul\":3372:3445   */\n      swap4\n      pop\n        /* \"#utility.yul\":3168:3455   */\n      pop\n        /* \"#utility.yul\":3522:3524   */\n      0x20\n        /* \"#utility.yul\":3511:3520   */\n      dup5\n        /* \"#utility.yul\":3507:3525   */\n      add\n        /* \"#utility.yul\":3494:3526   */\n      calldataload\n        /* \"#utility.yul\":3553:3571   */\n      0xffffffffffffffff\n        /* \"#utility.yul\":3545:3551   */\n      dup2\n        /* \"#utility.yul\":3542:3572   */\n      gt\n        /* \"#utility.yul\":3539:3656   */\n      iszero\n      tag_472\n      jumpi\n        /* \"#utility.yul\":3575:3654   */\n      tag_473\n      tag_320\n      jump\t// in\n    tag_473:\n        /* \"#utility.yul\":3539:3656   */\n    tag_472:\n        /* \"#utility.yul\":3680:3743   */\n      tag_474\n        /* \"#utility.yul\":3735:3742   */\n      dup7\n        /* \"#utility.yul\":3726:3732   */\n      dup3\n        /* \"#utility.yul\":3715:3724   */\n      dup8\n        /* \"#utility.yul\":3711:3733   */\n      add\n        /* \"#utility.yul\":3680:3743   */\n      tag_330\n      jump\t// in\n    tag_474:\n        /* \"#utility.yul\":3670:3743   */\n      swap3\n      pop\n        /* \"#utility.yul\":3465:3753   */\n      pop\n        /* \"#utility.yul\":3792:3794   */\n      0x40\n        /* \"#utility.yul\":3818:3871   */\n      tag_475\n        /* \"#utility.yul\":3863:3870   */\n      dup7\n        /* \"#utility.yul\":3854:3860   */\n      dup3\n        /* \"#utility.yul\":3843:3852   */\n      dup8\n        /* \"#utility.yul\":3839:3861   */\n      add\n        /* \"#utility.yul\":3818:3871   */\n      tag_333\n      jump\t// in\n    tag_475:\n        /* \"#utility.yul\":3808:3871   */\n      swap2\n      pop\n        /* \"#utility.yul\":3763:3881   */\n      pop\n        /* \"#utility.yul\":2909:3888   */\n      swap3\n      pop\n      swap3\n      pop\n      swap3\n      jump\t// out\n        /* \"#utility.yul\":3894:4020   */\n    tag_334:\n        /* \"#utility.yul\":3931:3938   */\n      0x00\n        /* \"#utility.yul\":3971:4013   */\n      0xffffffffffffffffffffffffffffffffffffffff\n        /* \"#utility.yul\":3964:3969   */\n      dup3\n        /* \"#utility.yul\":3960:4014   */\n      and\n        /* \"#utility.yul\":3949:4014   */\n      swap1\n      pop\n        /* \"#utility.yul\":3894:4020   */\n      swap2\n      swap1\n      pop\n      jump\t// out\n        /* \"#utility.yul\":4026:4122   */\n    tag_335:\n        /* \"#utility.yul\":4063:4070   */\n      0x00\n        /* \"#utility.yul\":4092:4116   */\n      tag_478\n        /* \"#utility.yul\":4110:4115   */\n      dup3\n        /* \"#utility.yul\":4092:4116   */\n      tag_334\n      jump\t// in\n    tag_478:\n        /* \"#utility.yul\":4081:4116   */\n      swap1\n      pop\n        /* \"#utility.yul\":4026:4122   */\n      swap2\n      swap1\n      pop\n      jump\t// out\n        /* \"#utility.yul\":4128:4250   */\n    tag_336:\n        /* \"#utility.yul\":4201:4225   */\n      tag_480\n        /* \"#utility.yul\":4219:4224   */\n      dup2\n        /* \"#utility.yul\":4201:4225   */\n      tag_335\n      jump\t// in\n    tag_480:\n        /* \"#utility.yul\":4194:4199   */\n      dup2\n        /* \"#utility.yul\":4191:4226   */\n      eq\n        /* \"#utility.yul\":4181:4244   */\n      tag_481\n      jumpi\n        /* \"#utility.yul\":4240:4241   */\n      0x00\n        /* \"#utility.yul\":4237:4238   */\n      dup1\n        /* \"#utility.yul\":4230:4242   */\n      revert\n        /* \"#utility.yul\":4181:4244   */\n    tag_481:\n        /* \"#utility.yul\":4128:4250   */\n      pop\n      jump\t// out\n        /* \"#utility.yul\":4256:4395   */\n    tag_337:\n        /* \"#utility.yul\":4302:4307   */\n      0x00\n        /* \"#utility.yul\":4340:4346   */\n      dup2\n        /* \"#utility.yul\":4327:4347   */\n      calldataload\n        /* \"#utility.yul\":4318:4347   */\n      swap1\n      pop\n        /* \"#utility.yul\":4356:4389   */\n      tag_483\n        /* \"#utility.yul\":4383:4388   */\n      dup2\n        /* \"#utility.yul\":4356:4389   */\n      tag_336\n      jump\t// in\n    tag_483:\n        /* \"#utility.yul\":4256:4395   */\n      swap3\n      swap2\n      pop\n      pop\n      jump\t// out\n        /* \"#utility.yul\":4401:5200   */\n    tag_26:\n        /* \"#utility.yul\":4488:4494   */\n      0x00\n        /* \"#utility.yul\":4496:4502   */\n      dup1\n        /* \"#utility.yul\":4504:4510   */\n      0x00\n        /* \"#utility.yul\":4553:4555   */\n      0x60\n        /* \"#utility.yul\":4541:4550   */\n      dup5\n        /* \"#utility.yul\":4532:4539   */\n      dup7\n        /* \"#utility.yul\":4528:4551   */\n      sub\n        /* \"#utility.yul\":4524:4556   */\n      slt\n        /* \"#utility.yul\":4521:4640   */\n      iszero\n      tag_485\n      jumpi\n        /* \"#utility.yul\":4559:4638   */\n      tag_486\n      tag_319\n      jump\t// in\n    tag_486:\n        /* \"#utility.yul\":4521:4640   */\n    tag_485:\n        /* \"#utility.yul\":4679:4680   */\n      0x00\n        /* \"#utility.yul\":4704:4757   */\n      tag_487\n        /* \"#utility.yul\":4749:4756   */\n      dup7\n        /* \"#utility.yul\":4740:4746   */\n      dup3\n        /* \"#utility.yul\":4729:4738   */\n      dup8\n        /* \"#utility.yul\":4725:4747   */\n      add\n        /* \"#utility.yul\":4704:4757   */\n      tag_337\n      jump\t// in\n    tag_487:\n        /* \"#utility.yul\":4694:4757   */\n      swap4\n      pop\n        /* \"#utility.yul\":4650:4767   */\n      pop\n        /* \"#utility.yul\":4806:4808   */\n      0x20\n        /* \"#utility.yul\":4832:4885   */\n      tag_488\n        /* \"#utility.yul\":4877:4884   */\n      dup7\n        /* \"#utility.yul\":4868:4874   */\n      dup3\n        /* \"#utility.yul\":4857:4866   */\n      dup8\n        /* \"#utility.yul\":4853:4875   */\n      add\n        /* \"#utility.yul\":4832:4885   */\n      tag_337\n      jump\t// in\n    tag_488:\n        /* \"#utility.yul\":4822:4885   */\n      swap3\n      pop\n        /* \"#utility.yul\":4777:4895   */\n      pop\n        /* \"#utility.yul\":4962:4964   */\n      0x40\n        /* \"#utility.yul\":4951:4960   */\n      dup5\n        /* \"#utility.yul\":4947:4965   */\n      add\n        /* \"#utility.yul\":4934:4966   */\n      calldataload\n        /* \"#utility.yul\":4993:5011   */\n      0xffffffffffffffff\n        /* \"#utility.yul\":4985:4991   */\n      dup2\n        /* \"#utility.yul\":4982:5012   */\n      gt\n        /* \"#utility.yul\":4979:5096   */\n      iszero\n      tag_489\n      jumpi\n        /* \"#utility.yul\":5015:5094   */\n      tag_490\n      tag_320\n      jump\t// in\n    tag_490:\n        /* \"#utility.yul\":4979:5096   */\n    tag_489:\n        /* \"#utility.yul\":5120:5183   */\n      tag_491\n        /* \"#utility.yul\":5175:5182   */\n      dup7\n        /* \"#utility.yul\":5166:5172   */\n      dup3\n        /* \"#utility.yul\":5155:5164   */\n      dup8\n        /* \"#utility.yul\":5151:5173   */\n      add\n        /* \"#utility.yul\":5120:5183   */\n      tag_330\n      jump\t// in\n    tag_491:\n        /* \"#utility.yul\":5110:5183   */\n      swap2\n      pop\n        /* \"#utility.yul\":4905:5193   */\n      pop\n        /* \"#utility.yul\":4401:5200   */\n      swap3\n      pop\n      swap3\n      pop\n      swap3\n      jump\t// out\n        /* \"#utility.yul\":5206:5680   */\n    tag_30:\n        /* \"#utility.yul\":5274:5280   */\n      0x00\n        /* \"#utility.yul\":5282:5288   */\n      dup1\n        /* \"#utility.yul\":5331:5333   */\n      0x40\n        /* \"#utility.yul\":5319:5328   */\n      dup4\n        /* \"#utility.yul\":5310:5317   */\n      dup6\n        /* \"#utility.yul\":5306:5329   */\n      sub\n        /* \"#utility.yul\":5302:5334   */\n      slt\n        /* \"#utility.yul\":5299:5418   */\n      iszero\n      tag_493\n      jumpi\n        /* \"#utility.yul\":5337:5416   */\n      tag_494\n      tag_319\n      jump\t// in\n    tag_494:\n        /* \"#utility.yul\":5299:5418   */\n    tag_493:\n        /* \"#utility.yul\":5457:5458   */\n      0x00\n        /* \"#utility.yul\":5482:5535   */\n      tag_495\n        /* \"#utility.yul\":5527:5534   */\n      dup6\n        /* \"#utility.yul\":5518:5524   */\n      dup3\n        /* \"#utility.yul\":5507:5516   */\n      dup7\n        /* \"#utility.yul\":5503:5525   */\n      add\n        /* \"#utility.yul\":5482:5535   */\n      tag_337\n      jump\t// in\n    tag_495:\n        /* \"#utility.yul\":5472:5535   */\n      swap3\n      pop\n        /* \"#utility.yul\":5428:5545   */\n      pop\n        /* \"#utility.yul\":5584:5586   */\n      0x20\n        /* \"#utility.yul\":5610:5663   */\n      tag_496\n        /* \"#utility.yul\":5655:5662   */\n      dup6\n        /* \"#utility.yul\":5646:5652   */\n      dup3\n        /* \"#utility.yul\":5635:5644   */\n      dup7\n        /* \"#utility.yul\":5631:5653   */\n      add\n        /* \"#utility.yul\":5610:5663   */\n      tag_337\n      jump\t// in\n    tag_496:\n        /* \"#utility.yul\":5600:5663   */\n      swap2\n      pop\n        /* \"#utility.yul\":5555:5673   */\n      pop\n        /* \"#utility.yul\":5206:5680   */\n      swap3\n      pop\n      swap3\n      swap1\n      pop\n      jump\t// out\n        /* \"#utility.yul\":5686:5823   */\n    tag_338:\n        /* \"#utility.yul\":5776:5782   */\n      0x00\n        /* \"#utility.yul\":5810:5815   */\n      dup2\n        /* \"#utility.yul\":5804:5816   */\n      mload\n        /* \"#utility.yul\":5794:5816   */\n      swap1\n      pop\n        /* \"#utility.yul\":5686:5823   */\n      swap2\n      swap1\n      pop\n      jump\t// out\n        /* \"#utility.yul\":5829:6036   */\n    tag_339:\n        /* \"#utility.yul\":5951:5962   */\n      0x00\n        /* \"#utility.yul\":5985:5991   */\n      dup3\n        /* \"#utility.yul\":5980:5983   */\n      dup3\n        /* \"#utility.yul\":5973:5992   */\n      mstore\n        /* \"#utility.yul\":6025:6029   */\n      0x20\n        /* \"#utility.yul\":6020:6023   */\n      dup3\n        /* \"#utility.yul\":6016:6030   */\n      add\n        /* \"#utility.yul\":6001:6030   */\n      swap1\n      pop\n        /* \"#utility.yul\":5829:6036   */\n      swap3\n      swap2\n      pop\n      pop\n      jump\t// out\n        /* \"#utility.yul\":6042:6197   */\n    tag_340:\n        /* \"#utility.yul\":6132:6136   */\n      0x00\n        /* \"#utility.yul\":6155:6158   */\n      dup2\n        /* \"#utility.yul\":6147:6158   */\n      swap1\n      pop\n        /* \"#utility.yul\":6185:6189   */\n      0x20\n        /* \"#utility.yul\":6180:6183   */\n      dup3\n        /* \"#utility.yul\":6176:6190   */\n      add\n        /* \"#utility.yul\":6168:6190   */\n      swap1\n      pop\n        /* \"#utility.yul\":6042:6197   */\n      swap2\n      swap1\n      pop\n      jump\t// out\n        /* \"#utility.yul\":6203:6311   */\n    tag_341:\n        /* \"#utility.yul\":6280:6304   */\n      tag_501\n        /* \"#utility.yul\":6298:6303   */\n      dup2\n        /* \"#utility.yul\":6280:6304   */\n      tag_335\n      jump\t// in\n    tag_501:\n        /* \"#utility.yul\":6275:6278   */\n      dup3\n        /* \"#utility.yul\":6268:6305   */\n      mstore\n        /* \"#utility.yul\":6203:6311   */\n      pop\n      pop\n      jump\t// out\n        /* \"#utility.yul\":6317:6416   */\n    tag_342:\n        /* \"#utility.yul\":6369:6375   */\n      0x00\n        /* \"#utility.yul\":6403:6408   */\n      dup2\n        /* \"#utility.yul\":6397:6409   */\n      mload\n        /* \"#utility.yul\":6387:6409   */\n      swap1\n      pop\n        /* \"#utility.yul\":6317:6416   */\n      swap2\n      swap1\n      pop\n      jump\t// out\n        /* \"#utility.yul\":6422:6581   */\n    tag_343:\n        /* \"#utility.yul\":6496:6507   */\n      0x00\n        /* \"#utility.yul\":6530:6536   */\n      dup3\n        /* \"#utility.yul\":6525:6528   */\n      dup3\n        /* \"#utility.yul\":6518:6537   */\n      mstore\n        /* \"#utility.yul\":6570:6574   */\n      0x20\n        /* \"#utility.yul\":6565:6568   */\n      dup3\n        /* \"#utility.yul\":6561:6575   */\n      add\n        /* \"#utility.yul\":6546:6575   */\n      swap1\n      pop\n        /* \"#utility.yul\":6422:6581   */\n      swap3\n      swap2\n      pop\n      pop\n      jump\t// out\n        /* \"#utility.yul\":6587:6833   */\n    tag_344:\n        /* \"#utility.yul\":6668:6669   */\n      0x00\n        /* \"#utility.yul\":6678:6791   */\n    tag_505:\n        /* \"#utility.yul\":6692:6698   */\n      dup4\n        /* \"#utility.yul\":6689:6690   */\n      dup2\n        /* \"#utility.yul\":6686:6699   */\n      lt\n        /* \"#utility.yul\":6678:6791   */\n      iszero\n      tag_507\n      jumpi\n        /* \"#utility.yul\":6777:6778   */\n      dup1\n        /* \"#utility.yul\":6772:6775   */\n      dup3\n        /* \"#utility.yul\":6768:6779   */\n      add\n        /* \"#utility.yul\":6762:6780   */\n      mload\n        /* \"#utility.yul\":6758:6759   */\n      dup2\n        /* \"#utility.yul\":6753:6756   */\n      dup5\n        /* \"#utility.yul\":6749:6760   */\n      add\n        /* \"#utility.yul\":6742:6781   */\n      mstore\n        /* \"#utility.yul\":6714:6716   */\n      0x20\n        /* \"#utility.yul\":6711:6712   */\n      dup2\n        /* \"#utility.yul\":6707:6717   */\n      add\n        /* \"#utility.yul\":6702:6717   */\n      swap1\n      pop\n        /* \"#utility.yul\":6678:6791   */\n      jump(tag_505)\n    tag_507:\n        /* \"#utility.yul\":6825:6826   */\n      0x00\n        /* \"#utility.yul\":6816:6822   */\n      dup5\n        /* \"#utility.yul\":6811:6814   */\n      dup5\n        /* \"#utility.yul\":6807:6823   */\n      add\n        /* \"#utility.yul\":6800:6827   */\n      mstore\n        /* \"#utility.yul\":6649:6833   */\n      pop\n        /* \"#utility.yul\":6587:6833   */\n      pop\n      pop\n      pop\n      jump\t// out\n        /* \"#utility.yul\":6839:7196   */\n    tag_345:\n        /* \"#utility.yul\":6917:6920   */\n      0x00\n        /* \"#utility.yul\":6945:6984   */\n      tag_509\n        /* \"#utility.yul\":6978:6983   */\n      dup3\n        /* \"#utility.yul\":6945:6984   */\n      tag_342\n      jump\t// in\n    tag_509:\n        /* \"#utility.yul\":7000:7061   */\n      tag_510\n        /* \"#utility.yul\":7054:7060   */\n      dup2\n        /* \"#utility.yul\":7049:7052   */\n      dup6\n        /* \"#utility.yul\":7000:7061   */\n      tag_343\n      jump\t// in\n    tag_510:\n        /* \"#utility.yul\":6993:7061   */\n      swap4\n      pop\n        /* \"#utility.yul\":7070:7135   */\n      tag_511\n        /* \"#utility.yul\":7128:7134   */\n      dup2\n        /* \"#utility.yul\":7123:7126   */\n      dup6\n        /* \"#utility.yul\":7116:7120   */\n      0x20\n        /* \"#utility.yul\":7109:7114   */\n      dup7\n        /* \"#utility.yul\":7105:7121   */\n      add\n        /* \"#utility.yul\":7070:7135   */\n      tag_344\n      jump\t// in\n    tag_511:\n        /* \"#utility.yul\":7160:7189   */\n      tag_512\n        /* \"#utility.yul\":7182:7188   */\n      dup2\n        /* \"#utility.yul\":7160:7189   */\n      tag_323\n      jump\t// in\n    tag_512:\n        /* \"#utility.yul\":7155:7158   */\n      dup5\n        /* \"#utility.yul\":7151:7190   */\n      add\n        /* \"#utility.yul\":7144:7190   */\n      swap2\n      pop\n        /* \"#utility.yul\":6921:7196   */\n      pop\n        /* \"#utility.yul\":6839:7196   */\n      swap3\n      swap2\n      pop\n      pop\n      jump\t// out\n        /* \"#utility.yul\":7202:7310   */\n    tag_346:\n        /* \"#utility.yul\":7279:7303   */\n      tag_514\n        /* \"#utility.yul\":7297:7302   */\n      dup2\n        /* \"#utility.yul\":7279:7303   */\n      tag_331\n      jump\t// in\n    tag_514:\n        /* \"#utility.yul\":7274:7277   */\n      dup3\n        /* \"#utility.yul\":7267:7304   */\n      mstore\n        /* \"#utility.yul\":7202:7310   */\n      pop\n      pop\n      jump\t// out\n        /* \"#utility.yul\":7382:8158   */\n    tag_347:\n        /* \"#utility.yul\":7487:7490   */\n      0x00\n        /* \"#utility.yul\":7523:7527   */\n      0x60\n        /* \"#utility.yul\":7518:7521   */\n      dup4\n        /* \"#utility.yul\":7514:7528   */\n      add\n        /* \"#utility.yul\":7612:7616   */\n      0x00\n        /* \"#utility.yul\":7605:7610   */\n      dup4\n        /* \"#utility.yul\":7601:7617   */\n      add\n        /* \"#utility.yul\":7595:7618   */\n      mload\n        /* \"#utility.yul\":7631:7694   */\n      tag_516\n        /* \"#utility.yul\":7688:7692   */\n      0x00\n        /* \"#utility.yul\":7683:7686   */\n      dup7\n        /* \"#utility.yul\":7679:7693   */\n      add\n        /* \"#utility.yul\":7665:7677   */\n      dup3\n        /* \"#utility.yul\":7631:7694   */\n      tag_341\n      jump\t// in\n    tag_516:\n        /* \"#utility.yul\":7538:7704   */\n      pop\n        /* \"#utility.yul\":7789:7793   */\n      0x20\n        /* \"#utility.yul\":7782:7787   */\n      dup4\n        /* \"#utility.yul\":7778:7794   */\n      add\n        /* \"#utility.yul\":7772:7795   */\n      mload\n        /* \"#utility.yul\":7842:7845   */\n      dup5\n        /* \"#utility.yul\":7836:7840   */\n      dup3\n        /* \"#utility.yul\":7832:7846   */\n      sub\n        /* \"#utility.yul\":7825:7829   */\n      0x20\n        /* \"#utility.yul\":7820:7823   */\n      dup7\n        /* \"#utility.yul\":7816:7830   */\n      add\n        /* \"#utility.yul\":7809:7847   */\n      mstore\n        /* \"#utility.yul\":7868:7941   */\n      tag_517\n        /* \"#utility.yul\":7936:7940   */\n      dup3\n        /* \"#utility.yul\":7922:7934   */\n      dup3\n        /* \"#utility.yul\":7868:7941   */\n      tag_345\n      jump\t// in\n    tag_517:\n        /* \"#utility.yul\":7860:7941   */\n      swap2\n      pop\n        /* \"#utility.yul\":7714:7952   */\n      pop\n        /* \"#utility.yul\":8039:8043   */\n      0x40\n        /* \"#utility.yul\":8032:8037   */\n      dup4\n        /* \"#utility.yul\":8028:8044   */\n      add\n        /* \"#utility.yul\":8022:8045   */\n      mload\n        /* \"#utility.yul\":8058:8121   */\n      tag_518\n        /* \"#utility.yul\":8115:8119   */\n      0x40\n        /* \"#utility.yul\":8110:8113   */\n      dup7\n        /* \"#utility.yul\":8106:8120   */\n      add\n        /* \"#utility.yul\":8092:8104   */\n      dup3\n        /* \"#utility.yul\":8058:8121   */\n      tag_346\n      jump\t// in\n    tag_518:\n        /* \"#utility.yul\":7962:8131   */\n      pop\n        /* \"#utility.yul\":8148:8152   */\n      dup1\n        /* \"#utility.yul\":8141:8152   */\n      swap2\n      pop\n        /* \"#utility.yul\":7492:8158   */\n      pop\n        /* \"#utility.yul\":7382:8158   */\n      swap3\n      swap2\n      pop\n      pop\n      jump\t// out\n        /* \"#utility.yul\":8164:8412   */\n    tag_348:\n        /* \"#utility.yul\":8279:8289   */\n      0x00\n        /* \"#utility.yul\":8314:8406   */\n      tag_520\n        /* \"#utility.yul\":8402:8405   */\n      dup4\n        /* \"#utility.yul\":8394:8400   */\n      dup4\n        /* \"#utility.yul\":8314:8406   */\n      tag_347\n      jump\t// in\n    tag_520:\n        /* \"#utility.yul\":8300:8406   */\n      swap1\n      pop\n        /* \"#utility.yul\":8164:8412   */\n      swap3\n      swap2\n      pop\n      pop\n      jump\t// out\n        /* \"#utility.yul\":8418:8554   */\n    tag_349:\n        /* \"#utility.yul\":8511:8515   */\n      0x00\n        /* \"#utility.yul\":8543:8547   */\n      0x20\n        /* \"#utility.yul\":8538:8541   */\n      dup3\n        /* \"#utility.yul\":8534:8548   */\n      add\n        /* \"#utility.yul\":8526:8548   */\n      swap1\n      pop\n        /* \"#utility.yul\":8418:8554   */\n      swap2\n      swap1\n      pop\n      jump\t// out\n        /* \"#utility.yul\":8630:9725   */\n    tag_350:\n        /* \"#utility.yul\":8795:8798   */\n      0x00\n        /* \"#utility.yul\":8824:8901   */\n      tag_523\n        /* \"#utility.yul\":8895:8900   */\n      dup3\n        /* \"#utility.yul\":8824:8901   */\n      tag_338\n      jump\t// in\n    tag_523:\n        /* \"#utility.yul\":8917:9026   */\n      tag_524\n        /* \"#utility.yul\":9019:9025   */\n      dup2\n        /* \"#utility.yul\":9014:9017   */\n      dup6\n        /* \"#utility.yul\":8917:9026   */\n      tag_339\n      jump\t// in\n    tag_524:\n        /* \"#utility.yul\":8910:9026   */\n      swap4\n      pop\n        /* \"#utility.yul\":9052:9055   */\n      dup4\n        /* \"#utility.yul\":9097:9101   */\n      0x20\n        /* \"#utility.yul\":9089:9095   */\n      dup3\n        /* \"#utility.yul\":9085:9102   */\n      mul\n        /* \"#utility.yul\":9080:9083   */\n      dup6\n        /* \"#utility.yul\":9076:9103   */\n      add\n        /* \"#utility.yul\":9127:9206   */\n      tag_525\n        /* \"#utility.yul\":9200:9205   */\n      dup6\n        /* \"#utility.yul\":9127:9206   */\n      tag_340\n      jump\t// in\n    tag_525:\n        /* \"#utility.yul\":9229:9236   */\n      dup1\n        /* \"#utility.yul\":9260:9261   */\n      0x00\n        /* \"#utility.yul\":9245:9680   */\n    tag_526:\n        /* \"#utility.yul\":9270:9276   */\n      dup6\n        /* \"#utility.yul\":9267:9268   */\n      dup2\n        /* \"#utility.yul\":9264:9277   */\n      lt\n        /* \"#utility.yul\":9245:9680   */\n      iszero\n      tag_528\n      jumpi\n        /* \"#utility.yul\":9341:9350   */\n      dup5\n        /* \"#utility.yul\":9335:9339   */\n      dup5\n        /* \"#utility.yul\":9331:9351   */\n      sub\n        /* \"#utility.yul\":9326:9329   */\n      dup10\n        /* \"#utility.yul\":9319:9352   */\n      mstore\n        /* \"#utility.yul\":9392:9398   */\n      dup2\n        /* \"#utility.yul\":9386:9399   */\n      mload\n        /* \"#utility.yul\":9420:9530   */\n      tag_529\n        /* \"#utility.yul\":9525:9529   */\n      dup6\n        /* \"#utility.yul\":9510:9523   */\n      dup3\n        /* \"#utility.yul\":9420:9530   */\n      tag_348\n      jump\t// in\n    tag_529:\n        /* \"#utility.yul\":9412:9530   */\n      swap5\n      pop\n        /* \"#utility.yul\":9553:9636   */\n      tag_530\n        /* \"#utility.yul\":9629:9635   */\n      dup4\n        /* \"#utility.yul\":9553:9636   */\n      tag_349\n      jump\t// in\n    tag_530:\n        /* \"#utility.yul\":9543:9636   */\n      swap3\n      pop\n        /* \"#utility.yul\":9665:9669   */\n      0x20\n        /* \"#utility.yul\":9660:9663   */\n      dup11\n        /* \"#utility.yul\":9656:9670   */\n      add\n        /* \"#utility.yul\":9649:9670   */\n      swap10\n      pop\n        /* \"#utility.yul\":9305:9680   */\n      pop\n        /* \"#utility.yul\":9292:9293   */\n      0x01\n        /* \"#utility.yul\":9289:9290   */\n      dup2\n        /* \"#utility.yul\":9285:9294   */\n      add\n        /* \"#utility.yul\":9280:9294   */\n      swap1\n      pop\n        /* \"#utility.yul\":9245:9680   */\n      jump(tag_526)\n    tag_528:\n        /* \"#utility.yul\":9249:9263   */\n      pop\n        /* \"#utility.yul\":9696:9700   */\n      dup3\n        /* \"#utility.yul\":9689:9700   */\n      swap8\n      pop\n        /* \"#utility.yul\":9716:9719   */\n      dup8\n        /* \"#utility.yul\":9709:9719   */\n      swap6\n      pop\n        /* \"#utility.yul\":8800:9725   */\n      pop\n      pop\n      pop\n      pop\n      pop\n        /* \"#utility.yul\":8630:9725   */\n      swap3\n      swap2\n      pop\n      pop\n      jump\t// out\n        /* \"#utility.yul\":9731:10196   */\n    tag_33:\n        /* \"#utility.yul\":9920:9924   */\n      0x00\n        /* \"#utility.yul\":9958:9960   */\n      0x20\n        /* \"#utility.yul\":9947:9956   */\n      dup3\n        /* \"#utility.yul\":9943:9961   */\n      add\n        /* \"#utility.yul\":9935:9961   */\n      swap1\n      pop\n        /* \"#utility.yul\":10007:10016   */\n      dup2\n        /* \"#utility.yul\":10001:10005   */\n      dup2\n        /* \"#utility.yul\":9997:10017   */\n      sub\n        /* \"#utility.yul\":9993:9994   */\n      0x00\n        /* \"#utility.yul\":9982:9991   */\n      dup4\n        /* \"#utility.yul\":9978:9995   */\n      add\n        /* \"#utility.yul\":9971:10018   */\n      mstore\n        /* \"#utility.yul\":10035:10189   */\n      tag_532\n        /* \"#utility.yul\":10184:10188   */\n      dup2\n        /* \"#utility.yul\":10175:10181   */\n      dup5\n        /* \"#utility.yul\":10035:10189   */\n      tag_350\n      jump\t// in\n    tag_532:\n        /* \"#utility.yul\":10027:10189   */\n      swap1\n      pop\n        /* \"#utility.yul\":9731:10196   */\n      swap3\n      swap2\n      pop\n      pop\n      jump\t// out\n        /* \"#utility.yul\":10202:10531   */\n    tag_36:\n        /* \"#utility.yul\":10261:10267   */\n      0x00\n        /* \"#utility.yul\":10310:10312   */\n      0x20\n        /* \"#utility.yul\":10298:10307   */\n      dup3\n        /* \"#utility.yul\":10289:10296   */\n      dup5\n        /* \"#utility.yul\":10285:10308   */\n      sub\n        /* \"#utility.yul\":10281:10313   */\n      slt\n        /* \"#utility.yul\":10278:10397   */\n      iszero\n      tag_534\n      jumpi\n        /* \"#utility.yul\":10316:10395   */\n      tag_535\n      tag_319\n      jump\t// in\n    tag_535:\n        /* \"#utility.yul\":10278:10397   */\n    tag_534:\n        /* \"#utility.yul\":10436:10437   */\n      0x00\n        /* \"#utility.yul\":10461:10514   */\n      tag_536\n        /* \"#utility.yul\":10506:10513   */\n      dup5\n        /* \"#utility.yul\":10497:10503   */\n      dup3\n        /* \"#utility.yul\":10486:10495   */\n      dup6\n        /* \"#utility.yul\":10482:10504   */\n      add\n        /* \"#utility.yul\":10461:10514   */\n      tag_337\n      jump\t// in\n    tag_536:\n        /* \"#utility.yul\":10451:10514   */\n      swap2\n      pop\n        /* \"#utility.yul\":10407:10524   */\n      pop\n        /* \"#utility.yul\":10202:10531   */\n      swap3\n      swap2\n      pop\n      pop\n      jump\t// out\n        /* \"#utility.yul\":10537:10651   */\n    tag_351:\n        /* \"#utility.yul\":10604:10610   */\n      0x00\n        /* \"#utility.yul\":10638:10643   */\n      dup2\n        /* \"#utility.yul\":10632:10644   */\n      mload\n        /* \"#utility.yul\":10622:10644   */\n      swap1\n      pop\n        /* \"#utility.yul\":10537:10651   */\n      swap2\n      swap1\n      pop\n      jump\t// out\n        /* \"#utility.yul\":10657:10841   */\n    tag_352:\n        /* \"#utility.yul\":10756:10767   */\n      0x00\n        /* \"#utility.yul\":10790:10796   */\n      dup3\n        /* \"#utility.yul\":10785:10788   */\n      dup3\n        /* \"#utility.yul\":10778:10797   */\n      mstore\n        /* \"#utility.yul\":10830:10834   */\n      0x20\n        /* \"#utility.yul\":10825:10828   */\n      dup3\n        /* \"#utility.yul\":10821:10835   */\n      add\n        /* \"#utility.yul\":10806:10835   */\n      swap1\n      pop\n        /* \"#utility.yul\":10657:10841   */\n      swap3\n      swap2\n      pop\n      pop\n      jump\t// out\n        /* \"#utility.yul\":10847:10979   */\n    tag_353:\n        /* \"#utility.yul\":10914:10918   */\n      0x00\n        /* \"#utility.yul\":10937:10940   */\n      dup2\n        /* \"#utility.yul\":10929:10940   */\n      swap1\n      pop\n        /* \"#utility.yul\":10967:10971   */\n      0x20\n        /* \"#utility.yul\":10962:10965   */\n      dup3\n        /* \"#utility.yul\":10958:10972   */\n      add\n        /* \"#utility.yul\":10950:10972   */\n      swap1\n      pop\n        /* \"#utility.yul\":10847:10979   */\n      swap2\n      swap1\n      pop\n      jump\t// out\n        /* \"#utility.yul\":10985:11164   */\n    tag_354:\n        /* \"#utility.yul\":11054:11064   */\n      0x00\n        /* \"#utility.yul\":11075:11121   */\n      tag_541\n        /* \"#utility.yul\":11117:11120   */\n      dup4\n        /* \"#utility.yul\":11109:11115   */\n      dup4\n        /* \"#utility.yul\":11075:11121   */\n      tag_341\n      jump\t// in\n    tag_541:\n        /* \"#utility.yul\":11153:11157   */\n      0x20\n        /* \"#utility.yul\":11148:11151   */\n      dup4\n        /* \"#utility.yul\":11144:11158   */\n      add\n        /* \"#utility.yul\":11130:11158   */\n      swap1\n      pop\n        /* \"#utility.yul\":10985:11164   */\n      swap3\n      swap2\n      pop\n      pop\n      jump\t// out\n        /* \"#utility.yul\":11170:11283   */\n    tag_355:\n        /* \"#utility.yul\":11240:11244   */\n      0x00\n        /* \"#utility.yul\":11272:11276   */\n      0x20\n        /* \"#utility.yul\":11267:11270   */\n      dup3\n        /* \"#utility.yul\":11263:11277   */\n      add\n        /* \"#utility.yul\":11255:11277   */\n      swap1\n      pop\n        /* \"#utility.yul\":11170:11283   */\n      swap2\n      swap1\n      pop\n      jump\t// out\n        /* \"#utility.yul\":11319:12051   */\n    tag_356:\n        /* \"#utility.yul\":11438:11441   */\n      0x00\n        /* \"#utility.yul\":11467:11521   */\n      tag_544\n        /* \"#utility.yul\":11515:11520   */\n      dup3\n        /* \"#utility.yul\":11467:11521   */\n      tag_351\n      jump\t// in\n    tag_544:\n        /* \"#utility.yul\":11537:11623   */\n      tag_545\n        /* \"#utility.yul\":11616:11622   */\n      dup2\n        /* \"#utility.yul\":11611:11614   */\n      dup6\n        /* \"#utility.yul\":11537:11623   */\n      tag_352\n      jump\t// in\n    tag_545:\n        /* \"#utility.yul\":11530:11623   */\n      swap4\n      pop\n        /* \"#utility.yul\":11647:11703   */\n      tag_546\n        /* \"#utility.yul\":11697:11702   */\n      dup4\n        /* \"#utility.yul\":11647:11703   */\n      tag_353\n      jump\t// in\n    tag_546:\n        /* \"#utility.yul\":11726:11733   */\n      dup1\n        /* \"#utility.yul\":11757:11758   */\n      0x00\n        /* \"#utility.yul\":11742:12026   */\n    tag_547:\n        /* \"#utility.yul\":11767:11773   */\n      dup4\n        /* \"#utility.yul\":11764:11765   */\n      dup2\n        /* \"#utility.yul\":11761:11774   */\n      lt\n        /* \"#utility.yul\":11742:12026   */\n      iszero\n      tag_549\n      jumpi\n        /* \"#utility.yul\":11843:11849   */\n      dup2\n        /* \"#utility.yul\":11837:11850   */\n      mload\n        /* \"#utility.yul\":11870:11933   */\n      tag_550\n        /* \"#utility.yul\":11929:11932   */\n      dup9\n        /* \"#utility.yul\":11914:11927   */\n      dup3\n        /* \"#utility.yul\":11870:11933   */\n      tag_354\n      jump\t// in\n    tag_550:\n        /* \"#utility.yul\":11863:11933   */\n      swap8\n      pop\n        /* \"#utility.yul\":11956:12016   */\n      tag_551\n        /* \"#utility.yul\":12009:12015   */\n      dup4\n        /* \"#utility.yul\":11956:12016   */\n      tag_355\n      jump\t// in\n    tag_551:\n        /* \"#utility.yul\":11946:12016   */\n      swap3\n      pop\n        /* \"#utility.yul\":11802:12026   */\n      pop\n        /* \"#utility.yul\":11789:11790   */\n      0x01\n        /* \"#utility.yul\":11786:11787   */\n      dup2\n        /* \"#utility.yul\":11782:11791   */\n      add\n        /* \"#utility.yul\":11777:11791   */\n      swap1\n      pop\n        /* \"#utility.yul\":11742:12026   */\n      jump(tag_547)\n    tag_549:\n        /* \"#utility.yul\":11746:11760   */\n      pop\n        /* \"#utility.yul\":12042:12045   */\n      dup6\n        /* \"#utility.yul\":12035:12045   */\n      swap4\n      pop\n        /* \"#utility.yul\":11443:12051   */\n      pop\n      pop\n      pop\n        /* \"#utility.yul\":11319:12051   */\n      swap3\n      swap2\n      pop\n      pop\n      jump\t// out\n        /* \"#utility.yul\":12057:12430   */\n    tag_39:\n        /* \"#utility.yul\":12200:12204   */\n      0x00\n        /* \"#utility.yul\":12238:12240   */\n      0x20\n        /* \"#utility.yul\":12227:12236   */\n      dup3\n        /* \"#utility.yul\":12223:12241   */\n      add\n        /* \"#utility.yul\":12215:12241   */\n      swap1\n      pop\n        /* \"#utility.yul\":12287:12296   */\n      dup2\n        /* \"#utility.yul\":12281:12285   */\n      dup2\n        /* \"#utility.yul\":12277:12297   */\n      sub\n        /* \"#utility.yul\":12273:12274   */\n      0x00\n        /* \"#utility.yul\":12262:12271   */\n      dup4\n        /* \"#utility.yul\":12258:12275   */\n      add\n        /* \"#utility.yul\":12251:12298   */\n      mstore\n        /* \"#utility.yul\":12315:12423   */\n      tag_553\n        /* \"#utility.yul\":12418:12422   */\n      dup2\n        /* \"#utility.yul\":12409:12415   */\n      dup5\n        /* \"#utility.yul\":12315:12423   */\n      tag_356\n      jump\t// in\n    tag_553:\n        /* \"#utility.yul\":12307:12423   */\n      swap1\n      pop\n        /* \"#utility.yul\":12057:12430   */\n      swap3\n      swap2\n      pop\n      pop\n      jump\t// out\n        /* \"#utility.yul\":12436:13415   */\n    tag_45:\n        /* \"#utility.yul\":12533:12539   */\n      0x00\n        /* \"#utility.yul\":12541:12547   */\n      dup1\n        /* \"#utility.yul\":12549:12555   */\n      0x00\n        /* \"#utility.yul\":12598:12600   */\n      0x60\n        /* \"#utility.yul\":12586:12595   */\n      dup5\n        /* \"#utility.yul\":12577:12584   */\n      dup7\n        /* \"#utility.yul\":12573:12596   */\n      sub\n        /* \"#utility.yul\":12569:12601   */\n      slt\n        /* \"#utility.yul\":12566:12685   */\n      iszero\n      tag_555\n      jumpi\n        /* \"#utility.yul\":12604:12683   */\n      tag_556\n      tag_319\n      jump\t// in\n    tag_556:\n        /* \"#utility.yul\":12566:12685   */\n    tag_555:\n        /* \"#utility.yul\":12724:12725   */\n      0x00\n        /* \"#utility.yul\":12749:12802   */\n      tag_557\n        /* \"#utility.yul\":12794:12801   */\n      dup7\n        /* \"#utility.yul\":12785:12791   */\n      dup3\n        /* \"#utility.yul\":12774:12783   */\n      dup8\n        /* \"#utility.yul\":12770:12792   */\n      add\n        /* \"#utility.yul\":12749:12802   */\n      tag_337\n      jump\t// in\n    tag_557:\n        /* \"#utility.yul\":12739:12802   */\n      swap4\n      pop\n        /* \"#utility.yul\":12695:12812   */\n      pop\n        /* \"#utility.yul\":12879:12881   */\n      0x20\n        /* \"#utility.yul\":12868:12877   */\n      dup5\n        /* \"#utility.yul\":12864:12882   */\n      add\n        /* \"#utility.yul\":12851:12883   */\n      calldataload\n        /* \"#utility.yul\":12910:12928   */\n      0xffffffffffffffff\n        /* \"#utility.yul\":12902:12908   */\n      dup2\n        /* \"#utility.yul\":12899:12929   */\n      gt\n        /* \"#utility.yul\":12896:13013   */\n      iszero\n      tag_558\n      jumpi\n        /* \"#utility.yul\":12932:13011   */\n      tag_559\n      tag_320\n      jump\t// in\n    tag_559:\n        /* \"#utility.yul\":12896:13013   */\n    tag_558:\n        /* \"#utility.yul\":13037:13100   */\n      tag_560\n        /* \"#utility.yul\":13092:13099   */\n      dup7\n        /* \"#utility.yul\":13083:13089   */\n      dup3\n        /* \"#utility.yul\":13072:13081   */\n      dup8\n        /* \"#utility.yul\":13068:13090   */\n      add\n        /* \"#utility.yul\":13037:13100   */\n      tag_330\n      jump\t// in\n    tag_560:\n        /* \"#utility.yul\":13027:13100   */\n      swap3\n      pop\n        /* \"#utility.yul\":12822:13110   */\n      pop\n        /* \"#utility.yul\":13177:13179   */\n      0x40\n        /* \"#utility.yul\":13166:13175   */\n      dup5\n        /* \"#utility.yul\":13162:13180   */\n      add\n        /* \"#utility.yul\":13149:13181   */\n      calldataload\n        /* \"#utility.yul\":13208:13226   */\n      0xffffffffffffffff\n        /* \"#utility.yul\":13200:13206   */\n      dup2\n        /* \"#utility.yul\":13197:13227   */\n      gt\n        /* \"#utility.yul\":13194:13311   */\n      iszero\n      tag_561\n      jumpi\n        /* \"#utility.yul\":13230:13309   */\n      tag_562\n      tag_320\n      jump\t// in\n    tag_562:\n        /* \"#utility.yul\":13194:13311   */\n    tag_561:\n        /* \"#utility.yul\":13335:13398   */\n      tag_563\n        /* \"#utility.yul\":13390:13397   */\n      dup7\n        /* \"#utility.yul\":13381:13387   */\n      dup3\n        /* \"#utility.yul\":13370:13379   */\n      dup8\n        /* \"#utility.yul\":13366:13388   */\n      add\n        /* \"#utility.yul\":13335:13398   */\n      tag_330\n      jump\t// in\n    tag_563:\n        /* \"#utility.yul\":13325:13398   */\n      swap2\n      pop\n        /* \"#utility.yul\":13120:13408   */\n      pop\n        /* \"#utility.yul\":12436:13415   */\n      swap3\n      pop\n      swap3\n      pop\n      swap3\n      jump\t// out\n        /* \"#utility.yul\":13421:13511   */\n    tag_357:\n        /* \"#utility.yul\":13455:13462   */\n      0x00\n        /* \"#utility.yul\":13498:13503   */\n      dup2\n        /* \"#utility.yul\":13491:13504   */\n      iszero\n        /* \"#utility.yul\":13484:13505   */\n      iszero\n        /* \"#utility.yul\":13473:13505   */\n      swap1\n      pop\n        /* \"#utility.yul\":13421:13511   */\n      swap2\n      swap1\n      pop\n      jump\t// out\n        /* \"#utility.yul\":13517:13616   */\n    tag_358:\n        /* \"#utility.yul\":13588:13609   */\n      tag_566\n        /* \"#utility.yul\":13603:13608   */\n      dup2\n        /* \"#utility.yul\":13588:13609   */\n      tag_357\n      jump\t// in\n    tag_566:\n        /* \"#utility.yul\":13583:13586   */\n      dup3\n        /* \"#utility.yul\":13576:13610   */\n      mstore\n        /* \"#utility.yul\":13517:13616   */\n      pop\n      pop\n      jump\t// out\n        /* \"#utility.yul\":13682:15047   */\n    tag_359:\n        /* \"#utility.yul\":13791:13794   */\n      0x00\n        /* \"#utility.yul\":13827:13831   */\n      0xc0\n        /* \"#utility.yul\":13822:13825   */\n      dup4\n        /* \"#utility.yul\":13818:13832   */\n      add\n        /* \"#utility.yul\":13914:13918   */\n      0x00\n        /* \"#utility.yul\":13907:13912   */\n      dup4\n        /* \"#utility.yul\":13903:13919   */\n      add\n        /* \"#utility.yul\":13897:13920   */\n      mload\n        /* \"#utility.yul\":13967:13970   */\n      dup5\n        /* \"#utility.yul\":13961:13965   */\n      dup3\n        /* \"#utility.yul\":13957:13971   */\n      sub\n        /* \"#utility.yul\":13950:13954   */\n      0x00\n        /* \"#utility.yul\":13945:13948   */\n      dup7\n        /* \"#utility.yul\":13941:13955   */\n      add\n        /* \"#utility.yul\":13934:13972   */\n      mstore\n        /* \"#utility.yul\":13993:14066   */\n      tag_568\n        /* \"#utility.yul\":14061:14065   */\n      dup3\n        /* \"#utility.yul\":14047:14059   */\n      dup3\n        /* \"#utility.yul\":13993:14066   */\n      tag_345\n      jump\t// in\n    tag_568:\n        /* \"#utility.yul\":13985:14066   */\n      swap2\n      pop\n        /* \"#utility.yul\":13842:14077   */\n      pop\n        /* \"#utility.yul\":14160:14164   */\n      0x20\n        /* \"#utility.yul\":14153:14158   */\n      dup4\n        /* \"#utility.yul\":14149:14165   */\n      add\n        /* \"#utility.yul\":14143:14166   */\n      mload\n        /* \"#utility.yul\":14213:14216   */\n      dup5\n        /* \"#utility.yul\":14207:14211   */\n      dup3\n        /* \"#utility.yul\":14203:14217   */\n      sub\n        /* \"#utility.yul\":14196:14200   */\n      0x20\n        /* \"#utility.yul\":14191:14194   */\n      dup7\n        /* \"#utility.yul\":14187:14201   */\n      add\n        /* \"#utility.yul\":14180:14218   */\n      mstore\n        /* \"#utility.yul\":14239:14312   */\n      tag_569\n        /* \"#utility.yul\":14307:14311   */\n      dup3\n        /* \"#utility.yul\":14293:14305   */\n      dup3\n        /* \"#utility.yul\":14239:14312   */\n      tag_345\n      jump\t// in\n    tag_569:\n        /* \"#utility.yul\":14231:14312   */\n      swap2\n      pop\n        /* \"#utility.yul\":14087:14323   */\n      pop\n        /* \"#utility.yul\":14404:14408   */\n      0x40\n        /* \"#utility.yul\":14397:14402   */\n      dup4\n        /* \"#utility.yul\":14393:14409   */\n      add\n        /* \"#utility.yul\":14387:14410   */\n      mload\n        /* \"#utility.yul\":14423:14486   */\n      tag_570\n        /* \"#utility.yul\":14480:14484   */\n      0x40\n        /* \"#utility.yul\":14475:14478   */\n      dup7\n        /* \"#utility.yul\":14471:14485   */\n      add\n        /* \"#utility.yul\":14457:14469   */\n      dup3\n        /* \"#utility.yul\":14423:14486   */\n      tag_346\n      jump\t// in\n    tag_570:\n        /* \"#utility.yul\":14333:14496   */\n      pop\n        /* \"#utility.yul\":14580:14584   */\n      0x60\n        /* \"#utility.yul\":14573:14578   */\n      dup4\n        /* \"#utility.yul\":14569:14585   */\n      add\n        /* \"#utility.yul\":14563:14586   */\n      mload\n        /* \"#utility.yul\":14599:14662   */\n      tag_571\n        /* \"#utility.yul\":14656:14660   */\n      0x60\n        /* \"#utility.yul\":14651:14654   */\n      dup7\n        /* \"#utility.yul\":14647:14661   */\n      add\n        /* \"#utility.yul\":14633:14645   */\n      dup3\n        /* \"#utility.yul\":14599:14662   */\n      tag_341\n      jump\t// in\n    tag_571:\n        /* \"#utility.yul\":14506:14672   */\n      pop\n        /* \"#utility.yul\":14760:14764   */\n      0x80\n        /* \"#utility.yul\":14753:14758   */\n      dup4\n        /* \"#utility.yul\":14749:14765   */\n      add\n        /* \"#utility.yul\":14743:14766   */\n      mload\n        /* \"#utility.yul\":14779:14836   */\n      tag_572\n        /* \"#utility.yul\":14830:14834   */\n      0x80\n        /* \"#utility.yul\":14825:14828   */\n      dup7\n        /* \"#utility.yul\":14821:14835   */\n      add\n        /* \"#utility.yul\":14807:14819   */\n      dup3\n        /* \"#utility.yul\":14779:14836   */\n      tag_358\n      jump\t// in\n    tag_572:\n        /* \"#utility.yul\":14682:14846   */\n      pop\n        /* \"#utility.yul\":14934:14938   */\n      0xa0\n        /* \"#utility.yul\":14927:14932   */\n      dup4\n        /* \"#utility.yul\":14923:14939   */\n      add\n        /* \"#utility.yul\":14917:14940   */\n      mload\n        /* \"#utility.yul\":14953:15010   */\n      tag_573\n        /* \"#utility.yul\":15004:15008   */\n      0xa0\n        /* \"#utility.yul\":14999:15002   */\n      dup7\n        /* \"#utility.yul\":14995:15009   */\n      add\n        /* \"#utility.yul\":14981:14993   */\n      dup3\n        /* \"#utility.yul\":14953:15010   */\n      tag_358\n      jump\t// in\n    tag_573:\n        /* \"#utility.yul\":14856:15020   */\n      pop\n        /* \"#utility.yul\":15037:15041   */\n      dup1\n        /* \"#utility.yul\":15030:15041   */\n      swap2\n      pop\n        /* \"#utility.yul\":13796:15047   */\n      pop\n        /* \"#utility.yul\":13682:15047   */\n      swap3\n      swap2\n      pop\n      pop\n      jump\t// out\n        /* \"#utility.yul\":15053:15406   */\n    tag_51:\n        /* \"#utility.yul\":15186:15190   */\n      0x00\n        /* \"#utility.yul\":15224:15226   */\n      0x20\n        /* \"#utility.yul\":15213:15222   */\n      dup3\n        /* \"#utility.yul\":15209:15227   */\n      add\n        /* \"#utility.yul\":15201:15227   */\n      swap1\n      pop\n        /* \"#utility.yul\":15273:15282   */\n      dup2\n        /* \"#utility.yul\":15267:15271   */\n      dup2\n        /* \"#utility.yul\":15263:15283   */\n      sub\n        /* \"#utility.yul\":15259:15260   */\n      0x00\n        /* \"#utility.yul\":15248:15257   */\n      dup4\n        /* \"#utility.yul\":15244:15261   */\n      add\n        /* \"#utility.yul\":15237:15284   */\n      mstore\n        /* \"#utility.yul\":15301:15399   */\n      tag_575\n        /* \"#utility.yul\":15394:15398   */\n      dup2\n        /* \"#utility.yul\":15385:15391   */\n      dup5\n        /* \"#utility.yul\":15301:15399   */\n      tag_359\n      jump\t// in\n    tag_575:\n        /* \"#utility.yul\":15293:15399   */\n      swap1\n      pop\n        /* \"#utility.yul\":15053:15406   */\n      swap3\n      swap2\n      pop\n      pop\n      jump\t// out\n        /* \"#utility.yul\":15412:15549   */\n    tag_360:\n        /* \"#utility.yul\":15502:15508   */\n      0x00\n        /* \"#utility.yul\":15536:15541   */\n      dup2\n        /* \"#utility.yul\":15530:15542   */\n      mload\n        /* \"#utility.yul\":15520:15542   */\n      swap1\n      pop\n        /* \"#utility.yul\":15412:15549   */\n      swap2\n      swap1\n      pop\n      jump\t// out\n        /* \"#utility.yul\":15555:15762   */\n    tag_361:\n        /* \"#utility.yul\":15677:15688   */\n      0x00\n        /* \"#utility.yul\":15711:15717   */\n      dup3\n        /* \"#utility.yul\":15706:15709   */\n      dup3\n        /* \"#utility.yul\":15699:15718   */\n      mstore\n        /* \"#utility.yul\":15751:15755   */\n      0x20\n        /* \"#utility.yul\":15746:15749   */\n      dup3\n        /* \"#utility.yul\":15742:15756   */\n      add\n        /* \"#utility.yul\":15727:15756   */\n      swap1\n      pop\n        /* \"#utility.yul\":15555:15762   */\n      swap3\n      swap2\n      pop\n      pop\n      jump\t// out\n        /* \"#utility.yul\":15768:15923   */\n    tag_362:\n        /* \"#utility.yul\":15858:15862   */\n      0x00\n        /* \"#utility.yul\":15881:15884   */\n      dup2\n        /* \"#utility.yul\":15873:15884   */\n      swap1\n      pop\n        /* \"#utility.yul\":15911:15915   */\n      0x20\n        /* \"#utility.yul\":15906:15909   */\n      dup3\n        /* \"#utility.yul\":15902:15916   */\n      add\n        /* \"#utility.yul\":15894:15916   */\n      swap1\n      pop\n        /* \"#utility.yul\":15768:15923   */\n      swap2\n      swap1\n      pop\n      jump\t// out\n        /* \"#utility.yul\":15995:17014   */\n    tag_363:\n        /* \"#utility.yul\":16100:16103   */\n      0x00\n        /* \"#utility.yul\":16136:16140   */\n      0x80\n        /* \"#utility.yul\":16131:16134   */\n      dup4\n        /* \"#utility.yul\":16127:16141   */\n      add\n        /* \"#utility.yul\":16224:16228   */\n      0x00\n        /* \"#utility.yul\":16217:16222   */\n      dup4\n        /* \"#utility.yul\":16213:16229   */\n      add\n        /* \"#utility.yul\":16207:16230   */\n      mload\n        /* \"#utility.yul\":16277:16280   */\n      dup5\n        /* \"#utility.yul\":16271:16275   */\n      dup3\n        /* \"#utility.yul\":16267:16281   */\n      sub\n        /* \"#utility.yul\":16260:16264   */\n      0x00\n        /* \"#utility.yul\":16255:16258   */\n      dup7\n        /* \"#utility.yul\":16251:16265   */\n      add\n        /* \"#utility.yul\":16244:16282   */\n      mstore\n        /* \"#utility.yul\":16303:16376   */\n      tag_580\n        /* \"#utility.yul\":16371:16375   */\n      dup3\n        /* \"#utility.yul\":16357:16369   */\n      dup3\n        /* \"#utility.yul\":16303:16376   */\n      tag_345\n      jump\t// in\n    tag_580:\n        /* \"#utility.yul\":16295:16376   */\n      swap2\n      pop\n        /* \"#utility.yul\":16151:16387   */\n      pop\n        /* \"#utility.yul\":16472:16476   */\n      0x20\n        /* \"#utility.yul\":16465:16470   */\n      dup4\n        /* \"#utility.yul\":16461:16477   */\n      add\n        /* \"#utility.yul\":16455:16478   */\n      mload\n        /* \"#utility.yul\":16525:16528   */\n      dup5\n        /* \"#utility.yul\":16519:16523   */\n      dup3\n        /* \"#utility.yul\":16515:16529   */\n      sub\n        /* \"#utility.yul\":16508:16512   */\n      0x20\n        /* \"#utility.yul\":16503:16506   */\n      dup7\n        /* \"#utility.yul\":16499:16513   */\n      add\n        /* \"#utility.yul\":16492:16530   */\n      mstore\n        /* \"#utility.yul\":16551:16624   */\n      tag_581\n        /* \"#utility.yul\":16619:16623   */\n      dup3\n        /* \"#utility.yul\":16605:16617   */\n      dup3\n        /* \"#utility.yul\":16551:16624   */\n      tag_345\n      jump\t// in\n    tag_581:\n        /* \"#utility.yul\":16543:16624   */\n      swap2\n      pop\n        /* \"#utility.yul\":16397:16635   */\n      pop\n        /* \"#utility.yul\":16722:16726   */\n      0x40\n        /* \"#utility.yul\":16715:16720   */\n      dup4\n        /* \"#utility.yul\":16711:16727   */\n      add\n        /* \"#utility.yul\":16705:16728   */\n      mload\n        /* \"#utility.yul\":16741:16804   */\n      tag_582\n        /* \"#utility.yul\":16798:16802   */\n      0x40\n        /* \"#utility.yul\":16793:16796   */\n      dup7\n        /* \"#utility.yul\":16789:16803   */\n      add\n        /* \"#utility.yul\":16775:16787   */\n      dup3\n        /* \"#utility.yul\":16741:16804   */\n      tag_346\n      jump\t// in\n    tag_582:\n        /* \"#utility.yul\":16645:16814   */\n      pop\n        /* \"#utility.yul\":16901:16905   */\n      0x60\n        /* \"#utility.yul\":16894:16899   */\n      dup4\n        /* \"#utility.yul\":16890:16906   */\n      add\n        /* \"#utility.yul\":16884:16907   */\n      mload\n        /* \"#utility.yul\":16920:16977   */\n      tag_583\n        /* \"#utility.yul\":16971:16975   */\n      0x60\n        /* \"#utility.yul\":16966:16969   */\n      dup7\n        /* \"#utility.yul\":16962:16976   */\n      add\n        /* \"#utility.yul\":16948:16960   */\n      dup3\n        /* \"#utility.yul\":16920:16977   */\n      tag_358\n      jump\t// in\n    tag_583:\n        /* \"#utility.yul\":16824:16987   */\n      pop\n        /* \"#utility.yul\":17004:17008   */\n      dup1\n        /* \"#utility.yul\":16997:17008   */\n      swap2\n      pop\n        /* \"#utility.yul\":16105:17014   */\n      pop\n        /* \"#utility.yul\":15995:17014   */\n      swap3\n      swap2\n      pop\n      pop\n      jump\t// out\n        /* \"#utility.yul\":17020:17268   */\n    tag_364:\n        /* \"#utility.yul\":17135:17145   */\n      0x00\n        /* \"#utility.yul\":17170:17262   */\n      tag_585\n        /* \"#utility.yul\":17258:17261   */\n      dup4\n        /* \"#utility.yul\":17250:17256   */\n      dup4\n        /* \"#utility.yul\":17170:17262   */\n      tag_363\n      jump\t// in\n    tag_585:\n        /* \"#utility.yul\":17156:17262   */\n      swap1\n      pop\n        /* \"#utility.yul\":17020:17268   */\n      swap3\n      swap2\n      pop\n      pop\n      jump\t// out\n        /* \"#utility.yul\":17274:17410   */\n    tag_365:\n        /* \"#utility.yul\":17367:17371   */\n      0x00\n        /* \"#utility.yul\":17399:17403   */\n      0x20\n        /* \"#utility.yul\":17394:17397   */\n      dup3\n        /* \"#utility.yul\":17390:17404   */\n      add\n        /* \"#utility.yul\":17382:17404   */\n      swap1\n      pop\n        /* \"#utility.yul\":17274:17410   */\n      swap2\n      swap1\n      pop\n      jump\t// out\n        /* \"#utility.yul\":17486:18581   */\n    tag_366:\n        /* \"#utility.yul\":17651:17654   */\n      0x00\n        /* \"#utility.yul\":17680:17757   */\n      tag_588\n        /* \"#utility.yul\":17751:17756   */\n      dup3\n        /* \"#utility.yul\":17680:17757   */\n      tag_360\n      jump\t// in\n    tag_588:\n        /* \"#utility.yul\":17773:17882   */\n      tag_589\n        /* \"#utility.yul\":17875:17881   */\n      dup2\n        /* \"#utility.yul\":17870:17873   */\n      dup6\n        /* \"#utility.yul\":17773:17882   */\n      tag_361\n      jump\t// in\n    tag_589:\n        /* \"#utility.yul\":17766:17882   */\n      swap4\n      pop\n        /* \"#utility.yul\":17908:17911   */\n      dup4\n        /* \"#utility.yul\":17953:17957   */\n      0x20\n        /* \"#utility.yul\":17945:17951   */\n      dup3\n        /* \"#utility.yul\":17941:17958   */\n      mul\n        /* \"#utility.yul\":17936:17939   */\n      dup6\n        /* \"#utility.yul\":17932:17959   */\n      add\n        /* \"#utility.yul\":17983:18062   */\n      tag_590\n        /* \"#utility.yul\":18056:18061   */\n      dup6\n        /* \"#utility.yul\":17983:18062   */\n      tag_362\n      jump\t// in\n    tag_590:\n        /* \"#utility.yul\":18085:18092   */\n      dup1\n        /* \"#utility.yul\":18116:18117   */\n      0x00\n        /* \"#utility.yul\":18101:18536   */\n    tag_591:\n        /* \"#utility.yul\":18126:18132   */\n      dup6\n        /* \"#utility.yul\":18123:18124   */\n      dup2\n        /* \"#utility.yul\":18120:18133   */\n      lt\n        /* \"#utility.yul\":18101:18536   */\n      iszero\n      tag_593\n      jumpi\n        /* \"#utility.yul\":18197:18206   */\n      dup5\n        /* \"#utility.yul\":18191:18195   */\n      dup5\n        /* \"#utility.yul\":18187:18207   */\n      sub\n        /* \"#utility.yul\":18182:18185   */\n      dup10\n        /* \"#utility.yul\":18175:18208   */\n      mstore\n        /* \"#utility.yul\":18248:18254   */\n      dup2\n        /* \"#utility.yul\":18242:18255   */\n      mload\n        /* \"#utility.yul\":18276:18386   */\n      tag_594\n        /* \"#utility.yul\":18381:18385   */\n      dup6\n        /* \"#utility.yul\":18366:18379   */\n      dup3\n        /* \"#utility.yul\":18276:18386   */\n      tag_364\n      jump\t// in\n    tag_594:\n        /* \"#utility.yul\":18268:18386   */\n      swap5\n      pop\n        /* \"#utility.yul\":18409:18492   */\n      tag_595\n        /* \"#utility.yul\":18485:18491   */\n      dup4\n        /* \"#utility.yul\":18409:18492   */\n      tag_365\n      jump\t// in\n    tag_595:\n        /* \"#utility.yul\":18399:18492   */\n      swap3\n      pop\n        /* \"#utility.yul\":18521:18525   */\n      0x20\n        /* \"#utility.yul\":18516:18519   */\n      dup11\n        /* \"#utility.yul\":18512:18526   */\n      add\n        /* \"#utility.yul\":18505:18526   */\n      swap10\n      pop\n        /* \"#utility.yul\":18161:18536   */\n      pop\n        /* \"#utility.yul\":18148:18149   */\n      0x01\n        /* \"#utility.yul\":18145:18146   */\n      dup2\n        /* \"#utility.yul\":18141:18150   */\n      add\n        /* \"#utility.yul\":18136:18150   */\n      swap1\n      pop\n        /* \"#utility.yul\":18101:18536   */\n      jump(tag_591)\n    tag_593:\n        /* \"#utility.yul\":18105:18119   */\n      pop\n        /* \"#utility.yul\":18552:18556   */\n      dup3\n        /* \"#utility.yul\":18545:18556   */\n      swap8\n      pop\n        /* \"#utility.yul\":18572:18575   */\n      dup8\n        /* \"#utility.yul\":18565:18575   */\n      swap6\n      pop\n        /* \"#utility.yul\":17656:18581   */\n      pop\n      pop\n      pop\n      pop\n      pop\n        /* \"#utility.yul\":17486:18581   */\n      swap3\n      swap2\n      pop\n      pop\n      jump\t// out\n        /* \"#utility.yul\":18587:19052   */\n    tag_70:\n        /* \"#utility.yul\":18776:18780   */\n      0x00\n        /* \"#utility.yul\":18814:18816   */\n      0x20\n        /* \"#utility.yul\":18803:18812   */\n      dup3\n        /* \"#utility.yul\":18799:18817   */\n      add\n        /* \"#utility.yul\":18791:18817   */\n      swap1\n      pop\n        /* \"#utility.yul\":18863:18872   */\n      dup2\n        /* \"#utility.yul\":18857:18861   */\n      dup2\n        /* \"#utility.yul\":18853:18873   */\n      sub\n        /* \"#utility.yul\":18849:18850   */\n      0x00\n        /* \"#utility.yul\":18838:18847   */\n      dup4\n        /* \"#utility.yul\":18834:18851   */\n      add\n        /* \"#utility.yul\":18827:18874   */\n      mstore\n        /* \"#utility.yul\":18891:19045   */\n      tag_597\n        /* \"#utility.yul\":19040:19044   */\n      dup2\n        /* \"#utility.yul\":19031:19037   */\n      dup5\n        /* \"#utility.yul\":18891:19045   */\n      tag_366\n      jump\t// in\n    tag_597:\n        /* \"#utility.yul\":18883:19045   */\n      swap1\n      pop\n        /* \"#utility.yul\":18587:19052   */\n      swap3\n      swap2\n      pop\n      pop\n      jump\t// out\n        /* \"#utility.yul\":19058:19176   */\n    tag_367:\n        /* \"#utility.yul\":19145:19169   */\n      tag_599\n        /* \"#utility.yul\":19163:19168   */\n      dup2\n        /* \"#utility.yul\":19145:19169   */\n      tag_335\n      jump\t// in\n    tag_599:\n        /* \"#utility.yul\":19140:19143   */\n      dup3\n        /* \"#utility.yul\":19133:19170   */\n      mstore\n        /* \"#utility.yul\":19058:19176   */\n      pop\n      pop\n      jump\t// out\n        /* \"#utility.yul\":19182:19404   */\n    tag_75:\n        /* \"#utility.yul\":19275:19279   */\n      0x00\n        /* \"#utility.yul\":19313:19315   */\n      0x20\n        /* \"#utility.yul\":19302:19311   */\n      dup3\n        /* \"#utility.yul\":19298:19316   */\n      add\n        /* \"#utility.yul\":19290:19316   */\n      swap1\n      pop\n        /* \"#utility.yul\":19326:19397   */\n      tag_601\n        /* \"#utility.yul\":19394:19395   */\n      0x00\n        /* \"#utility.yul\":19383:19392   */\n      dup4\n        /* \"#utility.yul\":19379:19396   */\n      add\n        /* \"#utility.yul\":19370:19376   */\n      dup5\n        /* \"#utility.yul\":19326:19397   */\n      tag_367\n      jump\t// in\n    tag_601:\n        /* \"#utility.yul\":19182:19404   */\n      swap3\n      swap2\n      pop\n      pop\n      jump\t// out\n        /* \"#utility.yul\":19410:19579   */\n    tag_368:\n        /* \"#utility.yul\":19494:19505   */\n      0x00\n        /* \"#utility.yul\":19528:19534   */\n      dup3\n        /* \"#utility.yul\":19523:19526   */\n      dup3\n        /* \"#utility.yul\":19516:19535   */\n      mstore\n        /* \"#utility.yul\":19568:19572   */\n      0x20\n        /* \"#utility.yul\":19563:19566   */\n      dup3\n        /* \"#utility.yul\":19559:19573   */\n      add\n        /* \"#utility.yul\":19544:19573   */\n      swap1\n      pop\n        /* \"#utility.yul\":19410:19579   */\n      swap3\n      swap2\n      pop\n      pop\n      jump\t// out\n        /* \"#utility.yul\":19585:19818   */\n    tag_369:\n        /* \"#utility.yul\":19725:19759   */\n      0x46756e6374696f6e20696e746572666163655265676973746572557365722068\n        /* \"#utility.yul\":19721:19722   */\n      0x00\n        /* \"#utility.yul\":19713:19719   */\n      dup3\n        /* \"#utility.yul\":19709:19723   */\n      add\n        /* \"#utility.yul\":19702:19760   */\n      mstore\n        /* \"#utility.yul\":19794:19810   */\n      0x6173206265656e2063616c6c6564000000000000000000000000000000000000\n        /* \"#utility.yul\":19789:19791   */\n      0x20\n        /* \"#utility.yul\":19781:19787   */\n      dup3\n        /* \"#utility.yul\":19777:19792   */\n      add\n        /* \"#utility.yul\":19770:19811   */\n      mstore\n        /* \"#utility.yul\":19585:19818   */\n      pop\n      jump\t// out\n        /* \"#utility.yul\":19824:20190   */\n    tag_370:\n        /* \"#utility.yul\":19966:19969   */\n      0x00\n        /* \"#utility.yul\":19987:20054   */\n      tag_605\n        /* \"#utility.yul\":20051:20053   */\n      0x2e\n        /* \"#utility.yul\":20046:20049   */\n      dup4\n        /* \"#utility.yul\":19987:20054   */\n      tag_368\n      jump\t// in\n    tag_605:\n        /* \"#utility.yul\":19980:20054   */\n      swap2\n      pop\n        /* \"#utility.yul\":20063:20156   */\n      tag_606\n        /* \"#utility.yul\":20152:20155   */\n      dup3\n        /* \"#utility.yul\":20063:20156   */\n      tag_369\n      jump\t// in\n    tag_606:\n        /* \"#utility.yul\":20181:20183   */\n      0x40\n        /* \"#utility.yul\":20176:20179   */\n      dup3\n        /* \"#utility.yul\":20172:20184   */\n      add\n        /* \"#utility.yul\":20165:20184   */\n      swap1\n      pop\n        /* \"#utility.yul\":19824:20190   */\n      swap2\n      swap1\n      pop\n      jump\t// out\n        /* \"#utility.yul\":20196:20615   */\n    tag_83:\n        /* \"#utility.yul\":20362:20366   */\n      0x00\n        /* \"#utility.yul\":20400:20402   */\n      0x20\n        /* \"#utility.yul\":20389:20398   */\n      dup3\n        /* \"#utility.yul\":20385:20403   */\n      add\n        /* \"#utility.yul\":20377:20403   */\n      swap1\n      pop\n        /* \"#utility.yul\":20449:20458   */\n      dup2\n        /* \"#utility.yul\":20443:20447   */\n      dup2\n        /* \"#utility.yul\":20439:20459   */\n      sub\n        /* \"#utility.yul\":20435:20436   */\n      0x00\n        /* \"#utility.yul\":20424:20433   */\n      dup4\n        /* \"#utility.yul\":20420:20437   */\n      add\n        /* \"#utility.yul\":20413:20460   */\n      mstore\n        /* \"#utility.yul\":20477:20608   */\n      tag_608\n        /* \"#utility.yul\":20603:20607   */\n      dup2\n        /* \"#utility.yul\":20477:20608   */\n      tag_370\n      jump\t// in\n    tag_608:\n        /* \"#utility.yul\":20469:20608   */\n      swap1\n      pop\n        /* \"#utility.yul\":20196:20615   */\n      swap2\n      swap1\n      pop\n      jump\t// out\n        /* \"#utility.yul\":20621:20851   */\n    tag_371:\n        /* \"#utility.yul\":20761:20795   */\n      0x46756e6374696f6e20696e74657266616365416464467269656e642068617320\n        /* \"#utility.yul\":20757:20758   */\n      0x00\n        /* \"#utility.yul\":20749:20755   */\n      dup3\n        /* \"#utility.yul\":20745:20759   */\n      add\n        /* \"#utility.yul\":20738:20796   */\n      mstore\n        /* \"#utility.yul\":20830:20843   */\n      0x6265656e2063616c6c6564000000000000000000000000000000000000000000\n        /* \"#utility.yul\":20825:20827   */\n      0x20\n        /* \"#utility.yul\":20817:20823   */\n      dup3\n        /* \"#utility.yul\":20813:20828   */\n      add\n        /* \"#utility.yul\":20806:20844   */\n      mstore\n        /* \"#utility.yul\":20621:20851   */\n      pop\n      jump\t// out\n        /* \"#utility.yul\":20857:21223   */\n    tag_372:\n        /* \"#utility.yul\":20999:21002   */\n      0x00\n        /* \"#utility.yul\":21020:21087   */\n      tag_611\n        /* \"#utility.yul\":21084:21086   */\n      0x2b\n        /* \"#utility.yul\":21079:21082   */\n      dup4\n        /* \"#utility.yul\":21020:21087   */\n      tag_368\n      jump\t// in\n    tag_611:\n        /* \"#utility.yul\":21013:21087   */\n      swap2\n      pop\n        /* \"#utility.yul\":21096:21189   */\n      tag_612\n        /* \"#utility.yul\":21185:21188   */\n      dup3\n        /* \"#utility.yul\":21096:21189   */\n      tag_371\n      jump\t// in\n    tag_612:\n        /* \"#utility.yul\":21214:21216   */\n      0x40\n        /* \"#utility.yul\":21209:21212   */\n      dup3\n        /* \"#utility.yul\":21205:21217   */\n      add\n        /* \"#utility.yul\":21198:21217   */\n      swap1\n      pop\n        /* \"#utility.yul\":20857:21223   */\n      swap2\n      swap1\n      pop\n      jump\t// out\n        /* \"#utility.yul\":21229:21648   */\n    tag_88:\n        /* \"#utility.yul\":21395:21399   */\n      0x00\n        /* \"#utility.yul\":21433:21435   */\n      0x20\n        /* \"#utility.yul\":21422:21431   */\n      dup3\n        /* \"#utility.yul\":21418:21436   */\n      add\n        /* \"#utility.yul\":21410:21436   */\n      swap1\n      pop\n        /* \"#utility.yul\":21482:21491   */\n      dup2\n        /* \"#utility.yul\":21476:21480   */\n      dup2\n        /* \"#utility.yul\":21472:21492   */\n      sub\n        /* \"#utility.yul\":21468:21469   */\n      0x00\n        /* \"#utility.yul\":21457:21466   */\n      dup4\n        /* \"#utility.yul\":21453:21470   */\n      add\n        /* \"#utility.yul\":21446:21493   */\n      mstore\n        /* \"#utility.yul\":21510:21641   */\n      tag_614\n        /* \"#utility.yul\":21636:21640   */\n      dup2\n        /* \"#utility.yul\":21510:21641   */\n      tag_372\n      jump\t// in\n    tag_614:\n        /* \"#utility.yul\":21502:21641   */\n      swap1\n      pop\n        /* \"#utility.yul\":21229:21648   */\n      swap2\n      swap1\n      pop\n      jump\t// out\n        /* \"#utility.yul\":21654:21895   */\n    tag_373:\n        /* \"#utility.yul\":21794:21828   */\n      0x46756e6374696f6e20696e7465726661636553656e644d657373616765427941\n        /* \"#utility.yul\":21790:21791   */\n      0x00\n        /* \"#utility.yul\":21782:21788   */\n      dup3\n        /* \"#utility.yul\":21778:21792   */\n      add\n        /* \"#utility.yul\":21771:21829   */\n      mstore\n        /* \"#utility.yul\":21863:21887   */\n      0x63636f756e7420686173206265656e2063616c6c656400000000000000000000\n        /* \"#utility.yul\":21858:21860   */\n      0x20\n        /* \"#utility.yul\":21850:21856   */\n      dup3\n        /* \"#utility.yul\":21846:21861   */\n      add\n        /* \"#utility.yul\":21839:21888   */\n      mstore\n        /* \"#utility.yul\":21654:21895   */\n      pop\n      jump\t// out\n        /* \"#utility.yul\":21901:22267   */\n    tag_374:\n        /* \"#utility.yul\":22043:22046   */\n      0x00\n        /* \"#utility.yul\":22064:22131   */\n      tag_617\n        /* \"#utility.yul\":22128:22130   */\n      0x36\n        /* \"#utility.yul\":22123:22126   */\n      dup4\n        /* \"#utility.yul\":22064:22131   */\n      tag_368\n      jump\t// in\n    tag_617:\n        /* \"#utility.yul\":22057:22131   */\n      swap2\n      pop\n        /* \"#utility.yul\":22140:22233   */\n      tag_618\n        /* \"#utility.yul\":22229:22232   */\n      dup3\n        /* \"#utility.yul\":22140:22233   */\n      tag_373\n      jump\t// in\n    tag_618:\n        /* \"#utility.yul\":22258:22260   */\n      0x40\n        /* \"#utility.yul\":22253:22256   */\n      dup3\n        /* \"#utility.yul\":22249:22261   */\n      add\n        /* \"#utility.yul\":22242:22261   */\n      swap1\n      pop\n        /* \"#utility.yul\":21901:22267   */\n      swap2\n      swap1\n      pop\n      jump\t// out\n        /* \"#utility.yul\":22273:22692   */\n    tag_99:\n        /* \"#utility.yul\":22439:22443   */\n      0x00\n        /* \"#utility.yul\":22477:22479   */\n      0x20\n        /* \"#utility.yul\":22466:22475   */\n      dup3\n        /* \"#utility.yul\":22462:22480   */\n      add\n        /* \"#utility.yul\":22454:22480   */\n      swap1\n      pop\n        /* \"#utility.yul\":22526:22535   */\n      dup2\n        /* \"#utility.yul\":22520:22524   */\n      dup2\n        /* \"#utility.yul\":22516:22536   */\n      sub\n        /* \"#utility.yul\":22512:22513   */\n      0x00\n        /* \"#utility.yul\":22501:22510   */\n      dup4\n        /* \"#utility.yul\":22497:22514   */\n      add\n        /* \"#utility.yul\":22490:22537   */\n      mstore\n        /* \"#utility.yul\":22554:22685   */\n      tag_620\n        /* \"#utility.yul\":22680:22684   */\n      dup2\n        /* \"#utility.yul\":22554:22685   */\n      tag_374\n      jump\t// in\n    tag_620:\n        /* \"#utility.yul\":22546:22685   */\n      swap1\n      pop\n        /* \"#utility.yul\":22273:22692   */\n      swap2\n      swap1\n      pop\n      jump\t// out\n        /* \"#utility.yul\":22698:22940   */\n    tag_375:\n        /* \"#utility.yul\":22838:22872   */\n      0x46756e6374696f6e20696e7465726661636553656e6441727469636c65734279\n        /* \"#utility.yul\":22834:22835   */\n      0x00\n        /* \"#utility.yul\":22826:22832   */\n      dup3\n        /* \"#utility.yul\":22822:22836   */\n      add\n        /* \"#utility.yul\":22815:22873   */\n      mstore\n        /* \"#utility.yul\":22907:22932   */\n      0x4163636f756e7420686173206265656e2063616c6c6564000000000000000000\n        /* \"#utility.yul\":22902:22904   */\n      0x20\n        /* \"#utility.yul\":22894:22900   */\n      dup3\n        /* \"#utility.yul\":22890:22905   */\n      add\n        /* \"#utility.yul\":22883:22933   */\n      mstore\n        /* \"#utility.yul\":22698:22940   */\n      pop\n      jump\t// out\n        /* \"#utility.yul\":22946:23312   */\n    tag_376:\n        /* \"#utility.yul\":23088:23091   */\n      0x00\n        /* \"#utility.yul\":23109:23176   */\n      tag_623\n        /* \"#utility.yul\":23173:23175   */\n      0x37\n        /* \"#utility.yul\":23168:23171   */\n      dup4\n        /* \"#utility.yul\":23109:23176   */\n      tag_368\n      jump\t// in\n    tag_623:\n        /* \"#utility.yul\":23102:23176   */\n      swap2\n      pop\n        /* \"#utility.yul\":23185:23278   */\n      tag_624\n        /* \"#utility.yul\":23274:23277   */\n      dup3\n        /* \"#utility.yul\":23185:23278   */\n      tag_375\n      jump\t// in\n    tag_624:\n        /* \"#utility.yul\":23303:23305   */\n      0x40\n        /* \"#utility.yul\":23298:23301   */\n      dup3\n        /* \"#utility.yul\":23294:23306   */\n      add\n        /* \"#utility.yul\":23287:23306   */\n      swap1\n      pop\n        /* \"#utility.yul\":22946:23312   */\n      swap2\n      swap1\n      pop\n      jump\t// out\n        /* \"#utility.yul\":23318:23737   */\n    tag_104:\n        /* \"#utility.yul\":23484:23488   */\n      0x00\n        /* \"#utility.yul\":23522:23524   */\n      0x20\n        /* \"#utility.yul\":23511:23520   */\n      dup3\n        /* \"#utility.yul\":23507:23525   */\n      add\n        /* \"#utility.yul\":23499:23525   */\n      swap1\n      pop\n        /* \"#utility.yul\":23571:23580   */\n      dup2\n        /* \"#utility.yul\":23565:23569   */\n      dup2\n        /* \"#utility.yul\":23561:23581   */\n      sub\n        /* \"#utility.yul\":23557:23558   */\n      0x00\n        /* \"#utility.yul\":23546:23555   */\n      dup4\n        /* \"#utility.yul\":23542:23559   */\n      add\n        /* \"#utility.yul\":23535:23582   */\n      mstore\n        /* \"#utility.yul\":23599:23730   */\n      tag_626\n        /* \"#utility.yul\":23725:23729   */\n      dup2\n        /* \"#utility.yul\":23599:23730   */\n      tag_376\n      jump\t// in\n    tag_626:\n        /* \"#utility.yul\":23591:23730   */\n      swap1\n      pop\n        /* \"#utility.yul\":23318:23737   */\n      swap2\n      swap1\n      pop\n      jump\t// out\n        /* \"#utility.yul\":23743:23983   */\n    tag_377:\n        /* \"#utility.yul\":23883:23917   */\n      0x46756e6374696f6e20696e7465726661636547657450726f66696c6542794164\n        /* \"#utility.yul\":23879:23880   */\n      0x00\n        /* \"#utility.yul\":23871:23877   */\n      dup3\n        /* \"#utility.yul\":23867:23881   */\n      add\n        /* \"#utility.yul\":23860:23918   */\n      mstore\n        /* \"#utility.yul\":23952:23975   */\n      0x647265737320686173206265656e2063616c6c65640000000000000000000000\n        /* \"#utility.yul\":23947:23949   */\n      0x20\n        /* \"#utility.yul\":23939:23945   */\n      dup3\n        /* \"#utility.yul\":23935:23950   */\n      add\n        /* \"#utility.yul\":23928:23976   */\n      mstore\n        /* \"#utility.yul\":23743:23983   */\n      pop\n      jump\t// out\n        /* \"#utility.yul\":23989:24355   */\n    tag_378:\n        /* \"#utility.yul\":24131:24134   */\n      0x00\n        /* \"#utility.yul\":24152:24219   */\n      tag_629\n        /* \"#utility.yul\":24216:24218   */\n      0x35\n        /* \"#utility.yul\":24211:24214   */\n      dup4\n        /* \"#utility.yul\":24152:24219   */\n      tag_368\n      jump\t// in\n    tag_629:\n        /* \"#utility.yul\":24145:24219   */\n      swap2\n      pop\n        /* \"#utility.yul\":24228:24321   */\n      tag_630\n        /* \"#utility.yul\":24317:24320   */\n      dup3\n        /* \"#utility.yul\":24228:24321   */\n      tag_377\n      jump\t// in\n    tag_630:\n        /* \"#utility.yul\":24346:24348   */\n      0x40\n        /* \"#utility.yul\":24341:24344   */\n      dup3\n        /* \"#utility.yul\":24337:24349   */\n      add\n        /* \"#utility.yul\":24330:24349   */\n      swap1\n      pop\n        /* \"#utility.yul\":23989:24355   */\n      swap2\n      swap1\n      pop\n      jump\t// out\n        /* \"#utility.yul\":24361:24780   */\n    tag_111:\n        /* \"#utility.yul\":24527:24531   */\n      0x00\n        /* \"#utility.yul\":24565:24567   */\n      0x20\n        /* \"#utility.yul\":24554:24563   */\n      dup3\n        /* \"#utility.yul\":24550:24568   */\n      add\n        /* \"#utility.yul\":24542:24568   */\n      swap1\n      pop\n        /* \"#utility.yul\":24614:24623   */\n      dup2\n        /* \"#utility.yul\":24608:24612   */\n      dup2\n        /* \"#utility.yul\":24604:24624   */\n      sub\n        /* \"#utility.yul\":24600:24601   */\n      0x00\n        /* \"#utility.yul\":24589:24598   */\n      dup4\n        /* \"#utility.yul\":24585:24602   */\n      add\n        /* \"#utility.yul\":24578:24625   */\n      mstore\n        /* \"#utility.yul\":24642:24773   */\n      tag_632\n        /* \"#utility.yul\":24768:24772   */\n      dup2\n        /* \"#utility.yul\":24642:24773   */\n      tag_378\n      jump\t// in\n    tag_632:\n        /* \"#utility.yul\":24634:24773   */\n      swap1\n      pop\n        /* \"#utility.yul\":24361:24780   */\n      swap2\n      swap1\n      pop\n      jump\t// out\n        /* \"#utility.yul\":24786:25026   */\n    tag_379:\n        /* \"#utility.yul\":24926:24960   */\n      0x46756e6374696f6e20696e7465726661636547657450726f66696c6542794163\n        /* \"#utility.yul\":24922:24923   */\n      0x00\n        /* \"#utility.yul\":24914:24920   */\n      dup3\n        /* \"#utility.yul\":24910:24924   */\n      add\n        /* \"#utility.yul\":24903:24961   */\n      mstore\n        /* \"#utility.yul\":24995:25018   */\n      0x636f756e7420686173206265656e2063616c6c65640000000000000000000000\n        /* \"#utility.yul\":24990:24992   */\n      0x20\n        /* \"#utility.yul\":24982:24988   */\n      dup3\n        /* \"#utility.yul\":24978:24993   */\n      add\n        /* \"#utility.yul\":24971:25019   */\n      mstore\n        /* \"#utility.yul\":24786:25026   */\n      pop\n      jump\t// out\n        /* \"#utility.yul\":25032:25398   */\n    tag_380:\n        /* \"#utility.yul\":25174:25177   */\n      0x00\n        /* \"#utility.yul\":25195:25262   */\n      tag_635\n        /* \"#utility.yul\":25259:25261   */\n      0x35\n        /* \"#utility.yul\":25254:25257   */\n      dup4\n        /* \"#utility.yul\":25195:25262   */\n      tag_368\n      jump\t// in\n    tag_635:\n        /* \"#utility.yul\":25188:25262   */\n      swap2\n      pop\n        /* \"#utility.yul\":25271:25364   */\n      tag_636\n        /* \"#utility.yul\":25360:25363   */\n      dup3\n        /* \"#utility.yul\":25271:25364   */\n      tag_379\n      jump\t// in\n    tag_636:\n        /* \"#utility.yul\":25389:25391   */\n      0x40\n        /* \"#utility.yul\":25384:25387   */\n      dup3\n        /* \"#utility.yul\":25380:25392   */\n      add\n        /* \"#utility.yul\":25373:25392   */\n      swap1\n      pop\n        /* \"#utility.yul\":25032:25398   */\n      swap2\n      swap1\n      pop\n      jump\t// out\n        /* \"#utility.yul\":25404:25823   */\n    tag_120:\n        /* \"#utility.yul\":25570:25574   */\n      0x00\n        /* \"#utility.yul\":25608:25610   */\n      0x20\n        /* \"#utility.yul\":25597:25606   */\n      dup3\n        /* \"#utility.yul\":25593:25611   */\n      add\n        /* \"#utility.yul\":25585:25611   */\n      swap1\n      pop\n        /* \"#utility.yul\":25657:25666   */\n      dup2\n        /* \"#utility.yul\":25651:25655   */\n      dup2\n        /* \"#utility.yul\":25647:25667   */\n      sub\n        /* \"#utility.yul\":25643:25644   */\n      0x00\n        /* \"#utility.yul\":25632:25641   */\n      dup4\n        /* \"#utility.yul\":25628:25645   */\n      add\n        /* \"#utility.yul\":25621:25668   */\n      mstore\n        /* \"#utility.yul\":25685:25816   */\n      tag_638\n        /* \"#utility.yul\":25811:25815   */\n      dup2\n        /* \"#utility.yul\":25685:25816   */\n      tag_380\n      jump\t// in\n    tag_638:\n        /* \"#utility.yul\":25677:25816   */\n      swap1\n      pop\n        /* \"#utility.yul\":25404:25823   */\n      swap2\n      swap1\n      pop\n      jump\t// out\n        /* \"#utility.yul\":25829:26054   */\n    tag_381:\n        /* \"#utility.yul\":25969:26003   */\n      0x46756e6374696f6e20696e746572666163654a6f696e20686173206265656e20\n        /* \"#utility.yul\":25965:25966   */\n      0x00\n        /* \"#utility.yul\":25957:25963   */\n      dup3\n        /* \"#utility.yul\":25953:25967   */\n      add\n        /* \"#utility.yul\":25946:26004   */\n      mstore\n        /* \"#utility.yul\":26038:26046   */\n      0x63616c6c65640000000000000000000000000000000000000000000000000000\n        /* \"#utility.yul\":26033:26035   */\n      0x20\n        /* \"#utility.yul\":26025:26031   */\n      dup3\n        /* \"#utility.yul\":26021:26036   */\n      add\n        /* \"#utility.yul\":26014:26047   */\n      mstore\n        /* \"#utility.yul\":25829:26054   */\n      pop\n      jump\t// out\n        /* \"#utility.yul\":26060:26426   */\n    tag_382:\n        /* \"#utility.yul\":26202:26205   */\n      0x00\n        /* \"#utility.yul\":26223:26290   */\n      tag_641\n        /* \"#utility.yul\":26287:26289   */\n      0x26\n        /* \"#utility.yul\":26282:26285   */\n      dup4\n        /* \"#utility.yul\":26223:26290   */\n      tag_368\n      jump\t// in\n    tag_641:\n        /* \"#utility.yul\":26216:26290   */\n      swap2\n      pop\n        /* \"#utility.yul\":26299:26392   */\n      tag_642\n        /* \"#utility.yul\":26388:26391   */\n      dup3\n        /* \"#utility.yul\":26299:26392   */\n      tag_381\n      jump\t// in\n    tag_642:\n        /* \"#utility.yul\":26417:26419   */\n      0x40\n        /* \"#utility.yul\":26412:26415   */\n      dup3\n        /* \"#utility.yul\":26408:26420   */\n      add\n        /* \"#utility.yul\":26401:26420   */\n      swap1\n      pop\n        /* \"#utility.yul\":26060:26426   */\n      swap2\n      swap1\n      pop\n      jump\t// out\n        /* \"#utility.yul\":26432:26851   */\n    tag_128:\n        /* \"#utility.yul\":26598:26602   */\n      0x00\n        /* \"#utility.yul\":26636:26638   */\n      0x20\n        /* \"#utility.yul\":26625:26634   */\n      dup3\n        /* \"#utility.yul\":26621:26639   */\n      add\n        /* \"#utility.yul\":26613:26639   */\n      swap1\n      pop\n        /* \"#utility.yul\":26685:26694   */\n      dup2\n        /* \"#utility.yul\":26679:26683   */\n      dup2\n        /* \"#utility.yul\":26675:26695   */\n      sub\n        /* \"#utility.yul\":26671:26672   */\n      0x00\n        /* \"#utility.yul\":26660:26669   */\n      dup4\n        /* \"#utility.yul\":26656:26673   */\n      add\n        /* \"#utility.yul\":26649:26696   */\n      mstore\n        /* \"#utility.yul\":26713:26844   */\n      tag_644\n        /* \"#utility.yul\":26839:26843   */\n      dup2\n        /* \"#utility.yul\":26713:26844   */\n      tag_382\n      jump\t// in\n    tag_644:\n        /* \"#utility.yul\":26705:26844   */\n      swap1\n      pop\n        /* \"#utility.yul\":26432:26851   */\n      swap2\n      swap1\n      pop\n      jump\t// out\n        /* \"#utility.yul\":26857:27097   */\n    tag_383:\n        /* \"#utility.yul\":26997:27031   */\n      0x46756e6374696f6e20696e746572666163654765744163636f756e7442794164\n        /* \"#utility.yul\":26993:26994   */\n      0x00\n        /* \"#utility.yul\":26985:26991   */\n      dup3\n        /* \"#utility.yul\":26981:26995   */\n      add\n        /* \"#utility.yul\":26974:27032   */\n      mstore\n        /* \"#utility.yul\":27066:27089   */\n      0x647265737320686173206265656e2063616c6c65640000000000000000000000\n        /* \"#utility.yul\":27061:27063   */\n      0x20\n        /* \"#utility.yul\":27053:27059   */\n      dup3\n        /* \"#utility.yul\":27049:27064   */\n      add\n        /* \"#utility.yul\":27042:27090   */\n      mstore\n        /* \"#utility.yul\":26857:27097   */\n      pop\n      jump\t// out\n        /* \"#utility.yul\":27103:27469   */\n    tag_384:\n        /* \"#utility.yul\":27245:27248   */\n      0x00\n        /* \"#utility.yul\":27266:27333   */\n      tag_647\n        /* \"#utility.yul\":27330:27332   */\n      0x35\n        /* \"#utility.yul\":27325:27328   */\n      dup4\n        /* \"#utility.yul\":27266:27333   */\n      tag_368\n      jump\t// in\n    tag_647:\n        /* \"#utility.yul\":27259:27333   */\n      swap2\n      pop\n        /* \"#utility.yul\":27342:27435   */\n      tag_648\n        /* \"#utility.yul\":27431:27434   */\n      dup3\n        /* \"#utility.yul\":27342:27435   */\n      tag_383\n      jump\t// in\n    tag_648:\n        /* \"#utility.yul\":27460:27462   */\n      0x40\n        /* \"#utility.yul\":27455:27458   */\n      dup3\n        /* \"#utility.yul\":27451:27463   */\n      add\n        /* \"#utility.yul\":27444:27463   */\n      swap1\n      pop\n        /* \"#utility.yul\":27103:27469   */\n      swap2\n      swap1\n      pop\n      jump\t// out\n        /* \"#utility.yul\":27475:27894   */\n    tag_136:\n        /* \"#utility.yul\":27641:27645   */\n      0x00\n        /* \"#utility.yul\":27679:27681   */\n      0x20\n        /* \"#utility.yul\":27668:27677   */\n      dup3\n        /* \"#utility.yul\":27664:27682   */\n      add\n        /* \"#utility.yul\":27656:27682   */\n      swap1\n      pop\n        /* \"#utility.yul\":27728:27737   */\n      dup2\n        /* \"#utility.yul\":27722:27726   */\n      dup2\n        /* \"#utility.yul\":27718:27738   */\n      sub\n        /* \"#utility.yul\":27714:27715   */\n      0x00\n        /* \"#utility.yul\":27703:27712   */\n      dup4\n        /* \"#utility.yul\":27699:27716   */\n      add\n        /* \"#utility.yul\":27692:27739   */\n      mstore\n        /* \"#utility.yul\":27756:27887   */\n      tag_650\n        /* \"#utility.yul\":27882:27886   */\n      dup2\n        /* \"#utility.yul\":27756:27887   */\n      tag_384\n      jump\t// in\n    tag_650:\n        /* \"#utility.yul\":27748:27887   */\n      swap1\n      pop\n        /* \"#utility.yul\":27475:27894   */\n      swap2\n      swap1\n      pop\n      jump\t// out\n        /* \"#utility.yul\":27900:28133   */\n    tag_385:\n        /* \"#utility.yul\":28040:28074   */\n      0x46756e6374696f6e20696e746572666163654765744d794163636f756e742068\n        /* \"#utility.yul\":28036:28037   */\n      0x00\n        /* \"#utility.yul\":28028:28034   */\n      dup3\n        /* \"#utility.yul\":28024:28038   */\n      add\n        /* \"#utility.yul\":28017:28075   */\n      mstore\n        /* \"#utility.yul\":28109:28125   */\n      0x6173206265656e2063616c6c6564000000000000000000000000000000000000\n        /* \"#utility.yul\":28104:28106   */\n      0x20\n        /* \"#utility.yul\":28096:28102   */\n      dup3\n        /* \"#utility.yul\":28092:28107   */\n      add\n        /* \"#utility.yul\":28085:28126   */\n      mstore\n        /* \"#utility.yul\":27900:28133   */\n      pop\n      jump\t// out\n        /* \"#utility.yul\":28139:28505   */\n    tag_386:\n        /* \"#utility.yul\":28281:28284   */\n      0x00\n        /* \"#utility.yul\":28302:28369   */\n      tag_653\n        /* \"#utility.yul\":28366:28368   */\n      0x2e\n        /* \"#utility.yul\":28361:28364   */\n      dup4\n        /* \"#utility.yul\":28302:28369   */\n      tag_368\n      jump\t// in\n    tag_653:\n        /* \"#utility.yul\":28295:28369   */\n      swap2\n      pop\n        /* \"#utility.yul\":28378:28471   */\n      tag_654\n        /* \"#utility.yul\":28467:28470   */\n      dup3\n        /* \"#utility.yul\":28378:28471   */\n      tag_385\n      jump\t// in\n    tag_654:\n        /* \"#utility.yul\":28496:28498   */\n      0x40\n        /* \"#utility.yul\":28491:28494   */\n      dup3\n        /* \"#utility.yul\":28487:28499   */\n      add\n        /* \"#utility.yul\":28480:28499   */\n      swap1\n      pop\n        /* \"#utility.yul\":28139:28505   */\n      swap2\n      swap1\n      pop\n      jump\t// out\n        /* \"#utility.yul\":28511:28930   */\n    tag_140:\n        /* \"#utility.yul\":28677:28681   */\n      0x00\n        /* \"#utility.yul\":28715:28717   */\n      0x20\n        /* \"#utility.yul\":28704:28713   */\n      dup3\n        /* \"#utility.yul\":28700:28718   */\n      add\n        /* \"#utility.yul\":28692:28718   */\n      swap1\n      pop\n        /* \"#utility.yul\":28764:28773   */\n      dup2\n        /* \"#utility.yul\":28758:28762   */\n      dup2\n        /* \"#utility.yul\":28754:28774   */\n      sub\n        /* \"#utility.yul\":28750:28751   */\n      0x00\n        /* \"#utility.yul\":28739:28748   */\n      dup4\n        /* \"#utility.yul\":28735:28752   */\n      add\n        /* \"#utility.yul\":28728:28775   */\n      mstore\n        /* \"#utility.yul\":28792:28923   */\n      tag_656\n        /* \"#utility.yul\":28918:28922   */\n      dup2\n        /* \"#utility.yul\":28792:28923   */\n      tag_386\n      jump\t// in\n    tag_656:\n        /* \"#utility.yul\":28784:28923   */\n      swap1\n      pop\n        /* \"#utility.yul\":28511:28930   */\n      swap2\n      swap1\n      pop\n      jump\t// out\n        /* \"#utility.yul\":28936:29231   */\n    tag_387:\n        /* \"#utility.yul\":29076:29110   */\n      0x53657276697665436f6e74726163742d7265676973746572557365723a205468\n        /* \"#utility.yul\":29072:29073   */\n      0x00\n        /* \"#utility.yul\":29064:29070   */\n      dup3\n        /* \"#utility.yul\":29060:29074   */\n      add\n        /* \"#utility.yul\":29053:29111   */\n      mstore\n        /* \"#utility.yul\":29145:29179   */\n      0x652061646465727373206861736e2774206a6f696e65642c5265676973746572\n        /* \"#utility.yul\":29140:29142   */\n      0x20\n        /* \"#utility.yul\":29132:29138   */\n      dup3\n        /* \"#utility.yul\":29128:29143   */\n      add\n        /* \"#utility.yul\":29121:29180   */\n      mstore\n        /* \"#utility.yul\":29214:29223   */\n      0x206661696c656400000000000000000000000000000000000000000000000000\n        /* \"#utility.yul\":29209:29211   */\n      0x40\n        /* \"#utility.yul\":29201:29207   */\n      dup3\n        /* \"#utility.yul\":29197:29212   */\n      add\n        /* \"#utility.yul\":29190:29224   */\n      mstore\n        /* \"#utility.yul\":28936:29231   */\n      pop\n      jump\t// out\n        /* \"#utility.yul\":29237:29603   */\n    tag_388:\n        /* \"#utility.yul\":29379:29382   */\n      0x00\n        /* \"#utility.yul\":29400:29467   */\n      tag_659\n        /* \"#utility.yul\":29464:29466   */\n      0x47\n        /* \"#utility.yul\":29459:29462   */\n      dup4\n        /* \"#utility.yul\":29400:29467   */\n      tag_368\n      jump\t// in\n    tag_659:\n        /* \"#utility.yul\":29393:29467   */\n      swap2\n      pop\n        /* \"#utility.yul\":29476:29569   */\n      tag_660\n        /* \"#utility.yul\":29565:29568   */\n      dup3\n        /* \"#utility.yul\":29476:29569   */\n      tag_387\n      jump\t// in\n    tag_660:\n        /* \"#utility.yul\":29594:29596   */\n      0x60\n        /* \"#utility.yul\":29589:29592   */\n      dup3\n        /* \"#utility.yul\":29585:29597   */\n      add\n        /* \"#utility.yul\":29578:29597   */\n      swap1\n      pop\n        /* \"#utility.yul\":29237:29603   */\n      swap2\n      swap1\n      pop\n      jump\t// out\n        /* \"#utility.yul\":29609:30028   */\n    tag_146:\n        /* \"#utility.yul\":29775:29779   */\n      0x00\n        /* \"#utility.yul\":29813:29815   */\n      0x20\n        /* \"#utility.yul\":29802:29811   */\n      dup3\n        /* \"#utility.yul\":29798:29816   */\n      add\n        /* \"#utility.yul\":29790:29816   */\n      swap1\n      pop\n        /* \"#utility.yul\":29862:29871   */\n      dup2\n        /* \"#utility.yul\":29856:29860   */\n      dup2\n        /* \"#utility.yul\":29852:29872   */\n      sub\n        /* \"#utility.yul\":29848:29849   */\n      0x00\n        /* \"#utility.yul\":29837:29846   */\n      dup4\n        /* \"#utility.yul\":29833:29850   */\n      add\n        /* \"#utility.yul\":29826:29873   */\n      mstore\n        /* \"#utility.yul\":29890:30021   */\n      tag_662\n        /* \"#utility.yul\":30016:30020   */\n      dup2\n        /* \"#utility.yul\":29890:30021   */\n      tag_388\n      jump\t// in\n    tag_662:\n        /* \"#utility.yul\":29882:30021   */\n      swap1\n      pop\n        /* \"#utility.yul\":29609:30028   */\n      swap2\n      swap1\n      pop\n      jump\t// out\n        /* \"#utility.yul\":30034:30277   */\n    tag_389:\n        /* \"#utility.yul\":30174:30208   */\n      0x53657276697665436f6e74726163742d616464467269656e643a20467269656e\n        /* \"#utility.yul\":30170:30171   */\n      0x00\n        /* \"#utility.yul\":30162:30168   */\n      dup3\n        /* \"#utility.yul\":30158:30172   */\n      add\n        /* \"#utility.yul\":30151:30209   */\n      mstore\n        /* \"#utility.yul\":30243:30269   */\n      0x64206163636f756e74206e6f7420726567697374657265640000000000000000\n        /* \"#utility.yul\":30238:30240   */\n      0x20\n        /* \"#utility.yul\":30230:30236   */\n      dup3\n        /* \"#utility.yul\":30226:30241   */\n      add\n        /* \"#utility.yul\":30219:30270   */\n      mstore\n        /* \"#utility.yul\":30034:30277   */\n      pop\n      jump\t// out\n        /* \"#utility.yul\":30283:30649   */\n    tag_390:\n        /* \"#utility.yul\":30425:30428   */\n      0x00\n        /* \"#utility.yul\":30446:30513   */\n      tag_665\n        /* \"#utility.yul\":30510:30512   */\n      0x38\n        /* \"#utility.yul\":30505:30508   */\n      dup4\n        /* \"#utility.yul\":30446:30513   */\n      tag_368\n      jump\t// in\n    tag_665:\n        /* \"#utility.yul\":30439:30513   */\n      swap2\n      pop\n        /* \"#utility.yul\":30522:30615   */\n      tag_666\n        /* \"#utility.yul\":30611:30614   */\n      dup3\n        /* \"#utility.yul\":30522:30615   */\n      tag_389\n      jump\t// in\n    tag_666:\n        /* \"#utility.yul\":30640:30642   */\n      0x40\n        /* \"#utility.yul\":30635:30638   */\n      dup3\n        /* \"#utility.yul\":30631:30643   */\n      add\n        /* \"#utility.yul\":30624:30643   */\n      swap1\n      pop\n        /* \"#utility.yul\":30283:30649   */\n      swap2\n      swap1\n      pop\n      jump\t// out\n        /* \"#utility.yul\":30655:31074   */\n    tag_156:\n        /* \"#utility.yul\":30821:30825   */\n      0x00\n        /* \"#utility.yul\":30859:30861   */\n      0x20\n        /* \"#utility.yul\":30848:30857   */\n      dup3\n        /* \"#utility.yul\":30844:30862   */\n      add\n        /* \"#utility.yul\":30836:30862   */\n      swap1\n      pop\n        /* \"#utility.yul\":30908:30917   */\n      dup2\n        /* \"#utility.yul\":30902:30906   */\n      dup2\n        /* \"#utility.yul\":30898:30918   */\n      sub\n        /* \"#utility.yul\":30894:30895   */\n      0x00\n        /* \"#utility.yul\":30883:30892   */\n      dup4\n        /* \"#utility.yul\":30879:30896   */\n      add\n        /* \"#utility.yul\":30872:30919   */\n      mstore\n        /* \"#utility.yul\":30936:31067   */\n      tag_668\n        /* \"#utility.yul\":31062:31066   */\n      dup2\n        /* \"#utility.yul\":30936:31067   */\n      tag_390\n      jump\t// in\n    tag_668:\n        /* \"#utility.yul\":30928:31067   */\n      swap1\n      pop\n        /* \"#utility.yul\":30655:31074   */\n      swap2\n      swap1\n      pop\n      jump\t// out\n        /* \"#utility.yul\":31080:31325   */\n    tag_391:\n        /* \"#utility.yul\":31220:31254   */\n      0x53657276697665436f6e74726163742d616464467269656e643a2043616e6e6f\n        /* \"#utility.yul\":31216:31217   */\n      0x00\n        /* \"#utility.yul\":31208:31214   */\n      dup3\n        /* \"#utility.yul\":31204:31218   */\n      add\n        /* \"#utility.yul\":31197:31255   */\n      mstore\n        /* \"#utility.yul\":31289:31317   */\n      0x742061646420796f757273656c66206173206120667269656e64000000000000\n        /* \"#utility.yul\":31284:31286   */\n      0x20\n        /* \"#utility.yul\":31276:31282   */\n      dup3\n        /* \"#utility.yul\":31272:31287   */\n      add\n        /* \"#utility.yul\":31265:31318   */\n      mstore\n        /* \"#utility.yul\":31080:31325   */\n      pop\n      jump\t// out\n        /* \"#utility.yul\":31331:31697   */\n    tag_392:\n        /* \"#utility.yul\":31473:31476   */\n      0x00\n        /* \"#utility.yul\":31494:31561   */\n      tag_671\n        /* \"#utility.yul\":31558:31560   */\n      0x3a\n        /* \"#utility.yul\":31553:31556   */\n      dup4\n        /* \"#utility.yul\":31494:31561   */\n      tag_368\n      jump\t// in\n    tag_671:\n        /* \"#utility.yul\":31487:31561   */\n      swap2\n      pop\n        /* \"#utility.yul\":31570:31663   */\n      tag_672\n        /* \"#utility.yul\":31659:31662   */\n      dup3\n        /* \"#utility.yul\":31570:31663   */\n      tag_391\n      jump\t// in\n    tag_672:\n        /* \"#utility.yul\":31688:31690   */\n      0x40\n        /* \"#utility.yul\":31683:31686   */\n      dup3\n        /* \"#utility.yul\":31679:31691   */\n      add\n        /* \"#utility.yul\":31672:31691   */\n      swap1\n      pop\n        /* \"#utility.yul\":31331:31697   */\n      swap2\n      swap1\n      pop\n      jump\t// out\n        /* \"#utility.yul\":31703:32122   */\n    tag_159:\n        /* \"#utility.yul\":31869:31873   */\n      0x00\n        /* \"#utility.yul\":31907:31909   */\n      0x20\n        /* \"#utility.yul\":31896:31905   */\n      dup3\n        /* \"#utility.yul\":31892:31910   */\n      add\n        /* \"#utility.yul\":31884:31910   */\n      swap1\n      pop\n        /* \"#utility.yul\":31956:31965   */\n      dup2\n        /* \"#utility.yul\":31950:31954   */\n      dup2\n        /* \"#utility.yul\":31946:31966   */\n      sub\n        /* \"#utility.yul\":31942:31943   */\n      0x00\n        /* \"#utility.yul\":31931:31940   */\n      dup4\n        /* \"#utility.yul\":31927:31944   */\n      add\n        /* \"#utility.yul\":31920:31967   */\n      mstore\n        /* \"#utility.yul\":31984:32115   */\n      tag_674\n        /* \"#utility.yul\":32110:32114   */\n      dup2\n        /* \"#utility.yul\":31984:32115   */\n      tag_392\n      jump\t// in\n    tag_674:\n        /* \"#utility.yul\":31976:32115   */\n      swap1\n      pop\n        /* \"#utility.yul\":31703:32122   */\n      swap2\n      swap1\n      pop\n      jump\t// out\n        /* \"#utility.yul\":32128:32366   */\n    tag_393:\n        /* \"#utility.yul\":32268:32302   */\n      0x53657276697665436f6e74726163742d616464467269656e643a2048652f5368\n        /* \"#utility.yul\":32264:32265   */\n      0x00\n        /* \"#utility.yul\":32256:32262   */\n      dup3\n        /* \"#utility.yul\":32252:32266   */\n      add\n        /* \"#utility.yul\":32245:32303   */\n      mstore\n        /* \"#utility.yul\":32337:32358   */\n      0x6520697320616c726561647920667269656e6400000000000000000000000000\n        /* \"#utility.yul\":32332:32334   */\n      0x20\n        /* \"#utility.yul\":32324:32330   */\n      dup3\n        /* \"#utility.yul\":32320:32335   */\n      add\n        /* \"#utility.yul\":32313:32359   */\n      mstore\n        /* \"#utility.yul\":32128:32366   */\n      pop\n      jump\t// out\n        /* \"#utility.yul\":32372:32738   */\n    tag_394:\n        /* \"#utility.yul\":32514:32517   */\n      0x00\n        /* \"#utility.yul\":32535:32602   */\n      tag_677\n        /* \"#utility.yul\":32599:32601   */\n      0x33\n        /* \"#utility.yul\":32594:32597   */\n      dup4\n        /* \"#utility.yul\":32535:32602   */\n      tag_368\n      jump\t// in\n    tag_677:\n        /* \"#utility.yul\":32528:32602   */\n      swap2\n      pop\n        /* \"#utility.yul\":32611:32704   */\n      tag_678\n        /* \"#utility.yul\":32700:32703   */\n      dup3\n        /* \"#utility.yul\":32611:32704   */\n      tag_393\n      jump\t// in\n    tag_678:\n        /* \"#utility.yul\":32729:32731   */\n      0x40\n        /* \"#utility.yul\":32724:32727   */\n      dup3\n        /* \"#utility.yul\":32720:32732   */\n      add\n        /* \"#utility.yul\":32713:32732   */\n      swap1\n      pop\n        /* \"#utility.yul\":32372:32738   */\n      swap2\n      swap1\n      pop\n      jump\t// out\n        /* \"#utility.yul\":32744:33163   */\n    tag_164:\n        /* \"#utility.yul\":32910:32914   */\n      0x00\n        /* \"#utility.yul\":32948:32950   */\n      0x20\n        /* \"#utility.yul\":32937:32946   */\n      dup3\n        /* \"#utility.yul\":32933:32951   */\n      add\n        /* \"#utility.yul\":32925:32951   */\n      swap1\n      pop\n        /* \"#utility.yul\":32997:33006   */\n      dup2\n        /* \"#utility.yul\":32991:32995   */\n      dup2\n        /* \"#utility.yul\":32987:33007   */\n      sub\n        /* \"#utility.yul\":32983:32984   */\n      0x00\n        /* \"#utility.yul\":32972:32981   */\n      dup4\n        /* \"#utility.yul\":32968:32985   */\n      add\n        /* \"#utility.yul\":32961:33008   */\n      mstore\n        /* \"#utility.yul\":33025:33156   */\n      tag_680\n        /* \"#utility.yul\":33151:33155   */\n      dup2\n        /* \"#utility.yul\":33025:33156   */\n      tag_394\n      jump\t// in\n    tag_680:\n        /* \"#utility.yul\":33017:33156   */\n      swap1\n      pop\n        /* \"#utility.yul\":32744:33163   */\n      swap2\n      swap1\n      pop\n      jump\t// out\n        /* \"#utility.yul\":33169:33463   */\n    tag_395:\n        /* \"#utility.yul\":33309:33343   */\n      0x53657276697665436f6e74726163742d73656e644d6573736167653a20596f75\n        /* \"#utility.yul\":33305:33306   */\n      0x00\n        /* \"#utility.yul\":33297:33303   */\n      dup3\n        /* \"#utility.yul\":33293:33307   */\n      add\n        /* \"#utility.yul\":33286:33344   */\n      mstore\n        /* \"#utility.yul\":33378:33412   */\n      0x7220667269656e64207265717565737420686173206e6f74206265656e206170\n        /* \"#utility.yul\":33373:33375   */\n      0x20\n        /* \"#utility.yul\":33365:33371   */\n      dup3\n        /* \"#utility.yul\":33361:33376   */\n      add\n        /* \"#utility.yul\":33354:33413   */\n      mstore\n        /* \"#utility.yul\":33447:33455   */\n      0x70726f7665640000000000000000000000000000000000000000000000000000\n        /* \"#utility.yul\":33442:33444   */\n      0x40\n        /* \"#utility.yul\":33434:33440   */\n      dup3\n        /* \"#utility.yul\":33430:33445   */\n      add\n        /* \"#utility.yul\":33423:33456   */\n      mstore\n        /* \"#utility.yul\":33169:33463   */\n      pop\n      jump\t// out\n        /* \"#utility.yul\":33469:33835   */\n    tag_396:\n        /* \"#utility.yul\":33611:33614   */\n      0x00\n        /* \"#utility.yul\":33632:33699   */\n      tag_683\n        /* \"#utility.yul\":33696:33698   */\n      0x46\n        /* \"#utility.yul\":33691:33694   */\n      dup4\n        /* \"#utility.yul\":33632:33699   */\n      tag_368\n      jump\t// in\n    tag_683:\n        /* \"#utility.yul\":33625:33699   */\n      swap2\n      pop\n        /* \"#utility.yul\":33708:33801   */\n      tag_684\n        /* \"#utility.yul\":33797:33800   */\n      dup3\n        /* \"#utility.yul\":33708:33801   */\n      tag_395\n      jump\t// in\n    tag_684:\n        /* \"#utility.yul\":33826:33828   */\n      0x60\n        /* \"#utility.yul\":33821:33824   */\n      dup3\n        /* \"#utility.yul\":33817:33829   */\n      add\n        /* \"#utility.yul\":33810:33829   */\n      swap1\n      pop\n        /* \"#utility.yul\":33469:33835   */\n      swap2\n      swap1\n      pop\n      jump\t// out\n        /* \"#utility.yul\":33841:34260   */\n    tag_177:\n        /* \"#utility.yul\":34007:34011   */\n      0x00\n        /* \"#utility.yul\":34045:34047   */\n      0x20\n        /* \"#utility.yul\":34034:34043   */\n      dup3\n        /* \"#utility.yul\":34030:34048   */\n      add\n        /* \"#utility.yul\":34022:34048   */\n      swap1\n      pop\n        /* \"#utility.yul\":34094:34103   */\n      dup2\n        /* \"#utility.yul\":34088:34092   */\n      dup2\n        /* \"#utility.yul\":34084:34104   */\n      sub\n        /* \"#utility.yul\":34080:34081   */\n      0x00\n        /* \"#utility.yul\":34069:34078   */\n      dup4\n        /* \"#utility.yul\":34065:34082   */\n      add\n        /* \"#utility.yul\":34058:34105   */\n      mstore\n        /* \"#utility.yul\":34122:34253   */\n      tag_686\n        /* \"#utility.yul\":34248:34252   */\n      dup2\n        /* \"#utility.yul\":34122:34253   */\n      tag_396\n      jump\t// in\n    tag_686:\n        /* \"#utility.yul\":34114:34253   */\n      swap1\n      pop\n        /* \"#utility.yul\":33841:34260   */\n      swap2\n      swap1\n      pop\n      jump\t// out\n        /* \"#utility.yul\":34266:34577   */\n    tag_397:\n        /* \"#utility.yul\":34406:34440   */\n      0x53657276697665436f6e74726163742d67657450726f66696c65427941646472\n        /* \"#utility.yul\":34402:34403   */\n      0x00\n        /* \"#utility.yul\":34394:34400   */\n      dup3\n        /* \"#utility.yul\":34390:34404   */\n      add\n        /* \"#utility.yul\":34383:34441   */\n      mstore\n        /* \"#utility.yul\":34475:34509   */\n      0x6573733a20546865206164646572737320796f752077616e7420746f20676574\n        /* \"#utility.yul\":34470:34472   */\n      0x20\n        /* \"#utility.yul\":34462:34468   */\n      dup3\n        /* \"#utility.yul\":34458:34473   */\n      add\n        /* \"#utility.yul\":34451:34510   */\n      mstore\n        /* \"#utility.yul\":34544:34569   */\n      0x2070726f66696c6520206861736e2774206a6f696e6564000000000000000000\n        /* \"#utility.yul\":34539:34541   */\n      0x40\n        /* \"#utility.yul\":34531:34537   */\n      dup3\n        /* \"#utility.yul\":34527:34542   */\n      add\n        /* \"#utility.yul\":34520:34570   */\n      mstore\n        /* \"#utility.yul\":34266:34577   */\n      pop\n      jump\t// out\n        /* \"#utility.yul\":34583:34949   */\n    tag_398:\n        /* \"#utility.yul\":34725:34728   */\n      0x00\n        /* \"#utility.yul\":34746:34813   */\n      tag_689\n        /* \"#utility.yul\":34810:34812   */\n      0x57\n        /* \"#utility.yul\":34805:34808   */\n      dup4\n        /* \"#utility.yul\":34746:34813   */\n      tag_368\n      jump\t// in\n    tag_689:\n        /* \"#utility.yul\":34739:34813   */\n      swap2\n      pop\n        /* \"#utility.yul\":34822:34915   */\n      tag_690\n        /* \"#utility.yul\":34911:34914   */\n      dup3\n        /* \"#utility.yul\":34822:34915   */\n      tag_397\n      jump\t// in\n    tag_690:\n        /* \"#utility.yul\":34940:34942   */\n      0x60\n        /* \"#utility.yul\":34935:34938   */\n      dup3\n        /* \"#utility.yul\":34931:34943   */\n      add\n        /* \"#utility.yul\":34924:34943   */\n      swap1\n      pop\n        /* \"#utility.yul\":34583:34949   */\n      swap2\n      swap1\n      pop\n      jump\t// out\n        /* \"#utility.yul\":34955:35374   */\n    tag_188:\n        /* \"#utility.yul\":35121:35125   */\n      0x00\n        /* \"#utility.yul\":35159:35161   */\n      0x20\n        /* \"#utility.yul\":35148:35157   */\n      dup3\n        /* \"#utility.yul\":35144:35162   */\n      add\n        /* \"#utility.yul\":35136:35162   */\n      swap1\n      pop\n        /* \"#utility.yul\":35208:35217   */\n      dup2\n        /* \"#utility.yul\":35202:35206   */\n      dup2\n        /* \"#utility.yul\":35198:35218   */\n      sub\n        /* \"#utility.yul\":35194:35195   */\n      0x00\n        /* \"#utility.yul\":35183:35192   */\n      dup4\n        /* \"#utility.yul\":35179:35196   */\n      add\n        /* \"#utility.yul\":35172:35219   */\n      mstore\n        /* \"#utility.yul\":35236:35367   */\n      tag_692\n        /* \"#utility.yul\":35362:35366   */\n      dup2\n        /* \"#utility.yul\":35236:35367   */\n      tag_398\n      jump\t// in\n    tag_692:\n        /* \"#utility.yul\":35228:35367   */\n      swap1\n      pop\n        /* \"#utility.yul\":34955:35374   */\n      swap2\n      swap1\n      pop\n      jump\t// out\n        /* \"#utility.yul\":35380:35693   */\n    tag_399:\n        /* \"#utility.yul\":35520:35554   */\n      0x53657276697665436f6e74726163742d67657450726f66696c65427941646472\n        /* \"#utility.yul\":35516:35517   */\n      0x00\n        /* \"#utility.yul\":35508:35514   */\n      dup3\n        /* \"#utility.yul\":35504:35518   */\n      add\n        /* \"#utility.yul\":35497:35555   */\n      mstore\n        /* \"#utility.yul\":35589:35623   */\n      0x6573733a20546865206164647265737320796f752077616e7420746f20676574\n        /* \"#utility.yul\":35584:35586   */\n      0x20\n        /* \"#utility.yul\":35576:35582   */\n      dup3\n        /* \"#utility.yul\":35572:35587   */\n      add\n        /* \"#utility.yul\":35565:35624   */\n      mstore\n        /* \"#utility.yul\":35658:35685   */\n      0x2070726f66696c6520206861736e277420726567697374656400000000000000\n        /* \"#utility.yul\":35653:35655   */\n      0x40\n        /* \"#utility.yul\":35645:35651   */\n      dup3\n        /* \"#utility.yul\":35641:35656   */\n      add\n        /* \"#utility.yul\":35634:35686   */\n      mstore\n        /* \"#utility.yul\":35380:35693   */\n      pop\n      jump\t// out\n        /* \"#utility.yul\":35699:36065   */\n    tag_400:\n        /* \"#utility.yul\":35841:35844   */\n      0x00\n        /* \"#utility.yul\":35862:35929   */\n      tag_695\n        /* \"#utility.yul\":35926:35928   */\n      0x59\n        /* \"#utility.yul\":35921:35924   */\n      dup4\n        /* \"#utility.yul\":35862:35929   */\n      tag_368\n      jump\t// in\n    tag_695:\n        /* \"#utility.yul\":35855:35929   */\n      swap2\n      pop\n        /* \"#utility.yul\":35938:36031   */\n      tag_696\n        /* \"#utility.yul\":36027:36030   */\n      dup3\n        /* \"#utility.yul\":35938:36031   */\n      tag_399\n      jump\t// in\n    tag_696:\n        /* \"#utility.yul\":36056:36058   */\n      0x60\n        /* \"#utility.yul\":36051:36054   */\n      dup3\n        /* \"#utility.yul\":36047:36059   */\n      add\n        /* \"#utility.yul\":36040:36059   */\n      swap1\n      pop\n        /* \"#utility.yul\":35699:36065   */\n      swap2\n      swap1\n      pop\n      jump\t// out\n        /* \"#utility.yul\":36071:36490   */\n    tag_193:\n        /* \"#utility.yul\":36237:36241   */\n      0x00\n        /* \"#utility.yul\":36275:36277   */\n      0x20\n        /* \"#utility.yul\":36264:36273   */\n      dup3\n        /* \"#utility.yul\":36260:36278   */\n      add\n        /* \"#utility.yul\":36252:36278   */\n      swap1\n      pop\n        /* \"#utility.yul\":36324:36333   */\n      dup2\n        /* \"#utility.yul\":36318:36322   */\n      dup2\n        /* \"#utility.yul\":36314:36334   */\n      sub\n        /* \"#utility.yul\":36310:36311   */\n      0x00\n        /* \"#utility.yul\":36299:36308   */\n      dup4\n        /* \"#utility.yul\":36295:36312   */\n      add\n        /* \"#utility.yul\":36288:36335   */\n      mstore\n        /* \"#utility.yul\":36352:36483   */\n      tag_698\n        /* \"#utility.yul\":36478:36482   */\n      dup2\n        /* \"#utility.yul\":36352:36483   */\n      tag_400\n      jump\t// in\n    tag_698:\n        /* \"#utility.yul\":36344:36483   */\n      swap1\n      pop\n        /* \"#utility.yul\":36071:36490   */\n      swap2\n      swap1\n      pop\n      jump\t// out\n        /* \"#utility.yul\":36496:36810   */\n    tag_401:\n        /* \"#utility.yul\":36636:36670   */\n      0x53657276697665436f6e74726163742d67657450726f66696c6542794163636f\n        /* \"#utility.yul\":36632:36633   */\n      0x00\n        /* \"#utility.yul\":36624:36630   */\n      dup3\n        /* \"#utility.yul\":36620:36634   */\n      add\n        /* \"#utility.yul\":36613:36671   */\n      mstore\n        /* \"#utility.yul\":36705:36739   */\n      0x756e743a20546865206163636f756e7420796f752077616e7420746f20676574\n        /* \"#utility.yul\":36700:36702   */\n      0x20\n        /* \"#utility.yul\":36692:36698   */\n      dup3\n        /* \"#utility.yul\":36688:36703   */\n      add\n        /* \"#utility.yul\":36681:36740   */\n      mstore\n        /* \"#utility.yul\":36774:36802   */\n      0x2070726f66696c65206861736e27742072656769737465726564000000000000\n        /* \"#utility.yul\":36769:36771   */\n      0x40\n        /* \"#utility.yul\":36761:36767   */\n      dup3\n        /* \"#utility.yul\":36757:36772   */\n      add\n        /* \"#utility.yul\":36750:36803   */\n      mstore\n        /* \"#utility.yul\":36496:36810   */\n      pop\n      jump\t// out\n        /* \"#utility.yul\":36816:37182   */\n    tag_402:\n        /* \"#utility.yul\":36958:36961   */\n      0x00\n        /* \"#utility.yul\":36979:37046   */\n      tag_701\n        /* \"#utility.yul\":37043:37045   */\n      0x5a\n        /* \"#utility.yul\":37038:37041   */\n      dup4\n        /* \"#utility.yul\":36979:37046   */\n      tag_368\n      jump\t// in\n    tag_701:\n        /* \"#utility.yul\":36972:37046   */\n      swap2\n      pop\n        /* \"#utility.yul\":37055:37148   */\n      tag_702\n        /* \"#utility.yul\":37144:37147   */\n      dup3\n        /* \"#utility.yul\":37055:37148   */\n      tag_401\n      jump\t// in\n    tag_702:\n        /* \"#utility.yul\":37173:37175   */\n      0x60\n        /* \"#utility.yul\":37168:37171   */\n      dup3\n        /* \"#utility.yul\":37164:37176   */\n      add\n        /* \"#utility.yul\":37157:37176   */\n      swap1\n      pop\n        /* \"#utility.yul\":36816:37182   */\n      swap2\n      swap1\n      pop\n      jump\t// out\n        /* \"#utility.yul\":37188:37607   */\n    tag_206:\n        /* \"#utility.yul\":37354:37358   */\n      0x00\n        /* \"#utility.yul\":37392:37394   */\n      0x20\n        /* \"#utility.yul\":37381:37390   */\n      dup3\n        /* \"#utility.yul\":37377:37395   */\n      add\n        /* \"#utility.yul\":37369:37395   */\n      swap1\n      pop\n        /* \"#utility.yul\":37441:37450   */\n      dup2\n        /* \"#utility.yul\":37435:37439   */\n      dup2\n        /* \"#utility.yul\":37431:37451   */\n      sub\n        /* \"#utility.yul\":37427:37428   */\n      0x00\n        /* \"#utility.yul\":37416:37425   */\n      dup4\n        /* \"#utility.yul\":37412:37429   */\n      add\n        /* \"#utility.yul\":37405:37452   */\n      mstore\n        /* \"#utility.yul\":37469:37600   */\n      tag_704\n        /* \"#utility.yul\":37595:37599   */\n      dup2\n        /* \"#utility.yul\":37469:37600   */\n      tag_402\n      jump\t// in\n    tag_704:\n        /* \"#utility.yul\":37461:37600   */\n      swap1\n      pop\n        /* \"#utility.yul\":37188:37607   */\n      swap2\n      swap1\n      pop\n      jump\t// out\n        /* \"#utility.yul\":37613:37845   */\n    tag_403:\n        /* \"#utility.yul\":37753:37787   */\n      0x53657276697665436f6e74726163742d6a6f696e3a2074686973206164647265\n        /* \"#utility.yul\":37749:37750   */\n      0x00\n        /* \"#utility.yul\":37741:37747   */\n      dup3\n        /* \"#utility.yul\":37737:37751   */\n      add\n        /* \"#utility.yul\":37730:37788   */\n      mstore\n        /* \"#utility.yul\":37822:37837   */\n      0x737320686173206a6f696e656400000000000000000000000000000000000000\n        /* \"#utility.yul\":37817:37819   */\n      0x20\n        /* \"#utility.yul\":37809:37815   */\n      dup3\n        /* \"#utility.yul\":37805:37820   */\n      add\n        /* \"#utility.yul\":37798:37838   */\n      mstore\n        /* \"#utility.yul\":37613:37845   */\n      pop\n      jump\t// out\n        /* \"#utility.yul\":37851:38217   */\n    tag_404:\n        /* \"#utility.yul\":37993:37996   */\n      0x00\n        /* \"#utility.yul\":38014:38081   */\n      tag_707\n        /* \"#utility.yul\":38078:38080   */\n      0x2d\n        /* \"#utility.yul\":38073:38076   */\n      dup4\n        /* \"#utility.yul\":38014:38081   */\n      tag_368\n      jump\t// in\n    tag_707:\n        /* \"#utility.yul\":38007:38081   */\n      swap2\n      pop\n        /* \"#utility.yul\":38090:38183   */\n      tag_708\n        /* \"#utility.yul\":38179:38182   */\n      dup3\n        /* \"#utility.yul\":38090:38183   */\n      tag_403\n      jump\t// in\n    tag_708:\n        /* \"#utility.yul\":38208:38210   */\n      0x40\n        /* \"#utility.yul\":38203:38206   */\n      dup3\n        /* \"#utility.yul\":38199:38211   */\n      add\n        /* \"#utility.yul\":38192:38211   */\n      swap1\n      pop\n        /* \"#utility.yul\":37851:38217   */\n      swap2\n      swap1\n      pop\n      jump\t// out\n        /* \"#utility.yul\":38223:38642   */\n    tag_215:\n        /* \"#utility.yul\":38389:38393   */\n      0x00\n        /* \"#utility.yul\":38427:38429   */\n      0x20\n        /* \"#utility.yul\":38416:38425   */\n      dup3\n        /* \"#utility.yul\":38412:38430   */\n      add\n        /* \"#utility.yul\":38404:38430   */\n      swap1\n      pop\n        /* \"#utility.yul\":38476:38485   */\n      dup2\n        /* \"#utility.yul\":38470:38474   */\n      dup2\n        /* \"#utility.yul\":38466:38486   */\n      sub\n        /* \"#utility.yul\":38462:38463   */\n      0x00\n        /* \"#utility.yul\":38451:38460   */\n      dup4\n        /* \"#utility.yul\":38447:38464   */\n      add\n        /* \"#utility.yul\":38440:38487   */\n      mstore\n        /* \"#utility.yul\":38504:38635   */\n      tag_710\n        /* \"#utility.yul\":38630:38634   */\n      dup2\n        /* \"#utility.yul\":38504:38635   */\n      tag_404\n      jump\t// in\n    tag_710:\n        /* \"#utility.yul\":38496:38635   */\n      swap1\n      pop\n        /* \"#utility.yul\":38223:38642   */\n      swap2\n      swap1\n      pop\n      jump\t// out\n        /* \"#utility.yul\":38648:38742   */\n    tag_405:\n        /* \"#utility.yul\":38681:38689   */\n      0x00\n        /* \"#utility.yul\":38729:38734   */\n      dup2\n        /* \"#utility.yul\":38725:38727   */\n      0x60\n        /* \"#utility.yul\":38721:38735   */\n      shl\n        /* \"#utility.yul\":38700:38735   */\n      swap1\n      pop\n        /* \"#utility.yul\":38648:38742   */\n      swap2\n      swap1\n      pop\n      jump\t// out\n        /* \"#utility.yul\":38748:38842   */\n    tag_406:\n        /* \"#utility.yul\":38787:38794   */\n      0x00\n        /* \"#utility.yul\":38816:38836   */\n      tag_713\n        /* \"#utility.yul\":38830:38835   */\n      dup3\n        /* \"#utility.yul\":38816:38836   */\n      tag_405\n      jump\t// in\n    tag_713:\n        /* \"#utility.yul\":38805:38836   */\n      swap1\n      pop\n        /* \"#utility.yul\":38748:38842   */\n      swap2\n      swap1\n      pop\n      jump\t// out\n        /* \"#utility.yul\":38848:38948   */\n    tag_407:\n        /* \"#utility.yul\":38887:38894   */\n      0x00\n        /* \"#utility.yul\":38916:38942   */\n      tag_715\n        /* \"#utility.yul\":38936:38941   */\n      dup3\n        /* \"#utility.yul\":38916:38942   */\n      tag_406\n      jump\t// in\n    tag_715:\n        /* \"#utility.yul\":38905:38942   */\n      swap1\n      pop\n        /* \"#utility.yul\":38848:38948   */\n      swap2\n      swap1\n      pop\n      jump\t// out\n        /* \"#utility.yul\":38954:39111   */\n    tag_408:\n        /* \"#utility.yul\":39059:39104   */\n      tag_717\n        /* \"#utility.yul\":39079:39103   */\n      tag_718\n        /* \"#utility.yul\":39097:39102   */\n      dup3\n        /* \"#utility.yul\":39079:39103   */\n      tag_335\n      jump\t// in\n    tag_718:\n        /* \"#utility.yul\":39059:39104   */\n      tag_407\n      jump\t// in\n    tag_717:\n        /* \"#utility.yul\":39054:39057   */\n      dup3\n        /* \"#utility.yul\":39047:39105   */\n      mstore\n        /* \"#utility.yul\":38954:39111   */\n      pop\n      pop\n      jump\t// out\n        /* \"#utility.yul\":39117:39196   */\n    tag_409:\n        /* \"#utility.yul\":39156:39163   */\n      0x00\n        /* \"#utility.yul\":39185:39190   */\n      dup2\n        /* \"#utility.yul\":39174:39190   */\n      swap1\n      pop\n        /* \"#utility.yul\":39117:39196   */\n      swap2\n      swap1\n      pop\n      jump\t// out\n        /* \"#utility.yul\":39202:39359   */\n    tag_410:\n        /* \"#utility.yul\":39307:39352   */\n      tag_721\n        /* \"#utility.yul\":39327:39351   */\n      tag_722\n        /* \"#utility.yul\":39345:39350   */\n      dup3\n        /* \"#utility.yul\":39327:39351   */\n      tag_331\n      jump\t// in\n    tag_722:\n        /* \"#utility.yul\":39307:39352   */\n      tag_409\n      jump\t// in\n    tag_721:\n        /* \"#utility.yul\":39302:39305   */\n      dup3\n        /* \"#utility.yul\":39295:39353   */\n      mstore\n        /* \"#utility.yul\":39202:39359   */\n      pop\n      pop\n      jump\t// out\n        /* \"#utility.yul\":39365:39762   */\n    tag_217:\n        /* \"#utility.yul\":39505:39508   */\n      0x00\n        /* \"#utility.yul\":39520:39595   */\n      tag_724\n        /* \"#utility.yul\":39591:39594   */\n      dup3\n        /* \"#utility.yul\":39582:39588   */\n      dup6\n        /* \"#utility.yul\":39520:39595   */\n      tag_408\n      jump\t// in\n    tag_724:\n        /* \"#utility.yul\":39620:39622   */\n      0x14\n        /* \"#utility.yul\":39615:39618   */\n      dup3\n        /* \"#utility.yul\":39611:39623   */\n      add\n        /* \"#utility.yul\":39604:39623   */\n      swap2\n      pop\n        /* \"#utility.yul\":39633:39708   */\n      tag_725\n        /* \"#utility.yul\":39704:39707   */\n      dup3\n        /* \"#utility.yul\":39695:39701   */\n      dup5\n        /* \"#utility.yul\":39633:39708   */\n      tag_410\n      jump\t// in\n    tag_725:\n        /* \"#utility.yul\":39733:39735   */\n      0x20\n        /* \"#utility.yul\":39728:39731   */\n      dup3\n        /* \"#utility.yul\":39724:39736   */\n      add\n        /* \"#utility.yul\":39717:39736   */\n      swap2\n      pop\n        /* \"#utility.yul\":39753:39756   */\n      dup2\n        /* \"#utility.yul\":39746:39756   */\n      swap1\n      pop\n        /* \"#utility.yul\":39365:39762   */\n      swap4\n      swap3\n      pop\n      pop\n      pop\n      jump\t// out\n        /* \"#utility.yul\":39768:40079   */\n    tag_411:\n        /* \"#utility.yul\":39908:39942   */\n      0x53657276697665436f6e74726163742d6765744163636f756e74427941646472\n        /* \"#utility.yul\":39904:39905   */\n      0x00\n        /* \"#utility.yul\":39896:39902   */\n      dup3\n        /* \"#utility.yul\":39892:39906   */\n      add\n        /* \"#utility.yul\":39885:39943   */\n      mstore\n        /* \"#utility.yul\":39977:40011   */\n      0x6573733a20546865206164646572737320796f752077616e7420746f20676574\n        /* \"#utility.yul\":39972:39974   */\n      0x20\n        /* \"#utility.yul\":39964:39970   */\n      dup3\n        /* \"#utility.yul\":39960:39975   */\n      add\n        /* \"#utility.yul\":39953:40012   */\n      mstore\n        /* \"#utility.yul\":40046:40071   */\n      0x206163636f756e7420206861736e2774206a6f696e6564000000000000000000\n        /* \"#utility.yul\":40041:40043   */\n      0x40\n        /* \"#utility.yul\":40033:40039   */\n      dup3\n        /* \"#utility.yul\":40029:40044   */\n      add\n        /* \"#utility.yul\":40022:40072   */\n      mstore\n        /* \"#utility.yul\":39768:40079   */\n      pop\n      jump\t// out\n        /* \"#utility.yul\":40085:40451   */\n    tag_412:\n        /* \"#utility.yul\":40227:40230   */\n      0x00\n        /* \"#utility.yul\":40248:40315   */\n      tag_728\n        /* \"#utility.yul\":40312:40314   */\n      0x57\n        /* \"#utility.yul\":40307:40310   */\n      dup4\n        /* \"#utility.yul\":40248:40315   */\n      tag_368\n      jump\t// in\n    tag_728:\n        /* \"#utility.yul\":40241:40315   */\n      swap2\n      pop\n        /* \"#utility.yul\":40324:40417   */\n      tag_729\n        /* \"#utility.yul\":40413:40416   */\n      dup3\n        /* \"#utility.yul\":40324:40417   */\n      tag_411\n      jump\t// in\n    tag_729:\n        /* \"#utility.yul\":40442:40444   */\n      0x60\n        /* \"#utility.yul\":40437:40440   */\n      dup3\n        /* \"#utility.yul\":40433:40445   */\n      add\n        /* \"#utility.yul\":40426:40445   */\n      swap1\n      pop\n        /* \"#utility.yul\":40085:40451   */\n      swap2\n      swap1\n      pop\n      jump\t// out\n        /* \"#utility.yul\":40457:40876   */\n    tag_227:\n        /* \"#utility.yul\":40623:40627   */\n      0x00\n        /* \"#utility.yul\":40661:40663   */\n      0x20\n        /* \"#utility.yul\":40650:40659   */\n      dup3\n        /* \"#utility.yul\":40646:40664   */\n      add\n        /* \"#utility.yul\":40638:40664   */\n      swap1\n      pop\n        /* \"#utility.yul\":40710:40719   */\n      dup2\n        /* \"#utility.yul\":40704:40708   */\n      dup2\n        /* \"#utility.yul\":40700:40720   */\n      sub\n        /* \"#utility.yul\":40696:40697   */\n      0x00\n        /* \"#utility.yul\":40685:40694   */\n      dup4\n        /* \"#utility.yul\":40681:40698   */\n      add\n        /* \"#utility.yul\":40674:40721   */\n      mstore\n        /* \"#utility.yul\":40738:40869   */\n      tag_731\n        /* \"#utility.yul\":40864:40868   */\n      dup2\n        /* \"#utility.yul\":40738:40869   */\n      tag_412\n      jump\t// in\n    tag_731:\n        /* \"#utility.yul\":40730:40869   */\n      swap1\n      pop\n        /* \"#utility.yul\":40457:40876   */\n      swap2\n      swap1\n      pop\n      jump\t// out\n        /* \"#utility.yul\":40882:41062   */\n    tag_413:\n        /* \"#utility.yul\":40930:41007   */\n      0x4e487b7100000000000000000000000000000000000000000000000000000000\n        /* \"#utility.yul\":40927:40928   */\n      0x00\n        /* \"#utility.yul\":40920:41008   */\n      mstore\n        /* \"#utility.yul\":41027:41031   */\n      0x22\n        /* \"#utility.yul\":41024:41025   */\n      0x04\n        /* \"#utility.yul\":41017:41032   */\n      mstore\n        /* \"#utility.yul\":41051:41055   */\n      0x24\n        /* \"#utility.yul\":41048:41049   */\n      0x00\n        /* \"#utility.yul\":41041:41056   */\n      revert\n        /* \"#utility.yul\":41068:41388   */\n    tag_254:\n        /* \"#utility.yul\":41112:41118   */\n      0x00\n        /* \"#utility.yul\":41149:41150   */\n      0x02\n        /* \"#utility.yul\":41143:41147   */\n      dup3\n        /* \"#utility.yul\":41139:41151   */\n      div\n        /* \"#utility.yul\":41129:41151   */\n      swap1\n      pop\n        /* \"#utility.yul\":41196:41197   */\n      0x01\n        /* \"#utility.yul\":41190:41194   */\n      dup3\n        /* \"#utility.yul\":41186:41198   */\n      and\n        /* \"#utility.yul\":41217:41235   */\n      dup1\n        /* \"#utility.yul\":41207:41288   */\n      tag_734\n      jumpi\n        /* \"#utility.yul\":41273:41277   */\n      0x7f\n        /* \"#utility.yul\":41265:41271   */\n      dup3\n        /* \"#utility.yul\":41261:41278   */\n      and\n        /* \"#utility.yul\":41251:41278   */\n      swap2\n      pop\n        /* \"#utility.yul\":41207:41288   */\n    tag_734:\n        /* \"#utility.yul\":41335:41337   */\n      0x20\n        /* \"#utility.yul\":41327:41333   */\n      dup3\n        /* \"#utility.yul\":41324:41338   */\n      lt\n        /* \"#utility.yul\":41304:41322   */\n      dup2\n        /* \"#utility.yul\":41301:41339   */\n      sub\n        /* \"#utility.yul\":41298:41382   */\n      tag_735\n      jumpi\n        /* \"#utility.yul\":41354:41372   */\n      tag_736\n      tag_413\n      jump\t// in\n    tag_736:\n        /* \"#utility.yul\":41298:41382   */\n    tag_735:\n        /* \"#utility.yul\":41119:41388   */\n      pop\n        /* \"#utility.yul\":41068:41388   */\n      swap2\n      swap1\n      pop\n      jump\t// out\n        /* \"#utility.yul\":41394:41535   */\n    tag_414:\n        /* \"#utility.yul\":41443:41447   */\n      0x00\n        /* \"#utility.yul\":41466:41469   */\n      dup2\n        /* \"#utility.yul\":41458:41469   */\n      swap1\n      pop\n        /* \"#utility.yul\":41489:41492   */\n      dup2\n        /* \"#utility.yul\":41486:41487   */\n      0x00\n        /* \"#utility.yul\":41479:41493   */\n      mstore\n        /* \"#utility.yul\":41523:41527   */\n      0x20\n        /* \"#utility.yul\":41520:41521   */\n      0x00\n        /* \"#utility.yul\":41510:41528   */\n      keccak256\n        /* \"#utility.yul\":41502:41528   */\n      swap1\n      pop\n        /* \"#utility.yul\":41394:41535   */\n      swap2\n      swap1\n      pop\n      jump\t// out\n        /* \"#utility.yul\":41541:41634   */\n    tag_415:\n        /* \"#utility.yul\":41578:41584   */\n      0x00\n        /* \"#utility.yul\":41625:41627   */\n      0x20\n        /* \"#utility.yul\":41620:41622   */\n      0x1f\n        /* \"#utility.yul\":41613:41618   */\n      dup4\n        /* \"#utility.yul\":41609:41623   */\n      add\n        /* \"#utility.yul\":41605:41628   */\n      div\n        /* \"#utility.yul\":41595:41628   */\n      swap1\n      pop\n        /* \"#utility.yul\":41541:41634   */\n      swap2\n      swap1\n      pop\n      jump\t// out\n        /* \"#utility.yul\":41640:41747   */\n    tag_416:\n        /* \"#utility.yul\":41684:41692   */\n      0x00\n        /* \"#utility.yul\":41734:41739   */\n      dup3\n        /* \"#utility.yul\":41728:41732   */\n      dup3\n        /* \"#utility.yul\":41724:41740   */\n      shl\n        /* \"#utility.yul\":41703:41740   */\n      swap1\n      pop\n        /* \"#utility.yul\":41640:41747   */\n      swap3\n      swap2\n      pop\n      pop\n      jump\t// out\n        /* \"#utility.yul\":41753:42146   */\n    tag_417:\n        /* \"#utility.yul\":41822:41828   */\n      0x00\n        /* \"#utility.yul\":41872:41873   */\n      0x08\n        /* \"#utility.yul\":41860:41870   */\n      dup4\n        /* \"#utility.yul\":41856:41874   */\n      mul\n        /* \"#utility.yul\":41895:41992   */\n      tag_741\n        /* \"#utility.yul\":41925:41991   */\n      0xffffffffffffffffffffffffffffffffffffffffffffffffffffffffffffffff\n        /* \"#utility.yul\":41914:41923   */\n      dup3\n        /* \"#utility.yul\":41895:41992   */\n      tag_416\n      jump\t// in\n    tag_741:\n        /* \"#utility.yul\":42013:42052   */\n      tag_742\n        /* \"#utility.yul\":42043:42051   */\n      dup7\n        /* \"#utility.yul\":42032:42041   */\n      dup4\n        /* \"#utility.yul\":42013:42052   */\n      tag_416\n      jump\t// in\n    tag_742:\n        /* \"#utility.yul\":42001:42052   */\n      swap6\n      pop\n        /* \"#utility.yul\":42085:42089   */\n      dup1\n        /* \"#utility.yul\":42081:42090   */\n      not\n        /* \"#utility.yul\":42074:42079   */\n      dup5\n        /* \"#utility.yul\":42070:42091   */\n      and\n        /* \"#utility.yul\":42061:42091   */\n      swap4\n      pop\n        /* \"#utility.yul\":42134:42138   */\n      dup1\n        /* \"#utility.yul\":42124:42132   */\n      dup7\n        /* \"#utility.yul\":42120:42139   */\n      and\n        /* \"#utility.yul\":42113:42118   */\n      dup5\n        /* \"#utility.yul\":42110:42140   */\n      or\n        /* \"#utility.yul\":42100:42140   */\n      swap3\n      pop\n        /* \"#utility.yul\":41829:42146   */\n      pop\n      pop\n        /* \"#utility.yul\":41753:42146   */\n      swap4\n      swap3\n      pop\n      pop\n      pop\n      jump\t// out\n        /* \"#utility.yul\":42152:42212   */\n    tag_418:\n        /* \"#utility.yul\":42180:42183   */\n      0x00\n        /* \"#utility.yul\":42201:42206   */\n      dup2\n        /* \"#utility.yul\":42194:42206   */\n      swap1\n      pop\n        /* \"#utility.yul\":42152:42212   */\n      swap2\n      swap1\n      pop\n      jump\t// out\n        /* \"#utility.yul\":42218:42360   */\n    tag_419:\n        /* \"#utility.yul\":42268:42277   */\n      0x00\n        /* \"#utility.yul\":42301:42354   */\n      tag_745\n        /* \"#utility.yul\":42319:42353   */\n      tag_746\n        /* \"#utility.yul\":42328:42352   */\n      tag_747\n        /* \"#utility.yul\":42346:42351   */\n      dup5\n        /* \"#utility.yul\":42328:42352   */\n      tag_331\n      jump\t// in\n    tag_747:\n        /* \"#utility.yul\":42319:42353   */\n      tag_418\n      jump\t// in\n    tag_746:\n        /* \"#utility.yul\":42301:42354   */\n      tag_331\n      jump\t// in\n    tag_745:\n        /* \"#utility.yul\":42288:42354   */\n      swap1\n      pop\n        /* \"#utility.yul\":42218:42360   */\n      swap2\n      swap1\n      pop\n      jump\t// out\n        /* \"#utility.yul\":42366:42441   */\n    tag_420:\n        /* \"#utility.yul\":42409:42412   */\n      0x00\n        /* \"#utility.yul\":42430:42435   */\n      dup2\n        /* \"#utility.yul\":42423:42435   */\n      swap1\n      pop\n        /* \"#utility.yul\":42366:42441   */\n      swap2\n      swap1\n      pop\n      jump\t// out\n        /* \"#utility.yul\":42447:42716   */\n    tag_421:\n        /* \"#utility.yul\":42557:42596   */\n      tag_750\n        /* \"#utility.yul\":42588:42595   */\n      dup4\n        /* \"#utility.yul\":42557:42596   */\n      tag_419\n      jump\t// in\n    tag_750:\n        /* \"#utility.yul\":42618:42709   */\n      tag_751\n        /* \"#utility.yul\":42667:42708   */\n      tag_752\n        /* \"#utility.yul\":42691:42707   */\n      dup3\n        /* \"#utility.yul\":42667:42708   */\n      tag_420\n      jump\t// in\n    tag_752:\n        /* \"#utility.yul\":42659:42665   */\n      dup5\n        /* \"#utility.yul\":42652:42656   */\n      dup5\n        /* \"#utility.yul\":42646:42657   */\n      sload\n        /* \"#utility.yul\":42618:42709   */\n      tag_417\n      jump\t// in\n    tag_751:\n        /* \"#utility.yul\":42612:42616   */\n      dup3\n        /* \"#utility.yul\":42605:42710   */\n      sstore\n        /* \"#utility.yul\":42523:42716   */\n      pop\n        /* \"#utility.yul\":42447:42716   */\n      pop\n      pop\n      pop\n      jump\t// out\n        /* \"#utility.yul\":42722:42795   */\n    tag_422:\n        /* \"#utility.yul\":42767:42770   */\n      0x00\n        /* \"#utility.yul\":42722:42795   */\n      swap1\n      jump\t// out\n        /* \"#utility.yul\":42801:42990   */\n    tag_423:\n        /* \"#utility.yul\":42878:42910   */\n      tag_755\n      tag_422\n      jump\t// in\n    tag_755:\n        /* \"#utility.yul\":42919:42984   */\n      tag_756\n        /* \"#utility.yul\":42977:42983   */\n      dup2\n        /* \"#utility.yul\":42969:42975   */\n      dup5\n        /* \"#utility.yul\":42963:42967   */\n      dup5\n        /* \"#utility.yul\":42919:42984   */\n      tag_421\n      jump\t// in\n    tag_756:\n        /* \"#utility.yul\":42854:42990   */\n      pop\n        /* \"#utility.yul\":42801:42990   */\n      pop\n      pop\n      jump\t// out\n        /* \"#utility.yul\":42996:43182   */\n    tag_424:\n        /* \"#utility.yul\":43056:43176   */\n    tag_758:\n        /* \"#utility.yul\":43073:43076   */\n      dup2\n        /* \"#utility.yul\":43066:43071   */\n      dup2\n        /* \"#utility.yul\":43063:43077   */\n      lt\n        /* \"#utility.yul\":43056:43176   */\n      iszero\n      tag_760\n      jumpi\n        /* \"#utility.yul\":43127:43166   */\n      tag_761\n        /* \"#utility.yul\":43164:43165   */\n      0x00\n        /* \"#utility.yul\":43157:43162   */\n      dup3\n        /* \"#utility.yul\":43127:43166   */\n      tag_423\n      jump\t// in\n    tag_761:\n        /* \"#utility.yul\":43100:43101   */\n      0x01\n        /* \"#utility.yul\":43093:43098   */\n      dup2\n        /* \"#utility.yul\":43089:43102   */\n      add\n        /* \"#utility.yul\":43080:43102   */\n      swap1\n      pop\n        /* \"#utility.yul\":43056:43176   */\n      jump(tag_758)\n    tag_760:\n        /* \"#utility.yul\":42996:43182   */\n      pop\n      pop\n      jump\t// out\n        /* \"#utility.yul\":43188:43731   */\n    tag_425:\n        /* \"#utility.yul\":43289:43291   */\n      0x1f\n        /* \"#utility.yul\":43284:43287   */\n      dup3\n        /* \"#utility.yul\":43281:43292   */\n      gt\n        /* \"#utility.yul\":43278:43724   */\n      iszero\n      tag_763\n      jumpi\n        /* \"#utility.yul\":43323:43361   */\n      tag_764\n        /* \"#utility.yul\":43355:43360   */\n      dup2\n        /* \"#utility.yul\":43323:43361   */\n      tag_414\n      jump\t// in\n    tag_764:\n        /* \"#utility.yul\":43407:43436   */\n      tag_765\n        /* \"#utility.yul\":43425:43435   */\n      dup5\n        /* \"#utility.yul\":43407:43436   */\n      tag_415\n      jump\t// in\n    tag_765:\n        /* \"#utility.yul\":43397:43405   */\n      dup2\n        /* \"#utility.yul\":43393:43437   */\n      add\n        /* \"#utility.yul\":43590:43592   */\n      0x20\n        /* \"#utility.yul\":43578:43588   */\n      dup6\n        /* \"#utility.yul\":43575:43593   */\n      lt\n        /* \"#utility.yul\":43572:43621   */\n      iszero\n      tag_766\n      jumpi\n        /* \"#utility.yul\":43611:43619   */\n      dup2\n        /* \"#utility.yul\":43596:43619   */\n      swap1\n      pop\n        /* \"#utility.yul\":43572:43621   */\n    tag_766:\n        /* \"#utility.yul\":43634:43714   */\n      tag_767\n        /* \"#utility.yul\":43690:43712   */\n      tag_768\n        /* \"#utility.yul\":43708:43711   */\n      dup6\n        /* \"#utility.yul\":43690:43712   */\n      tag_415\n      jump\t// in\n    tag_768:\n        /* \"#utility.yul\":43680:43688   */\n      dup4\n        /* \"#utility.yul\":43676:43713   */\n      add\n        /* \"#utility.yul\":43663:43674   */\n      dup3\n        /* \"#utility.yul\":43634:43714   */\n      tag_424\n      jump\t// in\n    tag_767:\n        /* \"#utility.yul\":43293:43724   */\n      pop\n      pop\n        /* \"#utility.yul\":43278:43724   */\n    tag_763:\n        /* \"#utility.yul\":43188:43731   */\n      pop\n      pop\n      pop\n      jump\t// out\n        /* \"#utility.yul\":43737:43854   */\n    tag_426:\n        /* \"#utility.yul\":43791:43799   */\n      0x00\n        /* \"#utility.yul\":43841:43846   */\n      dup3\n        /* \"#utility.yul\":43835:43839   */\n      dup3\n        /* \"#utility.yul\":43831:43847   */\n      shr\n        /* \"#utility.yul\":43810:43847   */\n      swap1\n      pop\n        /* \"#utility.yul\":43737:43854   */\n      swap3\n      swap2\n      pop\n      pop\n      jump\t// out\n        /* \"#utility.yul\":43860:44029   */\n    tag_427:\n        /* \"#utility.yul\":43904:43910   */\n      0x00\n        /* \"#utility.yul\":43937:43988   */\n      tag_771\n        /* \"#utility.yul\":43985:43986   */\n      0x00\n        /* \"#utility.yul\":43981:43987   */\n      not\n        /* \"#utility.yul\":43973:43978   */\n      dup5\n        /* \"#utility.yul\":43970:43971   */\n      0x08\n        /* \"#utility.yul\":43966:43979   */\n      mul\n        /* \"#utility.yul\":43937:43988   */\n      tag_426\n      jump\t// in\n    tag_771:\n        /* \"#utility.yul\":43933:43989   */\n      not\n        /* \"#utility.yul\":44018:44022   */\n      dup1\n        /* \"#utility.yul\":44012:44016   */\n      dup4\n        /* \"#utility.yul\":44008:44023   */\n      and\n        /* \"#utility.yul\":43998:44023   */\n      swap2\n      pop\n        /* \"#utility.yul\":43911:44029   */\n      pop\n        /* \"#utility.yul\":43860:44029   */\n      swap3\n      swap2\n      pop\n      pop\n      jump\t// out\n        /* \"#utility.yul\":44034:44329   */\n    tag_428:\n        /* \"#utility.yul\":44110:44114   */\n      0x00\n        /* \"#utility.yul\":44256:44285   */\n      tag_773\n        /* \"#utility.yul\":44281:44284   */\n      dup4\n        /* \"#utility.yul\":44275:44279   */\n      dup4\n        /* \"#utility.yul\":44256:44285   */\n      tag_427\n      jump\t// in\n    tag_773:\n        /* \"#utility.yul\":44248:44285   */\n      swap2\n      pop\n        /* \"#utility.yul\":44318:44321   */\n      dup3\n        /* \"#utility.yul\":44315:44316   */\n      0x02\n        /* \"#utility.yul\":44311:44322   */\n      mul\n        /* \"#utility.yul\":44305:44309   */\n      dup3\n        /* \"#utility.yul\":44302:44323   */\n      or\n        /* \"#utility.yul\":44294:44323   */\n      swap1\n      pop\n        /* \"#utility.yul\":44034:44329   */\n      swap3\n      swap2\n      pop\n      pop\n      jump\t// out\n        /* \"#utility.yul\":44334:45729   */\n    tag_234:\n        /* \"#utility.yul\":44451:44488   */\n      tag_775\n        /* \"#utility.yul\":44484:44487   */\n      dup3\n        /* \"#utility.yul\":44451:44488   */\n      tag_342\n      jump\t// in\n    tag_775:\n        /* \"#utility.yul\":44553:44571   */\n      0xffffffffffffffff\n        /* \"#utility.yul\":44545:44551   */\n      dup2\n        /* \"#utility.yul\":44542:44572   */\n      gt\n        /* \"#utility.yul\":44539:44595   */\n      iszero\n      tag_776\n      jumpi\n        /* \"#utility.yul\":44575:44593   */\n      tag_777\n      tag_324\n      jump\t// in\n    tag_777:\n        /* \"#utility.yul\":44539:44595   */\n    tag_776:\n        /* \"#utility.yul\":44619:44657   */\n      tag_778\n        /* \"#utility.yul\":44651:44655   */\n      dup3\n        /* \"#utility.yul\":44645:44656   */\n      sload\n        /* \"#utility.yul\":44619:44657   */\n      tag_254\n      jump\t// in\n    tag_778:\n        /* \"#utility.yul\":44704:44771   */\n      tag_779\n        /* \"#utility.yul\":44764:44770   */\n      dup3\n        /* \"#utility.yul\":44756:44762   */\n      dup3\n        /* \"#utility.yul\":44750:44754   */\n      dup6\n        /* \"#utility.yul\":44704:44771   */\n      tag_425\n      jump\t// in\n    tag_779:\n        /* \"#utility.yul\":44798:44799   */\n      0x00\n        /* \"#utility.yul\":44822:44826   */\n      0x20\n        /* \"#utility.yul\":44809:44826   */\n      swap1\n      pop\n        /* \"#utility.yul\":44854:44856   */\n      0x1f\n        /* \"#utility.yul\":44846:44852   */\n      dup4\n        /* \"#utility.yul\":44843:44857   */\n      gt\n        /* \"#utility.yul\":44871:44872   */\n      0x01\n        /* \"#utility.yul\":44866:45484   */\n      dup2\n      eq\n      tag_781\n      jumpi\n        /* \"#utility.yul\":45528:45529   */\n      0x00\n        /* \"#utility.yul\":45545:45551   */\n      dup5\n        /* \"#utility.yul\":45542:45619   */\n      iszero\n      tag_782\n      jumpi\n        /* \"#utility.yul\":45594:45603   */\n      dup3\n        /* \"#utility.yul\":45589:45592   */\n      dup8\n        /* \"#utility.yul\":45585:45604   */\n      add\n        /* \"#utility.yul\":45579:45605   */\n      mload\n        /* \"#utility.yul\":45570:45605   */\n      swap1\n      pop\n        /* \"#utility.yul\":45542:45619   */\n    tag_782:\n        /* \"#utility.yul\":45645:45712   */\n      tag_783\n        /* \"#utility.yul\":45705:45711   */\n      dup6\n        /* \"#utility.yul\":45698:45703   */\n      dup3\n        /* \"#utility.yul\":45645:45712   */\n      tag_428\n      jump\t// in\n    tag_783:\n        /* \"#utility.yul\":45639:45643   */\n      dup7\n        /* \"#utility.yul\":45632:45713   */\n      sstore\n        /* \"#utility.yul\":45501:45723   */\n      pop\n        /* \"#utility.yul\":44836:45723   */\n      jump(tag_780)\n        /* \"#utility.yul\":44866:45484   */\n    tag_781:\n        /* \"#utility.yul\":44918:44922   */\n      0x1f\n        /* \"#utility.yul\":44914:44923   */\n      not\n        /* \"#utility.yul\":44906:44912   */\n      dup5\n        /* \"#utility.yul\":44902:44924   */\n      and\n        /* \"#utility.yul\":44952:44989   */\n      tag_784\n        /* \"#utility.yul\":44984:44988   */\n      dup7\n        /* \"#utility.yul\":44952:44989   */\n      tag_414\n      jump\t// in\n    tag_784:\n        /* \"#utility.yul\":45011:45012   */\n      0x00\n        /* \"#utility.yul\":45025:45233   */\n    tag_785:\n        /* \"#utility.yul\":45039:45046   */\n      dup3\n        /* \"#utility.yul\":45036:45037   */\n      dup2\n        /* \"#utility.yul\":45033:45047   */\n      lt\n        /* \"#utility.yul\":45025:45233   */\n      iszero\n      tag_787\n      jumpi\n        /* \"#utility.yul\":45118:45127   */\n      dup5\n        /* \"#utility.yul\":45113:45116   */\n      dup10\n        /* \"#utility.yul\":45109:45128   */\n      add\n        /* \"#utility.yul\":45103:45129   */\n      mload\n        /* \"#utility.yul\":45095:45101   */\n      dup3\n        /* \"#utility.yul\":45088:45130   */\n      sstore\n        /* \"#utility.yul\":45169:45170   */\n      0x01\n        /* \"#utility.yul\":45161:45167   */\n      dup3\n        /* \"#utility.yul\":45157:45171   */\n      add\n        /* \"#utility.yul\":45147:45171   */\n      swap2\n      pop\n        /* \"#utility.yul\":45216:45218   */\n      0x20\n        /* \"#utility.yul\":45205:45214   */\n      dup6\n        /* \"#utility.yul\":45201:45219   */\n      add\n        /* \"#utility.yul\":45188:45219   */\n      swap5\n      pop\n        /* \"#utility.yul\":45062:45066   */\n      0x20\n        /* \"#utility.yul\":45059:45060   */\n      dup2\n        /* \"#utility.yul\":45055:45067   */\n      add\n        /* \"#utility.yul\":45050:45067   */\n      swap1\n      pop\n        /* \"#utility.yul\":45025:45233   */\n      jump(tag_785)\n    tag_787:\n        /* \"#utility.yul\":45261:45267   */\n      dup7\n        /* \"#utility.yul\":45252:45259   */\n      dup4\n        /* \"#utility.yul\":45249:45268   */\n      lt\n        /* \"#utility.yul\":45246:45425   */\n      iszero\n      tag_788\n      jumpi\n        /* \"#utility.yul\":45319:45328   */\n      dup5\n        /* \"#utility.yul\":45314:45317   */\n      dup10\n        /* \"#utility.yul\":45310:45329   */\n      add\n        /* \"#utility.yul\":45304:45330   */\n      mload\n        /* \"#utility.yul\":45362:45410   */\n      tag_789\n        /* \"#utility.yul\":45404:45408   */\n      0x1f\n        /* \"#utility.yul\":45396:45402   */\n      dup10\n        /* \"#utility.yul\":45392:45409   */\n      and\n        /* \"#utility.yul\":45381:45390   */\n      dup3\n        /* \"#utility.yul\":45362:45410   */\n      tag_427\n      jump\t// in\n    tag_789:\n        /* \"#utility.yul\":45354:45360   */\n      dup4\n        /* \"#utility.yul\":45347:45411   */\n      sstore\n        /* \"#utility.yul\":45269:45425   */\n      pop\n        /* \"#utility.yul\":45246:45425   */\n    tag_788:\n        /* \"#utility.yul\":45471:45472   */\n      0x01\n        /* \"#utility.yul\":45467:45468   */\n      0x02\n        /* \"#utility.yul\":45459:45465   */\n      dup9\n        /* \"#utility.yul\":45455:45469   */\n      mul\n        /* \"#utility.yul\":45451:45473   */\n      add\n        /* \"#utility.yul\":45445:45449   */\n      dup9\n        /* \"#utility.yul\":45438:45474   */\n      sstore\n        /* \"#utility.yul\":44873:45484   */\n      pop\n      pop\n      pop\n        /* \"#utility.yul\":44836:45723   */\n    tag_780:\n      pop\n        /* \"#utility.yul\":44426:45729   */\n      pop\n      pop\n      pop\n        /* \"#utility.yul\":44334:45729   */\n      pop\n      pop\n      jump\t// out\n        /* \"#utility.yul\":45735:45915   */\n    tag_270:\n        /* \"#utility.yul\":45783:45860   */\n      0x4e487b7100000000000000000000000000000000000000000000000000000000\n        /* \"#utility.yul\":45780:45781   */\n      0x00\n        /* \"#utility.yul\":45773:45861   */\n      mstore\n        /* \"#utility.yul\":45880:45884   */\n      0x32\n        /* \"#utility.yul\":45877:45878   */\n      0x04\n        /* \"#utility.yul\":45870:45885   */\n      mstore\n        /* \"#utility.yul\":45904:45908   */\n      0x24\n        /* \"#utility.yul\":45901:45902   */\n      0x00\n        /* \"#utility.yul\":45894:45909   */\n      revert\n        /* \"#utility.yul\":45921:46101   */\n    tag_429:\n        /* \"#utility.yul\":45969:46046   */\n      0x4e487b7100000000000000000000000000000000000000000000000000000000\n        /* \"#utility.yul\":45966:45967   */\n      0x00\n        /* \"#utility.yul\":45959:46047   */\n      mstore\n        /* \"#utility.yul\":46066:46070   */\n      0x11\n        /* \"#utility.yul\":46063:46064   */\n      0x04\n        /* \"#utility.yul\":46056:46071   */\n      mstore\n        /* \"#utility.yul\":46090:46094   */\n      0x24\n        /* \"#utility.yul\":46087:46088   */\n      0x00\n        /* \"#utility.yul\":46080:46095   */\n      revert\n        /* \"#utility.yul\":46107:46340   */\n    tag_274:\n        /* \"#utility.yul\":46146:46149   */\n      0x00\n        /* \"#utility.yul\":46169:46193   */\n      tag_793\n        /* \"#utility.yul\":46187:46192   */\n      dup3\n        /* \"#utility.yul\":46169:46193   */\n      tag_331\n      jump\t// in\n    tag_793:\n        /* \"#utility.yul\":46160:46193   */\n      swap2\n      pop\n        /* \"#utility.yul\":46215:46281   */\n      0xffffffffffffffffffffffffffffffffffffffffffffffffffffffffffffffff\n        /* \"#utility.yul\":46208:46213   */\n      dup3\n        /* \"#utility.yul\":46205:46282   */\n      sub\n        /* \"#utility.yul\":46202:46305   */\n      tag_794\n      jumpi\n        /* \"#utility.yul\":46285:46303   */\n      tag_795\n      tag_429\n      jump\t// in\n    tag_795:\n        /* \"#utility.yul\":46202:46305   */\n    tag_794:\n        /* \"#utility.yul\":46332:46333   */\n      0x01\n        /* \"#utility.yul\":46325:46330   */\n      dup3\n        /* \"#utility.yul\":46321:46334   */\n      add\n        /* \"#utility.yul\":46314:46334   */\n      swap1\n      pop\n        /* \"#utility.yul\":46107:46340   */\n      swap2\n      swap1\n      pop\n      jump\t// out\n\n    auxdata: 0xa2646970667358221220a1e01eba5233aa849727c06d8350486fc2298f6a1a8b22cec7bf739c913214d964736f6c63430008120033\n}\n",
				"bytecode": {
					"linkReferences": {},
					"object": "608060405234801561001057600080fd5b5033600a60006101000a81548173ffffffffffffffffffffffffffffffffffffffff021916908373ffffffffffffffffffffffffffffffffffffffff1602179055506139ad806100616000396000f3fe608060405234801561001057600080fd5b50600436106100ea5760003560e01c80637a51837f1161008c5780639ce5b59f116100665780639ce5b59f1461027f578063d7e0791614610289578063f38586b7146102b9578063fd04ffef146102e9576100ea565b80637a51837f146101ef57806384e002651461021f57806388caf28d1461024f576100ea565b806333bc1b91116100c857806333bc1b91146101575780635065ebe3146101875780636791fd6b146101a35780636df0afa9146101bf576100ea565b8063063d0f81146100ef57806313447fbd1461010b5780631847a4a414610127575b600080fd5b6101096004803603810190610104919061225c565b610307565b005b61012560048036038101906101209190612345565b61034d565b005b610141600480360381019061013c91906123b4565b610392565b60405161014e91906125a3565b60405180910390f35b610171600480360381019061016c91906125c5565b6103a6565b60405161017e91906126a1565b60405180910390f35b6101a1600480360381019061019c9190612345565b6103b8565b005b6101bd60048036038101906101b891906126c3565b6103fd565b005b6101d960048036038101906101d491906125c5565b610442565b6040516101e691906127f9565b60405180910390f35b610209600480360381019061020491906125c5565b610495565b60405161021691906126a1565b60405180910390f35b610239600480360381019061023491906125c5565b6104a7565b60405161024691906127f9565b60405180910390f35b610269600480360381019061026491906125c5565b6104fa565b60405161027691906126a1565b60405180910390f35b61028761050c565b005b6102a3600480360381019061029e91906125c5565b61054d565b6040516102b09190612947565b60405180910390f35b6102d360048036038101906102ce91906125c5565b61055f565b6040516102e09190612978565b60405180910390f35b6102f16105ab565b6040516102fe9190612978565b60405180910390f35b610313338484846105f5565b7f152b777a0558316496d3cf44d3b429642341d714279a563874bf32a0cfd2c1d160405161034090612a16565b60405180910390a1505050565b61035883838361065a565b7ff51cdf4aeec662ff29950ccbda3387fd0040bf6c6a8e9d378e4f15c9afc381d360405161038590612aa8565b60405180910390a1505050565b606061039e8383610770565b905092915050565b60606103b182610784565b9050919050565b6103c3838383610796565b7f34219118484756c593289e0014eec1e43e32f138cee0b9df592418c3239832476040516103f090612b3a565b60405180910390a1505050565b6104088383836107ef565b7fe6bf02b841d3e0738923d75fe8456f6dcfa21cf402094fca5ce12d85f208899460405161043590612bcc565b60405180910390a1505050565b61044a61207c565b6000610455836107ff565b90507f9edc4c061d3a37fa170bea063bed2cd1e1198da759216bfcdf59d74c5ce8dc1460405161048490612c5e565b60405180910390a180915050919050565b60606104a0826108b5565b9050919050565b6104af61207c565b60006104ba836108c7565b90507f81fcf8fee9f0c6d964f962ebc504306a43e721e48647a6fed58ab7258cab91d36040516104e990612cf0565b60405180910390a180915050919050565b606061050582610927565b9050919050565b61051533610939565b507ffd23d12f0075880244a707584c07c74c3ee39e37b4c9fb038b97a39e278b73bc60405161054390612d82565b60405180910390a1565b6060610558826109c8565b9050919050565b60008061056b836109da565b90507fde833ac95bd532fc1024dae78cf2b0b9f0267b902826e4e4db4259d4084a169460405161059a90612e14565b60405180910390a180915050919050565b6000806105b7336109da565b90507f58f6cac518b0f408b2ee263a6a7036e8e213858b88c83ba49d4acf5d563b8cd06040516105e690612ea6565b60405180910390a18091505090565b6105fe84610a34565b61063d576040517f08c379a000000000000000000000000000000000000000000000000000000000815260040161063490612f5e565b60405180910390fd5b61064984848484610ada565b610654846001610c98565b50505050565b600083905061066883610d5a565b6106a7576040517f08c379a000000000000000000000000000000000000000000000000000000000815260040161069e90612ff0565b60405180910390fd5b8073ffffffffffffffffffffffffffffffffffffffff168373ffffffffffffffffffffffffffffffffffffffff1603610715576040517f08c379a000000000000000000000000000000000000000000000000000000000815260040161070c90613082565b60405180910390fd5b61071f8184610e64565b1561075f576040517f08c379a000000000000000000000000000000000000000000000000000000000815260040161075690613114565b60405180910390fd5b61076a818484610faf565b50505050565b606061077c8383611200565b905092915050565b606061078f826113ce565b9050919050565b6107a08383610e64565b6107df576040517f08c379a00000000000000000000000000000000000000000000000000000000081526004016107d6906131cc565b60405180910390fd5b6107ea83838361149b565b505050565b6107fa83838361179c565b505050565b61080761207c565b61081082610a34565b61084f576040517f08c379a000000000000000000000000000000000000000000000000000000000815260040161084690613284565b60405180910390fd5b6108588261188b565b610897576040517f08c379a000000000000000000000000000000000000000000000000000000000815260040161088e9061333c565b60405180910390fd5b60006108a2836119fa565b90506108ad81611a67565b915050919050565b60606108c082611c7a565b9050919050565b6108cf61207c565b6108d882610d5a565b610917576040517f08c379a000000000000000000000000000000000000000000000000000000000815260040161090e906133f4565b60405180910390fd5b61092082611a67565b9050919050565b606061093282611d47565b9050919050565b600061094482610a34565b15610984576040517f08c379a000000000000000000000000000000000000000000000000000000000815260040161097b90613486565b60405180910390fd5b6000334260405160200161099992919061350f565b6040516020818303038152906040528051906020012060001c90506109be8382611e14565b6001915050919050565b60606109d382611e95565b9050919050565b60006109e582610a34565b610a24576040517f08c379a0000000000000000000000000000000000000000000000000000000008152600401610a1b906135d3565b60405180910390fd5b610a2d826119fa565b9050919050565b60008073ffffffffffffffffffffffffffffffffffffffff166000808473ffffffffffffffffffffffffffffffffffffffff1673ffffffffffffffffffffffffffffffffffffffff16815260200190815260200160002060009054906101000a900473ffffffffffffffffffffffffffffffffffffffff1673ffffffffffffffffffffffffffffffffffffffff1614610ad05760019050610ad5565b600090505b919050565b60008060008673ffffffffffffffffffffffffffffffffffffffff1673ffffffffffffffffffffffffffffffffffffffff16815260200190815260200160002060009054906101000a900473ffffffffffffffffffffffffffffffffffffffff169050600085905060006040518060c001604052808781526020018681526020018581526020018373ffffffffffffffffffffffffffffffffffffffff16815260200160011515815260200160001515815250905080600160008573ffffffffffffffffffffffffffffffffffffffff1673ffffffffffffffffffffffffffffffffffffffff1681526020019081526020016000206000820151816000019081610be491906137ff565b506020820151816001019081610bfa91906137ff565b506040820151816002015560608201518160030160006101000a81548173ffffffffffffffffffffffffffffffffffffffff021916908373ffffffffffffffffffffffffffffffffffffffff16021790555060808201518160030160146101000a81548160ff02191690831515021790555060a08201518160030160156101000a81548160ff02191690831515021790555090505050505050505050565b60008060008473ffffffffffffffffffffffffffffffffffffffff1673ffffffffffffffffffffffffffffffffffffffff16815260200190815260200160002060009054906101000a900473ffffffffffffffffffffffffffffffffffffffff16905081600160008373ffffffffffffffffffffffffffffffffffffffff1673ffffffffffffffffffffffffffffffffffffffff16815260200190815260200160002060030160146101000a81548160ff021916908315150217905550505050565b60008073ffffffffffffffffffffffffffffffffffffffff16600160008473ffffffffffffffffffffffffffffffffffffffff1673ffffffffffffffffffffffffffffffffffffffff16815260200190815260200160002060030160009054906101000a900473ffffffffffffffffffffffffffffffffffffffff1673ffffffffffffffffffffffffffffffffffffffff16141580610e4c575060011515600160008473ffffffffffffffffffffffffffffffffffffffff1673ffffffffffffffffffffffffffffffffffffffff16815260200190815260200160002060030160149054906101000a900460ff161515145b15610e5a5760019050610e5f565b600090505b919050565b600060011515600260008573ffffffffffffffffffffffffffffffffffffffff1673ffffffffffffffffffffffffffffffffffffffff16815260200190815260200160002060008473ffffffffffffffffffffffffffffffffffffffff1673ffffffffffffffffffffffffffffffffffffffff16815260200190815260200160002060000160009054906101000a900460ff161515148015610f96575060011515600260008473ffffffffffffffffffffffffffffffffffffffff1673ffffffffffffffffffffffffffffffffffffffff16815260200190815260200160002060008573ffffffffffffffffffffffffffffffffffffffff1673ffffffffffffffffffffffffffffffffffffffff16815260200190815260200160002060000160009054906101000a900460ff161515145b15610fa45760019050610fa9565b600090505b92915050565b6000839050604051806080016040528060011515815260200142815260200183815260200160001515815250600260008373ffffffffffffffffffffffffffffffffffffffff1673ffffffffffffffffffffffffffffffffffffffff16815260200190815260200160002060008573ffffffffffffffffffffffffffffffffffffffff1673ffffffffffffffffffffffffffffffffffffffff16815260200190815260200160002060008201518160000160006101000a81548160ff02191690831515021790555060208201518160010155604082015181600201908161109691906137ff565b5060608201518160030160006101000a81548160ff021916908315150217905550905050600360008273ffffffffffffffffffffffffffffffffffffffff1673ffffffffffffffffffffffffffffffffffffffff168152602001908152602001600020839080600181540180825580915050600190039060005260206000200160009091909190916101000a81548173ffffffffffffffffffffffffffffffffffffffff021916908373ffffffffffffffffffffffffffffffffffffffff160217905550600460008473ffffffffffffffffffffffffffffffffffffffff1673ffffffffffffffffffffffffffffffffffffffff168152602001908152602001600020819080600181540180825580915050600190039060005260206000200160009091909190916101000a81548173ffffffffffffffffffffffffffffffffffffffff021916908373ffffffffffffffffffffffffffffffffffffffff16021790555050505050565b6060600660008373ffffffffffffffffffffffffffffffffffffffff1673ffffffffffffffffffffffffffffffffffffffff16815260200190815260200160002060008473ffffffffffffffffffffffffffffffffffffffff1673ffffffffffffffffffffffffffffffffffffffff168152602001908152602001600020805480602002602001604051908101604052809291908181526020016000905b828210156113c257838290600052602060002090600302016040518060600160405290816000820160009054906101000a900473ffffffffffffffffffffffffffffffffffffffff1673ffffffffffffffffffffffffffffffffffffffff1673ffffffffffffffffffffffffffffffffffffffff16815260200160018201805461132790613622565b80601f016020809104026020016040519081016040528092919081815260200182805461135390613622565b80156113a05780601f10611375576101008083540402835291602001916113a0565b820191906000526020600020905b81548152906001019060200180831161138357829003601f168201915b505050505081526020016002820154815250508152602001906001019061129e565b50505050905092915050565b6060600360008373ffffffffffffffffffffffffffffffffffffffff1673ffffffffffffffffffffffffffffffffffffffff16815260200190815260200160002080548060200260200160405190810160405280929190818152602001828054801561148f57602002820191906000526020600020905b8160009054906101000a900473ffffffffffffffffffffffffffffffffffffffff1673ffffffffffffffffffffffffffffffffffffffff1681526020019060010190808311611445575b50505050509050919050565b600060405180606001604052808573ffffffffffffffffffffffffffffffffffffffff168152602001838152602001428152509050600660008573ffffffffffffffffffffffffffffffffffffffff1673ffffffffffffffffffffffffffffffffffffffff16815260200190815260200160002060008473ffffffffffffffffffffffffffffffffffffffff1673ffffffffffffffffffffffffffffffffffffffff16815260200190815260200160002081908060018154018082558091505060019003906000526020600020906003020160009091909190915060008201518160000160006101000a81548173ffffffffffffffffffffffffffffffffffffffff021916908373ffffffffffffffffffffffffffffffffffffffff16021790555060208201518160010190816115d291906137ff565b5060408201518160020155505060005b600760008573ffffffffffffffffffffffffffffffffffffffff1673ffffffffffffffffffffffffffffffffffffffff168152602001908152602001600020805490508110156116f4578473ffffffffffffffffffffffffffffffffffffffff16600760008673ffffffffffffffffffffffffffffffffffffffff1673ffffffffffffffffffffffffffffffffffffffff1681526020019081526020016000208281548110611694576116936138d1565b5b9060005260206000200160009054906101000a900473ffffffffffffffffffffffffffffffffffffffff1673ffffffffffffffffffffffffffffffffffffffff16036116e1575050611797565b80806116ec9061392f565b9150506115e2565b50600760008473ffffffffffffffffffffffffffffffffffffffff1673ffffffffffffffffffffffffffffffffffffffff168152602001908152602001600020849080600181540180825580915050600190039060005260206000200160009091909190916101000a81548173ffffffffffffffffffffffffffffffffffffffff021916908373ffffffffffffffffffffffffffffffffffffffff160217905550505b505050565b60006040518060800160405280848152602001838152602001428152602001600115158152509050600560008573ffffffffffffffffffffffffffffffffffffffff1673ffffffffffffffffffffffffffffffffffffffff168152602001908152602001600020819080600181540180825580915050600190039060005260206000209060040201600090919091909150600082015181600001908161184291906137ff565b50602082015181600101908161185891906137ff565b506040820151816002015560608201518160030160006101000a81548160ff021916908315150217905550505050505050565b6000806000808473ffffffffffffffffffffffffffffffffffffffff1673ffffffffffffffffffffffffffffffffffffffff16815260200190815260200160002060009054906101000a900473ffffffffffffffffffffffffffffffffffffffff169050600073ffffffffffffffffffffffffffffffffffffffff16600160008373ffffffffffffffffffffffffffffffffffffffff1673ffffffffffffffffffffffffffffffffffffffff16815260200190815260200160002060030160009054906101000a900473ffffffffffffffffffffffffffffffffffffffff1673ffffffffffffffffffffffffffffffffffffffff161415806119e0575060011515600160008373ffffffffffffffffffffffffffffffffffffffff1673ffffffffffffffffffffffffffffffffffffffff16815260200190815260200160002060030160149054906101000a900460ff161515145b156119ef5760019150506119f5565b60009150505b919050565b6000806000808473ffffffffffffffffffffffffffffffffffffffff1673ffffffffffffffffffffffffffffffffffffffff16815260200190815260200160002060009054906101000a900473ffffffffffffffffffffffffffffffffffffffff16905080915050919050565b611a6f61207c565b600160008373ffffffffffffffffffffffffffffffffffffffff1673ffffffffffffffffffffffffffffffffffffffff1681526020019081526020016000206040518060c0016040529081600082018054611ac990613622565b80601f0160208091040260200160405190810160405280929190818152602001828054611af590613622565b8015611b425780601f10611b1757610100808354040283529160200191611b42565b820191906000526020600020905b815481529060010190602001808311611b2557829003601f168201915b50505050508152602001600182018054611b5b90613622565b80601f0160208091040260200160405190810160405280929190818152602001828054611b8790613622565b8015611bd45780601f10611ba957610100808354040283529160200191611bd4565b820191906000526020600020905b815481529060010190602001808311611bb757829003601f168201915b50505050508152602001600282015481526020016003820160009054906101000a900473ffffffffffffffffffffffffffffffffffffffff1673ffffffffffffffffffffffffffffffffffffffff1673ffffffffffffffffffffffffffffffffffffffff1681526020016003820160149054906101000a900460ff161515151581526020016003820160159054906101000a900460ff1615151515815250509050919050565b6060600760008373ffffffffffffffffffffffffffffffffffffffff1673ffffffffffffffffffffffffffffffffffffffff168152602001908152602001600020805480602002602001604051908101604052809291908181526020018280548015611d3b57602002820191906000526020600020905b8160009054906101000a900473ffffffffffffffffffffffffffffffffffffffff1673ffffffffffffffffffffffffffffffffffffffff1681526020019060010190808311611cf1575b50505050509050919050565b6060600460008373ffffffffffffffffffffffffffffffffffffffff1673ffffffffffffffffffffffffffffffffffffffff168152602001908152602001600020805480602002602001604051908101604052809291908181526020018280548015611e0857602002820191906000526020600020905b8160009054906101000a900473ffffffffffffffffffffffffffffffffffffffff1673ffffffffffffffffffffffffffffffffffffffff1681526020019060010190808311611dbe575b50505050509050919050565b806000808473ffffffffffffffffffffffffffffffffffffffff1673ffffffffffffffffffffffffffffffffffffffff16815260200190815260200160002060006101000a81548173ffffffffffffffffffffffffffffffffffffffff021916908373ffffffffffffffffffffffffffffffffffffffff1602179055505050565b6060600560008373ffffffffffffffffffffffffffffffffffffffff1673ffffffffffffffffffffffffffffffffffffffff168152602001908152602001600020805480602002602001604051908101604052809291908181526020016000905b828210156120715783829060005260206000209060040201604051806080016040529081600082018054611f2990613622565b80601f0160208091040260200160405190810160405280929190818152602001828054611f5590613622565b8015611fa25780601f10611f7757610100808354040283529160200191611fa2565b820191906000526020600020905b815481529060010190602001808311611f8557829003601f168201915b50505050508152602001600182018054611fbb90613622565b80601f0160208091040260200160405190810160405280929190818152602001828054611fe790613622565b80156120345780601f1061200957610100808354040283529160200191612034565b820191906000526020600020905b81548152906001019060200180831161201757829003601f168201915b50505050508152602001600282015481526020016003820160009054906101000a900460ff16151515158152505081526020019060010190611ef6565b505050509050919050565b6040518060c00160405280606081526020016060815260200160008152602001600073ffffffffffffffffffffffffffffffffffffffff1681526020016000151581526020016000151581525090565b6000604051905090565b600080fd5b600080fd5b600080fd5b600080fd5b6000601f19601f8301169050919050565b7f4e487b7100000000000000000000000000000000000000000000000000000000600052604160045260246000fd5b612133826120ea565b810181811067ffffffffffffffff82111715612152576121516120fb565b5b80604052505050565b60006121656120cc565b9050612171828261212a565b919050565b600067ffffffffffffffff821115612191576121906120fb565b5b61219a826120ea565b9050602081019050919050565b82818337600083830152505050565b60006121c96121c484612176565b61215b565b9050828152602081018484840111156121e5576121e46120e5565b5b6121f08482856121a7565b509392505050565b600082601f83011261220d5761220c6120e0565b5b813561221d8482602086016121b6565b91505092915050565b6000819050919050565b61223981612226565b811461224457600080fd5b50565b60008135905061225681612230565b92915050565b600080600060608486031215612275576122746120d6565b5b600084013567ffffffffffffffff811115612293576122926120db565b5b61229f868287016121f8565b935050602084013567ffffffffffffffff8111156122c0576122bf6120db565b5b6122cc868287016121f8565b92505060406122dd86828701612247565b9150509250925092565b600073ffffffffffffffffffffffffffffffffffffffff82169050919050565b6000612312826122e7565b9050919050565b61232281612307565b811461232d57600080fd5b50565b60008135905061233f81612319565b92915050565b60008060006060848603121561235e5761235d6120d6565b5b600061236c86828701612330565b935050602061237d86828701612330565b925050604084013567ffffffffffffffff81111561239e5761239d6120db565b5b6123aa868287016121f8565b9150509250925092565b600080604083850312156123cb576123ca6120d6565b5b60006123d985828601612330565b92505060206123ea85828601612330565b9150509250929050565b600081519050919050565b600082825260208201905092915050565b6000819050602082019050919050565b61242981612307565b82525050565b600081519050919050565b600082825260208201905092915050565b60005b8381101561246957808201518184015260208101905061244e565b60008484015250505050565b60006124808261242f565b61248a818561243a565b935061249a81856020860161244b565b6124a3816120ea565b840191505092915050565b6124b781612226565b82525050565b60006060830160008301516124d56000860182612420565b50602083015184820360208601526124ed8282612475565b915050604083015161250260408601826124ae565b508091505092915050565b600061251983836124bd565b905092915050565b6000602082019050919050565b6000612539826123f4565b61254381856123ff565b93508360208202850161255585612410565b8060005b858110156125915784840389528151612572858261250d565b945061257d83612521565b925060208a01995050600181019050612559565b50829750879550505050505092915050565b600060208201905081810360008301526125bd818461252e565b905092915050565b6000602082840312156125db576125da6120d6565b5b60006125e984828501612330565b91505092915050565b600081519050919050565b600082825260208201905092915050565b6000819050602082019050919050565b600061262a8383612420565b60208301905092915050565b6000602082019050919050565b600061264e826125f2565b61265881856125fd565b93506126638361260e565b8060005b8381101561269457815161267b888261261e565b975061268683612636565b925050600181019050612667565b5085935050505092915050565b600060208201905081810360008301526126bb8184612643565b905092915050565b6000806000606084860312156126dc576126db6120d6565b5b60006126ea86828701612330565b935050602084013567ffffffffffffffff81111561270b5761270a6120db565b5b612717868287016121f8565b925050604084013567ffffffffffffffff811115612738576127376120db565b5b612744868287016121f8565b9150509250925092565b60008115159050919050565b6127638161274e565b82525050565b600060c08301600083015184820360008601526127868282612475565b915050602083015184820360208601526127a08282612475565b91505060408301516127b560408601826124ae565b5060608301516127c86060860182612420565b5060808301516127db608086018261275a565b5060a08301516127ee60a086018261275a565b508091505092915050565b600060208201905081810360008301526128138184612769565b905092915050565b600081519050919050565b600082825260208201905092915050565b6000819050602082019050919050565b600060808301600083015184820360008601526128648282612475565b9150506020830151848203602086015261287e8282612475565b915050604083015161289360408601826124ae565b5060608301516128a6606086018261275a565b508091505092915050565b60006128bd8383612847565b905092915050565b6000602082019050919050565b60006128dd8261281b565b6128e78185612826565b9350836020820285016128f985612837565b8060005b85811015612935578484038952815161291685826128b1565b9450612921836128c5565b925060208a019950506001810190506128fd565b50829750879550505050505092915050565b6000602082019050818103600083015261296181846128d2565b905092915050565b61297281612307565b82525050565b600060208201905061298d6000830184612969565b92915050565b600082825260208201905092915050565b7f46756e6374696f6e20696e74657266616365526567697374657255736572206860008201527f6173206265656e2063616c6c6564000000000000000000000000000000000000602082015250565b6000612a00602e83612993565b9150612a0b826129a4565b604082019050919050565b60006020820190508181036000830152612a2f816129f3565b9050919050565b7f46756e6374696f6e20696e74657266616365416464467269656e64206861732060008201527f6265656e2063616c6c6564000000000000000000000000000000000000000000602082015250565b6000612a92602b83612993565b9150612a9d82612a36565b604082019050919050565b60006020820190508181036000830152612ac181612a85565b9050919050565b7f46756e6374696f6e20696e7465726661636553656e644d65737361676542794160008201527f63636f756e7420686173206265656e2063616c6c656400000000000000000000602082015250565b6000612b24603683612993565b9150612b2f82612ac8565b604082019050919050565b60006020820190508181036000830152612b5381612b17565b9050919050565b7f46756e6374696f6e20696e7465726661636553656e6441727469636c6573427960008201527f4163636f756e7420686173206265656e2063616c6c6564000000000000000000602082015250565b6000612bb6603783612993565b9150612bc182612b5a565b604082019050919050565b60006020820190508181036000830152612be581612ba9565b9050919050565b7f46756e6374696f6e20696e7465726661636547657450726f66696c654279416460008201527f647265737320686173206265656e2063616c6c65640000000000000000000000602082015250565b6000612c48603583612993565b9150612c5382612bec565b604082019050919050565b60006020820190508181036000830152612c7781612c3b565b9050919050565b7f46756e6374696f6e20696e7465726661636547657450726f66696c654279416360008201527f636f756e7420686173206265656e2063616c6c65640000000000000000000000602082015250565b6000612cda603583612993565b9150612ce582612c7e565b604082019050919050565b60006020820190508181036000830152612d0981612ccd565b9050919050565b7f46756e6374696f6e20696e746572666163654a6f696e20686173206265656e2060008201527f63616c6c65640000000000000000000000000000000000000000000000000000602082015250565b6000612d6c602683612993565b9150612d7782612d10565b604082019050919050565b60006020820190508181036000830152612d9b81612d5f565b9050919050565b7f46756e6374696f6e20696e746572666163654765744163636f756e744279416460008201527f647265737320686173206265656e2063616c6c65640000000000000000000000602082015250565b6000612dfe603583612993565b9150612e0982612da2565b604082019050919050565b60006020820190508181036000830152612e2d81612df1565b9050919050565b7f46756e6374696f6e20696e746572666163654765744d794163636f756e74206860008201527f6173206265656e2063616c6c6564000000000000000000000000000000000000602082015250565b6000612e90602e83612993565b9150612e9b82612e34565b604082019050919050565b60006020820190508181036000830152612ebf81612e83565b9050919050565b7f53657276697665436f6e74726163742d7265676973746572557365723a20546860008201527f652061646465727373206861736e2774206a6f696e65642c526567697374657260208201527f206661696c656400000000000000000000000000000000000000000000000000604082015250565b6000612f48604783612993565b9150612f5382612ec6565b606082019050919050565b60006020820190508181036000830152612f7781612f3b565b9050919050565b7f53657276697665436f6e74726163742d616464467269656e643a20467269656e60008201527f64206163636f756e74206e6f7420726567697374657265640000000000000000602082015250565b6000612fda603883612993565b9150612fe582612f7e565b604082019050919050565b6000602082019050818103600083015261300981612fcd565b9050919050565b7f53657276697665436f6e74726163742d616464467269656e643a2043616e6e6f60008201527f742061646420796f757273656c66206173206120667269656e64000000000000602082015250565b600061306c603a83612993565b915061307782613010565b604082019050919050565b6000602082019050818103600083015261309b8161305f565b9050919050565b7f53657276697665436f6e74726163742d616464467269656e643a2048652f536860008201527f6520697320616c726561647920667269656e6400000000000000000000000000602082015250565b60006130fe603383612993565b9150613109826130a2565b604082019050919050565b6000602082019050818103600083015261312d816130f1565b9050919050565b7f53657276697665436f6e74726163742d73656e644d6573736167653a20596f7560008201527f7220667269656e64207265717565737420686173206e6f74206265656e20617060208201527f70726f7665640000000000000000000000000000000000000000000000000000604082015250565b60006131b6604683612993565b91506131c182613134565b606082019050919050565b600060208201905081810360008301526131e5816131a9565b9050919050565b7f53657276697665436f6e74726163742d67657450726f66696c6542794164647260008201527f6573733a20546865206164646572737320796f752077616e7420746f2067657460208201527f2070726f66696c6520206861736e2774206a6f696e6564000000000000000000604082015250565b600061326e605783612993565b9150613279826131ec565b606082019050919050565b6000602082019050818103600083015261329d81613261565b9050919050565b7f53657276697665436f6e74726163742d67657450726f66696c6542794164647260008201527f6573733a20546865206164647265737320796f752077616e7420746f2067657460208201527f2070726f66696c6520206861736e277420726567697374656400000000000000604082015250565b6000613326605983612993565b9150613331826132a4565b606082019050919050565b6000602082019050818103600083015261335581613319565b9050919050565b7f53657276697665436f6e74726163742d67657450726f66696c6542794163636f60008201527f756e743a20546865206163636f756e7420796f752077616e7420746f2067657460208201527f2070726f66696c65206861736e27742072656769737465726564000000000000604082015250565b60006133de605a83612993565b91506133e98261335c565b606082019050919050565b6000602082019050818103600083015261340d816133d1565b9050919050565b7f53657276697665436f6e74726163742d6a6f696e3a207468697320616464726560008201527f737320686173206a6f696e656400000000000000000000000000000000000000602082015250565b6000613470602d83612993565b915061347b82613414565b604082019050919050565b6000602082019050818103600083015261349f81613463565b9050919050565b60008160601b9050919050565b60006134be826134a6565b9050919050565b60006134d0826134b3565b9050919050565b6134e86134e382612307565b6134c5565b82525050565b6000819050919050565b61350961350482612226565b6134ee565b82525050565b600061351b82856134d7565b60148201915061352b82846134f8565b6020820191508190509392505050565b7f53657276697665436f6e74726163742d6765744163636f756e7442794164647260008201527f6573733a20546865206164646572737320796f752077616e7420746f2067657460208201527f206163636f756e7420206861736e2774206a6f696e6564000000000000000000604082015250565b60006135bd605783612993565b91506135c88261353b565b606082019050919050565b600060208201905081810360008301526135ec816135b0565b9050919050565b7f4e487b7100000000000000000000000000000000000000000000000000000000600052602260045260246000fd5b6000600282049050600182168061363a57607f821691505b60208210810361364d5761364c6135f3565b5b50919050565b60008190508160005260206000209050919050565b60006020601f8301049050919050565b600082821b905092915050565b6000600883026136b57fffffffffffffffffffffffffffffffffffffffffffffffffffffffffffffffff82613678565b6136bf8683613678565b95508019841693508086168417925050509392505050565b6000819050919050565b60006136fc6136f76136f284612226565b6136d7565b612226565b9050919050565b6000819050919050565b613716836136e1565b61372a61372282613703565b848454613685565b825550505050565b600090565b61373f613732565b61374a81848461370d565b505050565b5b8181101561376e57613763600082613737565b600181019050613750565b5050565b601f8211156137b35761378481613653565b61378d84613668565b8101602085101561379c578190505b6137b06137a885613668565b83018261374f565b50505b505050565b600082821c905092915050565b60006137d6600019846008026137b8565b1980831691505092915050565b60006137ef83836137c5565b9150826002028217905092915050565b6138088261242f565b67ffffffffffffffff811115613821576138206120fb565b5b61382b8254613622565b613836828285613772565b600060209050601f8311600181146138695760008415613857578287015190505b61386185826137e3565b8655506138c9565b601f19841661387786613653565b60005b8281101561389f5784890151825560018201915060208501945060208101905061387a565b868310156138bc57848901516138b8601f8916826137c5565b8355505b6001600288020188555050505b505050505050565b7f4e487b7100000000000000000000000000000000000000000000000000000000600052603260045260246000fd5b7f4e487b7100000000000000000000000000000000000000000000000000000000600052601160045260246000fd5b600061393a82612226565b91507fffffffffffffffffffffffffffffffffffffffffffffffffffffffffffffffff820361396c5761396b613900565b5b60018201905091905056fea2646970667358221220a1e01eba5233aa849727c06d8350486fc2298f6a1a8b22cec7bf739c913214d964736f6c63430008120033",
					"opcodes": "PUSH1 0x80 PUSH1 0x40 MSTORE CALLVALUE DUP1 ISZERO PUSH2 0x10 JUMPI PUSH1 0x0 DUP1 REVERT JUMPDEST POP CALLER PUSH1 0xA PUSH1 0x0 PUSH2 0x100 EXP DUP2 SLOAD DUP2 PUSH20 0xFFFFFFFFFFFFFFFFFFFFFFFFFFFFFFFFFFFFFFFF MUL NOT AND SWAP1 DUP4 PUSH20 0xFFFFFFFFFFFFFFFFFFFFFFFFFFFFFFFFFFFFFFFF AND MUL OR SWAP1 SSTORE POP PUSH2 0x39AD DUP1 PUSH2 0x61 PUSH1 0x0 CODECOPY PUSH1 0x0 RETURN INVALID PUSH1 0x80 PUSH1 0x40 MSTORE CALLVALUE DUP1 ISZERO PUSH2 0x10 JUMPI PUSH1 0x0 DUP1 REVERT JUMPDEST POP PUSH1 0x4 CALLDATASIZE LT PUSH2 0xEA JUMPI PUSH1 0x0 CALLDATALOAD PUSH1 0xE0 SHR DUP1 PUSH4 0x7A51837F GT PUSH2 0x8C JUMPI DUP1 PUSH4 0x9CE5B59F GT PUSH2 0x66 JUMPI DUP1 PUSH4 0x9CE5B59F EQ PUSH2 0x27F JUMPI DUP1 PUSH4 0xD7E07916 EQ PUSH2 0x289 JUMPI DUP1 PUSH4 0xF38586B7 EQ PUSH2 0x2B9 JUMPI DUP1 PUSH4 0xFD04FFEF EQ PUSH2 0x2E9 JUMPI PUSH2 0xEA JUMP JUMPDEST DUP1 PUSH4 0x7A51837F EQ PUSH2 0x1EF JUMPI DUP1 PUSH4 0x84E00265 EQ PUSH2 0x21F JUMPI DUP1 PUSH4 0x88CAF28D EQ PUSH2 0x24F JUMPI PUSH2 0xEA JUMP JUMPDEST DUP1 PUSH4 0x33BC1B91 GT PUSH2 0xC8 JUMPI DUP1 PUSH4 0x33BC1B91 EQ PUSH2 0x157 JUMPI DUP1 PUSH4 0x5065EBE3 EQ PUSH2 0x187 JUMPI DUP1 PUSH4 0x6791FD6B EQ PUSH2 0x1A3 JUMPI DUP1 PUSH4 0x6DF0AFA9 EQ PUSH2 0x1BF JUMPI PUSH2 0xEA JUMP JUMPDEST DUP1 PUSH4 0x63D0F81 EQ PUSH2 0xEF JUMPI DUP1 PUSH4 0x13447FBD EQ PUSH2 0x10B JUMPI DUP1 PUSH4 0x1847A4A4 EQ PUSH2 0x127 JUMPI JUMPDEST PUSH1 0x0 DUP1 REVERT JUMPDEST PUSH2 0x109 PUSH1 0x4 DUP1 CALLDATASIZE SUB DUP2 ADD SWAP1 PUSH2 0x104 SWAP2 SWAP1 PUSH2 0x225C JUMP JUMPDEST PUSH2 0x307 JUMP JUMPDEST STOP JUMPDEST PUSH2 0x125 PUSH1 0x4 DUP1 CALLDATASIZE SUB DUP2 ADD SWAP1 PUSH2 0x120 SWAP2 SWAP1 PUSH2 0x2345 JUMP JUMPDEST PUSH2 0x34D JUMP JUMPDEST STOP JUMPDEST PUSH2 0x141 PUSH1 0x4 DUP1 CALLDATASIZE SUB DUP2 ADD SWAP1 PUSH2 0x13C SWAP2 SWAP1 PUSH2 0x23B4 JUMP JUMPDEST PUSH2 0x392 JUMP JUMPDEST PUSH1 0x40 MLOAD PUSH2 0x14E SWAP2 SWAP1 PUSH2 0x25A3 JUMP JUMPDEST PUSH1 0x40 MLOAD DUP1 SWAP2 SUB SWAP1 RETURN JUMPDEST PUSH2 0x171 PUSH1 0x4 DUP1 CALLDATASIZE SUB DUP2 ADD SWAP1 PUSH2 0x16C SWAP2 SWAP1 PUSH2 0x25C5 JUMP JUMPDEST PUSH2 0x3A6 JUMP JUMPDEST PUSH1 0x40 MLOAD PUSH2 0x17E SWAP2 SWAP1 PUSH2 0x26A1 JUMP JUMPDEST PUSH1 0x40 MLOAD DUP1 SWAP2 SUB SWAP1 RETURN JUMPDEST PUSH2 0x1A1 PUSH1 0x4 DUP1 CALLDATASIZE SUB DUP2 ADD SWAP1 PUSH2 0x19C SWAP2 SWAP1 PUSH2 0x2345 JUMP JUMPDEST PUSH2 0x3B8 JUMP JUMPDEST STOP JUMPDEST PUSH2 0x1BD PUSH1 0x4 DUP1 CALLDATASIZE SUB DUP2 ADD SWAP1 PUSH2 0x1B8 SWAP2 SWAP1 PUSH2 0x26C3 JUMP JUMPDEST PUSH2 0x3FD JUMP JUMPDEST STOP JUMPDEST PUSH2 0x1D9 PUSH1 0x4 DUP1 CALLDATASIZE SUB DUP2 ADD SWAP1 PUSH2 0x1D4 SWAP2 SWAP1 PUSH2 0x25C5 JUMP JUMPDEST PUSH2 0x442 JUMP JUMPDEST PUSH1 0x40 MLOAD PUSH2 0x1E6 SWAP2 SWAP1 PUSH2 0x27F9 JUMP JUMPDEST PUSH1 0x40 MLOAD DUP1 SWAP2 SUB SWAP1 RETURN JUMPDEST PUSH2 0x209 PUSH1 0x4 DUP1 CALLDATASIZE SUB DUP2 ADD SWAP1 PUSH2 0x204 SWAP2 SWAP1 PUSH2 0x25C5 JUMP JUMPDEST PUSH2 0x495 JUMP JUMPDEST PUSH1 0x40 MLOAD PUSH2 0x216 SWAP2 SWAP1 PUSH2 0x26A1 JUMP JUMPDEST PUSH1 0x40 MLOAD DUP1 SWAP2 SUB SWAP1 RETURN JUMPDEST PUSH2 0x239 PUSH1 0x4 DUP1 CALLDATASIZE SUB DUP2 ADD SWAP1 PUSH2 0x234 SWAP2 SWAP1 PUSH2 0x25C5 JUMP JUMPDEST PUSH2 0x4A7 JUMP JUMPDEST PUSH1 0x40 MLOAD PUSH2 0x246 SWAP2 SWAP1 PUSH2 0x27F9 JUMP JUMPDEST PUSH1 0x40 MLOAD DUP1 SWAP2 SUB SWAP1 RETURN JUMPDEST PUSH2 0x269 PUSH1 0x4 DUP1 CALLDATASIZE SUB DUP2 ADD SWAP1 PUSH2 0x264 SWAP2 SWAP1 PUSH2 0x25C5 JUMP JUMPDEST PUSH2 0x4FA JUMP JUMPDEST PUSH1 0x40 MLOAD PUSH2 0x276 SWAP2 SWAP1 PUSH2 0x26A1 JUMP JUMPDEST PUSH1 0x40 MLOAD DUP1 SWAP2 SUB SWAP1 RETURN JUMPDEST PUSH2 0x287 PUSH2 0x50C JUMP JUMPDEST STOP JUMPDEST PUSH2 0x2A3 PUSH1 0x4 DUP1 CALLDATASIZE SUB DUP2 ADD SWAP1 PUSH2 0x29E SWAP2 SWAP1 PUSH2 0x25C5 JUMP JUMPDEST PUSH2 0x54D JUMP JUMPDEST PUSH1 0x40 MLOAD PUSH2 0x2B0 SWAP2 SWAP1 PUSH2 0x2947 JUMP JUMPDEST PUSH1 0x40 MLOAD DUP1 SWAP2 SUB SWAP1 RETURN JUMPDEST PUSH2 0x2D3 PUSH1 0x4 DUP1 CALLDATASIZE SUB DUP2 ADD SWAP1 PUSH2 0x2CE SWAP2 SWAP1 PUSH2 0x25C5 JUMP JUMPDEST PUSH2 0x55F JUMP JUMPDEST PUSH1 0x40 MLOAD PUSH2 0x2E0 SWAP2 SWAP1 PUSH2 0x2978 JUMP JUMPDEST PUSH1 0x40 MLOAD DUP1 SWAP2 SUB SWAP1 RETURN JUMPDEST PUSH2 0x2F1 PUSH2 0x5AB JUMP JUMPDEST PUSH1 0x40 MLOAD PUSH2 0x2FE SWAP2 SWAP1 PUSH2 0x2978 JUMP JUMPDEST PUSH1 0x40 MLOAD DUP1 SWAP2 SUB SWAP1 RETURN JUMPDEST PUSH2 0x313 CALLER DUP5 DUP5 DUP5 PUSH2 0x5F5 JUMP JUMPDEST PUSH32 0x152B777A0558316496D3CF44D3B429642341D714279A563874BF32A0CFD2C1D1 PUSH1 0x40 MLOAD PUSH2 0x340 SWAP1 PUSH2 0x2A16 JUMP JUMPDEST PUSH1 0x40 MLOAD DUP1 SWAP2 SUB SWAP1 LOG1 POP POP POP JUMP JUMPDEST PUSH2 0x358 DUP4 DUP4 DUP4 PUSH2 0x65A JUMP JUMPDEST PUSH32 0xF51CDF4AEEC662FF29950CCBDA3387FD0040BF6C6A8E9D378E4F15C9AFC381D3 PUSH1 0x40 MLOAD PUSH2 0x385 SWAP1 PUSH2 0x2AA8 JUMP JUMPDEST PUSH1 0x40 MLOAD DUP1 SWAP2 SUB SWAP1 LOG1 POP POP POP JUMP JUMPDEST PUSH1 0x60 PUSH2 0x39E DUP4 DUP4 PUSH2 0x770 JUMP JUMPDEST SWAP1 POP SWAP3 SWAP2 POP POP JUMP JUMPDEST PUSH1 0x60 PUSH2 0x3B1 DUP3 PUSH2 0x784 JUMP JUMPDEST SWAP1 POP SWAP2 SWAP1 POP JUMP JUMPDEST PUSH2 0x3C3 DUP4 DUP4 DUP4 PUSH2 0x796 JUMP JUMPDEST PUSH32 0x34219118484756C593289E0014EEC1E43E32F138CEE0B9DF592418C323983247 PUSH1 0x40 MLOAD PUSH2 0x3F0 SWAP1 PUSH2 0x2B3A JUMP JUMPDEST PUSH1 0x40 MLOAD DUP1 SWAP2 SUB SWAP1 LOG1 POP POP POP JUMP JUMPDEST PUSH2 0x408 DUP4 DUP4 DUP4 PUSH2 0x7EF JUMP JUMPDEST PUSH32 0xE6BF02B841D3E0738923D75FE8456F6DCFA21CF402094FCA5CE12D85F2088994 PUSH1 0x40 MLOAD PUSH2 0x435 SWAP1 PUSH2 0x2BCC JUMP JUMPDEST PUSH1 0x40 MLOAD DUP1 SWAP2 SUB SWAP1 LOG1 POP POP POP JUMP JUMPDEST PUSH2 0x44A PUSH2 0x207C JUMP JUMPDEST PUSH1 0x0 PUSH2 0x455 DUP4 PUSH2 0x7FF JUMP JUMPDEST SWAP1 POP PUSH32 0x9EDC4C061D3A37FA170BEA063BED2CD1E1198DA759216BFCDF59D74C5CE8DC14 PUSH1 0x40 MLOAD PUSH2 0x484 SWAP1 PUSH2 0x2C5E JUMP JUMPDEST PUSH1 0x40 MLOAD DUP1 SWAP2 SUB SWAP1 LOG1 DUP1 SWAP2 POP POP SWAP2 SWAP1 POP JUMP JUMPDEST PUSH1 0x60 PUSH2 0x4A0 DUP3 PUSH2 0x8B5 JUMP JUMPDEST SWAP1 POP SWAP2 SWAP1 POP JUMP JUMPDEST PUSH2 0x4AF PUSH2 0x207C JUMP JUMPDEST PUSH1 0x0 PUSH2 0x4BA DUP4 PUSH2 0x8C7 JUMP JUMPDEST SWAP1 POP PUSH32 0x81FCF8FEE9F0C6D964F962EBC504306A43E721E48647A6FED58AB7258CAB91D3 PUSH1 0x40 MLOAD PUSH2 0x4E9 SWAP1 PUSH2 0x2CF0 JUMP JUMPDEST PUSH1 0x40 MLOAD DUP1 SWAP2 SUB SWAP1 LOG1 DUP1 SWAP2 POP POP SWAP2 SWAP1 POP JUMP JUMPDEST PUSH1 0x60 PUSH2 0x505 DUP3 PUSH2 0x927 JUMP JUMPDEST SWAP1 POP SWAP2 SWAP1 POP JUMP JUMPDEST PUSH2 0x515 CALLER PUSH2 0x939 JUMP JUMPDEST POP PUSH32 0xFD23D12F0075880244A707584C07C74C3EE39E37B4C9FB038B97A39E278B73BC PUSH1 0x40 MLOAD PUSH2 0x543 SWAP1 PUSH2 0x2D82 JUMP JUMPDEST PUSH1 0x40 MLOAD DUP1 SWAP2 SUB SWAP1 LOG1 JUMP JUMPDEST PUSH1 0x60 PUSH2 0x558 DUP3 PUSH2 0x9C8 JUMP JUMPDEST SWAP1 POP SWAP2 SWAP1 POP JUMP JUMPDEST PUSH1 0x0 DUP1 PUSH2 0x56B DUP4 PUSH2 0x9DA JUMP JUMPDEST SWAP1 POP PUSH32 0xDE833AC95BD532FC1024DAE78CF2B0B9F0267B902826E4E4DB4259D4084A1694 PUSH1 0x40 MLOAD PUSH2 0x59A SWAP1 PUSH2 0x2E14 JUMP JUMPDEST PUSH1 0x40 MLOAD DUP1 SWAP2 SUB SWAP1 LOG1 DUP1 SWAP2 POP POP SWAP2 SWAP1 POP JUMP JUMPDEST PUSH1 0x0 DUP1 PUSH2 0x5B7 CALLER PUSH2 0x9DA JUMP JUMPDEST SWAP1 POP PUSH32 0x58F6CAC518B0F408B2EE263A6A7036E8E213858B88C83BA49D4ACF5D563B8CD0 PUSH1 0x40 MLOAD PUSH2 0x5E6 SWAP1 PUSH2 0x2EA6 JUMP JUMPDEST PUSH1 0x40 MLOAD DUP1 SWAP2 SUB SWAP1 LOG1 DUP1 SWAP2 POP POP SWAP1 JUMP JUMPDEST PUSH2 0x5FE DUP5 PUSH2 0xA34 JUMP JUMPDEST PUSH2 0x63D JUMPI PUSH1 0x40 MLOAD PUSH32 0x8C379A000000000000000000000000000000000000000000000000000000000 DUP2 MSTORE PUSH1 0x4 ADD PUSH2 0x634 SWAP1 PUSH2 0x2F5E JUMP JUMPDEST PUSH1 0x40 MLOAD DUP1 SWAP2 SUB SWAP1 REVERT JUMPDEST PUSH2 0x649 DUP5 DUP5 DUP5 DUP5 PUSH2 0xADA JUMP JUMPDEST PUSH2 0x654 DUP5 PUSH1 0x1 PUSH2 0xC98 JUMP JUMPDEST POP POP POP POP JUMP JUMPDEST PUSH1 0x0 DUP4 SWAP1 POP PUSH2 0x668 DUP4 PUSH2 0xD5A JUMP JUMPDEST PUSH2 0x6A7 JUMPI PUSH1 0x40 MLOAD PUSH32 0x8C379A000000000000000000000000000000000000000000000000000000000 DUP2 MSTORE PUSH1 0x4 ADD PUSH2 0x69E SWAP1 PUSH2 0x2FF0 JUMP JUMPDEST PUSH1 0x40 MLOAD DUP1 SWAP2 SUB SWAP1 REVERT JUMPDEST DUP1 PUSH20 0xFFFFFFFFFFFFFFFFFFFFFFFFFFFFFFFFFFFFFFFF AND DUP4 PUSH20 0xFFFFFFFFFFFFFFFFFFFFFFFFFFFFFFFFFFFFFFFF AND SUB PUSH2 0x715 JUMPI PUSH1 0x40 MLOAD PUSH32 0x8C379A000000000000000000000000000000000000000000000000000000000 DUP2 MSTORE PUSH1 0x4 ADD PUSH2 0x70C SWAP1 PUSH2 0x3082 JUMP JUMPDEST PUSH1 0x40 MLOAD DUP1 SWAP2 SUB SWAP1 REVERT JUMPDEST PUSH2 0x71F DUP2 DUP5 PUSH2 0xE64 JUMP JUMPDEST ISZERO PUSH2 0x75F JUMPI PUSH1 0x40 MLOAD PUSH32 0x8C379A000000000000000000000000000000000000000000000000000000000 DUP2 MSTORE PUSH1 0x4 ADD PUSH2 0x756 SWAP1 PUSH2 0x3114 JUMP JUMPDEST PUSH1 0x40 MLOAD DUP1 SWAP2 SUB SWAP1 REVERT JUMPDEST PUSH2 0x76A DUP2 DUP5 DUP5 PUSH2 0xFAF JUMP JUMPDEST POP POP POP POP JUMP JUMPDEST PUSH1 0x60 PUSH2 0x77C DUP4 DUP4 PUSH2 0x1200 JUMP JUMPDEST SWAP1 POP SWAP3 SWAP2 POP POP JUMP JUMPDEST PUSH1 0x60 PUSH2 0x78F DUP3 PUSH2 0x13CE JUMP JUMPDEST SWAP1 POP SWAP2 SWAP1 POP JUMP JUMPDEST PUSH2 0x7A0 DUP4 DUP4 PUSH2 0xE64 JUMP JUMPDEST PUSH2 0x7DF JUMPI PUSH1 0x40 MLOAD PUSH32 0x8C379A000000000000000000000000000000000000000000000000000000000 DUP2 MSTORE PUSH1 0x4 ADD PUSH2 0x7D6 SWAP1 PUSH2 0x31CC JUMP JUMPDEST PUSH1 0x40 MLOAD DUP1 SWAP2 SUB SWAP1 REVERT JUMPDEST PUSH2 0x7EA DUP4 DUP4 DUP4 PUSH2 0x149B JUMP JUMPDEST POP POP POP JUMP JUMPDEST PUSH2 0x7FA DUP4 DUP4 DUP4 PUSH2 0x179C JUMP JUMPDEST POP POP POP JUMP JUMPDEST PUSH2 0x807 PUSH2 0x207C JUMP JUMPDEST PUSH2 0x810 DUP3 PUSH2 0xA34 JUMP JUMPDEST PUSH2 0x84F JUMPI PUSH1 0x40 MLOAD PUSH32 0x8C379A000000000000000000000000000000000000000000000000000000000 DUP2 MSTORE PUSH1 0x4 ADD PUSH2 0x846 SWAP1 PUSH2 0x3284 JUMP JUMPDEST PUSH1 0x40 MLOAD DUP1 SWAP2 SUB SWAP1 REVERT JUMPDEST PUSH2 0x858 DUP3 PUSH2 0x188B JUMP JUMPDEST PUSH2 0x897 JUMPI PUSH1 0x40 MLOAD PUSH32 0x8C379A000000000000000000000000000000000000000000000000000000000 DUP2 MSTORE PUSH1 0x4 ADD PUSH2 0x88E SWAP1 PUSH2 0x333C JUMP JUMPDEST PUSH1 0x40 MLOAD DUP1 SWAP2 SUB SWAP1 REVERT JUMPDEST PUSH1 0x0 PUSH2 0x8A2 DUP4 PUSH2 0x19FA JUMP JUMPDEST SWAP1 POP PUSH2 0x8AD DUP2 PUSH2 0x1A67 JUMP JUMPDEST SWAP2 POP POP SWAP2 SWAP1 POP JUMP JUMPDEST PUSH1 0x60 PUSH2 0x8C0 DUP3 PUSH2 0x1C7A JUMP JUMPDEST SWAP1 POP SWAP2 SWAP1 POP JUMP JUMPDEST PUSH2 0x8CF PUSH2 0x207C JUMP JUMPDEST PUSH2 0x8D8 DUP3 PUSH2 0xD5A JUMP JUMPDEST PUSH2 0x917 JUMPI PUSH1 0x40 MLOAD PUSH32 0x8C379A000000000000000000000000000000000000000000000000000000000 DUP2 MSTORE PUSH1 0x4 ADD PUSH2 0x90E SWAP1 PUSH2 0x33F4 JUMP JUMPDEST PUSH1 0x40 MLOAD DUP1 SWAP2 SUB SWAP1 REVERT JUMPDEST PUSH2 0x920 DUP3 PUSH2 0x1A67 JUMP JUMPDEST SWAP1 POP SWAP2 SWAP1 POP JUMP JUMPDEST PUSH1 0x60 PUSH2 0x932 DUP3 PUSH2 0x1D47 JUMP JUMPDEST SWAP1 POP SWAP2 SWAP1 POP JUMP JUMPDEST PUSH1 0x0 PUSH2 0x944 DUP3 PUSH2 0xA34 JUMP JUMPDEST ISZERO PUSH2 0x984 JUMPI PUSH1 0x40 MLOAD PUSH32 0x8C379A000000000000000000000000000000000000000000000000000000000 DUP2 MSTORE PUSH1 0x4 ADD PUSH2 0x97B SWAP1 PUSH2 0x3486 JUMP JUMPDEST PUSH1 0x40 MLOAD DUP1 SWAP2 SUB SWAP1 REVERT JUMPDEST PUSH1 0x0 CALLER TIMESTAMP PUSH1 0x40 MLOAD PUSH1 0x20 ADD PUSH2 0x999 SWAP3 SWAP2 SWAP1 PUSH2 0x350F JUMP JUMPDEST PUSH1 0x40 MLOAD PUSH1 0x20 DUP2 DUP4 SUB SUB DUP2 MSTORE SWAP1 PUSH1 0x40 MSTORE DUP1 MLOAD SWAP1 PUSH1 0x20 ADD KECCAK256 PUSH1 0x0 SHR SWAP1 POP PUSH2 0x9BE DUP4 DUP3 PUSH2 0x1E14 JUMP JUMPDEST PUSH1 0x1 SWAP2 POP POP SWAP2 SWAP1 POP JUMP JUMPDEST PUSH1 0x60 PUSH2 0x9D3 DUP3 PUSH2 0x1E95 JUMP JUMPDEST SWAP1 POP SWAP2 SWAP1 POP JUMP JUMPDEST PUSH1 0x0 PUSH2 0x9E5 DUP3 PUSH2 0xA34 JUMP JUMPDEST PUSH2 0xA24 JUMPI PUSH1 0x40 MLOAD PUSH32 0x8C379A000000000000000000000000000000000000000000000000000000000 DUP2 MSTORE PUSH1 0x4 ADD PUSH2 0xA1B SWAP1 PUSH2 0x35D3 JUMP JUMPDEST PUSH1 0x40 MLOAD DUP1 SWAP2 SUB SWAP1 REVERT JUMPDEST PUSH2 0xA2D DUP3 PUSH2 0x19FA JUMP JUMPDEST SWAP1 POP SWAP2 SWAP1 POP JUMP JUMPDEST PUSH1 0x0 DUP1 PUSH20 0xFFFFFFFFFFFFFFFFFFFFFFFFFFFFFFFFFFFFFFFF AND PUSH1 0x0 DUP1 DUP5 PUSH20 0xFFFFFFFFFFFFFFFFFFFFFFFFFFFFFFFFFFFFFFFF AND PUSH20 0xFFFFFFFFFFFFFFFFFFFFFFFFFFFFFFFFFFFFFFFF AND DUP2 MSTORE PUSH1 0x20 ADD SWAP1 DUP2 MSTORE PUSH1 0x20 ADD PUSH1 0x0 KECCAK256 PUSH1 0x0 SWAP1 SLOAD SWAP1 PUSH2 0x100 EXP SWAP1 DIV PUSH20 0xFFFFFFFFFFFFFFFFFFFFFFFFFFFFFFFFFFFFFFFF AND PUSH20 0xFFFFFFFFFFFFFFFFFFFFFFFFFFFFFFFFFFFFFFFF AND EQ PUSH2 0xAD0 JUMPI PUSH1 0x1 SWAP1 POP PUSH2 0xAD5 JUMP JUMPDEST PUSH1 0x0 SWAP1 POP JUMPDEST SWAP2 SWAP1 POP JUMP JUMPDEST PUSH1 0x0 DUP1 PUSH1 0x0 DUP7 PUSH20 0xFFFFFFFFFFFFFFFFFFFFFFFFFFFFFFFFFFFFFFFF AND PUSH20 0xFFFFFFFFFFFFFFFFFFFFFFFFFFFFFFFFFFFFFFFF AND DUP2 MSTORE PUSH1 0x20 ADD SWAP1 DUP2 MSTORE PUSH1 0x20 ADD PUSH1 0x0 KECCAK256 PUSH1 0x0 SWAP1 SLOAD SWAP1 PUSH2 0x100 EXP SWAP1 DIV PUSH20 0xFFFFFFFFFFFFFFFFFFFFFFFFFFFFFFFFFFFFFFFF AND SWAP1 POP PUSH1 0x0 DUP6 SWAP1 POP PUSH1 0x0 PUSH1 0x40 MLOAD DUP1 PUSH1 0xC0 ADD PUSH1 0x40 MSTORE DUP1 DUP8 DUP2 MSTORE PUSH1 0x20 ADD DUP7 DUP2 MSTORE PUSH1 0x20 ADD DUP6 DUP2 MSTORE PUSH1 0x20 ADD DUP4 PUSH20 0xFFFFFFFFFFFFFFFFFFFFFFFFFFFFFFFFFFFFFFFF AND DUP2 MSTORE PUSH1 0x20 ADD PUSH1 0x1 ISZERO ISZERO DUP2 MSTORE PUSH1 0x20 ADD PUSH1 0x0 ISZERO ISZERO DUP2 MSTORE POP SWAP1 POP DUP1 PUSH1 0x1 PUSH1 0x0 DUP6 PUSH20 0xFFFFFFFFFFFFFFFFFFFFFFFFFFFFFFFFFFFFFFFF AND PUSH20 0xFFFFFFFFFFFFFFFFFFFFFFFFFFFFFFFFFFFFFFFF AND DUP2 MSTORE PUSH1 0x20 ADD SWAP1 DUP2 MSTORE PUSH1 0x20 ADD PUSH1 0x0 KECCAK256 PUSH1 0x0 DUP3 ADD MLOAD DUP2 PUSH1 0x0 ADD SWAP1 DUP2 PUSH2 0xBE4 SWAP2 SWAP1 PUSH2 0x37FF JUMP JUMPDEST POP PUSH1 0x20 DUP3 ADD MLOAD DUP2 PUSH1 0x1 ADD SWAP1 DUP2 PUSH2 0xBFA SWAP2 SWAP1 PUSH2 0x37FF JUMP JUMPDEST POP PUSH1 0x40 DUP3 ADD MLOAD DUP2 PUSH1 0x2 ADD SSTORE PUSH1 0x60 DUP3 ADD MLOAD DUP2 PUSH1 0x3 ADD PUSH1 0x0 PUSH2 0x100 EXP DUP2 SLOAD DUP2 PUSH20 0xFFFFFFFFFFFFFFFFFFFFFFFFFFFFFFFFFFFFFFFF MUL NOT AND SWAP1 DUP4 PUSH20 0xFFFFFFFFFFFFFFFFFFFFFFFFFFFFFFFFFFFFFFFF AND MUL OR SWAP1 SSTORE POP PUSH1 0x80 DUP3 ADD MLOAD DUP2 PUSH1 0x3 ADD PUSH1 0x14 PUSH2 0x100 EXP DUP2 SLOAD DUP2 PUSH1 0xFF MUL NOT AND SWAP1 DUP4 ISZERO ISZERO MUL OR SWAP1 SSTORE POP PUSH1 0xA0 DUP3 ADD MLOAD DUP2 PUSH1 0x3 ADD PUSH1 0x15 PUSH2 0x100 EXP DUP2 SLOAD DUP2 PUSH1 0xFF MUL NOT AND SWAP1 DUP4 ISZERO ISZERO MUL OR SWAP1 SSTORE POP SWAP1 POP POP POP POP POP POP POP POP POP JUMP JUMPDEST PUSH1 0x0 DUP1 PUSH1 0x0 DUP5 PUSH20 0xFFFFFFFFFFFFFFFFFFFFFFFFFFFFFFFFFFFFFFFF AND PUSH20 0xFFFFFFFFFFFFFFFFFFFFFFFFFFFFFFFFFFFFFFFF AND DUP2 MSTORE PUSH1 0x20 ADD SWAP1 DUP2 MSTORE PUSH1 0x20 ADD PUSH1 0x0 KECCAK256 PUSH1 0x0 SWAP1 SLOAD SWAP1 PUSH2 0x100 EXP SWAP1 DIV PUSH20 0xFFFFFFFFFFFFFFFFFFFFFFFFFFFFFFFFFFFFFFFF AND SWAP1 POP DUP2 PUSH1 0x1 PUSH1 0x0 DUP4 PUSH20 0xFFFFFFFFFFFFFFFFFFFFFFFFFFFFFFFFFFFFFFFF AND PUSH20 0xFFFFFFFFFFFFFFFFFFFFFFFFFFFFFFFFFFFFFFFF AND DUP2 MSTORE PUSH1 0x20 ADD SWAP1 DUP2 MSTORE PUSH1 0x20 ADD PUSH1 0x0 KECCAK256 PUSH1 0x3 ADD PUSH1 0x14 PUSH2 0x100 EXP DUP2 SLOAD DUP2 PUSH1 0xFF MUL NOT AND SWAP1 DUP4 ISZERO ISZERO MUL OR SWAP1 SSTORE POP POP POP POP JUMP JUMPDEST PUSH1 0x0 DUP1 PUSH20 0xFFFFFFFFFFFFFFFFFFFFFFFFFFFFFFFFFFFFFFFF AND PUSH1 0x1 PUSH1 0x0 DUP5 PUSH20 0xFFFFFFFFFFFFFFFFFFFFFFFFFFFFFFFFFFFFFFFF AND PUSH20 0xFFFFFFFFFFFFFFFFFFFFFFFFFFFFFFFFFFFFFFFF AND DUP2 MSTORE PUSH1 0x20 ADD SWAP1 DUP2 MSTORE PUSH1 0x20 ADD PUSH1 0x0 KECCAK256 PUSH1 0x3 ADD PUSH1 0x0 SWAP1 SLOAD SWAP1 PUSH2 0x100 EXP SWAP1 DIV PUSH20 0xFFFFFFFFFFFFFFFFFFFFFFFFFFFFFFFFFFFFFFFF AND PUSH20 0xFFFFFFFFFFFFFFFFFFFFFFFFFFFFFFFFFFFFFFFF AND EQ ISZERO DUP1 PUSH2 0xE4C JUMPI POP PUSH1 0x1 ISZERO ISZERO PUSH1 0x1 PUSH1 0x0 DUP5 PUSH20 0xFFFFFFFFFFFFFFFFFFFFFFFFFFFFFFFFFFFFFFFF AND PUSH20 0xFFFFFFFFFFFFFFFFFFFFFFFFFFFFFFFFFFFFFFFF AND DUP2 MSTORE PUSH1 0x20 ADD SWAP1 DUP2 MSTORE PUSH1 0x20 ADD PUSH1 0x0 KECCAK256 PUSH1 0x3 ADD PUSH1 0x14 SWAP1 SLOAD SWAP1 PUSH2 0x100 EXP SWAP1 DIV PUSH1 0xFF AND ISZERO ISZERO EQ JUMPDEST ISZERO PUSH2 0xE5A JUMPI PUSH1 0x1 SWAP1 POP PUSH2 0xE5F JUMP JUMPDEST PUSH1 0x0 SWAP1 POP JUMPDEST SWAP2 SWAP1 POP JUMP JUMPDEST PUSH1 0x0 PUSH1 0x1 ISZERO ISZERO PUSH1 0x2 PUSH1 0x0 DUP6 PUSH20 0xFFFFFFFFFFFFFFFFFFFFFFFFFFFFFFFFFFFFFFFF AND PUSH20 0xFFFFFFFFFFFFFFFFFFFFFFFFFFFFFFFFFFFFFFFF AND DUP2 MSTORE PUSH1 0x20 ADD SWAP1 DUP2 MSTORE PUSH1 0x20 ADD PUSH1 0x0 KECCAK256 PUSH1 0x0 DUP5 PUSH20 0xFFFFFFFFFFFFFFFFFFFFFFFFFFFFFFFFFFFFFFFF AND PUSH20 0xFFFFFFFFFFFFFFFFFFFFFFFFFFFFFFFFFFFFFFFF AND DUP2 MSTORE PUSH1 0x20 ADD SWAP1 DUP2 MSTORE PUSH1 0x20 ADD PUSH1 0x0 KECCAK256 PUSH1 0x0 ADD PUSH1 0x0 SWAP1 SLOAD SWAP1 PUSH2 0x100 EXP SWAP1 DIV PUSH1 0xFF AND ISZERO ISZERO EQ DUP1 ISZERO PUSH2 0xF96 JUMPI POP PUSH1 0x1 ISZERO ISZERO PUSH1 0x2 PUSH1 0x0 DUP5 PUSH20 0xFFFFFFFFFFFFFFFFFFFFFFFFFFFFFFFFFFFFFFFF AND PUSH20 0xFFFFFFFFFFFFFFFFFFFFFFFFFFFFFFFFFFFFFFFF AND DUP2 MSTORE PUSH1 0x20 ADD SWAP1 DUP2 MSTORE PUSH1 0x20 ADD PUSH1 0x0 KECCAK256 PUSH1 0x0 DUP6 PUSH20 0xFFFFFFFFFFFFFFFFFFFFFFFFFFFFFFFFFFFFFFFF AND PUSH20 0xFFFFFFFFFFFFFFFFFFFFFFFFFFFFFFFFFFFFFFFF AND DUP2 MSTORE PUSH1 0x20 ADD SWAP1 DUP2 MSTORE PUSH1 0x20 ADD PUSH1 0x0 KECCAK256 PUSH1 0x0 ADD PUSH1 0x0 SWAP1 SLOAD SWAP1 PUSH2 0x100 EXP SWAP1 DIV PUSH1 0xFF AND ISZERO ISZERO EQ JUMPDEST ISZERO PUSH2 0xFA4 JUMPI PUSH1 0x1 SWAP1 POP PUSH2 0xFA9 JUMP JUMPDEST PUSH1 0x0 SWAP1 POP JUMPDEST SWAP3 SWAP2 POP POP JUMP JUMPDEST PUSH1 0x0 DUP4 SWAP1 POP PUSH1 0x40 MLOAD DUP1 PUSH1 0x80 ADD PUSH1 0x40 MSTORE DUP1 PUSH1 0x1 ISZERO ISZERO DUP2 MSTORE PUSH1 0x20 ADD TIMESTAMP DUP2 MSTORE PUSH1 0x20 ADD DUP4 DUP2 MSTORE PUSH1 0x20 ADD PUSH1 0x0 ISZERO ISZERO DUP2 MSTORE POP PUSH1 0x2 PUSH1 0x0 DUP4 PUSH20 0xFFFFFFFFFFFFFFFFFFFFFFFFFFFFFFFFFFFFFFFF AND PUSH20 0xFFFFFFFFFFFFFFFFFFFFFFFFFFFFFFFFFFFFFFFF AND DUP2 MSTORE PUSH1 0x20 ADD SWAP1 DUP2 MSTORE PUSH1 0x20 ADD PUSH1 0x0 KECCAK256 PUSH1 0x0 DUP6 PUSH20 0xFFFFFFFFFFFFFFFFFFFFFFFFFFFFFFFFFFFFFFFF AND PUSH20 0xFFFFFFFFFFFFFFFFFFFFFFFFFFFFFFFFFFFFFFFF AND DUP2 MSTORE PUSH1 0x20 ADD SWAP1 DUP2 MSTORE PUSH1 0x20 ADD PUSH1 0x0 KECCAK256 PUSH1 0x0 DUP3 ADD MLOAD DUP2 PUSH1 0x0 ADD PUSH1 0x0 PUSH2 0x100 EXP DUP2 SLOAD DUP2 PUSH1 0xFF MUL NOT AND SWAP1 DUP4 ISZERO ISZERO MUL OR SWAP1 SSTORE POP PUSH1 0x20 DUP3 ADD MLOAD DUP2 PUSH1 0x1 ADD SSTORE PUSH1 0x40 DUP3 ADD MLOAD DUP2 PUSH1 0x2 ADD SWAP1 DUP2 PUSH2 0x1096 SWAP2 SWAP1 PUSH2 0x37FF JUMP JUMPDEST POP PUSH1 0x60 DUP3 ADD MLOAD DUP2 PUSH1 0x3 ADD PUSH1 0x0 PUSH2 0x100 EXP DUP2 SLOAD DUP2 PUSH1 0xFF MUL NOT AND SWAP1 DUP4 ISZERO ISZERO MUL OR SWAP1 SSTORE POP SWAP1 POP POP PUSH1 0x3 PUSH1 0x0 DUP3 PUSH20 0xFFFFFFFFFFFFFFFFFFFFFFFFFFFFFFFFFFFFFFFF AND PUSH20 0xFFFFFFFFFFFFFFFFFFFFFFFFFFFFFFFFFFFFFFFF AND DUP2 MSTORE PUSH1 0x20 ADD SWAP1 DUP2 MSTORE PUSH1 0x20 ADD PUSH1 0x0 KECCAK256 DUP4 SWAP1 DUP1 PUSH1 0x1 DUP2 SLOAD ADD DUP1 DUP3 SSTORE DUP1 SWAP2 POP POP PUSH1 0x1 SWAP1 SUB SWAP1 PUSH1 0x0 MSTORE PUSH1 0x20 PUSH1 0x0 KECCAK256 ADD PUSH1 0x0 SWAP1 SWAP2 SWAP1 SWAP2 SWAP1 SWAP2 PUSH2 0x100 EXP DUP2 SLOAD DUP2 PUSH20 0xFFFFFFFFFFFFFFFFFFFFFFFFFFFFFFFFFFFFFFFF MUL NOT AND SWAP1 DUP4 PUSH20 0xFFFFFFFFFFFFFFFFFFFFFFFFFFFFFFFFFFFFFFFF AND MUL OR SWAP1 SSTORE POP PUSH1 0x4 PUSH1 0x0 DUP5 PUSH20 0xFFFFFFFFFFFFFFFFFFFFFFFFFFFFFFFFFFFFFFFF AND PUSH20 0xFFFFFFFFFFFFFFFFFFFFFFFFFFFFFFFFFFFFFFFF AND DUP2 MSTORE PUSH1 0x20 ADD SWAP1 DUP2 MSTORE PUSH1 0x20 ADD PUSH1 0x0 KECCAK256 DUP2 SWAP1 DUP1 PUSH1 0x1 DUP2 SLOAD ADD DUP1 DUP3 SSTORE DUP1 SWAP2 POP POP PUSH1 0x1 SWAP1 SUB SWAP1 PUSH1 0x0 MSTORE PUSH1 0x20 PUSH1 0x0 KECCAK256 ADD PUSH1 0x0 SWAP1 SWAP2 SWAP1 SWAP2 SWAP1 SWAP2 PUSH2 0x100 EXP DUP2 SLOAD DUP2 PUSH20 0xFFFFFFFFFFFFFFFFFFFFFFFFFFFFFFFFFFFFFFFF MUL NOT AND SWAP1 DUP4 PUSH20 0xFFFFFFFFFFFFFFFFFFFFFFFFFFFFFFFFFFFFFFFF AND MUL OR SWAP1 SSTORE POP POP POP POP POP JUMP JUMPDEST PUSH1 0x60 PUSH1 0x6 PUSH1 0x0 DUP4 PUSH20 0xFFFFFFFFFFFFFFFFFFFFFFFFFFFFFFFFFFFFFFFF AND PUSH20 0xFFFFFFFFFFFFFFFFFFFFFFFFFFFFFFFFFFFFFFFF AND DUP2 MSTORE PUSH1 0x20 ADD SWAP1 DUP2 MSTORE PUSH1 0x20 ADD PUSH1 0x0 KECCAK256 PUSH1 0x0 DUP5 PUSH20 0xFFFFFFFFFFFFFFFFFFFFFFFFFFFFFFFFFFFFFFFF AND PUSH20 0xFFFFFFFFFFFFFFFFFFFFFFFFFFFFFFFFFFFFFFFF AND DUP2 MSTORE PUSH1 0x20 ADD SWAP1 DUP2 MSTORE PUSH1 0x20 ADD PUSH1 0x0 KECCAK256 DUP1 SLOAD DUP1 PUSH1 0x20 MUL PUSH1 0x20 ADD PUSH1 0x40 MLOAD SWAP1 DUP2 ADD PUSH1 0x40 MSTORE DUP1 SWAP3 SWAP2 SWAP1 DUP2 DUP2 MSTORE PUSH1 0x20 ADD PUSH1 0x0 SWAP1 JUMPDEST DUP3 DUP3 LT ISZERO PUSH2 0x13C2 JUMPI DUP4 DUP3 SWAP1 PUSH1 0x0 MSTORE PUSH1 0x20 PUSH1 0x0 KECCAK256 SWAP1 PUSH1 0x3 MUL ADD PUSH1 0x40 MLOAD DUP1 PUSH1 0x60 ADD PUSH1 0x40 MSTORE SWAP1 DUP2 PUSH1 0x0 DUP3 ADD PUSH1 0x0 SWAP1 SLOAD SWAP1 PUSH2 0x100 EXP SWAP1 DIV PUSH20 0xFFFFFFFFFFFFFFFFFFFFFFFFFFFFFFFFFFFFFFFF AND PUSH20 0xFFFFFFFFFFFFFFFFFFFFFFFFFFFFFFFFFFFFFFFF AND PUSH20 0xFFFFFFFFFFFFFFFFFFFFFFFFFFFFFFFFFFFFFFFF AND DUP2 MSTORE PUSH1 0x20 ADD PUSH1 0x1 DUP3 ADD DUP1 SLOAD PUSH2 0x1327 SWAP1 PUSH2 0x3622 JUMP JUMPDEST DUP1 PUSH1 0x1F ADD PUSH1 0x20 DUP1 SWAP2 DIV MUL PUSH1 0x20 ADD PUSH1 0x40 MLOAD SWAP1 DUP2 ADD PUSH1 0x40 MSTORE DUP1 SWAP3 SWAP2 SWAP1 DUP2 DUP2 MSTORE PUSH1 0x20 ADD DUP3 DUP1 SLOAD PUSH2 0x1353 SWAP1 PUSH2 0x3622 JUMP JUMPDEST DUP1 ISZERO PUSH2 0x13A0 JUMPI DUP1 PUSH1 0x1F LT PUSH2 0x1375 JUMPI PUSH2 0x100 DUP1 DUP4 SLOAD DIV MUL DUP4 MSTORE SWAP2 PUSH1 0x20 ADD SWAP2 PUSH2 0x13A0 JUMP JUMPDEST DUP3 ADD SWAP2 SWAP1 PUSH1 0x0 MSTORE PUSH1 0x20 PUSH1 0x0 KECCAK256 SWAP1 JUMPDEST DUP2 SLOAD DUP2 MSTORE SWAP1 PUSH1 0x1 ADD SWAP1 PUSH1 0x20 ADD DUP1 DUP4 GT PUSH2 0x1383 JUMPI DUP3 SWAP1 SUB PUSH1 0x1F AND DUP3 ADD SWAP2 JUMPDEST POP POP POP POP POP DUP2 MSTORE PUSH1 0x20 ADD PUSH1 0x2 DUP3 ADD SLOAD DUP2 MSTORE POP POP DUP2 MSTORE PUSH1 0x20 ADD SWAP1 PUSH1 0x1 ADD SWAP1 PUSH2 0x129E JUMP JUMPDEST POP POP POP POP SWAP1 POP SWAP3 SWAP2 POP POP JUMP JUMPDEST PUSH1 0x60 PUSH1 0x3 PUSH1 0x0 DUP4 PUSH20 0xFFFFFFFFFFFFFFFFFFFFFFFFFFFFFFFFFFFFFFFF AND PUSH20 0xFFFFFFFFFFFFFFFFFFFFFFFFFFFFFFFFFFFFFFFF AND DUP2 MSTORE PUSH1 0x20 ADD SWAP1 DUP2 MSTORE PUSH1 0x20 ADD PUSH1 0x0 KECCAK256 DUP1 SLOAD DUP1 PUSH1 0x20 MUL PUSH1 0x20 ADD PUSH1 0x40 MLOAD SWAP1 DUP2 ADD PUSH1 0x40 MSTORE DUP1 SWAP3 SWAP2 SWAP1 DUP2 DUP2 MSTORE PUSH1 0x20 ADD DUP3 DUP1 SLOAD DUP1 ISZERO PUSH2 0x148F JUMPI PUSH1 0x20 MUL DUP3 ADD SWAP2 SWAP1 PUSH1 0x0 MSTORE PUSH1 0x20 PUSH1 0x0 KECCAK256 SWAP1 JUMPDEST DUP2 PUSH1 0x0 SWAP1 SLOAD SWAP1 PUSH2 0x100 EXP SWAP1 DIV PUSH20 0xFFFFFFFFFFFFFFFFFFFFFFFFFFFFFFFFFFFFFFFF AND PUSH20 0xFFFFFFFFFFFFFFFFFFFFFFFFFFFFFFFFFFFFFFFF AND DUP2 MSTORE PUSH1 0x20 ADD SWAP1 PUSH1 0x1 ADD SWAP1 DUP1 DUP4 GT PUSH2 0x1445 JUMPI JUMPDEST POP POP POP POP POP SWAP1 POP SWAP2 SWAP1 POP JUMP JUMPDEST PUSH1 0x0 PUSH1 0x40 MLOAD DUP1 PUSH1 0x60 ADD PUSH1 0x40 MSTORE DUP1 DUP6 PUSH20 0xFFFFFFFFFFFFFFFFFFFFFFFFFFFFFFFFFFFFFFFF AND DUP2 MSTORE PUSH1 0x20 ADD DUP4 DUP2 MSTORE PUSH1 0x20 ADD TIMESTAMP DUP2 MSTORE POP SWAP1 POP PUSH1 0x6 PUSH1 0x0 DUP6 PUSH20 0xFFFFFFFFFFFFFFFFFFFFFFFFFFFFFFFFFFFFFFFF AND PUSH20 0xFFFFFFFFFFFFFFFFFFFFFFFFFFFFFFFFFFFFFFFF AND DUP2 MSTORE PUSH1 0x20 ADD SWAP1 DUP2 MSTORE PUSH1 0x20 ADD PUSH1 0x0 KECCAK256 PUSH1 0x0 DUP5 PUSH20 0xFFFFFFFFFFFFFFFFFFFFFFFFFFFFFFFFFFFFFFFF AND PUSH20 0xFFFFFFFFFFFFFFFFFFFFFFFFFFFFFFFFFFFFFFFF AND DUP2 MSTORE PUSH1 0x20 ADD SWAP1 DUP2 MSTORE PUSH1 0x20 ADD PUSH1 0x0 KECCAK256 DUP2 SWAP1 DUP1 PUSH1 0x1 DUP2 SLOAD ADD DUP1 DUP3 SSTORE DUP1 SWAP2 POP POP PUSH1 0x1 SWAP1 SUB SWAP1 PUSH1 0x0 MSTORE PUSH1 0x20 PUSH1 0x0 KECCAK256 SWAP1 PUSH1 0x3 MUL ADD PUSH1 0x0 SWAP1 SWAP2 SWAP1 SWAP2 SWAP1 SWAP2 POP PUSH1 0x0 DUP3 ADD MLOAD DUP2 PUSH1 0x0 ADD PUSH1 0x0 PUSH2 0x100 EXP DUP2 SLOAD DUP2 PUSH20 0xFFFFFFFFFFFFFFFFFFFFFFFFFFFFFFFFFFFFFFFF MUL NOT AND SWAP1 DUP4 PUSH20 0xFFFFFFFFFFFFFFFFFFFFFFFFFFFFFFFFFFFFFFFF AND MUL OR SWAP1 SSTORE POP PUSH1 0x20 DUP3 ADD MLOAD DUP2 PUSH1 0x1 ADD SWAP1 DUP2 PUSH2 0x15D2 SWAP2 SWAP1 PUSH2 0x37FF JUMP JUMPDEST POP PUSH1 0x40 DUP3 ADD MLOAD DUP2 PUSH1 0x2 ADD SSTORE POP POP PUSH1 0x0 JUMPDEST PUSH1 0x7 PUSH1 0x0 DUP6 PUSH20 0xFFFFFFFFFFFFFFFFFFFFFFFFFFFFFFFFFFFFFFFF AND PUSH20 0xFFFFFFFFFFFFFFFFFFFFFFFFFFFFFFFFFFFFFFFF AND DUP2 MSTORE PUSH1 0x20 ADD SWAP1 DUP2 MSTORE PUSH1 0x20 ADD PUSH1 0x0 KECCAK256 DUP1 SLOAD SWAP1 POP DUP2 LT ISZERO PUSH2 0x16F4 JUMPI DUP5 PUSH20 0xFFFFFFFFFFFFFFFFFFFFFFFFFFFFFFFFFFFFFFFF AND PUSH1 0x7 PUSH1 0x0 DUP7 PUSH20 0xFFFFFFFFFFFFFFFFFFFFFFFFFFFFFFFFFFFFFFFF AND PUSH20 0xFFFFFFFFFFFFFFFFFFFFFFFFFFFFFFFFFFFFFFFF AND DUP2 MSTORE PUSH1 0x20 ADD SWAP1 DUP2 MSTORE PUSH1 0x20 ADD PUSH1 0x0 KECCAK256 DUP3 DUP2 SLOAD DUP2 LT PUSH2 0x1694 JUMPI PUSH2 0x1693 PUSH2 0x38D1 JUMP JUMPDEST JUMPDEST SWAP1 PUSH1 0x0 MSTORE PUSH1 0x20 PUSH1 0x0 KECCAK256 ADD PUSH1 0x0 SWAP1 SLOAD SWAP1 PUSH2 0x100 EXP SWAP1 DIV PUSH20 0xFFFFFFFFFFFFFFFFFFFFFFFFFFFFFFFFFFFFFFFF AND PUSH20 0xFFFFFFFFFFFFFFFFFFFFFFFFFFFFFFFFFFFFFFFF AND SUB PUSH2 0x16E1 JUMPI POP POP PUSH2 0x1797 JUMP JUMPDEST DUP1 DUP1 PUSH2 0x16EC SWAP1 PUSH2 0x392F JUMP JUMPDEST SWAP2 POP POP PUSH2 0x15E2 JUMP JUMPDEST POP PUSH1 0x7 PUSH1 0x0 DUP5 PUSH20 0xFFFFFFFFFFFFFFFFFFFFFFFFFFFFFFFFFFFFFFFF AND PUSH20 0xFFFFFFFFFFFFFFFFFFFFFFFFFFFFFFFFFFFFFFFF AND DUP2 MSTORE PUSH1 0x20 ADD SWAP1 DUP2 MSTORE PUSH1 0x20 ADD PUSH1 0x0 KECCAK256 DUP5 SWAP1 DUP1 PUSH1 0x1 DUP2 SLOAD ADD DUP1 DUP3 SSTORE DUP1 SWAP2 POP POP PUSH1 0x1 SWAP1 SUB SWAP1 PUSH1 0x0 MSTORE PUSH1 0x20 PUSH1 0x0 KECCAK256 ADD PUSH1 0x0 SWAP1 SWAP2 SWAP1 SWAP2 SWAP1 SWAP2 PUSH2 0x100 EXP DUP2 SLOAD DUP2 PUSH20 0xFFFFFFFFFFFFFFFFFFFFFFFFFFFFFFFFFFFFFFFF MUL NOT AND SWAP1 DUP4 PUSH20 0xFFFFFFFFFFFFFFFFFFFFFFFFFFFFFFFFFFFFFFFF AND MUL OR SWAP1 SSTORE POP POP JUMPDEST POP POP POP JUMP JUMPDEST PUSH1 0x0 PUSH1 0x40 MLOAD DUP1 PUSH1 0x80 ADD PUSH1 0x40 MSTORE DUP1 DUP5 DUP2 MSTORE PUSH1 0x20 ADD DUP4 DUP2 MSTORE PUSH1 0x20 ADD TIMESTAMP DUP2 MSTORE PUSH1 0x20 ADD PUSH1 0x1 ISZERO ISZERO DUP2 MSTORE POP SWAP1 POP PUSH1 0x5 PUSH1 0x0 DUP6 PUSH20 0xFFFFFFFFFFFFFFFFFFFFFFFFFFFFFFFFFFFFFFFF AND PUSH20 0xFFFFFFFFFFFFFFFFFFFFFFFFFFFFFFFFFFFFFFFF AND DUP2 MSTORE PUSH1 0x20 ADD SWAP1 DUP2 MSTORE PUSH1 0x20 ADD PUSH1 0x0 KECCAK256 DUP2 SWAP1 DUP1 PUSH1 0x1 DUP2 SLOAD ADD DUP1 DUP3 SSTORE DUP1 SWAP2 POP POP PUSH1 0x1 SWAP1 SUB SWAP1 PUSH1 0x0 MSTORE PUSH1 0x20 PUSH1 0x0 KECCAK256 SWAP1 PUSH1 0x4 MUL ADD PUSH1 0x0 SWAP1 SWAP2 SWAP1 SWAP2 SWAP1 SWAP2 POP PUSH1 0x0 DUP3 ADD MLOAD DUP2 PUSH1 0x0 ADD SWAP1 DUP2 PUSH2 0x1842 SWAP2 SWAP1 PUSH2 0x37FF JUMP JUMPDEST POP PUSH1 0x20 DUP3 ADD MLOAD DUP2 PUSH1 0x1 ADD SWAP1 DUP2 PUSH2 0x1858 SWAP2 SWAP1 PUSH2 0x37FF JUMP JUMPDEST POP PUSH1 0x40 DUP3 ADD MLOAD DUP2 PUSH1 0x2 ADD SSTORE PUSH1 0x60 DUP3 ADD MLOAD DUP2 PUSH1 0x3 ADD PUSH1 0x0 PUSH2 0x100 EXP DUP2 SLOAD DUP2 PUSH1 0xFF MUL NOT AND SWAP1 DUP4 ISZERO ISZERO MUL OR SWAP1 SSTORE POP POP POP POP POP POP POP JUMP JUMPDEST PUSH1 0x0 DUP1 PUSH1 0x0 DUP1 DUP5 PUSH20 0xFFFFFFFFFFFFFFFFFFFFFFFFFFFFFFFFFFFFFFFF AND PUSH20 0xFFFFFFFFFFFFFFFFFFFFFFFFFFFFFFFFFFFFFFFF AND DUP2 MSTORE PUSH1 0x20 ADD SWAP1 DUP2 MSTORE PUSH1 0x20 ADD PUSH1 0x0 KECCAK256 PUSH1 0x0 SWAP1 SLOAD SWAP1 PUSH2 0x100 EXP SWAP1 DIV PUSH20 0xFFFFFFFFFFFFFFFFFFFFFFFFFFFFFFFFFFFFFFFF AND SWAP1 POP PUSH1 0x0 PUSH20 0xFFFFFFFFFFFFFFFFFFFFFFFFFFFFFFFFFFFFFFFF AND PUSH1 0x1 PUSH1 0x0 DUP4 PUSH20 0xFFFFFFFFFFFFFFFFFFFFFFFFFFFFFFFFFFFFFFFF AND PUSH20 0xFFFFFFFFFFFFFFFFFFFFFFFFFFFFFFFFFFFFFFFF AND DUP2 MSTORE PUSH1 0x20 ADD SWAP1 DUP2 MSTORE PUSH1 0x20 ADD PUSH1 0x0 KECCAK256 PUSH1 0x3 ADD PUSH1 0x0 SWAP1 SLOAD SWAP1 PUSH2 0x100 EXP SWAP1 DIV PUSH20 0xFFFFFFFFFFFFFFFFFFFFFFFFFFFFFFFFFFFFFFFF AND PUSH20 0xFFFFFFFFFFFFFFFFFFFFFFFFFFFFFFFFFFFFFFFF AND EQ ISZERO DUP1 PUSH2 0x19E0 JUMPI POP PUSH1 0x1 ISZERO ISZERO PUSH1 0x1 PUSH1 0x0 DUP4 PUSH20 0xFFFFFFFFFFFFFFFFFFFFFFFFFFFFFFFFFFFFFFFF AND PUSH20 0xFFFFFFFFFFFFFFFFFFFFFFFFFFFFFFFFFFFFFFFF AND DUP2 MSTORE PUSH1 0x20 ADD SWAP1 DUP2 MSTORE PUSH1 0x20 ADD PUSH1 0x0 KECCAK256 PUSH1 0x3 ADD PUSH1 0x14 SWAP1 SLOAD SWAP1 PUSH2 0x100 EXP SWAP1 DIV PUSH1 0xFF AND ISZERO ISZERO EQ JUMPDEST ISZERO PUSH2 0x19EF JUMPI PUSH1 0x1 SWAP2 POP POP PUSH2 0x19F5 JUMP JUMPDEST PUSH1 0x0 SWAP2 POP POP JUMPDEST SWAP2 SWAP1 POP JUMP JUMPDEST PUSH1 0x0 DUP1 PUSH1 0x0 DUP1 DUP5 PUSH20 0xFFFFFFFFFFFFFFFFFFFFFFFFFFFFFFFFFFFFFFFF AND PUSH20 0xFFFFFFFFFFFFFFFFFFFFFFFFFFFFFFFFFFFFFFFF AND DUP2 MSTORE PUSH1 0x20 ADD SWAP1 DUP2 MSTORE PUSH1 0x20 ADD PUSH1 0x0 KECCAK256 PUSH1 0x0 SWAP1 SLOAD SWAP1 PUSH2 0x100 EXP SWAP1 DIV PUSH20 0xFFFFFFFFFFFFFFFFFFFFFFFFFFFFFFFFFFFFFFFF AND SWAP1 POP DUP1 SWAP2 POP POP SWAP2 SWAP1 POP JUMP JUMPDEST PUSH2 0x1A6F PUSH2 0x207C JUMP JUMPDEST PUSH1 0x1 PUSH1 0x0 DUP4 PUSH20 0xFFFFFFFFFFFFFFFFFFFFFFFFFFFFFFFFFFFFFFFF AND PUSH20 0xFFFFFFFFFFFFFFFFFFFFFFFFFFFFFFFFFFFFFFFF AND DUP2 MSTORE PUSH1 0x20 ADD SWAP1 DUP2 MSTORE PUSH1 0x20 ADD PUSH1 0x0 KECCAK256 PUSH1 0x40 MLOAD DUP1 PUSH1 0xC0 ADD PUSH1 0x40 MSTORE SWAP1 DUP2 PUSH1 0x0 DUP3 ADD DUP1 SLOAD PUSH2 0x1AC9 SWAP1 PUSH2 0x3622 JUMP JUMPDEST DUP1 PUSH1 0x1F ADD PUSH1 0x20 DUP1 SWAP2 DIV MUL PUSH1 0x20 ADD PUSH1 0x40 MLOAD SWAP1 DUP2 ADD PUSH1 0x40 MSTORE DUP1 SWAP3 SWAP2 SWAP1 DUP2 DUP2 MSTORE PUSH1 0x20 ADD DUP3 DUP1 SLOAD PUSH2 0x1AF5 SWAP1 PUSH2 0x3622 JUMP JUMPDEST DUP1 ISZERO PUSH2 0x1B42 JUMPI DUP1 PUSH1 0x1F LT PUSH2 0x1B17 JUMPI PUSH2 0x100 DUP1 DUP4 SLOAD DIV MUL DUP4 MSTORE SWAP2 PUSH1 0x20 ADD SWAP2 PUSH2 0x1B42 JUMP JUMPDEST DUP3 ADD SWAP2 SWAP1 PUSH1 0x0 MSTORE PUSH1 0x20 PUSH1 0x0 KECCAK256 SWAP1 JUMPDEST DUP2 SLOAD DUP2 MSTORE SWAP1 PUSH1 0x1 ADD SWAP1 PUSH1 0x20 ADD DUP1 DUP4 GT PUSH2 0x1B25 JUMPI DUP3 SWAP1 SUB PUSH1 0x1F AND DUP3 ADD SWAP2 JUMPDEST POP POP POP POP POP DUP2 MSTORE PUSH1 0x20 ADD PUSH1 0x1 DUP3 ADD DUP1 SLOAD PUSH2 0x1B5B SWAP1 PUSH2 0x3622 JUMP JUMPDEST DUP1 PUSH1 0x1F ADD PUSH1 0x20 DUP1 SWAP2 DIV MUL PUSH1 0x20 ADD PUSH1 0x40 MLOAD SWAP1 DUP2 ADD PUSH1 0x40 MSTORE DUP1 SWAP3 SWAP2 SWAP1 DUP2 DUP2 MSTORE PUSH1 0x20 ADD DUP3 DUP1 SLOAD PUSH2 0x1B87 SWAP1 PUSH2 0x3622 JUMP JUMPDEST DUP1 ISZERO PUSH2 0x1BD4 JUMPI DUP1 PUSH1 0x1F LT PUSH2 0x1BA9 JUMPI PUSH2 0x100 DUP1 DUP4 SLOAD DIV MUL DUP4 MSTORE SWAP2 PUSH1 0x20 ADD SWAP2 PUSH2 0x1BD4 JUMP JUMPDEST DUP3 ADD SWAP2 SWAP1 PUSH1 0x0 MSTORE PUSH1 0x20 PUSH1 0x0 KECCAK256 SWAP1 JUMPDEST DUP2 SLOAD DUP2 MSTORE SWAP1 PUSH1 0x1 ADD SWAP1 PUSH1 0x20 ADD DUP1 DUP4 GT PUSH2 0x1BB7 JUMPI DUP3 SWAP1 SUB PUSH1 0x1F AND DUP3 ADD SWAP2 JUMPDEST POP POP POP POP POP DUP2 MSTORE PUSH1 0x20 ADD PUSH1 0x2 DUP3 ADD SLOAD DUP2 MSTORE PUSH1 0x20 ADD PUSH1 0x3 DUP3 ADD PUSH1 0x0 SWAP1 SLOAD SWAP1 PUSH2 0x100 EXP SWAP1 DIV PUSH20 0xFFFFFFFFFFFFFFFFFFFFFFFFFFFFFFFFFFFFFFFF AND PUSH20 0xFFFFFFFFFFFFFFFFFFFFFFFFFFFFFFFFFFFFFFFF AND PUSH20 0xFFFFFFFFFFFFFFFFFFFFFFFFFFFFFFFFFFFFFFFF AND DUP2 MSTORE PUSH1 0x20 ADD PUSH1 0x3 DUP3 ADD PUSH1 0x14 SWAP1 SLOAD SWAP1 PUSH2 0x100 EXP SWAP1 DIV PUSH1 0xFF AND ISZERO ISZERO ISZERO ISZERO DUP2 MSTORE PUSH1 0x20 ADD PUSH1 0x3 DUP3 ADD PUSH1 0x15 SWAP1 SLOAD SWAP1 PUSH2 0x100 EXP SWAP1 DIV PUSH1 0xFF AND ISZERO ISZERO ISZERO ISZERO DUP2 MSTORE POP POP SWAP1 POP SWAP2 SWAP1 POP JUMP JUMPDEST PUSH1 0x60 PUSH1 0x7 PUSH1 0x0 DUP4 PUSH20 0xFFFFFFFFFFFFFFFFFFFFFFFFFFFFFFFFFFFFFFFF AND PUSH20 0xFFFFFFFFFFFFFFFFFFFFFFFFFFFFFFFFFFFFFFFF AND DUP2 MSTORE PUSH1 0x20 ADD SWAP1 DUP2 MSTORE PUSH1 0x20 ADD PUSH1 0x0 KECCAK256 DUP1 SLOAD DUP1 PUSH1 0x20 MUL PUSH1 0x20 ADD PUSH1 0x40 MLOAD SWAP1 DUP2 ADD PUSH1 0x40 MSTORE DUP1 SWAP3 SWAP2 SWAP1 DUP2 DUP2 MSTORE PUSH1 0x20 ADD DUP3 DUP1 SLOAD DUP1 ISZERO PUSH2 0x1D3B JUMPI PUSH1 0x20 MUL DUP3 ADD SWAP2 SWAP1 PUSH1 0x0 MSTORE PUSH1 0x20 PUSH1 0x0 KECCAK256 SWAP1 JUMPDEST DUP2 PUSH1 0x0 SWAP1 SLOAD SWAP1 PUSH2 0x100 EXP SWAP1 DIV PUSH20 0xFFFFFFFFFFFFFFFFFFFFFFFFFFFFFFFFFFFFFFFF AND PUSH20 0xFFFFFFFFFFFFFFFFFFFFFFFFFFFFFFFFFFFFFFFF AND DUP2 MSTORE PUSH1 0x20 ADD SWAP1 PUSH1 0x1 ADD SWAP1 DUP1 DUP4 GT PUSH2 0x1CF1 JUMPI JUMPDEST POP POP POP POP POP SWAP1 POP SWAP2 SWAP1 POP JUMP JUMPDEST PUSH1 0x60 PUSH1 0x4 PUSH1 0x0 DUP4 PUSH20 0xFFFFFFFFFFFFFFFFFFFFFFFFFFFFFFFFFFFFFFFF AND PUSH20 0xFFFFFFFFFFFFFFFFFFFFFFFFFFFFFFFFFFFFFFFF AND DUP2 MSTORE PUSH1 0x20 ADD SWAP1 DUP2 MSTORE PUSH1 0x20 ADD PUSH1 0x0 KECCAK256 DUP1 SLOAD DUP1 PUSH1 0x20 MUL PUSH1 0x20 ADD PUSH1 0x40 MLOAD SWAP1 DUP2 ADD PUSH1 0x40 MSTORE DUP1 SWAP3 SWAP2 SWAP1 DUP2 DUP2 MSTORE PUSH1 0x20 ADD DUP3 DUP1 SLOAD DUP1 ISZERO PUSH2 0x1E08 JUMPI PUSH1 0x20 MUL DUP3 ADD SWAP2 SWAP1 PUSH1 0x0 MSTORE PUSH1 0x20 PUSH1 0x0 KECCAK256 SWAP1 JUMPDEST DUP2 PUSH1 0x0 SWAP1 SLOAD SWAP1 PUSH2 0x100 EXP SWAP1 DIV PUSH20 0xFFFFFFFFFFFFFFFFFFFFFFFFFFFFFFFFFFFFFFFF AND PUSH20 0xFFFFFFFFFFFFFFFFFFFFFFFFFFFFFFFFFFFFFFFF AND DUP2 MSTORE PUSH1 0x20 ADD SWAP1 PUSH1 0x1 ADD SWAP1 DUP1 DUP4 GT PUSH2 0x1DBE JUMPI JUMPDEST POP POP POP POP POP SWAP1 POP SWAP2 SWAP1 POP JUMP JUMPDEST DUP1 PUSH1 0x0 DUP1 DUP5 PUSH20 0xFFFFFFFFFFFFFFFFFFFFFFFFFFFFFFFFFFFFFFFF AND PUSH20 0xFFFFFFFFFFFFFFFFFFFFFFFFFFFFFFFFFFFFFFFF AND DUP2 MSTORE PUSH1 0x20 ADD SWAP1 DUP2 MSTORE PUSH1 0x20 ADD PUSH1 0x0 KECCAK256 PUSH1 0x0 PUSH2 0x100 EXP DUP2 SLOAD DUP2 PUSH20 0xFFFFFFFFFFFFFFFFFFFFFFFFFFFFFFFFFFFFFFFF MUL NOT AND SWAP1 DUP4 PUSH20 0xFFFFFFFFFFFFFFFFFFFFFFFFFFFFFFFFFFFFFFFF AND MUL OR SWAP1 SSTORE POP POP POP JUMP JUMPDEST PUSH1 0x60 PUSH1 0x5 PUSH1 0x0 DUP4 PUSH20 0xFFFFFFFFFFFFFFFFFFFFFFFFFFFFFFFFFFFFFFFF AND PUSH20 0xFFFFFFFFFFFFFFFFFFFFFFFFFFFFFFFFFFFFFFFF AND DUP2 MSTORE PUSH1 0x20 ADD SWAP1 DUP2 MSTORE PUSH1 0x20 ADD PUSH1 0x0 KECCAK256 DUP1 SLOAD DUP1 PUSH1 0x20 MUL PUSH1 0x20 ADD PUSH1 0x40 MLOAD SWAP1 DUP2 ADD PUSH1 0x40 MSTORE DUP1 SWAP3 SWAP2 SWAP1 DUP2 DUP2 MSTORE PUSH1 0x20 ADD PUSH1 0x0 SWAP1 JUMPDEST DUP3 DUP3 LT ISZERO PUSH2 0x2071 JUMPI DUP4 DUP3 SWAP1 PUSH1 0x0 MSTORE PUSH1 0x20 PUSH1 0x0 KECCAK256 SWAP1 PUSH1 0x4 MUL ADD PUSH1 0x40 MLOAD DUP1 PUSH1 0x80 ADD PUSH1 0x40 MSTORE SWAP1 DUP2 PUSH1 0x0 DUP3 ADD DUP1 SLOAD PUSH2 0x1F29 SWAP1 PUSH2 0x3622 JUMP JUMPDEST DUP1 PUSH1 0x1F ADD PUSH1 0x20 DUP1 SWAP2 DIV MUL PUSH1 0x20 ADD PUSH1 0x40 MLOAD SWAP1 DUP2 ADD PUSH1 0x40 MSTORE DUP1 SWAP3 SWAP2 SWAP1 DUP2 DUP2 MSTORE PUSH1 0x20 ADD DUP3 DUP1 SLOAD PUSH2 0x1F55 SWAP1 PUSH2 0x3622 JUMP JUMPDEST DUP1 ISZERO PUSH2 0x1FA2 JUMPI DUP1 PUSH1 0x1F LT PUSH2 0x1F77 JUMPI PUSH2 0x100 DUP1 DUP4 SLOAD DIV MUL DUP4 MSTORE SWAP2 PUSH1 0x20 ADD SWAP2 PUSH2 0x1FA2 JUMP JUMPDEST DUP3 ADD SWAP2 SWAP1 PUSH1 0x0 MSTORE PUSH1 0x20 PUSH1 0x0 KECCAK256 SWAP1 JUMPDEST DUP2 SLOAD DUP2 MSTORE SWAP1 PUSH1 0x1 ADD SWAP1 PUSH1 0x20 ADD DUP1 DUP4 GT PUSH2 0x1F85 JUMPI DUP3 SWAP1 SUB PUSH1 0x1F AND DUP3 ADD SWAP2 JUMPDEST POP POP POP POP POP DUP2 MSTORE PUSH1 0x20 ADD PUSH1 0x1 DUP3 ADD DUP1 SLOAD PUSH2 0x1FBB SWAP1 PUSH2 0x3622 JUMP JUMPDEST DUP1 PUSH1 0x1F ADD PUSH1 0x20 DUP1 SWAP2 DIV MUL PUSH1 0x20 ADD PUSH1 0x40 MLOAD SWAP1 DUP2 ADD PUSH1 0x40 MSTORE DUP1 SWAP3 SWAP2 SWAP1 DUP2 DUP2 MSTORE PUSH1 0x20 ADD DUP3 DUP1 SLOAD PUSH2 0x1FE7 SWAP1 PUSH2 0x3622 JUMP JUMPDEST DUP1 ISZERO PUSH2 0x2034 JUMPI DUP1 PUSH1 0x1F LT PUSH2 0x2009 JUMPI PUSH2 0x100 DUP1 DUP4 SLOAD DIV MUL DUP4 MSTORE SWAP2 PUSH1 0x20 ADD SWAP2 PUSH2 0x2034 JUMP JUMPDEST DUP3 ADD SWAP2 SWAP1 PUSH1 0x0 MSTORE PUSH1 0x20 PUSH1 0x0 KECCAK256 SWAP1 JUMPDEST DUP2 SLOAD DUP2 MSTORE SWAP1 PUSH1 0x1 ADD SWAP1 PUSH1 0x20 ADD DUP1 DUP4 GT PUSH2 0x2017 JUMPI DUP3 SWAP1 SUB PUSH1 0x1F AND DUP3 ADD SWAP2 JUMPDEST POP POP POP POP POP DUP2 MSTORE PUSH1 0x20 ADD PUSH1 0x2 DUP3 ADD SLOAD DUP2 MSTORE PUSH1 0x20 ADD PUSH1 0x3 DUP3 ADD PUSH1 0x0 SWAP1 SLOAD SWAP1 PUSH2 0x100 EXP SWAP1 DIV PUSH1 0xFF AND ISZERO ISZERO ISZERO ISZERO DUP2 MSTORE POP POP DUP2 MSTORE PUSH1 0x20 ADD SWAP1 PUSH1 0x1 ADD SWAP1 PUSH2 0x1EF6 JUMP JUMPDEST POP POP POP POP SWAP1 POP SWAP2 SWAP1 POP JUMP JUMPDEST PUSH1 0x40 MLOAD DUP1 PUSH1 0xC0 ADD PUSH1 0x40 MSTORE DUP1 PUSH1 0x60 DUP2 MSTORE PUSH1 0x20 ADD PUSH1 0x60 DUP2 MSTORE PUSH1 0x20 ADD PUSH1 0x0 DUP2 MSTORE PUSH1 0x20 ADD PUSH1 0x0 PUSH20 0xFFFFFFFFFFFFFFFFFFFFFFFFFFFFFFFFFFFFFFFF AND DUP2 MSTORE PUSH1 0x20 ADD PUSH1 0x0 ISZERO ISZERO DUP2 MSTORE PUSH1 0x20 ADD PUSH1 0x0 ISZERO ISZERO DUP2 MSTORE POP SWAP1 JUMP JUMPDEST PUSH1 0x0 PUSH1 0x40 MLOAD SWAP1 POP SWAP1 JUMP JUMPDEST PUSH1 0x0 DUP1 REVERT JUMPDEST PUSH1 0x0 DUP1 REVERT JUMPDEST PUSH1 0x0 DUP1 REVERT JUMPDEST PUSH1 0x0 DUP1 REVERT JUMPDEST PUSH1 0x0 PUSH1 0x1F NOT PUSH1 0x1F DUP4 ADD AND SWAP1 POP SWAP2 SWAP1 POP JUMP JUMPDEST PUSH32 0x4E487B7100000000000000000000000000000000000000000000000000000000 PUSH1 0x0 MSTORE PUSH1 0x41 PUSH1 0x4 MSTORE PUSH1 0x24 PUSH1 0x0 REVERT JUMPDEST PUSH2 0x2133 DUP3 PUSH2 0x20EA JUMP JUMPDEST DUP2 ADD DUP2 DUP2 LT PUSH8 0xFFFFFFFFFFFFFFFF DUP3 GT OR ISZERO PUSH2 0x2152 JUMPI PUSH2 0x2151 PUSH2 0x20FB JUMP JUMPDEST JUMPDEST DUP1 PUSH1 0x40 MSTORE POP POP POP JUMP JUMPDEST PUSH1 0x0 PUSH2 0x2165 PUSH2 0x20CC JUMP JUMPDEST SWAP1 POP PUSH2 0x2171 DUP3 DUP3 PUSH2 0x212A JUMP JUMPDEST SWAP2 SWAP1 POP JUMP JUMPDEST PUSH1 0x0 PUSH8 0xFFFFFFFFFFFFFFFF DUP3 GT ISZERO PUSH2 0x2191 JUMPI PUSH2 0x2190 PUSH2 0x20FB JUMP JUMPDEST JUMPDEST PUSH2 0x219A DUP3 PUSH2 0x20EA JUMP JUMPDEST SWAP1 POP PUSH1 0x20 DUP2 ADD SWAP1 POP SWAP2 SWAP1 POP JUMP JUMPDEST DUP3 DUP2 DUP4 CALLDATACOPY PUSH1 0x0 DUP4 DUP4 ADD MSTORE POP POP POP JUMP JUMPDEST PUSH1 0x0 PUSH2 0x21C9 PUSH2 0x21C4 DUP5 PUSH2 0x2176 JUMP JUMPDEST PUSH2 0x215B JUMP JUMPDEST SWAP1 POP DUP3 DUP2 MSTORE PUSH1 0x20 DUP2 ADD DUP5 DUP5 DUP5 ADD GT ISZERO PUSH2 0x21E5 JUMPI PUSH2 0x21E4 PUSH2 0x20E5 JUMP JUMPDEST JUMPDEST PUSH2 0x21F0 DUP5 DUP3 DUP6 PUSH2 0x21A7 JUMP JUMPDEST POP SWAP4 SWAP3 POP POP POP JUMP JUMPDEST PUSH1 0x0 DUP3 PUSH1 0x1F DUP4 ADD SLT PUSH2 0x220D JUMPI PUSH2 0x220C PUSH2 0x20E0 JUMP JUMPDEST JUMPDEST DUP2 CALLDATALOAD PUSH2 0x221D DUP5 DUP3 PUSH1 0x20 DUP7 ADD PUSH2 0x21B6 JUMP JUMPDEST SWAP2 POP POP SWAP3 SWAP2 POP POP JUMP JUMPDEST PUSH1 0x0 DUP2 SWAP1 POP SWAP2 SWAP1 POP JUMP JUMPDEST PUSH2 0x2239 DUP2 PUSH2 0x2226 JUMP JUMPDEST DUP2 EQ PUSH2 0x2244 JUMPI PUSH1 0x0 DUP1 REVERT JUMPDEST POP JUMP JUMPDEST PUSH1 0x0 DUP2 CALLDATALOAD SWAP1 POP PUSH2 0x2256 DUP2 PUSH2 0x2230 JUMP JUMPDEST SWAP3 SWAP2 POP POP JUMP JUMPDEST PUSH1 0x0 DUP1 PUSH1 0x0 PUSH1 0x60 DUP5 DUP7 SUB SLT ISZERO PUSH2 0x2275 JUMPI PUSH2 0x2274 PUSH2 0x20D6 JUMP JUMPDEST JUMPDEST PUSH1 0x0 DUP5 ADD CALLDATALOAD PUSH8 0xFFFFFFFFFFFFFFFF DUP2 GT ISZERO PUSH2 0x2293 JUMPI PUSH2 0x2292 PUSH2 0x20DB JUMP JUMPDEST JUMPDEST PUSH2 0x229F DUP7 DUP3 DUP8 ADD PUSH2 0x21F8 JUMP JUMPDEST SWAP4 POP POP PUSH1 0x20 DUP5 ADD CALLDATALOAD PUSH8 0xFFFFFFFFFFFFFFFF DUP2 GT ISZERO PUSH2 0x22C0 JUMPI PUSH2 0x22BF PUSH2 0x20DB JUMP JUMPDEST JUMPDEST PUSH2 0x22CC DUP7 DUP3 DUP8 ADD PUSH2 0x21F8 JUMP JUMPDEST SWAP3 POP POP PUSH1 0x40 PUSH2 0x22DD DUP7 DUP3 DUP8 ADD PUSH2 0x2247 JUMP JUMPDEST SWAP2 POP POP SWAP3 POP SWAP3 POP SWAP3 JUMP JUMPDEST PUSH1 0x0 PUSH20 0xFFFFFFFFFFFFFFFFFFFFFFFFFFFFFFFFFFFFFFFF DUP3 AND SWAP1 POP SWAP2 SWAP1 POP JUMP JUMPDEST PUSH1 0x0 PUSH2 0x2312 DUP3 PUSH2 0x22E7 JUMP JUMPDEST SWAP1 POP SWAP2 SWAP1 POP JUMP JUMPDEST PUSH2 0x2322 DUP2 PUSH2 0x2307 JUMP JUMPDEST DUP2 EQ PUSH2 0x232D JUMPI PUSH1 0x0 DUP1 REVERT JUMPDEST POP JUMP JUMPDEST PUSH1 0x0 DUP2 CALLDATALOAD SWAP1 POP PUSH2 0x233F DUP2 PUSH2 0x2319 JUMP JUMPDEST SWAP3 SWAP2 POP POP JUMP JUMPDEST PUSH1 0x0 DUP1 PUSH1 0x0 PUSH1 0x60 DUP5 DUP7 SUB SLT ISZERO PUSH2 0x235E JUMPI PUSH2 0x235D PUSH2 0x20D6 JUMP JUMPDEST JUMPDEST PUSH1 0x0 PUSH2 0x236C DUP7 DUP3 DUP8 ADD PUSH2 0x2330 JUMP JUMPDEST SWAP4 POP POP PUSH1 0x20 PUSH2 0x237D DUP7 DUP3 DUP8 ADD PUSH2 0x2330 JUMP JUMPDEST SWAP3 POP POP PUSH1 0x40 DUP5 ADD CALLDATALOAD PUSH8 0xFFFFFFFFFFFFFFFF DUP2 GT ISZERO PUSH2 0x239E JUMPI PUSH2 0x239D PUSH2 0x20DB JUMP JUMPDEST JUMPDEST PUSH2 0x23AA DUP7 DUP3 DUP8 ADD PUSH2 0x21F8 JUMP JUMPDEST SWAP2 POP POP SWAP3 POP SWAP3 POP SWAP3 JUMP JUMPDEST PUSH1 0x0 DUP1 PUSH1 0x40 DUP4 DUP6 SUB SLT ISZERO PUSH2 0x23CB JUMPI PUSH2 0x23CA PUSH2 0x20D6 JUMP JUMPDEST JUMPDEST PUSH1 0x0 PUSH2 0x23D9 DUP6 DUP3 DUP7 ADD PUSH2 0x2330 JUMP JUMPDEST SWAP3 POP POP PUSH1 0x20 PUSH2 0x23EA DUP6 DUP3 DUP7 ADD PUSH2 0x2330 JUMP JUMPDEST SWAP2 POP POP SWAP3 POP SWAP3 SWAP1 POP JUMP JUMPDEST PUSH1 0x0 DUP2 MLOAD SWAP1 POP SWAP2 SWAP1 POP JUMP JUMPDEST PUSH1 0x0 DUP3 DUP3 MSTORE PUSH1 0x20 DUP3 ADD SWAP1 POP SWAP3 SWAP2 POP POP JUMP JUMPDEST PUSH1 0x0 DUP2 SWAP1 POP PUSH1 0x20 DUP3 ADD SWAP1 POP SWAP2 SWAP1 POP JUMP JUMPDEST PUSH2 0x2429 DUP2 PUSH2 0x2307 JUMP JUMPDEST DUP3 MSTORE POP POP JUMP JUMPDEST PUSH1 0x0 DUP2 MLOAD SWAP1 POP SWAP2 SWAP1 POP JUMP JUMPDEST PUSH1 0x0 DUP3 DUP3 MSTORE PUSH1 0x20 DUP3 ADD SWAP1 POP SWAP3 SWAP2 POP POP JUMP JUMPDEST PUSH1 0x0 JUMPDEST DUP4 DUP2 LT ISZERO PUSH2 0x2469 JUMPI DUP1 DUP3 ADD MLOAD DUP2 DUP5 ADD MSTORE PUSH1 0x20 DUP2 ADD SWAP1 POP PUSH2 0x244E JUMP JUMPDEST PUSH1 0x0 DUP5 DUP5 ADD MSTORE POP POP POP POP JUMP JUMPDEST PUSH1 0x0 PUSH2 0x2480 DUP3 PUSH2 0x242F JUMP JUMPDEST PUSH2 0x248A DUP2 DUP6 PUSH2 0x243A JUMP JUMPDEST SWAP4 POP PUSH2 0x249A DUP2 DUP6 PUSH1 0x20 DUP7 ADD PUSH2 0x244B JUMP JUMPDEST PUSH2 0x24A3 DUP2 PUSH2 0x20EA JUMP JUMPDEST DUP5 ADD SWAP2 POP POP SWAP3 SWAP2 POP POP JUMP JUMPDEST PUSH2 0x24B7 DUP2 PUSH2 0x2226 JUMP JUMPDEST DUP3 MSTORE POP POP JUMP JUMPDEST PUSH1 0x0 PUSH1 0x60 DUP4 ADD PUSH1 0x0 DUP4 ADD MLOAD PUSH2 0x24D5 PUSH1 0x0 DUP7 ADD DUP3 PUSH2 0x2420 JUMP JUMPDEST POP PUSH1 0x20 DUP4 ADD MLOAD DUP5 DUP3 SUB PUSH1 0x20 DUP7 ADD MSTORE PUSH2 0x24ED DUP3 DUP3 PUSH2 0x2475 JUMP JUMPDEST SWAP2 POP POP PUSH1 0x40 DUP4 ADD MLOAD PUSH2 0x2502 PUSH1 0x40 DUP7 ADD DUP3 PUSH2 0x24AE JUMP JUMPDEST POP DUP1 SWAP2 POP POP SWAP3 SWAP2 POP POP JUMP JUMPDEST PUSH1 0x0 PUSH2 0x2519 DUP4 DUP4 PUSH2 0x24BD JUMP JUMPDEST SWAP1 POP SWAP3 SWAP2 POP POP JUMP JUMPDEST PUSH1 0x0 PUSH1 0x20 DUP3 ADD SWAP1 POP SWAP2 SWAP1 POP JUMP JUMPDEST PUSH1 0x0 PUSH2 0x2539 DUP3 PUSH2 0x23F4 JUMP JUMPDEST PUSH2 0x2543 DUP2 DUP6 PUSH2 0x23FF JUMP JUMPDEST SWAP4 POP DUP4 PUSH1 0x20 DUP3 MUL DUP6 ADD PUSH2 0x2555 DUP6 PUSH2 0x2410 JUMP JUMPDEST DUP1 PUSH1 0x0 JUMPDEST DUP6 DUP2 LT ISZERO PUSH2 0x2591 JUMPI DUP5 DUP5 SUB DUP10 MSTORE DUP2 MLOAD PUSH2 0x2572 DUP6 DUP3 PUSH2 0x250D JUMP JUMPDEST SWAP5 POP PUSH2 0x257D DUP4 PUSH2 0x2521 JUMP JUMPDEST SWAP3 POP PUSH1 0x20 DUP11 ADD SWAP10 POP POP PUSH1 0x1 DUP2 ADD SWAP1 POP PUSH2 0x2559 JUMP JUMPDEST POP DUP3 SWAP8 POP DUP8 SWAP6 POP POP POP POP POP POP SWAP3 SWAP2 POP POP JUMP JUMPDEST PUSH1 0x0 PUSH1 0x20 DUP3 ADD SWAP1 POP DUP2 DUP2 SUB PUSH1 0x0 DUP4 ADD MSTORE PUSH2 0x25BD DUP2 DUP5 PUSH2 0x252E JUMP JUMPDEST SWAP1 POP SWAP3 SWAP2 POP POP JUMP JUMPDEST PUSH1 0x0 PUSH1 0x20 DUP3 DUP5 SUB SLT ISZERO PUSH2 0x25DB JUMPI PUSH2 0x25DA PUSH2 0x20D6 JUMP JUMPDEST JUMPDEST PUSH1 0x0 PUSH2 0x25E9 DUP5 DUP3 DUP6 ADD PUSH2 0x2330 JUMP JUMPDEST SWAP2 POP POP SWAP3 SWAP2 POP POP JUMP JUMPDEST PUSH1 0x0 DUP2 MLOAD SWAP1 POP SWAP2 SWAP1 POP JUMP JUMPDEST PUSH1 0x0 DUP3 DUP3 MSTORE PUSH1 0x20 DUP3 ADD SWAP1 POP SWAP3 SWAP2 POP POP JUMP JUMPDEST PUSH1 0x0 DUP2 SWAP1 POP PUSH1 0x20 DUP3 ADD SWAP1 POP SWAP2 SWAP1 POP JUMP JUMPDEST PUSH1 0x0 PUSH2 0x262A DUP4 DUP4 PUSH2 0x2420 JUMP JUMPDEST PUSH1 0x20 DUP4 ADD SWAP1 POP SWAP3 SWAP2 POP POP JUMP JUMPDEST PUSH1 0x0 PUSH1 0x20 DUP3 ADD SWAP1 POP SWAP2 SWAP1 POP JUMP JUMPDEST PUSH1 0x0 PUSH2 0x264E DUP3 PUSH2 0x25F2 JUMP JUMPDEST PUSH2 0x2658 DUP2 DUP6 PUSH2 0x25FD JUMP JUMPDEST SWAP4 POP PUSH2 0x2663 DUP4 PUSH2 0x260E JUMP JUMPDEST DUP1 PUSH1 0x0 JUMPDEST DUP4 DUP2 LT ISZERO PUSH2 0x2694 JUMPI DUP2 MLOAD PUSH2 0x267B DUP9 DUP3 PUSH2 0x261E JUMP JUMPDEST SWAP8 POP PUSH2 0x2686 DUP4 PUSH2 0x2636 JUMP JUMPDEST SWAP3 POP POP PUSH1 0x1 DUP2 ADD SWAP1 POP PUSH2 0x2667 JUMP JUMPDEST POP DUP6 SWAP4 POP POP POP POP SWAP3 SWAP2 POP POP JUMP JUMPDEST PUSH1 0x0 PUSH1 0x20 DUP3 ADD SWAP1 POP DUP2 DUP2 SUB PUSH1 0x0 DUP4 ADD MSTORE PUSH2 0x26BB DUP2 DUP5 PUSH2 0x2643 JUMP JUMPDEST SWAP1 POP SWAP3 SWAP2 POP POP JUMP JUMPDEST PUSH1 0x0 DUP1 PUSH1 0x0 PUSH1 0x60 DUP5 DUP7 SUB SLT ISZERO PUSH2 0x26DC JUMPI PUSH2 0x26DB PUSH2 0x20D6 JUMP JUMPDEST JUMPDEST PUSH1 0x0 PUSH2 0x26EA DUP7 DUP3 DUP8 ADD PUSH2 0x2330 JUMP JUMPDEST SWAP4 POP POP PUSH1 0x20 DUP5 ADD CALLDATALOAD PUSH8 0xFFFFFFFFFFFFFFFF DUP2 GT ISZERO PUSH2 0x270B JUMPI PUSH2 0x270A PUSH2 0x20DB JUMP JUMPDEST JUMPDEST PUSH2 0x2717 DUP7 DUP3 DUP8 ADD PUSH2 0x21F8 JUMP JUMPDEST SWAP3 POP POP PUSH1 0x40 DUP5 ADD CALLDATALOAD PUSH8 0xFFFFFFFFFFFFFFFF DUP2 GT ISZERO PUSH2 0x2738 JUMPI PUSH2 0x2737 PUSH2 0x20DB JUMP JUMPDEST JUMPDEST PUSH2 0x2744 DUP7 DUP3 DUP8 ADD PUSH2 0x21F8 JUMP JUMPDEST SWAP2 POP POP SWAP3 POP SWAP3 POP SWAP3 JUMP JUMPDEST PUSH1 0x0 DUP2 ISZERO ISZERO SWAP1 POP SWAP2 SWAP1 POP JUMP JUMPDEST PUSH2 0x2763 DUP2 PUSH2 0x274E JUMP JUMPDEST DUP3 MSTORE POP POP JUMP JUMPDEST PUSH1 0x0 PUSH1 0xC0 DUP4 ADD PUSH1 0x0 DUP4 ADD MLOAD DUP5 DUP3 SUB PUSH1 0x0 DUP7 ADD MSTORE PUSH2 0x2786 DUP3 DUP3 PUSH2 0x2475 JUMP JUMPDEST SWAP2 POP POP PUSH1 0x20 DUP4 ADD MLOAD DUP5 DUP3 SUB PUSH1 0x20 DUP7 ADD MSTORE PUSH2 0x27A0 DUP3 DUP3 PUSH2 0x2475 JUMP JUMPDEST SWAP2 POP POP PUSH1 0x40 DUP4 ADD MLOAD PUSH2 0x27B5 PUSH1 0x40 DUP7 ADD DUP3 PUSH2 0x24AE JUMP JUMPDEST POP PUSH1 0x60 DUP4 ADD MLOAD PUSH2 0x27C8 PUSH1 0x60 DUP7 ADD DUP3 PUSH2 0x2420 JUMP JUMPDEST POP PUSH1 0x80 DUP4 ADD MLOAD PUSH2 0x27DB PUSH1 0x80 DUP7 ADD DUP3 PUSH2 0x275A JUMP JUMPDEST POP PUSH1 0xA0 DUP4 ADD MLOAD PUSH2 0x27EE PUSH1 0xA0 DUP7 ADD DUP3 PUSH2 0x275A JUMP JUMPDEST POP DUP1 SWAP2 POP POP SWAP3 SWAP2 POP POP JUMP JUMPDEST PUSH1 0x0 PUSH1 0x20 DUP3 ADD SWAP1 POP DUP2 DUP2 SUB PUSH1 0x0 DUP4 ADD MSTORE PUSH2 0x2813 DUP2 DUP5 PUSH2 0x2769 JUMP JUMPDEST SWAP1 POP SWAP3 SWAP2 POP POP JUMP JUMPDEST PUSH1 0x0 DUP2 MLOAD SWAP1 POP SWAP2 SWAP1 POP JUMP JUMPDEST PUSH1 0x0 DUP3 DUP3 MSTORE PUSH1 0x20 DUP3 ADD SWAP1 POP SWAP3 SWAP2 POP POP JUMP JUMPDEST PUSH1 0x0 DUP2 SWAP1 POP PUSH1 0x20 DUP3 ADD SWAP1 POP SWAP2 SWAP1 POP JUMP JUMPDEST PUSH1 0x0 PUSH1 0x80 DUP4 ADD PUSH1 0x0 DUP4 ADD MLOAD DUP5 DUP3 SUB PUSH1 0x0 DUP7 ADD MSTORE PUSH2 0x2864 DUP3 DUP3 PUSH2 0x2475 JUMP JUMPDEST SWAP2 POP POP PUSH1 0x20 DUP4 ADD MLOAD DUP5 DUP3 SUB PUSH1 0x20 DUP7 ADD MSTORE PUSH2 0x287E DUP3 DUP3 PUSH2 0x2475 JUMP JUMPDEST SWAP2 POP POP PUSH1 0x40 DUP4 ADD MLOAD PUSH2 0x2893 PUSH1 0x40 DUP7 ADD DUP3 PUSH2 0x24AE JUMP JUMPDEST POP PUSH1 0x60 DUP4 ADD MLOAD PUSH2 0x28A6 PUSH1 0x60 DUP7 ADD DUP3 PUSH2 0x275A JUMP JUMPDEST POP DUP1 SWAP2 POP POP SWAP3 SWAP2 POP POP JUMP JUMPDEST PUSH1 0x0 PUSH2 0x28BD DUP4 DUP4 PUSH2 0x2847 JUMP JUMPDEST SWAP1 POP SWAP3 SWAP2 POP POP JUMP JUMPDEST PUSH1 0x0 PUSH1 0x20 DUP3 ADD SWAP1 POP SWAP2 SWAP1 POP JUMP JUMPDEST PUSH1 0x0 PUSH2 0x28DD DUP3 PUSH2 0x281B JUMP JUMPDEST PUSH2 0x28E7 DUP2 DUP6 PUSH2 0x2826 JUMP JUMPDEST SWAP4 POP DUP4 PUSH1 0x20 DUP3 MUL DUP6 ADD PUSH2 0x28F9 DUP6 PUSH2 0x2837 JUMP JUMPDEST DUP1 PUSH1 0x0 JUMPDEST DUP6 DUP2 LT ISZERO PUSH2 0x2935 JUMPI DUP5 DUP5 SUB DUP10 MSTORE DUP2 MLOAD PUSH2 0x2916 DUP6 DUP3 PUSH2 0x28B1 JUMP JUMPDEST SWAP5 POP PUSH2 0x2921 DUP4 PUSH2 0x28C5 JUMP JUMPDEST SWAP3 POP PUSH1 0x20 DUP11 ADD SWAP10 POP POP PUSH1 0x1 DUP2 ADD SWAP1 POP PUSH2 0x28FD JUMP JUMPDEST POP DUP3 SWAP8 POP DUP8 SWAP6 POP POP POP POP POP POP SWAP3 SWAP2 POP POP JUMP JUMPDEST PUSH1 0x0 PUSH1 0x20 DUP3 ADD SWAP1 POP DUP2 DUP2 SUB PUSH1 0x0 DUP4 ADD MSTORE PUSH2 0x2961 DUP2 DUP5 PUSH2 0x28D2 JUMP JUMPDEST SWAP1 POP SWAP3 SWAP2 POP POP JUMP JUMPDEST PUSH2 0x2972 DUP2 PUSH2 0x2307 JUMP JUMPDEST DUP3 MSTORE POP POP JUMP JUMPDEST PUSH1 0x0 PUSH1 0x20 DUP3 ADD SWAP1 POP PUSH2 0x298D PUSH1 0x0 DUP4 ADD DUP5 PUSH2 0x2969 JUMP JUMPDEST SWAP3 SWAP2 POP POP JUMP JUMPDEST PUSH1 0x0 DUP3 DUP3 MSTORE PUSH1 0x20 DUP3 ADD SWAP1 POP SWAP3 SWAP2 POP POP JUMP JUMPDEST PUSH32 0x46756E6374696F6E20696E746572666163655265676973746572557365722068 PUSH1 0x0 DUP3 ADD MSTORE PUSH32 0x6173206265656E2063616C6C6564000000000000000000000000000000000000 PUSH1 0x20 DUP3 ADD MSTORE POP JUMP JUMPDEST PUSH1 0x0 PUSH2 0x2A00 PUSH1 0x2E DUP4 PUSH2 0x2993 JUMP JUMPDEST SWAP2 POP PUSH2 0x2A0B DUP3 PUSH2 0x29A4 JUMP JUMPDEST PUSH1 0x40 DUP3 ADD SWAP1 POP SWAP2 SWAP1 POP JUMP JUMPDEST PUSH1 0x0 PUSH1 0x20 DUP3 ADD SWAP1 POP DUP2 DUP2 SUB PUSH1 0x0 DUP4 ADD MSTORE PUSH2 0x2A2F DUP2 PUSH2 0x29F3 JUMP JUMPDEST SWAP1 POP SWAP2 SWAP1 POP JUMP JUMPDEST PUSH32 0x46756E6374696F6E20696E74657266616365416464467269656E642068617320 PUSH1 0x0 DUP3 ADD MSTORE PUSH32 0x6265656E2063616C6C6564000000000000000000000000000000000000000000 PUSH1 0x20 DUP3 ADD MSTORE POP JUMP JUMPDEST PUSH1 0x0 PUSH2 0x2A92 PUSH1 0x2B DUP4 PUSH2 0x2993 JUMP JUMPDEST SWAP2 POP PUSH2 0x2A9D DUP3 PUSH2 0x2A36 JUMP JUMPDEST PUSH1 0x40 DUP3 ADD SWAP1 POP SWAP2 SWAP1 POP JUMP JUMPDEST PUSH1 0x0 PUSH1 0x20 DUP3 ADD SWAP1 POP DUP2 DUP2 SUB PUSH1 0x0 DUP4 ADD MSTORE PUSH2 0x2AC1 DUP2 PUSH2 0x2A85 JUMP JUMPDEST SWAP1 POP SWAP2 SWAP1 POP JUMP JUMPDEST PUSH32 0x46756E6374696F6E20696E7465726661636553656E644D657373616765427941 PUSH1 0x0 DUP3 ADD MSTORE PUSH32 0x63636F756E7420686173206265656E2063616C6C656400000000000000000000 PUSH1 0x20 DUP3 ADD MSTORE POP JUMP JUMPDEST PUSH1 0x0 PUSH2 0x2B24 PUSH1 0x36 DUP4 PUSH2 0x2993 JUMP JUMPDEST SWAP2 POP PUSH2 0x2B2F DUP3 PUSH2 0x2AC8 JUMP JUMPDEST PUSH1 0x40 DUP3 ADD SWAP1 POP SWAP2 SWAP1 POP JUMP JUMPDEST PUSH1 0x0 PUSH1 0x20 DUP3 ADD SWAP1 POP DUP2 DUP2 SUB PUSH1 0x0 DUP4 ADD MSTORE PUSH2 0x2B53 DUP2 PUSH2 0x2B17 JUMP JUMPDEST SWAP1 POP SWAP2 SWAP1 POP JUMP JUMPDEST PUSH32 0x46756E6374696F6E20696E7465726661636553656E6441727469636C65734279 PUSH1 0x0 DUP3 ADD MSTORE PUSH32 0x4163636F756E7420686173206265656E2063616C6C6564000000000000000000 PUSH1 0x20 DUP3 ADD MSTORE POP JUMP JUMPDEST PUSH1 0x0 PUSH2 0x2BB6 PUSH1 0x37 DUP4 PUSH2 0x2993 JUMP JUMPDEST SWAP2 POP PUSH2 0x2BC1 DUP3 PUSH2 0x2B5A JUMP JUMPDEST PUSH1 0x40 DUP3 ADD SWAP1 POP SWAP2 SWAP1 POP JUMP JUMPDEST PUSH1 0x0 PUSH1 0x20 DUP3 ADD SWAP1 POP DUP2 DUP2 SUB PUSH1 0x0 DUP4 ADD MSTORE PUSH2 0x2BE5 DUP2 PUSH2 0x2BA9 JUMP JUMPDEST SWAP1 POP SWAP2 SWAP1 POP JUMP JUMPDEST PUSH32 0x46756E6374696F6E20696E7465726661636547657450726F66696C6542794164 PUSH1 0x0 DUP3 ADD MSTORE PUSH32 0x647265737320686173206265656E2063616C6C65640000000000000000000000 PUSH1 0x20 DUP3 ADD MSTORE POP JUMP JUMPDEST PUSH1 0x0 PUSH2 0x2C48 PUSH1 0x35 DUP4 PUSH2 0x2993 JUMP JUMPDEST SWAP2 POP PUSH2 0x2C53 DUP3 PUSH2 0x2BEC JUMP JUMPDEST PUSH1 0x40 DUP3 ADD SWAP1 POP SWAP2 SWAP1 POP JUMP JUMPDEST PUSH1 0x0 PUSH1 0x20 DUP3 ADD SWAP1 POP DUP2 DUP2 SUB PUSH1 0x0 DUP4 ADD MSTORE PUSH2 0x2C77 DUP2 PUSH2 0x2C3B JUMP JUMPDEST SWAP1 POP SWAP2 SWAP1 POP JUMP JUMPDEST PUSH32 0x46756E6374696F6E20696E7465726661636547657450726F66696C6542794163 PUSH1 0x0 DUP3 ADD MSTORE PUSH32 0x636F756E7420686173206265656E2063616C6C65640000000000000000000000 PUSH1 0x20 DUP3 ADD MSTORE POP JUMP JUMPDEST PUSH1 0x0 PUSH2 0x2CDA PUSH1 0x35 DUP4 PUSH2 0x2993 JUMP JUMPDEST SWAP2 POP PUSH2 0x2CE5 DUP3 PUSH2 0x2C7E JUMP JUMPDEST PUSH1 0x40 DUP3 ADD SWAP1 POP SWAP2 SWAP1 POP JUMP JUMPDEST PUSH1 0x0 PUSH1 0x20 DUP3 ADD SWAP1 POP DUP2 DUP2 SUB PUSH1 0x0 DUP4 ADD MSTORE PUSH2 0x2D09 DUP2 PUSH2 0x2CCD JUMP JUMPDEST SWAP1 POP SWAP2 SWAP1 POP JUMP JUMPDEST PUSH32 0x46756E6374696F6E20696E746572666163654A6F696E20686173206265656E20 PUSH1 0x0 DUP3 ADD MSTORE PUSH32 0x63616C6C65640000000000000000000000000000000000000000000000000000 PUSH1 0x20 DUP3 ADD MSTORE POP JUMP JUMPDEST PUSH1 0x0 PUSH2 0x2D6C PUSH1 0x26 DUP4 PUSH2 0x2993 JUMP JUMPDEST SWAP2 POP PUSH2 0x2D77 DUP3 PUSH2 0x2D10 JUMP JUMPDEST PUSH1 0x40 DUP3 ADD SWAP1 POP SWAP2 SWAP1 POP JUMP JUMPDEST PUSH1 0x0 PUSH1 0x20 DUP3 ADD SWAP1 POP DUP2 DUP2 SUB PUSH1 0x0 DUP4 ADD MSTORE PUSH2 0x2D9B DUP2 PUSH2 0x2D5F JUMP JUMPDEST SWAP1 POP SWAP2 SWAP1 POP JUMP JUMPDEST PUSH32 0x46756E6374696F6E20696E746572666163654765744163636F756E7442794164 PUSH1 0x0 DUP3 ADD MSTORE PUSH32 0x647265737320686173206265656E2063616C6C65640000000000000000000000 PUSH1 0x20 DUP3 ADD MSTORE POP JUMP JUMPDEST PUSH1 0x0 PUSH2 0x2DFE PUSH1 0x35 DUP4 PUSH2 0x2993 JUMP JUMPDEST SWAP2 POP PUSH2 0x2E09 DUP3 PUSH2 0x2DA2 JUMP JUMPDEST PUSH1 0x40 DUP3 ADD SWAP1 POP SWAP2 SWAP1 POP JUMP JUMPDEST PUSH1 0x0 PUSH1 0x20 DUP3 ADD SWAP1 POP DUP2 DUP2 SUB PUSH1 0x0 DUP4 ADD MSTORE PUSH2 0x2E2D DUP2 PUSH2 0x2DF1 JUMP JUMPDEST SWAP1 POP SWAP2 SWAP1 POP JUMP JUMPDEST PUSH32 0x46756E6374696F6E20696E746572666163654765744D794163636F756E742068 PUSH1 0x0 DUP3 ADD MSTORE PUSH32 0x6173206265656E2063616C6C6564000000000000000000000000000000000000 PUSH1 0x20 DUP3 ADD MSTORE POP JUMP JUMPDEST PUSH1 0x0 PUSH2 0x2E90 PUSH1 0x2E DUP4 PUSH2 0x2993 JUMP JUMPDEST SWAP2 POP PUSH2 0x2E9B DUP3 PUSH2 0x2E34 JUMP JUMPDEST PUSH1 0x40 DUP3 ADD SWAP1 POP SWAP2 SWAP1 POP JUMP JUMPDEST PUSH1 0x0 PUSH1 0x20 DUP3 ADD SWAP1 POP DUP2 DUP2 SUB PUSH1 0x0 DUP4 ADD MSTORE PUSH2 0x2EBF DUP2 PUSH2 0x2E83 JUMP JUMPDEST SWAP1 POP SWAP2 SWAP1 POP JUMP JUMPDEST PUSH32 0x53657276697665436F6E74726163742D7265676973746572557365723A205468 PUSH1 0x0 DUP3 ADD MSTORE PUSH32 0x652061646465727373206861736E2774206A6F696E65642C5265676973746572 PUSH1 0x20 DUP3 ADD MSTORE PUSH32 0x206661696C656400000000000000000000000000000000000000000000000000 PUSH1 0x40 DUP3 ADD MSTORE POP JUMP JUMPDEST PUSH1 0x0 PUSH2 0x2F48 PUSH1 0x47 DUP4 PUSH2 0x2993 JUMP JUMPDEST SWAP2 POP PUSH2 0x2F53 DUP3 PUSH2 0x2EC6 JUMP JUMPDEST PUSH1 0x60 DUP3 ADD SWAP1 POP SWAP2 SWAP1 POP JUMP JUMPDEST PUSH1 0x0 PUSH1 0x20 DUP3 ADD SWAP1 POP DUP2 DUP2 SUB PUSH1 0x0 DUP4 ADD MSTORE PUSH2 0x2F77 DUP2 PUSH2 0x2F3B JUMP JUMPDEST SWAP1 POP SWAP2 SWAP1 POP JUMP JUMPDEST PUSH32 0x53657276697665436F6E74726163742D616464467269656E643A20467269656E PUSH1 0x0 DUP3 ADD MSTORE PUSH32 0x64206163636F756E74206E6F7420726567697374657265640000000000000000 PUSH1 0x20 DUP3 ADD MSTORE POP JUMP JUMPDEST PUSH1 0x0 PUSH2 0x2FDA PUSH1 0x38 DUP4 PUSH2 0x2993 JUMP JUMPDEST SWAP2 POP PUSH2 0x2FE5 DUP3 PUSH2 0x2F7E JUMP JUMPDEST PUSH1 0x40 DUP3 ADD SWAP1 POP SWAP2 SWAP1 POP JUMP JUMPDEST PUSH1 0x0 PUSH1 0x20 DUP3 ADD SWAP1 POP DUP2 DUP2 SUB PUSH1 0x0 DUP4 ADD MSTORE PUSH2 0x3009 DUP2 PUSH2 0x2FCD JUMP JUMPDEST SWAP1 POP SWAP2 SWAP1 POP JUMP JUMPDEST PUSH32 0x53657276697665436F6E74726163742D616464467269656E643A2043616E6E6F PUSH1 0x0 DUP3 ADD MSTORE PUSH32 0x742061646420796F757273656C66206173206120667269656E64000000000000 PUSH1 0x20 DUP3 ADD MSTORE POP JUMP JUMPDEST PUSH1 0x0 PUSH2 0x306C PUSH1 0x3A DUP4 PUSH2 0x2993 JUMP JUMPDEST SWAP2 POP PUSH2 0x3077 DUP3 PUSH2 0x3010 JUMP JUMPDEST PUSH1 0x40 DUP3 ADD SWAP1 POP SWAP2 SWAP1 POP JUMP JUMPDEST PUSH1 0x0 PUSH1 0x20 DUP3 ADD SWAP1 POP DUP2 DUP2 SUB PUSH1 0x0 DUP4 ADD MSTORE PUSH2 0x309B DUP2 PUSH2 0x305F JUMP JUMPDEST SWAP1 POP SWAP2 SWAP1 POP JUMP JUMPDEST PUSH32 0x53657276697665436F6E74726163742D616464467269656E643A2048652F5368 PUSH1 0x0 DUP3 ADD MSTORE PUSH32 0x6520697320616C726561647920667269656E6400000000000000000000000000 PUSH1 0x20 DUP3 ADD MSTORE POP JUMP JUMPDEST PUSH1 0x0 PUSH2 0x30FE PUSH1 0x33 DUP4 PUSH2 0x2993 JUMP JUMPDEST SWAP2 POP PUSH2 0x3109 DUP3 PUSH2 0x30A2 JUMP JUMPDEST PUSH1 0x40 DUP3 ADD SWAP1 POP SWAP2 SWAP1 POP JUMP JUMPDEST PUSH1 0x0 PUSH1 0x20 DUP3 ADD SWAP1 POP DUP2 DUP2 SUB PUSH1 0x0 DUP4 ADD MSTORE PUSH2 0x312D DUP2 PUSH2 0x30F1 JUMP JUMPDEST SWAP1 POP SWAP2 SWAP1 POP JUMP JUMPDEST PUSH32 0x53657276697665436F6E74726163742D73656E644D6573736167653A20596F75 PUSH1 0x0 DUP3 ADD MSTORE PUSH32 0x7220667269656E64207265717565737420686173206E6F74206265656E206170 PUSH1 0x20 DUP3 ADD MSTORE PUSH32 0x70726F7665640000000000000000000000000000000000000000000000000000 PUSH1 0x40 DUP3 ADD MSTORE POP JUMP JUMPDEST PUSH1 0x0 PUSH2 0x31B6 PUSH1 0x46 DUP4 PUSH2 0x2993 JUMP JUMPDEST SWAP2 POP PUSH2 0x31C1 DUP3 PUSH2 0x3134 JUMP JUMPDEST PUSH1 0x60 DUP3 ADD SWAP1 POP SWAP2 SWAP1 POP JUMP JUMPDEST PUSH1 0x0 PUSH1 0x20 DUP3 ADD SWAP1 POP DUP2 DUP2 SUB PUSH1 0x0 DUP4 ADD MSTORE PUSH2 0x31E5 DUP2 PUSH2 0x31A9 JUMP JUMPDEST SWAP1 POP SWAP2 SWAP1 POP JUMP JUMPDEST PUSH32 0x53657276697665436F6E74726163742D67657450726F66696C65427941646472 PUSH1 0x0 DUP3 ADD MSTORE PUSH32 0x6573733A20546865206164646572737320796F752077616E7420746F20676574 PUSH1 0x20 DUP3 ADD MSTORE PUSH32 0x2070726F66696C6520206861736E2774206A6F696E6564000000000000000000 PUSH1 0x40 DUP3 ADD MSTORE POP JUMP JUMPDEST PUSH1 0x0 PUSH2 0x326E PUSH1 0x57 DUP4 PUSH2 0x2993 JUMP JUMPDEST SWAP2 POP PUSH2 0x3279 DUP3 PUSH2 0x31EC JUMP JUMPDEST PUSH1 0x60 DUP3 ADD SWAP1 POP SWAP2 SWAP1 POP JUMP JUMPDEST PUSH1 0x0 PUSH1 0x20 DUP3 ADD SWAP1 POP DUP2 DUP2 SUB PUSH1 0x0 DUP4 ADD MSTORE PUSH2 0x329D DUP2 PUSH2 0x3261 JUMP JUMPDEST SWAP1 POP SWAP2 SWAP1 POP JUMP JUMPDEST PUSH32 0x53657276697665436F6E74726163742D67657450726F66696C65427941646472 PUSH1 0x0 DUP3 ADD MSTORE PUSH32 0x6573733A20546865206164647265737320796F752077616E7420746F20676574 PUSH1 0x20 DUP3 ADD MSTORE PUSH32 0x2070726F66696C6520206861736E277420726567697374656400000000000000 PUSH1 0x40 DUP3 ADD MSTORE POP JUMP JUMPDEST PUSH1 0x0 PUSH2 0x3326 PUSH1 0x59 DUP4 PUSH2 0x2993 JUMP JUMPDEST SWAP2 POP PUSH2 0x3331 DUP3 PUSH2 0x32A4 JUMP JUMPDEST PUSH1 0x60 DUP3 ADD SWAP1 POP SWAP2 SWAP1 POP JUMP JUMPDEST PUSH1 0x0 PUSH1 0x20 DUP3 ADD SWAP1 POP DUP2 DUP2 SUB PUSH1 0x0 DUP4 ADD MSTORE PUSH2 0x3355 DUP2 PUSH2 0x3319 JUMP JUMPDEST SWAP1 POP SWAP2 SWAP1 POP JUMP JUMPDEST PUSH32 0x53657276697665436F6E74726163742D67657450726F66696C6542794163636F PUSH1 0x0 DUP3 ADD MSTORE PUSH32 0x756E743A20546865206163636F756E7420796F752077616E7420746F20676574 PUSH1 0x20 DUP3 ADD MSTORE PUSH32 0x2070726F66696C65206861736E27742072656769737465726564000000000000 PUSH1 0x40 DUP3 ADD MSTORE POP JUMP JUMPDEST PUSH1 0x0 PUSH2 0x33DE PUSH1 0x5A DUP4 PUSH2 0x2993 JUMP JUMPDEST SWAP2 POP PUSH2 0x33E9 DUP3 PUSH2 0x335C JUMP JUMPDEST PUSH1 0x60 DUP3 ADD SWAP1 POP SWAP2 SWAP1 POP JUMP JUMPDEST PUSH1 0x0 PUSH1 0x20 DUP3 ADD SWAP1 POP DUP2 DUP2 SUB PUSH1 0x0 DUP4 ADD MSTORE PUSH2 0x340D DUP2 PUSH2 0x33D1 JUMP JUMPDEST SWAP1 POP SWAP2 SWAP1 POP JUMP JUMPDEST PUSH32 0x53657276697665436F6E74726163742D6A6F696E3A2074686973206164647265 PUSH1 0x0 DUP3 ADD MSTORE PUSH32 0x737320686173206A6F696E656400000000000000000000000000000000000000 PUSH1 0x20 DUP3 ADD MSTORE POP JUMP JUMPDEST PUSH1 0x0 PUSH2 0x3470 PUSH1 0x2D DUP4 PUSH2 0x2993 JUMP JUMPDEST SWAP2 POP PUSH2 0x347B DUP3 PUSH2 0x3414 JUMP JUMPDEST PUSH1 0x40 DUP3 ADD SWAP1 POP SWAP2 SWAP1 POP JUMP JUMPDEST PUSH1 0x0 PUSH1 0x20 DUP3 ADD SWAP1 POP DUP2 DUP2 SUB PUSH1 0x0 DUP4 ADD MSTORE PUSH2 0x349F DUP2 PUSH2 0x3463 JUMP JUMPDEST SWAP1 POP SWAP2 SWAP1 POP JUMP JUMPDEST PUSH1 0x0 DUP2 PUSH1 0x60 SHL SWAP1 POP SWAP2 SWAP1 POP JUMP JUMPDEST PUSH1 0x0 PUSH2 0x34BE DUP3 PUSH2 0x34A6 JUMP JUMPDEST SWAP1 POP SWAP2 SWAP1 POP JUMP JUMPDEST PUSH1 0x0 PUSH2 0x34D0 DUP3 PUSH2 0x34B3 JUMP JUMPDEST SWAP1 POP SWAP2 SWAP1 POP JUMP JUMPDEST PUSH2 0x34E8 PUSH2 0x34E3 DUP3 PUSH2 0x2307 JUMP JUMPDEST PUSH2 0x34C5 JUMP JUMPDEST DUP3 MSTORE POP POP JUMP JUMPDEST PUSH1 0x0 DUP2 SWAP1 POP SWAP2 SWAP1 POP JUMP JUMPDEST PUSH2 0x3509 PUSH2 0x3504 DUP3 PUSH2 0x2226 JUMP JUMPDEST PUSH2 0x34EE JUMP JUMPDEST DUP3 MSTORE POP POP JUMP JUMPDEST PUSH1 0x0 PUSH2 0x351B DUP3 DUP6 PUSH2 0x34D7 JUMP JUMPDEST PUSH1 0x14 DUP3 ADD SWAP2 POP PUSH2 0x352B DUP3 DUP5 PUSH2 0x34F8 JUMP JUMPDEST PUSH1 0x20 DUP3 ADD SWAP2 POP DUP2 SWAP1 POP SWAP4 SWAP3 POP POP POP JUMP JUMPDEST PUSH32 0x53657276697665436F6E74726163742D6765744163636F756E74427941646472 PUSH1 0x0 DUP3 ADD MSTORE PUSH32 0x6573733A20546865206164646572737320796F752077616E7420746F20676574 PUSH1 0x20 DUP3 ADD MSTORE PUSH32 0x206163636F756E7420206861736E2774206A6F696E6564000000000000000000 PUSH1 0x40 DUP3 ADD MSTORE POP JUMP JUMPDEST PUSH1 0x0 PUSH2 0x35BD PUSH1 0x57 DUP4 PUSH2 0x2993 JUMP JUMPDEST SWAP2 POP PUSH2 0x35C8 DUP3 PUSH2 0x353B JUMP JUMPDEST PUSH1 0x60 DUP3 ADD SWAP1 POP SWAP2 SWAP1 POP JUMP JUMPDEST PUSH1 0x0 PUSH1 0x20 DUP3 ADD SWAP1 POP DUP2 DUP2 SUB PUSH1 0x0 DUP4 ADD MSTORE PUSH2 0x35EC DUP2 PUSH2 0x35B0 JUMP JUMPDEST SWAP1 POP SWAP2 SWAP1 POP JUMP JUMPDEST PUSH32 0x4E487B7100000000000000000000000000000000000000000000000000000000 PUSH1 0x0 MSTORE PUSH1 0x22 PUSH1 0x4 MSTORE PUSH1 0x24 PUSH1 0x0 REVERT JUMPDEST PUSH1 0x0 PUSH1 0x2 DUP3 DIV SWAP1 POP PUSH1 0x1 DUP3 AND DUP1 PUSH2 0x363A JUMPI PUSH1 0x7F DUP3 AND SWAP2 POP JUMPDEST PUSH1 0x20 DUP3 LT DUP2 SUB PUSH2 0x364D JUMPI PUSH2 0x364C PUSH2 0x35F3 JUMP JUMPDEST JUMPDEST POP SWAP2 SWAP1 POP JUMP JUMPDEST PUSH1 0x0 DUP2 SWAP1 POP DUP2 PUSH1 0x0 MSTORE PUSH1 0x20 PUSH1 0x0 KECCAK256 SWAP1 POP SWAP2 SWAP1 POP JUMP JUMPDEST PUSH1 0x0 PUSH1 0x20 PUSH1 0x1F DUP4 ADD DIV SWAP1 POP SWAP2 SWAP1 POP JUMP JUMPDEST PUSH1 0x0 DUP3 DUP3 SHL SWAP1 POP SWAP3 SWAP2 POP POP JUMP JUMPDEST PUSH1 0x0 PUSH1 0x8 DUP4 MUL PUSH2 0x36B5 PUSH32 0xFFFFFFFFFFFFFFFFFFFFFFFFFFFFFFFFFFFFFFFFFFFFFFFFFFFFFFFFFFFFFFFF DUP3 PUSH2 0x3678 JUMP JUMPDEST PUSH2 0x36BF DUP7 DUP4 PUSH2 0x3678 JUMP JUMPDEST SWAP6 POP DUP1 NOT DUP5 AND SWAP4 POP DUP1 DUP7 AND DUP5 OR SWAP3 POP POP POP SWAP4 SWAP3 POP POP POP JUMP JUMPDEST PUSH1 0x0 DUP2 SWAP1 POP SWAP2 SWAP1 POP JUMP JUMPDEST PUSH1 0x0 PUSH2 0x36FC PUSH2 0x36F7 PUSH2 0x36F2 DUP5 PUSH2 0x2226 JUMP JUMPDEST PUSH2 0x36D7 JUMP JUMPDEST PUSH2 0x2226 JUMP JUMPDEST SWAP1 POP SWAP2 SWAP1 POP JUMP JUMPDEST PUSH1 0x0 DUP2 SWAP1 POP SWAP2 SWAP1 POP JUMP JUMPDEST PUSH2 0x3716 DUP4 PUSH2 0x36E1 JUMP JUMPDEST PUSH2 0x372A PUSH2 0x3722 DUP3 PUSH2 0x3703 JUMP JUMPDEST DUP5 DUP5 SLOAD PUSH2 0x3685 JUMP JUMPDEST DUP3 SSTORE POP POP POP POP JUMP JUMPDEST PUSH1 0x0 SWAP1 JUMP JUMPDEST PUSH2 0x373F PUSH2 0x3732 JUMP JUMPDEST PUSH2 0x374A DUP2 DUP5 DUP5 PUSH2 0x370D JUMP JUMPDEST POP POP POP JUMP JUMPDEST JUMPDEST DUP2 DUP2 LT ISZERO PUSH2 0x376E JUMPI PUSH2 0x3763 PUSH1 0x0 DUP3 PUSH2 0x3737 JUMP JUMPDEST PUSH1 0x1 DUP2 ADD SWAP1 POP PUSH2 0x3750 JUMP JUMPDEST POP POP JUMP JUMPDEST PUSH1 0x1F DUP3 GT ISZERO PUSH2 0x37B3 JUMPI PUSH2 0x3784 DUP2 PUSH2 0x3653 JUMP JUMPDEST PUSH2 0x378D DUP5 PUSH2 0x3668 JUMP JUMPDEST DUP2 ADD PUSH1 0x20 DUP6 LT ISZERO PUSH2 0x379C JUMPI DUP2 SWAP1 POP JUMPDEST PUSH2 0x37B0 PUSH2 0x37A8 DUP6 PUSH2 0x3668 JUMP JUMPDEST DUP4 ADD DUP3 PUSH2 0x374F JUMP JUMPDEST POP POP JUMPDEST POP POP POP JUMP JUMPDEST PUSH1 0x0 DUP3 DUP3 SHR SWAP1 POP SWAP3 SWAP2 POP POP JUMP JUMPDEST PUSH1 0x0 PUSH2 0x37D6 PUSH1 0x0 NOT DUP5 PUSH1 0x8 MUL PUSH2 0x37B8 JUMP JUMPDEST NOT DUP1 DUP4 AND SWAP2 POP POP SWAP3 SWAP2 POP POP JUMP JUMPDEST PUSH1 0x0 PUSH2 0x37EF DUP4 DUP4 PUSH2 0x37C5 JUMP JUMPDEST SWAP2 POP DUP3 PUSH1 0x2 MUL DUP3 OR SWAP1 POP SWAP3 SWAP2 POP POP JUMP JUMPDEST PUSH2 0x3808 DUP3 PUSH2 0x242F JUMP JUMPDEST PUSH8 0xFFFFFFFFFFFFFFFF DUP2 GT ISZERO PUSH2 0x3821 JUMPI PUSH2 0x3820 PUSH2 0x20FB JUMP JUMPDEST JUMPDEST PUSH2 0x382B DUP3 SLOAD PUSH2 0x3622 JUMP JUMPDEST PUSH2 0x3836 DUP3 DUP3 DUP6 PUSH2 0x3772 JUMP JUMPDEST PUSH1 0x0 PUSH1 0x20 SWAP1 POP PUSH1 0x1F DUP4 GT PUSH1 0x1 DUP2 EQ PUSH2 0x3869 JUMPI PUSH1 0x0 DUP5 ISZERO PUSH2 0x3857 JUMPI DUP3 DUP8 ADD MLOAD SWAP1 POP JUMPDEST PUSH2 0x3861 DUP6 DUP3 PUSH2 0x37E3 JUMP JUMPDEST DUP7 SSTORE POP PUSH2 0x38C9 JUMP JUMPDEST PUSH1 0x1F NOT DUP5 AND PUSH2 0x3877 DUP7 PUSH2 0x3653 JUMP JUMPDEST PUSH1 0x0 JUMPDEST DUP3 DUP2 LT ISZERO PUSH2 0x389F JUMPI DUP5 DUP10 ADD MLOAD DUP3 SSTORE PUSH1 0x1 DUP3 ADD SWAP2 POP PUSH1 0x20 DUP6 ADD SWAP5 POP PUSH1 0x20 DUP2 ADD SWAP1 POP PUSH2 0x387A JUMP JUMPDEST DUP7 DUP4 LT ISZERO PUSH2 0x38BC JUMPI DUP5 DUP10 ADD MLOAD PUSH2 0x38B8 PUSH1 0x1F DUP10 AND DUP3 PUSH2 0x37C5 JUMP JUMPDEST DUP4 SSTORE POP JUMPDEST PUSH1 0x1 PUSH1 0x2 DUP9 MUL ADD DUP9 SSTORE POP POP POP JUMPDEST POP POP POP POP POP POP JUMP JUMPDEST PUSH32 0x4E487B7100000000000000000000000000000000000000000000000000000000 PUSH1 0x0 MSTORE PUSH1 0x32 PUSH1 0x4 MSTORE PUSH1 0x24 PUSH1 0x0 REVERT JUMPDEST PUSH32 0x4E487B7100000000000000000000000000000000000000000000000000000000 PUSH1 0x0 MSTORE PUSH1 0x11 PUSH1 0x4 MSTORE PUSH1 0x24 PUSH1 0x0 REVERT JUMPDEST PUSH1 0x0 PUSH2 0x393A DUP3 PUSH2 0x2226 JUMP JUMPDEST SWAP2 POP PUSH32 0xFFFFFFFFFFFFFFFFFFFFFFFFFFFFFFFFFFFFFFFFFFFFFFFFFFFFFFFFFFFFFFFF DUP3 SUB PUSH2 0x396C JUMPI PUSH2 0x396B PUSH2 0x3900 JUMP JUMPDEST JUMPDEST PUSH1 0x1 DUP3 ADD SWAP1 POP SWAP2 SWAP1 POP JUMP INVALID LOG2 PUSH5 0x6970667358 0x22 SLT KECCAK256 LOG1 0xE0 0x1E 0xBA MSTORE CALLER 0xAA DUP5 SWAP8 0x27 0xC0 PUSH14 0x8350486FC2298F6A1A8B22CEC7BF PUSH20 0x9C913214D964736F6C6343000812003300000000 "
				},
				"gasEstimates": {
					"creation": {
						"codeDepositCost": "2953000",
						"executionCost": "27505",
						"totalCost": "2980505"
					},
					"external": {
						"interfaceAddFriend(address,address,string)": "infinite",
						"interfaceGetAccountByAddress(address)": "infinite",
						"interfaceGetArticlesByAccount(address)": "infinite",
						"interfaceGetFriendRequestsByAccount(address)": "infinite",
						"interfaceGetFriendsByAccount(address)": "infinite",
						"interfaceGetMessagesByAccount(address,address)": "infinite",
						"interfaceGetMsgAccountByAccount(address)": "infinite",
						"interfaceGetMyAccount()": "7213",
						"interfaceGetProfileByAccount(address)": "infinite",
						"interfaceGetProfileByAddress(address)": "infinite",
						"interfaceJoin()": "2828",
						"interfaceRegisterUser(string,string,uint256)": "infinite",
						"interfaceSendArticlesByAccount(address,string,string)": "infinite",
						"interfaceSendMessageByAccount(address,address,string)": "infinite"
					}
				},
				"methodIdentifiers": {
					"interfaceAddFriend(address,address,string)": "13447fbd",
					"interfaceGetAccountByAddress(address)": "f38586b7",
					"interfaceGetArticlesByAccount(address)": "d7e07916",
					"interfaceGetFriendRequestsByAccount(address)": "88caf28d",
					"interfaceGetFriendsByAccount(address)": "33bc1b91",
					"interfaceGetMessagesByAccount(address,address)": "1847a4a4",
					"interfaceGetMsgAccountByAccount(address)": "7a51837f",
					"interfaceGetMyAccount()": "fd04ffef",
					"interfaceGetProfileByAccount(address)": "84e00265",
					"interfaceGetProfileByAddress(address)": "6df0afa9",
					"interfaceJoin()": "9ce5b59f",
					"interfaceRegisterUser(string,string,uint256)": "063d0f81",
					"interfaceSendArticlesByAccount(address,string,string)": "6791fd6b",
					"interfaceSendMessageByAccount(address,address,string)": "5065ebe3"
				}
			},
			"storageLayout": {
				"storage": [
					{
						"astId": 5,
						"contract": "interface/InterfaceContract.sol:InterfaceContract",
						"label": "accounts",
						"offset": 0,
						"slot": "0",
						"type": "t_mapping(t_address,t_address)"
					},
					{
						"astId": 23,
						"contract": "interface/InterfaceContract.sol:InterfaceContract",
						"label": "users",
						"offset": 0,
						"slot": "1",
						"type": "t_mapping(t_address,t_struct(User)18_storage)"
					},
					{
						"astId": 39,
						"contract": "interface/InterfaceContract.sol:InterfaceContract",
						"label": "friends",
						"offset": 0,
						"slot": "2",
						"type": "t_mapping(t_address,t_mapping(t_address,t_struct(Friend)32_storage))"
					},
					{
						"astId": 44,
						"contract": "interface/InterfaceContract.sol:InterfaceContract",
						"label": "myFriends",
						"offset": 0,
						"slot": "3",
						"type": "t_mapping(t_address,t_array(t_address)dyn_storage)"
					},
					{
						"astId": 49,
						"contract": "interface/InterfaceContract.sol:InterfaceContract",
						"label": "myFriendRequests",
						"offset": 0,
						"slot": "4",
						"type": "t_mapping(t_address,t_array(t_address)dyn_storage)"
					},
					{
						"astId": 64,
						"contract": "interface/InterfaceContract.sol:InterfaceContract",
						"label": "articles",
						"offset": 0,
						"slot": "5",
						"type": "t_mapping(t_address,t_array(t_struct(Article)58_storage)dyn_storage)"
					},
					{
						"astId": 79,
						"contract": "interface/InterfaceContract.sol:InterfaceContract",
						"label": "messages",
						"offset": 0,
						"slot": "6",
						"type": "t_mapping(t_address,t_mapping(t_address,t_array(t_struct(Message)71_storage)dyn_storage))"
					},
					{
						"astId": 84,
						"contract": "interface/InterfaceContract.sol:InterfaceContract",
						"label": "msgaccounts",
						"offset": 0,
						"slot": "7",
						"type": "t_mapping(t_address,t_array(t_address)dyn_storage)"
					},
					{
						"astId": 95,
						"contract": "interface/InterfaceContract.sol:InterfaceContract",
						"label": "tweetsHashRecords",
						"offset": 0,
						"slot": "8",
						"type": "t_mapping(t_address,t_array(t_struct(CentralizedTweets)89_storage)dyn_storage)"
					},
					{
						"astId": 108,
						"contract": "interface/InterfaceContract.sol:InterfaceContract",
						"label": "messageHashRecords",
						"offset": 0,
						"slot": "9",
						"type": "t_mapping(t_address,t_mapping(t_address,t_array(t_struct(CentralizedMessage)100_storage)dyn_storage))"
					},
					{
						"astId": 110,
						"contract": "interface/InterfaceContract.sol:InterfaceContract",
						"label": "admin",
						"offset": 0,
						"slot": "10",
						"type": "t_address"
					}
				],
				"types": {
					"t_address": {
						"encoding": "inplace",
						"label": "address",
						"numberOfBytes": "20"
					},
					"t_array(t_address)dyn_storage": {
						"base": "t_address",
						"encoding": "dynamic_array",
						"label": "address[]",
						"numberOfBytes": "32"
					},
					"t_array(t_struct(Article)58_storage)dyn_storage": {
						"base": "t_struct(Article)58_storage",
						"encoding": "dynamic_array",
						"label": "struct DataContract.Article[]",
						"numberOfBytes": "32"
					},
					"t_array(t_struct(CentralizedMessage)100_storage)dyn_storage": {
						"base": "t_struct(CentralizedMessage)100_storage",
						"encoding": "dynamic_array",
						"label": "struct DataContract.CentralizedMessage[]",
						"numberOfBytes": "32"
					},
					"t_array(t_struct(CentralizedTweets)89_storage)dyn_storage": {
						"base": "t_struct(CentralizedTweets)89_storage",
						"encoding": "dynamic_array",
						"label": "struct DataContract.CentralizedTweets[]",
						"numberOfBytes": "32"
					},
					"t_array(t_struct(Message)71_storage)dyn_storage": {
						"base": "t_struct(Message)71_storage",
						"encoding": "dynamic_array",
						"label": "struct DataContract.Message[]",
						"numberOfBytes": "32"
					},
					"t_bool": {
						"encoding": "inplace",
						"label": "bool",
						"numberOfBytes": "1"
					},
					"t_bytes32": {
						"encoding": "inplace",
						"label": "bytes32",
						"numberOfBytes": "32"
					},
					"t_mapping(t_address,t_address)": {
						"encoding": "mapping",
						"key": "t_address",
						"label": "mapping(address => address)",
						"numberOfBytes": "32",
						"value": "t_address"
					},
					"t_mapping(t_address,t_array(t_address)dyn_storage)": {
						"encoding": "mapping",
						"key": "t_address",
						"label": "mapping(address => address[])",
						"numberOfBytes": "32",
						"value": "t_array(t_address)dyn_storage"
					},
					"t_mapping(t_address,t_array(t_struct(Article)58_storage)dyn_storage)": {
						"encoding": "mapping",
						"key": "t_address",
						"label": "mapping(address => struct DataContract.Article[])",
						"numberOfBytes": "32",
						"value": "t_array(t_struct(Article)58_storage)dyn_storage"
					},
					"t_mapping(t_address,t_array(t_struct(CentralizedMessage)100_storage)dyn_storage)": {
						"encoding": "mapping",
						"key": "t_address",
						"label": "mapping(address => struct DataContract.CentralizedMessage[])",
						"numberOfBytes": "32",
						"value": "t_array(t_struct(CentralizedMessage)100_storage)dyn_storage"
					},
					"t_mapping(t_address,t_array(t_struct(CentralizedTweets)89_storage)dyn_storage)": {
						"encoding": "mapping",
						"key": "t_address",
						"label": "mapping(address => struct DataContract.CentralizedTweets[])",
						"numberOfBytes": "32",
						"value": "t_array(t_struct(CentralizedTweets)89_storage)dyn_storage"
					},
					"t_mapping(t_address,t_array(t_struct(Message)71_storage)dyn_storage)": {
						"encoding": "mapping",
						"key": "t_address",
						"label": "mapping(address => struct DataContract.Message[])",
						"numberOfBytes": "32",
						"value": "t_array(t_struct(Message)71_storage)dyn_storage"
					},
					"t_mapping(t_address,t_mapping(t_address,t_array(t_struct(CentralizedMessage)100_storage)dyn_storage))": {
						"encoding": "mapping",
						"key": "t_address",
						"label": "mapping(address => mapping(address => struct DataContract.CentralizedMessage[]))",
						"numberOfBytes": "32",
						"value": "t_mapping(t_address,t_array(t_struct(CentralizedMessage)100_storage)dyn_storage)"
					},
					"t_mapping(t_address,t_mapping(t_address,t_array(t_struct(Message)71_storage)dyn_storage))": {
						"encoding": "mapping",
						"key": "t_address",
						"label": "mapping(address => mapping(address => struct DataContract.Message[]))",
						"numberOfBytes": "32",
						"value": "t_mapping(t_address,t_array(t_struct(Message)71_storage)dyn_storage)"
					},
					"t_mapping(t_address,t_mapping(t_address,t_struct(Friend)32_storage))": {
						"encoding": "mapping",
						"key": "t_address",
						"label": "mapping(address => mapping(address => struct DataContract.Friend))",
						"numberOfBytes": "32",
						"value": "t_mapping(t_address,t_struct(Friend)32_storage)"
					},
					"t_mapping(t_address,t_struct(Friend)32_storage)": {
						"encoding": "mapping",
						"key": "t_address",
						"label": "mapping(address => struct DataContract.Friend)",
						"numberOfBytes": "32",
						"value": "t_struct(Friend)32_storage"
					},
					"t_mapping(t_address,t_struct(User)18_storage)": {
						"encoding": "mapping",
						"key": "t_address",
						"label": "mapping(address => struct DataContract.User)",
						"numberOfBytes": "32",
						"value": "t_struct(User)18_storage"
					},
					"t_string_storage": {
						"encoding": "bytes",
						"label": "string",
						"numberOfBytes": "32"
					},
					"t_struct(Article)58_storage": {
						"encoding": "inplace",
						"label": "struct DataContract.Article",
						"members": [
							{
								"astId": 51,
								"contract": "interface/InterfaceContract.sol:InterfaceContract",
								"label": "title",
								"offset": 0,
								"slot": "0",
								"type": "t_string_storage"
							},
							{
								"astId": 53,
								"contract": "interface/InterfaceContract.sol:InterfaceContract",
								"label": "article",
								"offset": 0,
								"slot": "1",
								"type": "t_string_storage"
							},
							{
								"astId": 55,
								"contract": "interface/InterfaceContract.sol:InterfaceContract",
								"label": "timestamp",
								"offset": 0,
								"slot": "2",
								"type": "t_uint256"
							},
							{
								"astId": 57,
								"contract": "interface/InterfaceContract.sol:InterfaceContract",
								"label": "isDisplay",
								"offset": 0,
								"slot": "3",
								"type": "t_bool"
							}
						],
						"numberOfBytes": "128"
					},
					"t_struct(CentralizedMessage)100_storage": {
						"encoding": "inplace",
						"label": "struct DataContract.CentralizedMessage",
						"members": [
							{
								"astId": 97,
								"contract": "interface/InterfaceContract.sol:InterfaceContract",
								"label": "MessageHash",
								"offset": 0,
								"slot": "0",
								"type": "t_bytes32"
							},
							{
								"astId": 99,
								"contract": "interface/InterfaceContract.sol:InterfaceContract",
								"label": "timestamp",
								"offset": 0,
								"slot": "1",
								"type": "t_uint256"
							}
						],
						"numberOfBytes": "64"
					},
					"t_struct(CentralizedTweets)89_storage": {
						"encoding": "inplace",
						"label": "struct DataContract.CentralizedTweets",
						"members": [
							{
								"astId": 86,
								"contract": "interface/InterfaceContract.sol:InterfaceContract",
								"label": "tweetHash",
								"offset": 0,
								"slot": "0",
								"type": "t_bytes32"
							},
							{
								"astId": 88,
								"contract": "interface/InterfaceContract.sol:InterfaceContract",
								"label": "timestamp",
								"offset": 0,
								"slot": "1",
								"type": "t_uint256"
							}
						],
						"numberOfBytes": "64"
					},
					"t_struct(Friend)32_storage": {
						"encoding": "inplace",
						"label": "struct DataContract.Friend",
						"members": [
							{
								"astId": 25,
								"contract": "interface/InterfaceContract.sol:InterfaceContract",
								"label": "exists",
								"offset": 0,
								"slot": "0",
								"type": "t_bool"
							},
							{
								"astId": 27,
								"contract": "interface/InterfaceContract.sol:InterfaceContract",
								"label": "addedAt",
								"offset": 0,
								"slot": "1",
								"type": "t_uint256"
							},
							{
								"astId": 29,
								"contract": "interface/InterfaceContract.sol:InterfaceContract",
								"label": "message",
								"offset": 0,
								"slot": "2",
								"type": "t_string_storage"
							},
							{
								"astId": 31,
								"contract": "interface/InterfaceContract.sol:InterfaceContract",
								"label": "deleted",
								"offset": 0,
								"slot": "3",
								"type": "t_bool"
							}
						],
						"numberOfBytes": "128"
					},
					"t_struct(Message)71_storage": {
						"encoding": "inplace",
						"label": "struct DataContract.Message",
						"members": [
							{
								"astId": 66,
								"contract": "interface/InterfaceContract.sol:InterfaceContract",
								"label": "sender",
								"offset": 0,
								"slot": "0",
								"type": "t_address"
							},
							{
								"astId": 68,
								"contract": "interface/InterfaceContract.sol:InterfaceContract",
								"label": "content",
								"offset": 0,
								"slot": "1",
								"type": "t_string_storage"
							},
							{
								"astId": 70,
								"contract": "interface/InterfaceContract.sol:InterfaceContract",
								"label": "timestamp",
								"offset": 0,
								"slot": "2",
								"type": "t_uint256"
							}
						],
						"numberOfBytes": "96"
					},
					"t_struct(User)18_storage": {
						"encoding": "inplace",
						"label": "struct DataContract.User",
						"members": [
							{
								"astId": 7,
								"contract": "interface/InterfaceContract.sol:InterfaceContract",
								"label": "name",
								"offset": 0,
								"slot": "0",
								"type": "t_string_storage"
							},
							{
								"astId": 9,
								"contract": "interface/InterfaceContract.sol:InterfaceContract",
								"label": "email",
								"offset": 0,
								"slot": "1",
								"type": "t_string_storage"
							},
							{
								"astId": 11,
								"contract": "interface/InterfaceContract.sol:InterfaceContract",
								"label": "age",
								"offset": 0,
								"slot": "2",
								"type": "t_uint256"
							},
							{
								"astId": 13,
								"contract": "interface/InterfaceContract.sol:InterfaceContract",
								"label": "wallet",
								"offset": 0,
								"slot": "3",
								"type": "t_address"
							},
							{
								"astId": 15,
								"contract": "interface/InterfaceContract.sol:InterfaceContract",
								"label": "isVerified",
								"offset": 20,
								"slot": "3",
								"type": "t_bool"
							},
							{
								"astId": 17,
								"contract": "interface/InterfaceContract.sol:InterfaceContract",
								"label": "isDisabled",
								"offset": 21,
								"slot": "3",
								"type": "t_bool"
							}
						],
						"numberOfBytes": "128"
					},
					"t_uint256": {
						"encoding": "inplace",
						"label": "uint256",
						"numberOfBytes": "32"
					}
				}
			},
			"userdoc": {
				"kind": "user",
				"methods": {},
				"version": 1
			}
		}
	}
}